:020000040800F2
:108000000000012031AE000829AE0008818B000875
:1080100025AE000899870008B1B1000800000000F3
:1080200000000000000000000000000039AE000861
:10803000798B0008000000002DAE00083DAE00085E
:108040007D8B00087D8B00087D8B00087D8B0008F0
:108050007D8B00087D8B00087D8B00087D8B0008E0
:108060007D8B00087D8B00087D8B00089D870008B4
:108070007D8B00087D8B00087D8B00087D8B0008C0
:108080007D8B00087D8B00087D8B00087D8B0008B0
:108090007D8B00087D8B00087D8B00087D8B0008A0
:1080A0007D8B000879080010451B00107D8B0008AF
:1080B0007D8B00087D8B00087D8B00087D8B000880
:1080C0007D8B00087D8B00087D8B00087D8B000870
:1080D0007D8B00087D8B00087D8B00087D8B000860
:1080E0007D8B00087D8B00087D8B00087D8B000850
:1080F0007D8B00087D8B00087D8B00087D8B000840
:108100007D8B00087D8B00087D8B00087D8B00082F
:108110007D8B00087D8B00087D8B00087D8B00081F
:108120007D8B00087D8B00087D8B00087D8B00080F
:108130007D8B00087D8B00087D8B000801000010FE
:108140007D8B00087D8B00087D8B00087D8B0008EF
:108150007D8B00087D8B00087D8B00087D8B0008DF
:108160007D8B00087D8B00087D8B00087D8B0008CF
:108170007D8B00087D8B00087D8B00087D8B0008BF
:108180007D8B00087D8B00087D8B00087D8B0008AF
:108190007D8B00087D8B00087D8B00087D8B00089F
:1081A000DFF80CD000F0CCF900480047A1D100085E
:1081B0000000012030B504460020034600E05B1CAF
:1081C000934203D2E05CCD5C401BF8D030BD2DE97A
:1081D000F05F0546002092469B468846064681464B
:1081E00040241BE0284641464746224600F0C9F994
:1081F00053465A46C01A914110D31146184622469A
:1082000000F0B0F92D1A67EB01084F462246012015
:10821000002100F0A7F917EB00094E41201EA4F140
:108220000104DFDC484631462A464346BDE8F09F5C
:108230002DE9FE4F804681EA0300C00F0C460090F6
:1082400021F0004123F00045B8EB0200A94105D21E
:108250004046214690461C460B46024623F000400D
:10826000104347D0270DC7F30A00C3F30A51029009
:10827000401A019040286BDAC3F3130040F4801BCE
:108280000098924620B10023D2EB030A63EB0B0B5C
:1082900001985946C0F14002504600F063F9064685
:1082A0000D4650465946019A00F07BF910EB080044
:1082B0006141002487EA115284EAE7731A4340D0EF
:1082C000009A62B3019A012A4FEA075215DC001B9B
:1082D00061EB02014FF0004202EA0752CDE9004291
:1082E000001C41F5801132462B4600F07BF903B0AB
:1082F000BDE8F08F40462146F9E7001B61EB020123
:10830000001C41F5801300185B412018A2F50017EE
:1083100047EB030140EAD570B6196D4111E06D08D5
:108320004FEA360645EAC0754FEA0752001B61EB7B
:108330000201001C41F5801149084FEA3000001984
:10834000514132462B4603B0BDE8F04F00F03BB937
:108350000098012240000023D0EB020263EBE0739F
:10836000009821464FEAE074B8EB000061EB04018D
:10837000E9E783F000435BE781F0004158E72DE92E
:10838000FE4F81EA030404F0004421F00041009410
:108390004FF0000B23F0004350EA01045ED052EA94
:1083A00003045BD0C3F30A54C1F30A552C44A4F26E
:1083B000F3340194A0FB0254C1F3130141F4801182
:1083C000C3F3130343F4801301FB024400FB034E89
:1083D000840A970A44EA815447EA8357A4FB076852
:1083E00002958D0A05FB07854FEA932C04FB0C547C
:1083F0002705029D4FEA065847EA1637B5EB0805F0
:108400006EEB070C870E920E47EA811742EA831241
:10841000A7FB0201B6EB0B0164EB00042B0D43EA52
:108420000C335E1844EB1C50DA465146E7FB020160
:10843000C5F313044FEA0B3343EA14534FEA0432F3
:10844000019C43EA0603A4F10C040294009CCDE9CC
:1084500000B400F0C7F803B0BDE8F08F002001467B
:10846000F9E72DE9F04D81EA030404F0004B21F017
:10847000004514464FF0000A23F0004150EA05027F
:1084800020D054EA01021DD0C5F30A570246C5F3B5
:108490001303C1F31300C1F30A5640F4801543F4EB
:1084A0008013A7EB0608101BD64608F2FD3873EBC5
:1084B000050002D308F1010801E092185B41B8F110
:1084C000000F03DA00200146BDE8F08D00204FF4D4
:1084D0008011064684460EE0171B73EB050705D393
:1084E000121B63EB050306434CEA010C49084FEAF3
:1084F000300092185B4150EA0107EDD152EA0300C7
:1085000012D082EA040083EA0501084305D0101B5B
:10851000AB4106D20122002306E000224FF00043C7
:1085200002E06FF0010253101AEB06004CEB085109
:1085300010EB0A0041EB0B01BDE8F04D00F043B831
:10854000064C074D06E0E06840F0010394E80700A0
:1085500098471034AC42F6D3FFF726FE48E50008F2
:1085600088E50008202A04DB203A00FA02F1002006
:1085700070479140C2F1200320FA03F31943904061
:108580007047202A04DB203A21FA02F000217047CC
:1085900021FA02F3D040C2F120029140084319466B
:1085A0007047202A06DBCB17203A41FA02F043EA53
:1085B000E07306E041FA02F3D040C2F1200291409C
:1085C00008431946704710B5141E73F1000408DA09
:1085D000401C41F1000192185B411A4301D120F087
:1085E000010010BD2DE9F04D92469B4611B1B1FA44
:1085F00081F202E0B0FA80F220329046FFF7B2FF3B
:1086000004460F4640EA0A0041EA0B0153465A4627
:10861000084313D0114653EA010019D0C8F14002B3
:108620005046FFF7AEFF05460E46504659464246B5
:10863000FFF798FF084305D0012004E020463946A3
:10864000BDE8F08D0020054346EAE0762C43374331
:108650000A986305E40AA0EB08000022FD0A44EA38
:1086600047540A3002D500200146E9E701051019F8
:108670006941DDE9084500196941BDE8F04DA2E70F
:1086800010B5431A934209D28318881803E010F8F2
:10869000011D03F8011D521EF9D210BD40EA01036D
:1086A0009B0703D009E008C9121F08C0042AFAD2A8
:1086B00003E011F8013B00F8013B521EF9D210BD56
:1086C000D2B201E000F8012B491EFBD27047002214
:1086D000F6E710B513460A4604461946FFF7F0FFC1
:1086E000204610BD30B5041E71F1000404DB4FF0CC
:1086F0000044404264EB0101141E73F1000405DBE9
:108700001C464FF00043524263EB0403801A994128
:1087100001D2012030BD002030BD0EB540F2334102
:1087200002910021CDE900110A460B46FFF75AFFDE
:1087300003B000BD70B5C1F30A5201F0004500243A
:10874000C1F3130140F2FF3341F480119A4201DA80
:10875000002070BD40F233439A42A2F2334203DC60
:108760005242FFF70EFF00E090402C43F1D0404210
:1087700070BD00F0004230F000400AD0C10D01F59C
:108780006071C0F3160042EA0151C208400711436C
:108790007047002001467047FEE700002DE9F043D6
:1087A00081B045F20C05C4F2010555F8048C2F6820
:1087B00007EA0806300640F19A808020286044F2DB
:1087C0001010C2F20000016F19B1016FA5F10C0089
:1087D000884744F63004C2F20004A068002840F044
:1087E0008680A06804EBC0004069A26820F0604168
:1087F00004EB8210407FB1F5302F1BD04AF6552292
:10880000914203D020291AD1202115E0A06804EB61
:108810008010007F022805D0A06804EB8010007F44
:10882000012816D1A06804EB8010407F412810D1A8
:1088300002F0C0FC4FF4302105F044F809E044F2A6
:108840009432C2F20002D2F8F822914208BF05F039
:1088500039F8A0680130A060A06800281CBF002083
:10886000A060D4F8009044F20000C4F20100A268B5
:10887000A168814544F21010C2F2000007D045F211
:108880000003C4F20103994540F0FE805430037E9A
:10889000012B15D1042304EBC20204EB81110376F2
:1088A00048F6992314321C31C0F60003C3610161FC
:1088B0004261D9F8080040F08000C9F8080016E0CD
:1088C0004EF29C10C0F6000005F002F84EF2AB002C
:1088D000C0F60000494604F0FBFF4EF245504EF250
:1088E0004751C0F60000C0F6000104F0F1FF700629
:1088F00044BF40202860B00644BF20202860F00616
:1089000044BF1020286030070BD50820286044F2AF
:108910001010C2F20000816D19B1816DA5F10C003B
:10892000884770070BD50420286044F21010C2F26B
:108930000000016E19B1016EA5F10C008847B00767
:1089400044BF0220286041F24000C4F202000168E6
:1089500001F47F01B1F5003F17D95FEA883118D5DE
:1089600017F0010115D00121296044F21011C2F263
:108970000001052281F8542081F85C2081F86C20E8
:1089800081F87C2081F88C2003E0F9071CBF0121CD
:108990002960710544BF4FF480612960B10544BF6F
:1089A0004FF400712960F10544BF4FF480712960D4
:1089B000006800F47F00B0F5403F62D3300544BF4B
:1089C0004FF400602860F0040ED54FF4805028600A
:1089D00044F21010C2F20000D0F8901021B1D0F88B
:1089E0009010A5F10C008847B0040ED54FF400504C
:1089F000286044F21010C2F20000D0F8801021B1BB
:108A0000D0F88010A5F10C008847700344BF4FF4E4
:108A100080202860300344BF4FF400202860F0021B
:108A200044BF4FF480102860B00244BF4FF40010E0
:108A30002860700244BF4FF480002860300244BFB9
:108A40004FF400002860F00144BF4FF080702860B0
:108A5000B00144BF4FF000702860700144BF4FF078
:108A600080602860300144BF4FF000602860F00053
:108A700044BF4FF080502860B00044BF4FF000501A
:108A8000286001B0BDE8F0834EF21C40C0F6000043
:108A900040F2F65102F0A0FBB0B584B0044644F2B7
:108AA0000000C4F2010044F210158442C2F2000535
:108AB00006D045F20000C4F20100844253D154357F
:108AC000A06820F08000A0606869E0B3206C69694C
:108AD0000860606C696948602869A0B345F20003CA
:108AE00028696A6944F48051C4F20103994204F18F
:108AF000480125D140F20013C0F20233009340F246
:108B00000453C0F20673019340F60843C1F21043C8
:108B10005268029342F21803C4F2300302F00F02CB
:108B200003936B4613F802E0D4F800C07246BEF11E
:108B3000080F28BF08225FEA4C3348BF724600E0A6
:108B40000022FFF79DFD206840F480102060002087
:108B5000E86101202876A86C18B104B0BDE8B040E7
:108B6000004704B0B0BD4EF21C40C0F600004FF408
:108B7000186102F031FB000070470000FEE70000C2
:108B8000FEE70000B0B5A0F18042A2F560324FEAE6
:108B9000B222042A78D200297ED00C78142C80F0DE
:108BA000838091F801C0BCF1040F80F08580032A16
:108BB00088BFB0BD132C98BFBCF1030F00D9B0BD66
:108BC000026852075CBF02685FEA027214D54EF277
:108BD0008110C0F6000004F07BFE3BA005F0CAF84F
:108BE0004EF245504EF24751C0F60000C0F600016B
:108BF000BDE8B04004F06CBE4AF6AB224FEAD40E9A
:108C0000CAF6AA22AEFB02235A0802EB4202C2EBCA
:108C1000D40200EB82021C23D2F830E003EA840382
:108C200003249C400CFA03F52EEA040E2C404EEA75
:108C300004051563D2F830E08D78033301249C409D
:108C400005FA03F32EEA040E234043EA0E031363EE
:108C50000C238A8803EA8C031844C0F8A02041F250
:108C60004002C4F202021268C98802F47F02B2F51F
:108C7000003F04D96FF3DF31C0F8C010B0BD6FF30F
:108C80009F31C0F8C010B0BD4EF26630C0F6000093
:108C900040F2B72102F0A0FA4EF26630C0F60000B2
:108CA0004FF42E7102F098FA4EF26630C0F60000D2
:108CB00040F2B92102F090FA4EF26630C0F60000A0
:108CC00040F2BA2102F088FA4144432043616C69C2
:108CD00062726174696F6E2063616E277420436FE6
:108CE0006E666967207768696C65206974277320F0
:108CF00052756E6E696E67210000000070B5A0F1BC
:108D00008042A2F560324FEAB222042A7ED20029C4
:108D100000F084800B78142B80F08880032A88BFB1
:108D200070BD026852075CBF02685FEA027214D528
:108D30004EF28110C0F6000004F0CAFD3FA005F01D
:108D400019F84EF245504EF24751C0F60000C0F6F9
:108D50000001BDE8704004F0BBBD4CF6CD42CCF63E
:108D6000CC42A3FB022C4FEA1C1202EB8202D1F888
:108D700008E000F5C874A3EB820C04EB0C1541F27B
:108D80004002C5F804E0C4F20202D2F800E08A8989
:108D90000EF47F0E16466FF35F364FEA0C13BEF5E6
:108DA000003F88BF1646AE60E2584E7822F00402BB
:108DB00006F03F0642EA86028D7891F803E0E25021
:108DC000E25805F01F0522F0080242EAC502E2500F
:108DD000012202FA0CFCD0F88421BEF1000F0CBF76
:108DE00022EA0C0242EA0C02C0F884210979002927
:108DF000D0F88C110CBF21EA0C0141EA0C01C0F83B
:108E00008C11E05840F00100E05070BD4EF2663029
:108E1000C0F6000040F2922102F0DEF94EF2663018
:108E2000C0F6000040F2932102F0D6F94EF266300F
:108E3000C0F600004FF4257102F0CEF94144432002
:108E4000444D412063616E277420436F6E666967ED
:108E5000207768696C6520697427732052756E6E7F
:108E6000696E6721000000002DE9F04784B00446D8
:108E7000A0F18040A0F560304FEAB020042880F0D7
:108E80003E810D46002900F04281206840075CBF0A
:108E900020685FEA007015D54EF28110C0F6000020
:108EA00004F016FD9EA004F065FF4EF245504EF210
:108EB0004751C0F60000C0F6000104B0BDE8F0471D
:108EC00004F006BDE8684DF6985AC0F6000A00287E
:108ED00018BF824600200390019048F6000044F23B
:108EE0000008C4F20300C4F2020884424FF00F00ED
:108EF00002901ED048F20040C4F20300844226D003
:108F000048F20000C4F2030084424ED101AF4FF09A
:108F1000010940463946CDF8049001F053F8042089
:108F2000019008F58050394601F04CF8082601966A
:108F300021E0012008F58057019001A9384601F091
:108F400041F802204FF004092026019014E001AFFF
:108F50004FF0020940463946CDF8049001F032F84E
:108F600046F200001026C4F202003946019601F0D4
:108F700029F880200190474601A9384601F022F8DF
:108F80004C2048F2E471C4F20200C3F6AC714163B4
:108F9000016931430161016841EA09010160016A27
:108FA00041F00801016201214163A06840F008001E
:108FB000A060A06840F00200A060A06840F001003E
:108FC000A060D4F80003298861F31120C4F80003DD
:108FD000D4F80003A978EA7861F30300C4F8000329
:108FE000606862F3CF306060A0689AF8001061F3A7
:108FF0000510A0604DF24000CFF6FF7058F8000059
:1090000000F47F00B0F5003F10D944F26430C2F2A2
:1090100000000068C00709D09AF8011060680029B4
:109020000CBF20F4804040F480406060206840071E
:109030005CBF20685FEA007007D54EF28110C0F671
:10904000000004F045FC3FA02DE761686A792879AB
:1090500062F30B21AB79EF796160616807F001027F
:1090600063F306116160616821F0800141EAC21179
:109070006160297A6268002942F0010308BF22F08A
:1090800001036360697A6268002942F0020308BF45
:1090900022F0020363606168002841F4805208BF37
:1090A00021F480526260206840F00100206044F6A4
:1090B000F000C2F2000001682269D20519D40268EA
:1090C000521A642A18D82269D20512D40268521A98
:1090D000642A11D82269D2050BD40268521A642A74
:1090E0000AD82269D20504D40268521A642AE3D944
:1090F00002E04FF48070206104B0BDE8F0874EF2CA
:109100006630C0F6000040F2291102F065F84EF218
:109110006630C0F600004FF4957102F05DF800BFB4
:109120004144432063616E277420496E697420773F
:1091300068696C6520697427732052756E6E696E5C
:1091400067210000414443204F76657273616D7062
:109150006C652063616E277420436F6E66696720BB
:109160007768696C6520697427732052756E6E6923
:109170006E6721002DE9F041A0F18042A2F5603236
:109180004FEAB224042C80F08E80002900F09380F6
:109190004A78142A80F097800B78102B80F09B80FF
:1091A000032C88BFBDE8F081132A98BF0F2B01D98B
:1091B000BDE8F0810468640758D44CF6CD4ECCF677
:1091C000CC4EA3FB0E4C4AF6AB254FEA9C06D408C6
:1091D000CAF6AA2506EB8606A4FB0558A2FB0E5E7E
:1091E0009B1BCCF3810503EB430300EB85055B0080
:1091F0002F6CDBB21F269E4002FA03F3B7433340C5
:109200003B432B648369CF784FF0010C07F00107D3
:109210000CFA02F69740B34337403B438D78097907
:1092200083614FEA580303EB4303C3EBD20300EB24
:1092300083031C261F6A06EA8206072401F0070141
:10924000B440B140A7432140394319624FEA1E118F
:1092500001EB8101A2EB81010CFA01F1DDB1D0F843
:1092600004211143C0F80411BDE8F0814EF28110D1
:10927000C0F6000004F02CFB1BA004F07BFD4EF2B6
:1092800045504EF24751C0F60000C0F60001BDE85F
:10929000F04104F01DBBD0F8042122EA0101C0F81E
:1092A0000411BDE8F0814EF26630C0F6000040F2D5
:1092B000EF1101F091FF4EF26630C0F600004FF45E
:1092C000F87101F089FF4EF26630C0F6000040F2FE
:1092D000F11101F081FF4EF26630C0F600004FF44C
:1092E000F97101F079FF00BF414443205265677571
:1092F0006C6172204368616E6E656C2063616E27DD
:109300007420436F6E666967207768696C652069B1
:109310007427732052756E6E696E6721000000001D
:1093200010B5A0F18042A2F560324FEAB222042AC1
:1093300043D2002949D00268520729D442684B78A9
:1093400091F800C063F3D75291F802E0CC78426004
:109350004268BCF1000F6EF353424260426842F42F
:10936000803308BF22F480334360026D64F30B2224
:109370000265026D0B7922F0C00203F0030342EA9A
:1093800083120265026D497961F30402026510BD22
:109390004EF28110C0F6000004F09AFA0FA004F01B
:1093A000E9FC4EF245504EF24751C0F60000C0F6BF
:1093B0000001BDE8104004F08BBA4EF26630C0F6F2
:1093C000000040F2CD1101F007FF4EF26630C0F60A
:1093D00000004FF4E77101F0FFFE00BF414443205D
:1093E000526567756C617220436F6D6D6F6E20639F
:1093F000616E277420436F6E666967207768696CB9
:109400006520697427732052756E6E696E6721003E
:109410002DE9F04184B0002800F0B48044F2101E21
:10942000C2F2000E9EF8542045F20008012AC4F250
:10943000010847D1D8F80020920500F1A08003224E
:1094400000238EF85420CEF85830D8F80020002998
:1094500022F48052C8F800200268C8F888204268C8
:10946000C8F88C2000F0828040F20012C0F2023274
:10947000009240F20452C0F20672019240F6084295
:10948000C1F210424068029242F21802C4F2300265
:1094900000F00F0003926A46165CD8F800203046B0
:1094A000082E28BF0820520348BF30460330B3EBD4
:1094B000900F5BD08008421E032A00F0030C18D2E4
:1094C000002333E04EF29C10C0F6000004F000FAD6
:1094D00030A0414604F0FCF94EF245504EF247519F
:1094E000C0F60000C0F6000104B0BDE8F04104F091
:1094F000EFB9A0EB0C000023302208F1900500BF6B
:109500000E6802EA8307EE514E683C1D2E518C68AE
:1095100007F10806AC5101F11006C96807F10C0407
:109520000433295198423146EAD13146BCF1000F4B
:109530001CD0086803F00F0208EB8202BCF1010F97
:10954000C2F8900012D0581C4A6800F00F0008EBD7
:109550008000BCF1020FC0F8902007D0981C8968E9
:1095600000F00F0008EB8000C0F89010D8F8000061
:1095700040F40070C8F8000001208EF8540004B0D8
:10958000BDE8F0814EF21C40C0F6000040F2D73139
:1095900001F022FE546869732043414E5B30782508
:1095A0003038785D205054422054782069736E27FB
:1095B0007420696E2052454144592073746174656A
:1095C0002C2063616E277420737461727420547848
:1095D000210A000010B5A0F18042A2F568324FEADE
:1095E0003222092A7ED2002900F083805C2248F2D0
:1095F000E473C4F20202C3F6AC735362136843F41B
:1096000080731360136943F02003136101235362D5
:10961000036841F2400223F00103C4F20202036036
:10962000136803F47F03B3F5003F14D944F26433A5
:10963000C2F200031B685B0712D54B7A1268002B3D
:1096400002F47F0246D0B2F5003F09D9026842F425
:109650000062026004E002688B7963F3CB2202604F
:109660000268CB7922F0C00203F0030342EA8312BE
:10967000026002680B7A63F3C302026002680B792E
:1096800091F800E063F3051291F801C0CC78026014
:1096900002684B79BEF1000F63F30A220260446056
:1096A000826842F0010308BF22F0010383608268F0
:1096B000BCF1000F42F0020308BF22F002038360F6
:1096C00089780268002942F4805308BF22F480534D
:1096D000036010BDB2F5003FC2D9026822F40062F7
:1096E0000260BDE74EF29340C0F60000432101F056
:1096F00073FD4EF29340C0F60000442101F06CFD72
:1097000080B506283AD244F2B822C0EBC001C2F2BA
:10971000000202EB810111F8042FD2B142F20002E3
:10972000C4F2020242EA4010026922F00102026120
:1097300001220A70C16821F48061C160C16821F40E
:109740008071C160C16821F40071C160072141616D
:1097500080BD4EF27510C0F6000004F0B9F80BA001
:1097600004F008FB4EF245504EF24751C0F600009F
:10977000C0F60001BDE8804004F0AAB84EF22B30DC
:10978000C0F6000040F23A2101F026FD4368616E08
:109790006E656C20737461746520697320696E2036
:1097A0005265736574210000B0B541F25C04C4F2E7
:1097B000020421684FF6FF72080C8002B2EB114FD1
:1097C00008BF4FF48020B0F5003F08D0B0F5802FDF
:1097D00040F0B68043F20000C4F20200006C00F0DA
:1097E00017FAB8B14EF28D10C0F6000004F070F810
:1097F0004EF26120C0F6000004F0BCFA4EF2455073
:109800004EF24751C0F60000C0F6000104F060F8C7
:109810000120B0BD21684FF6FF72080C8002B2EB48
:10982000114F08BF4FF48020B0F5003F08D0B0F5CD
:10983000802F40F08D8043F20000C4F20200006CE3
:1098400000F0E6F9C8B14EF28D10C0F6000004F049
:109850003FF84EF26120C0F6000004F08BFA4EF2A1
:1098600045504EF24751C0F60000C0F6000104F02A
:109870002FF8002585F00100B0BD54F81C0C43F210
:10988000000400F47F00B0F5003FC4F202040ED8DB
:10989000206C00F07060B0F1206F08D1206C00F0F7
:1098A000704000F1C040B0FA80F0400900E00020B4
:1098B000216A21F4401121622168B1F1FF3F0CDCE3
:1098C000616A43F6AC7262F30F016162616A48F249
:1098D000E47262F30F0161622168216A00286FF36C
:1098E00012010CBF41F01F0041F03F0020622068D0
:1098F000012540F002002060012000F0FBF9A0B13A
:109900004EF28D10C0F6000003F0E2FF14A01F21FC
:1099100003F0DEFF4EF245504EF24751C0F6000014
:10992000C0F6000103F0D4FF00252068002804D40D
:10993000206840F000402060206885F00100B0BD44
:109940004EF2A130C0F600004FF47C7101F044FCEF
:109950004EF2A130C0F6000040F2B33101F03CFC01
:10996000536563746F72204572617365206572720E
:109970006F7220617420536563746F72206E756D11
:109980006265722025752121210A00002DE9F04130
:1099900041F24004C4F20204E1694FF6FF72080C80
:1099A0008002B2EB114F08BF4FF48020B0F5F83FB2
:1099B00040F2B0804FF2FF01C0F20101884240F254
:1099C000B18000F025F9C0B14EF28D10C0F6000054
:1099D00003F07EFF4EF26120C0F6000004F0CAF9E9
:1099E0004EF245504EF24751C0F60000C0F600015D
:1099F00003F06EFF0020BDE8F081206843F200060E
:109A000000F47F00B0F5003FC4F202060ED8306CBF
:109A100000F07060B0F1206F08D1306C00F0704041
:109A200000F1C040B0FA80F0400900E00020316849
:109A3000B1F1FF3F0CDC716A43F6AC7262F30F01C7
:109A40007162716A48F2E47262F30F017162316807
:109A500040F2000844F2B817CFF6F8784FF000044F
:109A6000C2F20007E0B100BF3859391930614868C7
:109A700004F5F8357061306A00EA0800284380F484
:109A800000303062306840F001003060002000F0AB
:109A900031F900BB0834B4F5807FE5D118E000BF90
:109AA000385939193061486804F5F8357061306A01
:109AB00000EA080028433062306840F0010030605E
:109AC000002000F017F930B90834B4F5807FE7D1F1
:109AD0004FF4807413E04EF28D10C0F6000003F0D6
:109AE000F7FE14A0294603F0F3FE4EF245504EF265
:109AF0004751C0F60000C0F6000103F0E9FE3068EF
:109B0000002804D4306840F00040306030682046BF
:109B1000BDE8F0814EF2A130C0F600004FF45B7159
:109B200001F05AFB4EF2A130C0F6000040F26D3158
:109B300001F052FB50726F6772616D206572726F37
:109B400072206174206164647265737320307825BB
:109B50003038782121210A00B0B541F25C00C4F20E
:109B6000020001684FF6FF72080C8002B2EB114F41
:109B700008BF4FF48020B0F5F83F38D94FF20011FC
:109B8000C0F2010188423AD34FF2000E44F2B812FB
:109B90004FF2FF0C0020C0F6010EC2F20002C0F628
:109BA000010C00BF10F80E10135C994218BFB0BD35
:109BB00000EB0E03111813F8014F4D78AC4210D191
:109BC00013F8014F8D78AC420DD113F8014FC978CD
:109BD0008C420AD1634500F10400E3D14FF4807058
:109BE000B0BD0130B0BD0230B0BD0330B0BD4EF2EB
:109BF000A130C0F6000040F25A4101F0EDFA4EF2F9
:109C0000A130C0F6000040F25B4101F0E5FA00002F
:109C100080B581B044F6F00CC2F2000C0020DCF8F4
:109C200000E08DF8030041F24000C4F20200006839
:109C300000F47F00B0F5003F43F20800C4F20200D8
:109C400039D900BF50F8083C50F8081CDB4323EA20
:109C5000510150F8043C50F8042C994321EA520178
:109C60000268036821EAD201DA4301EAD2718DF871
:109C70000310DCF80010A1EB0E01B1F5967F33D88C
:109C80009DF80310C907DDD00168490703D10168B9
:109C900011F4E06F2BD0072101604FF4E061016007
:109CA000012001B080BD00BFDCF80010A1EB0E0167
:109CB000B1F5967F18D850F8081CC907F4D150F8B0
:109CC000081C8907F0D450F8041CC907ECD150F8DF
:109CD000041C89075CBF01685FEA0171E4D4016874
:109CE000490704D00721DAE7032001B080BD002036
:109CF00001B080BD10B541F2400C44F6F00EC4F244
:109D0000020CC2F2000E43F20801DEF80020DCF87B
:109D10000030C4F202010C6803F47F03B3F5003F86
:109D200004F0070305D94BB1072008604FF4E06049
:109D300001E02BB307200860012010BD50B10138AD
:109D400072E000BF51F8080CC00700F09780086867
:109D50004007E9D1086810F4E06FE5D1DEF80000B3
:109D6000801AB0F5967F00F28B80DCF8000000F4DA
:109D70007F00B0F5003FE5D908680028E2D5E6E7A6
:109D800050B1013821E000BF51F8080CC00700F0C5
:109D9000758008684007CDD1DEF80000801AB0F564
:109DA000967F00F26D80DCF8000000F47F00B0F5D3
:109DB000003FE9D908680028E6D5EAE751F8043CF5
:109DC0009B075BD50B685B07B4D1DEF800309B1AAC
:109DD000B3F5967F54D8DCF8003003F47F03B3F575
:109DE000003F02D90B68002BECD4042846D8DFE8EA
:109DF00000F0080D03040400E0E70B681B07E1D442
:109E00003CE051F8083C9B07DCD437E051F8043CB7
:109E1000DB07D7D132E051F8043C9B072ED500BFB9
:109E20000B685B077FF480AF0B6813F4E06F7FF47F
:109E30007BAFDEF800309B1AB3F5967F20D8DCF8B4
:109E4000003003F47F03B3F5003F02D90B68002B09
:109E5000E6D4042812D8DFE800F0080D030404005B
:109E6000D9E70B681B07DBD408E051F8083C9B07D7
:109E7000D6D403E051F8043CDB07D1D1002010BD5B
:109E8000032010BD5FEA004C00F09480C10745F24A
:109E90002001C4F202012AD182072FD4420734D410
:109EA000020739D4C2063ED4820643D4420648D4BF
:109EB00002064DD4C20552D4820557D442055CD463
:109EC000020561D4C20466D482046BD4400404D574
:109ED00048680E2262F31B604860BCF1000F58BF57
:109EE000704748680E2262F31F70486070470B6825
:109EF0000E2262F303030B608207CFD50A680E239C
:109F000063F307120A604207CAD50A680E2363F397
:109F10000B220A600207C5D50A680E2363F30F32CD
:109F20000A60C206C0D50A680E2363F313420A60B2
:109F30008206BBD50A680E2363F317520A604206F5
:109F4000B6D50A680E2363F31B620A600206B1D518
:109F50000A680E2363F31F720A60C205ACD54A6813
:109F60000E2363F303024A608205A7D54A680E23D5
:109F700063F307124A604205A2D54A680E2363F3D1
:109F80000B224A6002059DD54A680E2363F30F3207
:109F90004A60C20498D54A680E2363F313424A60AC
:109FA000820493D54A680E2363F317524A60400433
:109FB00093D58DE74EF25740C0F60000E12101F045
:109FC0000BF900002DE9F04F81B00446A0F180406C
:109FD000A0F510304FEA3030062880F0D3808A4652
:109FE000002900F0D680DAF800300021B1EB134FE1
:109FF00040F0C18099B2002900F0BD80052800F230
:10A00000A08004F1240C04F1200B4FF000094FF064
:10A0100001084FF0000E002608FA06F10B405BD055
:10A020009AF80410481E0F2860D26046082E38BFE8
:10A030005846026809F01C070F25BD40B940AA43E5
:10A040002940114301609AF808000028A06B14BF52
:10A0500040EA030120EA0301A1639AF807000028FF
:10A06000A06C14BF18439843A064206B9AF8052095
:10A07000032102F0030201FA0EF102FA0EF2884304
:10A0800011400843206341F24000C4F2020000681E
:10A0900000F47F00B0F5003F1ED944F26430C2F2F4
:10A0A00000000068000617D59AF80930DAF80010A9
:10A0B000D807206C0CBF20EA010840EA0108C4F868
:10A0C00040809807206C4FF001084FEA014154BFCF
:10A0D00088430843206400BF0F2E32D0DAF80030E6
:10A0E00001360EF1020E09F1040995E761BB6046E5
:10A0F000082E38BF5846D0F8008009F01C010F2206
:10A1000002FA01F128EA010101609AF806104FF005
:10A1100001080029A9D0D4F81480032001F003011C
:10A1200000FA0EF001FA0EF128EA0008084040EAB1
:10A1300008006061A36120694FF0010818432061A5
:10A1400093E701B0BDE8F08F15A003F0C1FB9AF8CA
:10A15000043017A02146324603F0BAFB4EF24550B8
:10A160004EF24751C0F60000C0F6000101B0BDE854
:10A17000F04F03F0ADBB4EF25740C0F6000048214F
:10A1800001F02AF84EF25740C0F60000462101F0D7
:10A1900023F84EF25740C0F60000472101F01CF8AA
:10A1A0005B45404750494F204C4C5D20000000006B
:10A1B0004750494F2D5B3078253038785D20506905
:10A1C0006E2D5B25645D20616C7465726E617465D3
:10A1D0002066756E6374696F6E205B25645D206315
:10A1E0006F6E666967204572726F722121210A00C5
:10A1F00070B5002900F0D5804BF2001CC4F2030CAE
:10A200000A690CEB00239A634A69DA63D3F870E0B9
:10A210000A7E62F3000EC3F870E0D3F870E04A7E65
:10A2200062F3C30EC3F870E0D3F870E08A7E62F385
:10A23000420EC3F870E0D3F870E00C7B4EF04002A1
:10A240004D7B002C08BF2EF040021A671A6F002DBC
:10A2500042F0200408BF22F020041C670A6A4BF673
:10A26000047E1A644A6AC4F2030E5A641A6F91F8A3
:10A27000285065F310421A671A6F91F8295065F358
:10A28000D3421A671A6F91F82A5065F352421A673F
:10A29000CA7E1D6F002A45F4800408BF25F480049F
:10A2A0001C670A7F1C6F002A44F4001508BF24F4C1
:10A2B00000151D671A6FCC7A22F0605204F0070473
:10A2C00042EAC4621A674C7A1D6F002C45F0804642
:10A2D00008BF25F080461E6703F170020B7A012447
:10A2E000002B04FA00F3DEF800400CBF24EA03035D
:10A2F0002343CEF800308B7A1668002B46F00075A9
:10A3000008BF26F0007515600CEB0020426F0E7838
:10A3100042F001034D788C7891F803C0002E08BFFD
:10A3200022F001034367426F002D42F0020308BF91
:10A3300022F002034367426F002C42F0040308BF7F
:10A3400022F004034367426FBCF1000F42F00803A0
:10A3500008BF22F0080343670A79436F002A43F0DD
:10A36000100608BF23F0100646674A79436F002A9B
:10A3700043F0200608BF23F0200646678A79436F22
:10A38000002A43F0400608BF23F040064667C9791B
:10A39000426F002942F0800308BF22F08003436728
:10A3A00070BD4EF2DF30C0F600004FF4CB7100F00C
:10A3B00013FF0000B0B5002900F0338109286FD1E8
:10A3C0004BF20000C4F20300C2688B68520A62F3C9
:10A3D0005F23C3604FF6FF73C268C8F2000303F146
:10A3E000FC4302EA030CCB680022C0F2FF121A40C1
:10A3F0006244C26002680B7C63F30202026002687E
:10A400004B7C63F3C30202604A790B788261CA888D
:10A410004261026822F0404242EA8372026091F88F
:10A4200003C00368BCF1000F43F0100208BF23F023
:10A430001002026091F802C00368BCF1000F43F4FF
:10A44000806208BF23F48062026091F801C0036853
:10A45000BCF1000F43F4006208BF23F40062026005
:10A4600091F804C0D0F8903FBCF1000F43F4803263
:10A4700008BF23F48032C0F8902F0268CB7C22F012
:10A48000C00203F0030342EA831202608A7C01687F
:10A49000002A14BF41F0200121F020010160B0BD6D
:10A4A000082880F0C5804BF2000CC4F2030C0CEBC2
:10A4B0000023D3F80CE18C684FEADE3262F3DF341C
:10A4C000C3F80C41D3F80C21CC8964F31E42C3F8C5
:10A4D0000C21D3F800210C7C64F30202C3F80021A4
:10A4E000D3F800214C7C64F3C302C3F800214A79FD
:10A4F00091F803E0C3F81821CA88BEF1000FC3F831
:10A500001421D3F8002142F0100408BF22F01004F7
:10A51000C3F8004191F802E0D3F80041BEF1000F0A
:10A5200044F4806208BF24F48062C3F8002191F8EB
:10A5300001E0D3F80041BEF1000F44F4006508BF0C
:10A5400024F40065C3F8005103F580720B794FF4D1
:10A550000035002B05FA00F3DCF8905F0CBF25EA0C
:10A5600003032B43CCF8903FD1E906530CEB0020BA
:10A57000C0F85451C0F85831106891F8203063F396
:10A58000492010601068CB7C20F0C00003F003036A
:10A5900040EA83108D7C10601068002D40F020038D
:10A5A00008BF20F020031360106891F8253020F0D8
:10A5B000704040EA03701060106891F8263063F331
:10A5C00011401060106891F8273063F393401060D9
:10A5D00091F821001368002843F4807508BF23F424
:10A5E0008075156091F822001368002843F48015E7
:10A5F00008BF23F48015156091F823001368002824
:10A6000043F4001508BF23F40015156091F82410D9
:10A610001068002914BF40F4800020F4800010600E
:10A62000B0BD4EF2DF30C0F60000F42100F0D4FDE2
:10A630004EF2DF30C0F6000040F6B80100F0CCFD6D
:10A64000B0B5002900F0CD8009282BD14A884BF203
:10A650000000C4F20300C2618A880262CA884262B2
:10A660000A898262026891F800C042F0007391F892
:10A670000AE0CC7ABCF1000F08BF22F0007303603F
:10A680000168BEF1000F41F0006208BF21F00062D6
:10A6900002600168002C14BF41F0806121F08061EC
:10A6A0000160B0BD082880F0A4804BF200034A8806
:10A6B000C4F2030303EB0020C0F81C218A88C0F811
:10A6C0002021CA88C0F824210A89C0F82821D0F89E
:10A6D00000210C7842F0007391F80AC091F80BE069
:10A6E0000D7B002C08BF22F00073C0F80031D0F8B9
:10A6F0000021BCF1000F42F0006308BF22F00063AC
:10A70000C0F80031D0F80021BEF1000F42F08063A4
:10A7100008BF22F08063C0F80031D0F80421002D7A
:10A7200042F4803308BF22F48033C0F804314A7BFE
:10A73000D0F80431002A43F4003508BF23F4003573
:10A74000C0F804518A7BD0F80431002A43F48025F4
:10A7500008BF23F48025C0F80451CA7BD0F8043127
:10A76000002A43F4002508BF23F40025C0F8045153
:10A770000A7CD0F80431002A43F4801508BF23F482
:10A780008015C0F804514A7CD0F80431002A43F403
:10A79000001508BF23F40015C0F804518A7CD0F8D6
:10A7A0000431002A43F4800508BF23F48005C0F873
:10A7B0000451CA7CD0F80431002A43F4000508BFD4
:10A7C00023F40005C0F804510A7DD0F8041100F507
:10A7D0008270002A14BF41F0807121F08071016005
:10A7E000B0BD4EF2DF30C0F600004FF4847100F0CF
:10A7F000F3FC4EF2DF30C0F6000040F6221100F00C
:10A80000EBFC00002DE9F04F85B041F26C01C4F281
:10A81000020151F80C0C0022C4F20202009051F81F
:10A820004CEC106848F2E470C3F6AC70C2F88000DB
:10A8300048F2E47041F8280C48F63D2041F8280C15
:10A8400041F6EC1041F8280C51F80C0C032340F4AD
:10A85000005041F80C0C51F80C0C4EF6FC5940F429
:10A86000805041F80C0C51F84C0CCEF2000940F429
:10A87000807041F84C0C51F84C0C41F2002C63F301
:10A880008E2041F84C0CD9F80000D9F8007041F244
:10A89000000347F08077CEF20003C9F8007000276C
:10A8A0005F601C689FEDBF0AC0F27A0C44F001049F
:10A8B0001C6000BF5C680D68664615F5807F3CBF74
:10A8C0000D682E0A01EE106AB8EE411A21EE001A48
:10A8D000BCEEC11A11EE105AAC42EBD348F2001490
:10A8E00048F22135C4F20304C0F2800544F8FC5C50
:10A8F0002B2544F8F85C002544F8E85C202544F852
:10A90000D85C112544F8C05C6FF0FF05665900F073
:10A91000807846F00100605154F8F00CC0055CBF2F
:10A9200054F8F00C5FEAC05007D454F8F00CC0059E
:10A9300003D454F8F00CC005EED56FF0FF00255895
:10A9400045F004052550206840F40030206000BF29
:10A95000206880035CBF20685FEA803005D42068EF
:10A96000800302D420688003F2D554F8AC0C25682B
:10A97000122645F40035256051F84C5C9FED8A0A9B
:10A9800066F38E2541F84C5C156845F4003515607A
:10A99000156825F000451560156825F440751560AB
:10A9A000156845F00045156000255D601D6845F09F
:10A9B00001051D605E680D68674615F5807F3CBF28
:10A9C0000D682F0A01EE107AB8EE411A21EE001A36
:10A9D000BCEEC11A11EE105AAE42EBD354F8AC5C87
:10A9E00000EBD070A5EB600ABAF1000F48BFCAF1C6
:10A9F000000ACDF804A02568012645F4003525603D
:10AA00001568401025F000451560156866F30925A6
:10AA10001560156845F00045156000255D601D68EE
:10AA200045F001051D6000BF5E680D68674615F5BD
:10AA3000807F3CBF0D682F0A01EE107AB8EE411AF4
:10AA400021EE001ABCEEC11A11EE105AAE42EBD341
:10AA500054F8AC5C0226B5EB000B48BFCBF1000B01
:10AA6000CDF808B0256845F400352560156825F057
:10AA700000451560156866F309251560156845F0F1
:10AA80000045156000255D601D6845F001051D60ED
:10AA90005F680D68664615F5807F3CBF0D682E0A1D
:10AAA00001EE106AB8EE411A21EE001ABCEEC11A8E
:10AAB00011EE105AAF42EBD354F8AC5C2F1A48BFDA
:10AAC0007F420397256845F400352560156825F019
:10AAD00000451560156845F440751560156845F02A
:10AAE0000045156000255D601D6845F001051D608D
:10AAF0005E680D6815F5807F65463CBF0D682D0AC0
:10AB000001EE105AB8EE411A21EE001ABCEEC11A3D
:10AB100011EE105AAE42EBD354F8AC6C351A48BF64
:10AB20006D4204952068D34540F4003020601068E1
:10AB300020F000401060106820F4003010601868A9
:10AB400020F001001860D9F8000001AB40EA0800CD
:10AB5000C9F800004FF0000038BF012053F8206012
:10AB6000B74238BF022053F820309D426FF0FF03F8
:10AB7000E75838BF032047F00107E75041F84CEC95
:10AB8000009B41F80C3C0123C2F880304FF4803226
:10AB900041F8282C4FF4003241F8282C05B0BDE8CC
:10ABA000F08F00BF51499D3AA69BC43AB0B549F613
:10ABB000FF72C4F20102904216DC4DF6FF73C4F23C
:10ABC0000003984226DD4EF20003C4F200039842CF
:10ABD00038D048F20003C4F20103984232D049F25F
:10ABE0000003C4F201032AE04AF6FF73C4F2020331
:10ABF00098421ADD4BF20003C4F20203984221D0BE
:10AC00000023C4F2030398421CD041F20003C4F2B3
:10AC1000030314E048F20003C4F20003984211D089
:10AC200049F20003C4F2000309E04AF20003C4F24F
:10AC30000103984206D04AF20003C4F2020398428C
:10AC400040F0E780002900F0DC80904218DC4DF6EF
:10AC5000FF72C4F2000290422ADD4EF20002C4F2FA
:10AC6000000290423DD048F20002C4F2010290423C
:10AC700037D049F20002C4F20102904231D023E001
:10AC80004AF6FF72C4F2020290421EDD4BF200024D
:10AC9000C4F20202904224D041F20002C4F2030244
:10ACA00090421ED00022C4F20302904219D00BE061
:10ACB00048F20002C4F20002904212D049F20002AF
:10ACC000C4F2000290420CD0B0BD4AF20002C4F2BD
:10ACD0000102904205D04AF20002C4F20202904200
:10ACE000F2D14EF2100C41F24002C4F2000CC4F258
:10ACF0000202ACF11003126898423BD102F47F02C9
:10AD0000B2F5003F36D9DCF820204FF6FF7E8B8865
:10AD100022EA0E021A4444F6F00ECCF82020C2F2C9
:10AD2000000EDEF8002000BFDCF80030DB0326D583
:10AD3000DEF800309B1A0A2BC6D8DCF80030DB03A3
:10AD40001DD5DEF800309B1A0A2BBDD8DCF8003088
:10AD5000DB0314D5DEF800309B1A0A2BB4D8DCF8DC
:10AD60000030DB030BD5DEF800309B1A0A2B88BFBE
:10AD7000B0BDD9E74A6802630A89826306E0DCF85D
:10AD800028200B8963F30702CCF8282002684B784F
:10AD900091F800C063F3C30291F802E08D7A02607B
:10ADA00042686EF30202426002680B7B63F3820228
:10ADB0000260CA7A0368002A23F0020408BF43F045
:10ADC000020404600268BCF1000F42F0800308BF77
:10ADD00022F080030360C26A65F30302C2624A7B09
:10ADE000026402688B7B63F3461202600268CB7BCD
:10ADF00063F3041202600268097C61F309220260B5
:10AE0000B0BD4EF2CE40C0F600004FF4817100F0AC
:10AE1000E3F94EF2CE40C0F6000040F2011100F01E
:10AE2000DBF90000FEE700007047000070470000FB
:10AE300000F00CF8FDF7B4F97047000044F6F0009C
:10AE4000C2F20000016801310160704748F2000061
:10AE50004EF68851C0F60000CEF2000141F8800C99
:10AE600041F23000C4F2020048F2E472426102682A
:10AE700022F0020202604FF480324261086840F41E
:10AE8000700008607047000044F6FF71C4F20001D2
:10AE9000884244F22C71C2F200010CDD45F200023E
:10AEA000C4F20002904211D00022C4F2010290428A
:10AEB0000ED19C3113E043F20002C4F20002904232
:10AEC0000DD0B0F1402F0FD1343108E0683106E0E9
:10AED00041F20002C4F20102904205D1D031886AE9
:10AEE000002808BF704700474EF20950C0F6000026
:10AEF00040F6360100F070F970B5044644F6FF7074
:10AF0000C4F2000044F22C768442C2F200060CDD4A
:10AF100045F20000C4F20000844211D00020C4F2C7
:10AF2000010084420ED19C3613E043F20000C4F2CB
:10AF3000000084420DD0B4F1402F63D1343608E0D4
:10AF4000683606E041F20000C4F20100844259D1A3
:10AF5000D036206820F040002060757BFF2D3BD06C
:10AF60002846FEF7CDFB062D44D244F2B820C5EBAF
:10AF7000C502C2F2000041F2400100EB8202002350
:10AF8000C4F202011371C2E90233C2E90433C2E917
:10AF900006330A6802F47F02B2F5003F16D901EBCE
:10AFA0004512D2F8D03F02F57D6123F00103C2F8CB
:10AFB000D03F0A68D20709D00A68D2071CBF0A68C6
:10AFC0005FEAC27202D00A68D207F2D10121027888
:10AFD000A94022EA01010170FF207073B088F0805F
:10AFE0004BF22910C0F60000B060606B40F4805056
:10AFF000606370BD4EF22B30C0F6000040F22911A4
:10B0000000F0EAF84EF20950C0F6000040F63601B2
:10B0100000F0E2F8B0B544F6FF71C4F2000144F26A
:10B020002C758842C2F200050CDD45F20001C4F225
:10B030000001884211D00021C4F2010188420ED1E2
:10B040009C3513E043F20001C4F2000188420DD0A8
:10B05000B0F1402F60D1343508E0683506E041F2A8
:10B060000001C4F20101884256D1D035016821F0B7
:10B07000400101606C7BFF2C3BD02046FEF740FB7B
:10B08000062C41D244F2B820C4EBC402C2F2000044
:10B0900041F2400100EB82020023C4F2020113716D
:10B0A000C2E90233C2E90433C2E906330A6802F492
:10B0B0007F02B2F5003F16D901EB4412D2F8D03F1F
:10B0C00002F57D6123F00103C2F8D03F0A68D20780
:10B0D00009D00A68D2071CBF0A685FEAC27202D0B0
:10B0E0000A68D207F2D101210278A14022EA0101C7
:10B0F0000170FF20687301202873286B002808BFA7
:10B10000B0BDBDE8B04000474EF22B30C0F60000A5
:10B1100040F2291100F060F84EF20950C0F600002C
:10B1200040F6360100F058F844F6FF71C4F2000111
:10B13000884244F22C71C2F200010CDD45F200029B
:10B14000C4F20002904211D00022C4F201029042E7
:10B150000ED19C3113E043F20002C4F2000290428F
:10B160000DD0B0F1402F1BD1343108E0683106E03A
:10B1700041F20002C4F20102904211D1D031CA88DA
:10B180008B889A4238BF7047426B22F480524263E8
:10B190000020886001200873086A00B100477047EA
:10B1A0004EF20950C0F6000040F6360100F014F8E7
:10B1B000FEE700004EF60C50BFF34F8FCEF20000BA
:10B1C0000168042201F4E061C0F2FA521143016007
:10B1D000BFF34F8F00BFFDE7A0B104460AA00D46A4
:10B1E00002F076FB0BA021462A4602F071FB4EF2DC
:10B1F00045504EF24751C0F60000C0F6000102F083
:10B2000067FB00BF00BFFDE75B45404150505D203C
:10B2100000000000417373657274206661696C659B
:10B220006420696E202573206C696E65202564009A
:10B23000B0B519B1012904D100226AE00022D0B2D0
:10B24000B0BD01F0010CA1EB0C010022072300BFEF
:10B250000478D2B2624083EA420490F801E0150615
:10B2600058BF540083EA4402250658BF620083EAAF
:10B270004204150658BF540083EA4402250658BF0D
:10B28000620083EA4204150658BF540083EA440270
:10B29000250658BF620083EA4204150658BF5400D1
:10B2A00083EA4402250658BF6200D2B282EA0E0247
:10B2B00083EA4205140658BF550083EA45022C066E
:10B2C00058BF6A0083EA4205140658BF550083EA56
:10B2D00045022C0658BF6A0083EA4205140658BF8F
:10B2E000550083EA45022C0658BF6A0083EA4205EE
:10B2F000140658BF550083EA45022C06A1F102014D
:10B3000058BF6A000D0600F10200A1D1BCF1000F88
:10B310002BD00078D1B24140072080EA41020B06D1
:10B3200058BF4A0080EA4201130658BF510080EA24
:10B3300041020B0658BF4A0080EA4201130658BF7B
:10B34000510080EA41020B0658BF4A0080EA4201E0
:10B35000130658BF510080EA41030A0658BF4B004C
:10B3600080EA4302180658BF5A00D0B2B0BD0000B0
:10B37000704700002DE9F04FA7B04EF60C51CEF209
:10B380000001D1F8F0004FF0000940F08070C1F8E2
:10B39000F00041F20000CEF20000C0F80490016815
:10B3A00048F2000741F0010101604FF08070C4F2E3
:10B3B00003071790012040F2800B199040F201140E
:10B3C00017A93846C4F2020B0126CDF868908DF813
:10B3D0001290CDE90C99CDE90E99CDE90699189412
:10B3E000FDF742FD15208DF8150004A93846ADF88B
:10B3F0001090ADF81340FDF793FF4FF480700DF1FE
:10B4000008080290384641468DF80C60FDF7B2FE00
:10B4100040F20110C0F200100C9040F21800C2F28D
:10B4200001000E9002200CADADF83C0038462946D4
:10B430008DF834604FF0020AFDF760FCF620C1F28F
:10B44000546006AC079038462146ADF818608DF878
:10B450001A90FDF797FB40F20140029038464146B2
:10B460008DF80C60FDF786FE40F20410C0F200106B
:10B470000C9040F20800C2F201000E9038462946B6
:10B480008DF83460ADF83CA02E46FDF737FC4FF444
:10B490000170ADF818004FF0005007903846214673
:10B4A0008DF81A90FDF76EFB40F20010C0F201100B
:10B4B000CDF85E004FF4807007F58065ADF863004D
:10B4C000284617A98DF862908DF86590FDF7CCFCA1
:10B4D00040F20110ADF8130015208DF81500284634
:10B4E00004A9ADF81090FDF71BFF4FF440600290E7
:10B4F0000124284641468DF80C40FDF73BFE40F202
:10B500000C10C0F200100C9040F21000C2F20100CA
:10B510000E904FF00208284631468DF83440ADF8C1
:10B520003C80FDF7EBFB4FF48670ADF818004FF050
:10B53000005006AC0790284621468DF81A90FDF77A
:10B5400021FB40F2012002904FF0010A284602A997
:10B550008DF80CA0FDF70EFE40F20210C0F20010B4
:10B560000C9040F20000C2F201000E9028463146D5
:10B570008DF834A0ADF83C80FDF7C0FB4FF00050D3
:10B58000079028462146ADF818804FF002088DF844
:10B590001A90FDF7F7FA40F20010C0F2011007F51B
:10B5A0000065CDF85E004FF48076284617A98DF827
:10B5B0006290ADF863608DF86590FDF755FC15203D
:10B5C0008DF81500284604A9ADF81090ADF8136069
:10B5D0004FF48076FDF7A4FE01208DF80C0028467C
:10B5E00002A90296FDF7C6FD40F20110C0F200105C
:10B5F0000C9040F22000C2F2010001260E90284675
:10B600000CA98DF83460ADF83C80FDF777FB4FF066
:10B610000050079028462146ADF8186001268DF8A5
:10B620001A90FDF7AFFA4BF60871C4F20301C1F8A6
:10B630002880C1F82C9051F8040C012266F31340C5
:10B6400041F8040C51F8080C20F4702041F8080C63
:10B65000886D20F01F00886548F2E470C3F6AC7076
:10B66000CBF800005BF8240C40F400704BF8240C7D
:10B670005BF8240C40F480604BF8240C5BF8240C3D
:10B6800040F400604BF8240C5BF8240C40F480502C
:10B690004BF8240C5BF8240C40F400504BF8240CBD
:10B6A0005BF8240C40F480404BF8240C5BF8240C2D
:10B6B00040F400404BF8240C5BF8240C40F480303C
:10B6C0004BF8240C5BF8340C40F010004BF8340CB1
:10B6D0005BF8340C40F020004BF8340C5BF8340C71
:10B6E00040F040004BF8340C5BF8340C40F0800024
:10B6F0004BF8340C5BF8340C40F480704BF8340C8D
:10B700005BF8340C40F400704BF8340C5BF8340CEC
:10B7100040F480604BF8340C5BF8340C40F400606B
:10B720004BF8340C5BF8140C40F040004BF8140C50
:10B730004FF48050CBF80020FEF7A4FB4FF40050EC
:10B74000FEF7A0FB4FF48040FEF79CFB4FF4004057
:10B75000FEF798FB4EF200114FF00040CEF20001D0
:10B7600048604EF60C50CEF2000000684EF21940D0
:10B77000CEF2000080F8269044F2C860C2F20000C9
:10B780000121017044F2D060C2F20000017044F265
:10B79000D46044F2CC66C2F20000C2F2000601702E
:10B7A00044F2D8603170C2F2000042F2240544F243
:10B7B000E0610560C2F2000140F6224044F2E4621A
:10B7C0000860C2F2000241F24401116044F2E862F2
:10B7D000C2F2000241F63441116044F2EC62C2F25E
:10B7E000000244F2F0631560C2F200034FF41672D7
:10B7F0001A6044F2F462C2F2000244F2F86A106085
:10B80000C2F2000A41F26A20CAF8000044F2FC6069
:10B81000C2F2000044F2DC670DF15C080124016013
:10B82000C2F2000740462C213C70CDE90C99CDE9CD
:10B830000E99CDE91099CDE90699CDE90899CDF891
:10B840002890ADF82C90FCF742FF40F20110ADF8C3
:10B850003650109020200CAD1290092029468DF80A
:10B860003590CDF83890ADF831908DF83390CDF813
:10B870004C90CDE91499FEF79DFD02202946FEF774
:10B8800099FD03202946FEF795FD317844F2D062F8
:10B890004FF47A70C2F200028DF81840ADF81A0029
:10B8A000002918BF40F20441127844F2D463C2F276
:10B8B0000003ADF81C10002A18BF40F609021B78DF
:10B8C0004BF20406C4F20306ADF81E20002B18BF8D
:10B8D00041F21203ADF82030B061F1614BF200018A
:10B8E00032627362C4F20301086806AD40F0007072
:10B8F0000860086820F000600860086820F0806038
:10B900000860387844F2E061C2F20001002818BFF4
:10B9100032200968ADF81A00ADF81C1044F2E4605A
:10B9200044F2E861C2F20000C2F200010068096856
:10B93000ADF81E00ADF82010022029468DF8184001
:10B940008DF82440FEF77CFE44F2F461C2F200015F
:10B9500044F2F0600968C2F200000068ADF81C1003
:10B9600044F2FC61C2F20001ADF81A00DAF80000FE
:10B970000968ADF81E00ADF8201003202946FEF737
:10B980005FFE40F604001C90082002211F9040F644
:10B9900010001B918DF876100221C0F2400020901B
:10B9A0008DF8861003204146ADF87490ADF8849070
:10B9B000CDF86490FEF71CFC02204146FEF718FC0F
:10B9C00041F240014BF60873C4F20201C4F20303D2
:10B9D0000868186A012220F04040186208689969D6
:10B9E00000F47F0062F30101B0F5003F996103D9D3
:10B9F000586E20F0030058669869052120F0040075
:10BA00009861186A20F00F001862986920F01800F9
:10BA10009861986940F020009861186F20F04040CC
:10BA20001867D86840F00100D860D86820F400405A
:10BA3000D860986E62F393409866986E20F4003058
:10BA40009866186F61F313401867D3F880004BF2C3
:10BA5000040120F47020C3F88000986FC4F2030141
:10BA600020F400209867D86840F02000D860986ED5
:10BA700040F480309866986F20F400309867986F93
:10BA800020F480309867D1F8700340F01000C1F8BE
:10BA90007003D1F8700440F01000C1F8700444F64F
:10BAA000F000C2F2000001681A6842F001021A6058
:10BAB0001A68D20718D00268521A652A14D21A6876
:10BAC000D20711D00268521A642A0DD81A68D20718
:10BAD0000AD00268521A642A06D81A68D20703D01C
:10BAE0000268521A642AE3D901681A6842F008020F
:10BAF0001A601A68120718D50268521A652A14D2F9
:10BB00001A68120711D50268521A642A0DD81A68E9
:10BB100012070AD50268521A642A06D81A68120750
:10BB200003D50268521A642AE3D901681A6842F000
:10BB300010021A601A68D20618D50268521A652ACD
:10BB400014D21A68D20611D50268521A642A0DD886
:10BB50001A68D2060AD50268521A642A06D81A68E8
:10BB6000D20603D50268521A642AE3D901254FF0A0
:10BB700000099D62C3F82C9053F8040C4BF2000AA4
:10BB800065F3134043F8040C53F8080CC4F2030A9D
:10BB900020F4702043F8080C986D44F2000120F066
:10BBA0001F0098651868C4F2020140F00100186097
:10BBB000DAF8000001F5005440F08060CAF8000097
:10BBC000186E17AF40F001001866186E8A4640F0F4
:10BBD000080018660120C0F2001018904FF4804051
:10BBE0001790204639468DF86490FEF7EBF94FF434
:10BBF0000040179050463946FEF7E4F94FF40060D4
:10BC00000AF58058179040463946FEF7DBF94FF4A5
:10BC10008066504639461796FEF7D4F94FF4007007
:10BC2000ADF86000204639461795FEF7CBF940463F
:10BC300039461795FEF7C6F98020179050463946C9
:10BC4000FEF7C0F9404639461796FEF7BBF91020BB
:10BC50001790404639468DF86150CDF80480FEF7C4
:10BC6000B1F94FF400501790204639468DF8619095
:10BC7000FEF7A8F94FF40040179020463946FEF72A
:10BC8000A1F941F2400148F63D20C4F202014860AA
:10BC900041F6EC104860086A48F2E47840F48050BD
:10BCA00008624FF40030C3F6AC784860CBF80080EF
:10BCB0005BF8240C4BF2000640F080004BF8240C9B
:10BCC0005BF8140CC4F2030640F010004BF8140C9F
:10BCD00049F20000CBF80050C4F20300D0F8001184
:10BCE00017AC21F00101C0F80011D0F8001121F0CB
:10BCF0000801C0F80011D0F8001121F00401C0F8CB
:10BD00000011D0F8001121F00201C0F80011CBF8A9
:10BD100000805BF8241C41F080014BF8241C5BF888
:10BD2000141C41F010014BF8141CCBF800500168B2
:10BD300021F001010160016821F008010160016842
:10BD400021F004010160016821F00201016040F668
:10BD50000E61C0F8041140F61B714160D0F800116B
:10BD600041F00101C0F80011016841F001010160DA
:10BD700040F20110ADF85C0040F20310ADF8630032
:10BD8000A6F5706021468DF86590CDF85E908DF82F
:10BD90006290FDF71FFCC8208DF85F000320ADF80E
:10BDA0006300A6F560602146FDF714FC4FF2002009
:10BDB000CFF6FF703158042741F001013150CBF824
:10BDC00000805BF8280C4EF60C5640F480704BF85F
:10BDD000280C5BF8180CCEF2000640F480704BF88B
:10BDE000180CCBF80050CBF800805BF8300C4FF00B
:10BDF000FF3340F040004BF8300C5BF8200C32462B
:10BE000040F040004BF8200CCBF80050CBF80080FD
:10BE10005BF8300C4EF2194A40F080004BF8300CC1
:10BE20005BF8200CCEF2000A40F080004BF8200CAA
:10BE3000CBF80050CBF800805BF8240C022440F0D3
:10BE400001004BF8240C5BF8140C4FF0020E40F08C
:10BE500001004BF8140CCBF80050CBF800805BF8D5
:10BE6000240C40F002004BF8240C5BF8140C40F05A
:10BE700002004BF8140CCBF8005030680226C0F3D7
:10BE8000022080F00701042928BF3946033803FA4D
:10BE900001F138BF484626EA010101FA00F000012D
:10BEA0008AF8010010684FF0FF33C0F3022080F0E1
:10BEB0000701042928BF3946033803FA01F138BFC6
:10BEC000484625EA010101FA00F000014EF2001691
:10BED0008AF800004FF00070CEF2000630604FF09C
:10BEE00080603060CBF800805BF8280C4FF0FF33A7
:10BEF00040F480704BF8280C5BF8180CB44640F402
:10BF000080704BF8180CCBF80050CBF800805BF831
:10BF1000300C40F040004BF8300C5BF8200C40F047
:10BF200040004BF8200CCBF80050CBF800805BF8B9
:10BF3000300C40F080004BF8300C5BF8200C40F0E7
:10BF400080004BF8200CCBF80050CBF800805BF859
:10BF5000240C40F001004BF8240C5BF8140C40F06A
:10BF600001004BF8140CCBF80050CBF800805BF8C4
:10BF7000240C40F002004BF8240C5BF8140C40F049
:10BF800002004BF8140CCBF800501068C0F30220EC
:10BF900080F00701042928BF3946033803FA01F16C
:10BFA00038BF484624EA010101FA00F000018AF88E
:10BFB000010010681446C0F3022080F00701042934
:10BFC00028BF3946033803FA01F138BF484625EA4D
:10BFD000010101FA00F000018AF800004FF0007240
:10BFE00032604FF080633360CBF800805BF8280C40
:10BFF0004FF0FF3640F480704BF8280C5BF8180CBB
:10C0000040F480704BF8180CCBF80050CBF800804F
:10C010005BF8300C40F040004BF8300C5BF8200C23
:10C0200040F040004BF8200CCBF80050CBF80080DB
:10C030005BF8300C40F080004BF8300C5BF8200CC3
:10C0400040F080004BF8200CCBF80050CBF800807B
:10C050005BF8240C40F001004BF8240C5BF8140C46
:10C0600040F001004BF8140CCBF80050CBF80080E6
:10C070005BF8240C40F002004BF8240C5BF8140C25
:10C0800040F002004BF8140CCBF800502068C0F3CD
:10C09000022080F00701042928BF3946033806FA38
:10C0A00001F138BF48462EEA010101FA00F0000113
:10C0B0008AF80100206817ACC0F3022080F0070165
:10C0C000042928BF3946033806FA01F138BF48462B
:10C0D00025EA010101FA00F000018AF80000CCF81D
:10C0E0000020CCF80030632048F20006CDF86C90B8
:10C0F000CDE9199518900820C4F20006ADF8640047
:10C100003046214617958DF86790FEF74FFD40F2B7
:10C11000000AC4F2030A50462146FEF747FD40F2EA
:10C12000E730189049F20000C4F200002146FEF703
:10C130003DFD70680CA940F001007060DAF8040061
:10C1400040F00100CAF804000320C0F200100D9076
:10C1500044F20000C4F202008DF838900C97FDF70D
:10C1600031FFCBF800805BF8280C4EF60C5340F4FE
:10C1700080704BF8280C5BF8180CCEF2000340F4EA
:10C1800080704BF8180CCBF80050CBF800805BF8AF
:10C19000300C4FF0FF3640F040004BF8300C5BF8AD
:10C1A000200C022240F040004BF8200CCBF800504D
:10C1B000CBF800805BF8300C4AF2240A40F0800093
:10C1C0004BF8300C5BF8200CC4F2020A40F08000FF
:10C1D0004BF8200CCBF80050CBF800805BF8240C17
:10C1E00017AC40F001004BF8240C5BF8140C40F045
:10C1F00001004BF8140CCBF80050CBF800805BF832
:10C20000240C40F002004BF8240C5BF8140C40F0B6
:10C2100002004BF8140CCBF800501868C0F3022051
:10C2200080F00701042928BF3946033806FA01F1D6
:10C2300038BF484622EA010101FA00F04EF21942E5
:10C240000001CEF2000250701868C0F3022080F0A6
:10C250000701042938BF0F46033806FA07F138BF33
:10C26000484625EA010101FA00F0000110704EF283
:10C270000010CEF200004FF0007101604FF08061BD
:10C28000016041F29310CDF86C90CDE919991890A6
:10C29000AAF1240021461795ADF864908DF86790B7
:10C2A000FEF784FC41F24000C4F2020000685AF834
:10C2B000040C062165F393404AF8040C6420CAF884
:10C2C00034005AF8040C44F2007861F317504AF82D
:10C2D000040C5AF8040CC2F2000820F440304AF86A
:10C2E000040CDAF808002C2120F48060CAF8080059
:10C2F000DAF8000040F48070CAF80000DAF80000B4
:10C3000020F40070CAF80000DAF8000020F4806021
:10C31000CAF80000DAF8000020F40060CAF8000053
:10C320005AF8200C20F480504AF8200C5AF8200CBF
:10C3300020F400504AF8200CDAF8080020F0F00051
:10C34000CAF8080040468DF87090CDF86C90CDE9A1
:10C350001999CDE91799FCF7BAF94FF4FF4044F267
:10C360002C75A8F82A00C2F20005287B10B9287F96
:10C37000002858D04EF2B410C0F6000001F0A8FA20
:10C3800043F20004C4F200040FF69450214601F079
:10C390009FFA4EF245504EF24751C0F60000C0F6EB
:10C3A000000101F095FA287B012811D16068C003D3
:10C3B00018D56068400315D4606800F003000328B6
:10C3C00010D14FF0580E4FF480514FF480400DE0E3
:10C3D0004EF2B410C0F6000001F07AFA0FF6645085
:10C3E0002146E1E14FF02C0E0020002144F2B82953
:10C3F000C2F2000999F8003042F2000CDA07C4F2E8
:10C40000020C05D199F8042012B901260022F0E0AF
:10C410009A0700F1CC8099F82020002A40F0C780CC
:10C4200002260122E5E043F20007C4F20007386863
:10C43000082620F0010038600220287328770020A9
:10C44000CDF835004FF400700C9044F200000CA9B8
:10C45000C4F202008DF83460FDF7B4FD48F2E470D8
:10C46000C3F6AC70CBF800005BF8300C4EF2001154
:10C4700040F008004BF8300C5BF8200CCEF20001C5
:10C4800040F008004BF8200C0120CBF800000E60B3
:10C4900039683E4641F010013960396841F00801C1
:10C4A0003960396821F480613960396821F400719C
:10C4B0003960796821F080017960396921F00F01D4
:10C4C0003961396921F0F00139613A6B4FF6FF713A
:10C4D0008A433A633A6822F480723A603A6822F0FA
:10C4E00080023A603A6822F400623A6041F2400207
:10C4F000C4F20202126802F47F02B2F5003F0AD9C8
:10C5000044F26432C2F200021268520303D5326868
:10C5100022F480423260726822F00802726072680F
:10C5200022F004027260726842F003027260726864
:10C5300022F48032726044F20002C2F200021268F9
:10C540005BF8503CC3F303230133B2FBF3F249F62B
:10C55000817302F5B71202F55872C1F25E63A2FB55
:10C560000323B26822EA010141EA9341B1603168D4
:10C57000142221F48051316028732877611C05F161
:10C580002000FCF77DF8FF20687368774FF0FF30DC
:10C59000B0633068344640F004003060306840F0EA
:10C5A00002003060306840F001003060FBE65A075E
:10C5B00005D499F83C2012B90426022219E01A0782
:10C5C00005D499F8582012B90826032211E0DA069A
:10C5D00005D499F8742012B91026042209E09A06AD
:10C5E00000F14F8599F89020002A40F04A852026D6
:10C5F0000522334341F2400489F80030C4F20204BA
:10C6000023680CEB421353F80C6F012726F04066A9
:10C610001E601E6826F040561E601E6826F080468A
:10C620001E601E6846F000461E601E6867F3051611
:10C630001E601F6827F008071F601F6827F040076B
:10C640001F601F6847F080071F601F6827F440576E
:10C6500039431960196821F4404108431860206883
:10C6600000F47F00B0F5003F14D944F26430C2F208
:10C670000000006848F2E470606054F8340C062151
:10C6800044F8340C186861F3595018604FF4803046
:10C69000606004E01868062161F359501860C2EB2D
:10C6A000C2004AF6F96143F2000409EB8000C0F6CB
:10C6B00000014BF215034AF68967C4F20004C0F684
:10C6C0000003C0F60007C0E902410121C0E90443AC
:10C6D000C0E9064701716A73687BFF284CD00320CC
:10C6E00028730020C5F80080A5F804E0E880A86061
:10C6F000206840F0100020604FF48050A063206854
:10C7000040F004002060206840F040002060697B19
:10C710002868AB88062980F0F284002B00F0F784AB
:10C720000CEB411707227A613A4652F80C6F46F437
:10C7300080661660166846F480761660166846F4C1
:10C7400000761660C1EBC10609EB860515F8046F8B
:10C75000012E1ED11268C2F30132032A40F020815B
:10C760004EF27510C0F6000001F0B2F84EF23C0037
:10C77000C0F60000032117E04EF2B410C0F600002E
:10C7800001F0A6F84EF2BE10C0F6000001F0F2FA79
:10C790000CE04EF27510C0F6000001F099F829780F
:10C7A0004EF25110C0F6000001F092F84EF24550E2
:10C7B0004EF24751C0F60000C0F6000101F088F8C3
:10C7C00045F20005002617A84021C4F20105CDE975
:10C7D0000C66CDE90E661096CDF84360FBF777FF47
:10C7E0002020CDE918064FF420204FF001081C90BE
:10C7F000FF2102204FF430228DF868608DF86C80A4
:10C800001D918DF878608DF87C00CDE92021032101
:10C810008DF88C104AF6552144F210178DF8886077
:10C82000CDE924168DF89860C2F2000797F85410ED
:10C8300097F85C20114397F86C20C9B2114397F820
:10C840007C2097F88C301143194317D04EF29C107E
:10C85000C0F6000001F03CF84EF26200C0F60000A5
:10C86000294601F035F84EF245504EF24751C0F6D8
:10C870000000C0F6000101F02BF886E287F85400B2
:10C8800087F85C0087F86C0087F87C0087F88C00DC
:10C89000019F4FF4807006AC06904FF00A093846AD
:10C8A0002146CDF81D608DF81C90FDF78BFB4FF4F1
:10C8B00000700690384621468DF81C90FDF782FBEB
:10C8C00048F2E470C3F6AC70CBF800005BF82C0CB7
:10C8D000042240F020004BF82C0C5BF8340C4FF095
:10C8E000FF3340F480404BF8340C5BF81C0C41F2F1
:10C8F000400A40F020004BF81C0C4EF60C50CBF8D0
:10C900000080CEF200000068C4F2020AC0F30220E8
:10C9100080F00701042928BF1146033803FA01F10A
:10C9200038BF304622EA010101FA00F04EF2194107
:10C930000001CEF2000101F80E0C286840F0100052
:10C940002860286A00F470302862DAF8000000F4E9
:10C950007F00B0F5003F40F2FE8044F26430C2F246
:10C9600000000068800740F1F6806868022161F3EA
:10C9700017506860686861F31B606860686861F3FD
:10C980001F7068602868C0061FD44EF29C10C0F665
:10C99000000000F09DFF4EF2F320C0F6000024E0FE
:10C9A00023FA02F4B4F5805F2CD34EF27510C0F672
:10C9B000000000F08DFF4EF28300C0F6000040F64C
:10C9C000FF71224600F084FFF0E6DAF80000C0F3C1
:10C9D0000740022868D84EF29C10C0F6000000F014
:10C9E00077FF4EF28D20C0F6000001F0C3F94EF241
:10C9F00045504EF24751C0F60000C0F6000100F06D
:10CA000067FF65E0BA6840F6FF76B2432243B0F1B3
:10CA1000006FBA60C0F0628341F24002C4F20202C9
:10CA2000D2694FF6FF74160CB60206F10066B4EB3D
:10CA3000124F04BF0026C0F60406864240F24E8321
:10CA40004FF2400244F20006CFF6FF72C4F2020633
:10CA5000B65806F07066B6F1206F40F03F8344F29E
:10CA60000006C4F20206B25802F07042B2F1204F42
:10CA700040F0348341F24002C4F20202D2694FF620
:10CA8000FF74160CB602B4EB124F08BF4FF48026A9
:10CA9000720802F100648442034440F20C83A34212
:10CAA00000F20D83104419E3686A20F00200686206
:10CAB000686A20F001006862A86A60F06040A862BD
:10CAC000686A20F080006862686A20F0400068624E
:10CAD0002868C0060AD44EF29C10C0F6000000F090
:10CAE000F7FE4EF2F320C0F600000FE0DAF8000087
:10CAF000C0F30740022816D84EF29C10C0F6000082
:10CB000000F0E6FE4EF2E810C0F6000001F032F947
:10CB10004EF245504EF24751C0F60000C0F60001FB
:10CB200000F0D6FE13E0686A20F002006862686ACE
:10CB300020F001006862A86A60F06040A862686A3C
:10CB400020F080006862686A20F04000686228680F
:10CB500040F40040286068695F2161F30700686164
:10CB60002869062161F3050028612869012666F31A
:10CB70000C20286128694EF29C1B66F31340286143
:10CB800028684EF2B7284EF245594EF2475420F429
:10CB900080200027C0F6000BC0F60008C0F6000990
:10CBA000C0F6000428600CE0584600F091FE4046B4
:10CBB00001F0E0F84846214600F08AFE0137102FC8
:10CBC00030D02868C006EFD5686B20F00F003843DE
:10CBD0006863686B40F020006863A86B00F06040F9
:10CBE000A863A86B20F0C040A863686B20F0200009
:10CBF0006863A86B00F06040A863DAF8000000F4F6
:10CC00007F00B0F5003F07D9E86B66F30710E863D3
:10CC1000E86B66F30300E863286B06FA07F18843C4
:10CC20002863CBE74EF29C1A4EF2B7264EF24557D8
:10CC30004EF2475B4FF00008C0F6000AC0F600064F
:10CC4000C0F60007C0F6000B4FF0010910E042F0FB
:10CC50001001E963E96B69F30301E963296B09FAE0
:10CC600000F00843286308F11008B8F1400F56D0CF
:10CC70002868C0060AD4504600F02AFE304601F06B
:10CC800079F83846594600F023FEECE717AB696B9C
:10CC900013F8080060F3030169636A6B03EB080192
:10CCA00042F020026A63AA6BD1E90134520F62F3A9
:10CCB0005F74AC63AA6B0C7B22F0C04204F00304E7
:10CCC00042EA4472AA636A6B22F020026A63AA6B8A
:10CCD000520F62F35F7341F24002AB63C4F202028F
:10CCE000126802F47F02B2F5003FB7D944F2643211
:10CCF000C2F2000212689207B0D54A7BEB6B002AA1
:10CD000023F0F002A3D08B7BC97B03F00F0342EA30
:10CD10000312EA63EA6B61F30302EA639EE72868A1
:10CD20000C2220F0100028602968012060F31F7198
:10CD3000296029684AF2240A62F31B61296041F2E2
:10CD40004001C4F202010968C4F2020A11F47E0F24
:10CD500003D0296821F40051296044F210174FF0E4
:10CD6000FF31C2F20007E96087F8540087F85C00E1
:10CD700087F86C0087F87C0087F88C000CA8C11C31
:10CD800007F194001422FBF77BFC44F63004C2F256
:10CD90000004201D5821FBF79AFC802020212560EB
:10CDA000C4E903108820A06197F86C00012812D113
:10CDB000042087F86C0048F69920C0F60000386718
:10CDC00004F11C00786604F11400B866A86840F00D
:10CDD0008000A86016E04EF29C10C0F6000000F043
:10CDE00077FD4EF2AB00C0F60000294600F070FD62
:10CDF0004EF245504EF24751C0F60000C0F6000119
:10CE000000F066FD44F2943040F2001140F204520A
:10CE1000C2F20000C0F20231C0F20672C0E9AB12E9
:10CE2000A96844F2001241F08001A96041F2820138
:10CE3000C2F20002C0F21821C2F8091046F21441F1
:10CE40008123A2F80D1000215370D17344F2843273
:10CE5000C2F20002537041F28203C0F21973C2F8A9
:10CE6000093048F20743A2F80D30D17344F268024A
:10CE700049F2DA6349F2DA67C2F20002C3F61973C3
:10CE8000CBF619774FF6C6264FF62305CBF6FF767D
:10CE9000C3F67F75C2E908374BF60873C2E90A6525
:10CEA000C2E90D11C2E90F114FF0FF32C4F20303C2
:10CEB0005A61D0F8A8200023C0F8B8200022C4F29C
:10CEC0007A42C4F22013A0F8A61080F80E1180F860
:10CED0008410C0F85411C0F8AC10C0E96D23B0F84C
:10CEE000442180F85E12C0F87812130780F87C1293
:10CEF0005CBF22F00802A0F8442122F002020123C4
:10CF0000A0F8442144F2000280F84831C0F85012E1
:10CF1000C0F84412C4F2020211689FEDA01A41F455
:10CF20000041116090ED7D0A41F2921320EE010A5A
:10CF3000BCEEC00A10EE102A91B29942A0F80C2162
:10CF400002D941F2931102E0022902D80221A0F88D
:10CF50000C11CAF8341000210022C4F2C821C4F216
:10CF6000A002C0E98E120021C4F240110022C0F8D4
:10CF7000F0120021C4F2C81280F80013C0E9C112F7
:10CF8000012180F875120021C4F28811C0F8EC105C
:10CF900048F20001C4F2030108684BF2000240F0BD
:10CFA00004000860D1F80004C4F2030240F0040059
:10CFB000C1F80004D1F8000840F00400C1F80008EE
:10CFC0004FF20010CFF6FF70115841F001011150DF
:10CFD00048F20001C4F20001C86840F40070C86063
:10CFE0000868800703D4C86840F48070C860086887
:10CFF00040F0010008604BF20401C4F2030108682C
:10D0000040F4C810086049F20001C4F20001C86889
:10D0100040F40070C8600868800703D4C86840F412
:10D020008070C860086840F0010008600021C4F208
:10D030000301C86840F40070C8600868800703D422
:10D04000C86840F48070C860086840F0010008605B
:10D050005AF8180C40F400704AF8180C5AF8240CCE
:10D06000800705D45AF8180C40F480704AF8180C60
:10D070005AF8240C40F001004AF8240C27B0BDE80F
:10D08000F08F4EF2B410C0F600006646774600F00E
:10D090001FFC3BA000F06EFE4EF245504EF2475191
:10D0A000C0F60000C0F6000100F012FCBE46B44617
:10D0B000FF22FFF710BB06F10066B3420DD94EF216
:10D0C0007510C0F6000000F003FC4EF21320C0F60D
:10D0D000000000F0FDFBFFF769BB801A49014CF826
:10D0E000010043F20000C4F200002030786002200A
:10D0F0002870386940F001003861FFF761BB4EF2DB
:10D100002B30C0F6000040F2FD11FEF765F84EF23C
:10D110002B30C0F600004FF4FF71FEF75DF800BF42
:10D120005468697320554152545B30782530387803
:10D130005D2069736E2774206265696E6720757360
:10D1400065640A005468697320554152545B307815
:10D15000253038785D2069736E277420696E2054FD
:10D16000782052454144592073746174652C2063C2
:10D17000616E2774207374617274205478210A00E0
:10D180005265717573657420444D41206368616E0A
:10D190006E656C204661696C21000000D4BC36438A
:10D1A00082B041F26C00C4F20200016841F2002931
:10D1B00011F5807F38BF01680168C0F27A098025C7
:10D1C00048F2E47A4F46C4F20205C3F6AC7A11F590
:10D1D000807F3CBF01680F0AC5F800A055F8501CBD
:10D1E00001F0030102290BD155F8101C41F0100188
:10D1F00045F8101C55F8501C21F0030145F8501C4F
:10D200004DF69C52C0F60002002102F190038DF809
:10D21000071053F8906CBE4203D1002918BF0729AC
:10D2200068D053F8786CBE4208BF062957D053F82F
:10D23000606CBE4208BF052953D053F8486CBE420B
:10D2400008BF04294FD053F8306CBE4208BF0329F1
:10D250004BD053F8186CBE4208BF022947D01E6855
:10D26000BE4208BF012944D007311C2903F1A8039D
:10D27000CFD1016811F5807F07D200680021B1EBA2
:10D28000102F4FEA102900F0DC824846FBF745FAE0
:10D290009FED550B02460B4651EC100BFBF7E1F8E6
:10D2A00004460F46FBF746FA0646FBF736FA0246F7
:10D2B0000B4620463946FBF75CF89FED4D0B53ECCF
:10D2C000102BFBF75CF8FBF735FA4F4649F2005993
:10D2D000834601244FF40048C0F6BA291AE0013110
:10D2E00008E0023106E0033104E0043102E00531D8
:10D2F00000E0063101EB410002EBC000416949F258
:10D300000059047A4689B0F80CB08803C0F6BA29EF
:10D310001FFA80F8C5F800A055F8240C022C20F064
:10D32000080045F8240C55F8340C20F0010045F8AD
:10D33000340C55F8480C20F00C0045F8480C55F812
:10D34000380C20F0F00045F8380C55F8240C40F06B
:10D35000080045F8240C55F8340C40F0010045F85D
:10D36000340C55F8140C20F0080045F8140C55F84E
:10D37000140C40F0080045F8140C4FF001008DF833
:10D38000070055F8801C21F0004145F8801C55F835
:10D39000101C41F0100145F8101C55F8801C60F37A
:10D3A000010145F8801C27D0012C14D04EF2A810A2
:10D3B000C0F6000000F08CFA0FF2C440214600F0E5
:10D3C00087FA4EF245504EF24751C0F60000C0F6C3
:10D3D000000100F07DFA55F8800C012120F4006076
:10D3E0000FE000BF00BF00BF000000002A75A5418C
:10D3F000000000000000F04055F8800C022140F4CD
:10D40000006045F8800C55F8800CB7FBF1F141F64F
:10D41000003320F48062C0F2B703994288BF40F421
:10D42000806245F8802C55F87C0C6FF39F366FF3C3
:10D430001D4040EA064045F87C0C55F87C0C4FF640
:10D44000FF718843584445F87C0C55F8800C20F453
:10D45000404040EA080045F8800CFDF7D3F9C5F8D4
:10D4600000A09DF807104FF4407202EA0020B9B105
:10D4700055F8141C21F0080145F8141C55F8141C2B
:10D4800041F0080145F8141C55F8241C21F008014E
:10D4900045F8241C55F8341C21F0010145F8341CD2
:10D4A00055F8801C21F44071084345F8800C55F86C
:10D4B000800C40F0004045F8800C55F8800C40008E
:10D4C0000CD455F8800C40005CBF55F8800C5FEA26
:10D4D000400003D455F8800C4000EED501202860B0
:10D4E000C5F800A055F8502C022161F3010245F85F
:10D4F000502C55F8502C052360F30B2245F8502C86
:10D5000055F8502C60F30F3245F8502C55F8502C3C
:10D5100022F0FC0245F8502C55F8502C42F4803291
:10D5200045F8502C55F8502C42F4003245F8502C58
:10D5300055F8502C42F4802245F8502C55F8502CC8
:10D5400042F4002245F8502C44F20002C2F20002DC
:10D550002860C2F80090C5F800A055F8482C60F388
:10D56000830245F8482C55F8382C63F3071245F828
:10D57000382C2860C5F800A055F8482C60F38712B5
:10D5800045F8482C55F8380C61F30F3045F8380C45
:10D59000012043F200022860C4F20202116841F047
:10D5A0001001116013684EF60C5143F02003CEF2C7
:10D5B000000113600A684FF6FF031A4040F200337F
:10D5C000C0F2FA531A430A6044F20002C2F20002A7
:10D5D000126844F6D353C1F26203A2FB03234FF057
:10D5E000FF3202EB93170023B3EB176F1BD14EF200
:10D5F0001006CEF200067760F027CF750727B360DC
:10D6000037600F68C7F3022787F00706042E28BF8C
:10D610000426033F38BF1F46B2400F2323EA02020D
:10D62000BA401201CA75C5F800A055F8281C44F28A
:10D63000040441F0040145F8281C55F8181CC2F2F6
:10D64000000441F0040145F8181C2860C5F800A04A
:10D6500055F8281C602241F0080145F8281C55F8AF
:10D66000181C41F0080145F8181C2860C5F800A0F6
:10D6700055F8281C41F0100145F8281C55F8181CD5
:10D6800041F0100145F8181C2860C5F800A055F8B5
:10D69000281C41F0200145F8281C55F8181C41F0C1
:10D6A000200145F8181C2860C5F800A055F8281C72
:10D6B00041F0400145F8281C55F8181C41F0400184
:10D6C00045F8181C2860C5F800A055F8281C41F042
:10D6D000800145F8281C55F8181C41F0800145F8D8
:10D6E000181C2860C5F800A055F8281C41F001015D
:10D6F00045F8281C55F8181C41F0010145F8181C84
:10D700002860C5F800A055F8281C41F0020145F832
:10D71000281C55F8181C41F0020145F8181C4FF25E
:10D7200000012860C0F601012046FAF7A9FF63A1B5
:10D7300020460822FAF73EFD44F690040028C2F283
:10D74000000445D000270026C4F2DC27C4F270266E
:10D75000C4E90876012784F828700027C4F240271E
:10D76000C4E90B77002700260021C4F24837C4F231
:10D77000C82646F26662C4E91111C4E9157645F27D
:10D78000AA570020C4F266224FF07C55C5F2AA5772
:10D79000C4F22C200023E565C4E90077C4E9022126
:10D7A00004F11002C4F290130BC244F2B810E1610C
:10D7B000C2F2000021466022FAF762FFFBF7F4FF95
:10D7C00030B9FCF7E3F8B0F5807F08BFFCF7C4F987
:10D7D0004FF20001C0F6010120466022FAF750FF27
:10D7E00044F29430616CC2F20000D4E902E2D4E960
:10D7F0000437D4E90665C0F8D41294F82810D4E9A7
:10D8000008C8C0E944E2C0E94637C0E9486580F885
:10D810004811216BA26CD4E91537E66DC0F828C118
:10D82000C0F82C81C0F8D810C0F8A810C0F8E420C7
:10D83000C0E9C737C0F82463FDF79CFD62B600BF9E
:10D84000FEE74EF2A810C0F6000000F041F84EF2DC
:10D85000E60049F20052C0F600004946C0F6BA227E
:10D8600000F036F84EF245504EF24751C0F6000037
:10D87000C0F6000100F02CF8C5F800A088E600BF53
:10D88000504C4C30205072652D44697620436F6EA9
:10D890006669672D5B25645D204572726F722C206E
:10D8A00073657420746F2064656661756C742031D3
:10D8B000206469766973696F6E210A00AA55AA55BA
:10D8C000AA55AA5540F2710CC1F2000C6047000045
:10D8D0000FB4054B10B503A9044A029800F018F8DC
:10D8E00010BC5DF814FB000071B30008AC400020D0
:10D8F00002E008C8121F08C1002AFAD17047704719
:10D90000002001E001C1121F002AFBD17047000076
:10D910002DE9FF4F8DB00F460546002606E025286D
:10D920000BD0DDE90F1290476D1C761C287800287B
:10D93000F5D111B03046BDE8F08F0024A246A146D3
:10D940000122EC4900E0044315F8013F203B02FAB4
:10D9500003F00842F7D128782A2810D06FF02F0260
:10D960002878A0F13001092914D80AEB8A0102EBCA
:10D97000410144F0020400EB010A6D1CF0E701CF05
:10D980005FEA000A03D544F40054CAF1000A44F0E7
:10D9900002046D1C28782E2817D115F8010F44F0C9
:10D9A00004042A280ED06FF02F022878A0F130014D
:10D9B00009290AD809EB890102EB410100EB0109B1
:10D9C0006D1CF2E757F8049B6D1C28786C280FD06B
:10D9D00006DC4C2817D068280DD06A2814D104E042
:10D9E000742810D07A280FD10DE044F400140AE016
:10D9F00044F4801401E044F440146978814202D177
:10DA000004F580146D1C6D1C2A786E2A1FD00CDC66
:10DA1000632A31D004DC002A8BD0582A11D1A3E02C
:10DA2000642A68D0692A0CD165E0732A2ED004DC00
:10DA30006F2A73D0702A04D19BE0752A6FD0782AA0
:10DA40006ED01046DDE90F129047761C50E1C4F30A
:10DA50000250022806D0032809D0042801CF09D09B
:10DA6000066045E101CFF117C0E9006140E101CF57
:10DA700006803DE106703BE117F8040B8DF80000CD
:10DA800000208DF80100EB46012003E057F804BBAD
:10DA90004FF0FF3061074FF0000102D40DE008F1B4
:10DAA0000101884649450FDA8045F8DB1BF808106C
:10DAB0000029F4D108E008F1010188468142FADB2F
:10DAC0001BF808100029F6D1DDE90F23AAEB0800A6
:10DAD0008146214600F036F9304400EB080604E0A8
