:020000040800F2
:1000000000000120433900083F39000801070008BB
:100010003D390008DD040008893A000800000000AE
:100020000000000000000000000000004B39000844
:10003000A506000800000000413900084D390008FD
:10004000030700080B07000817070008513A0008CB
:100050005D3A0008653A0008713A00087B3A0008EA
:10006000A9060008A9060008A9060008A9060008B4
:10007000A9060008A9060008A9060008A9060008A4
:10008000A9060008A9060008A906000851060008EC
:100090005F0600086D0600087B0600088906000858
:1000A00097060008113A00081D3A0008A539000813
:1000B000E1390008ED390008F9390008053A00086F
:1000C000293A0008473A00083D3A0008333A000848
:1000D000B1390008D5390008C9390008BD39000810
:1000E000A9060008A9060008AB060008B706000824
:1000F000C3060008CF060008DB060008E706000874
:10010000A9060008A9060008A9060008A906000813
:10011000A9060008A9060008A9060008A906000803
:10012000A9060008A9060008A9060008A9060008F3
:10013000A9060008A9060008A9060008F306000899
:10014000A9060008A9060008A9060008A9060008D3
:10015000D1040008A9060008A9060008A90600089D
:10016000A9060008A9060008A9060008A9060008B3
:10017000A9060008A9060008A9060008A9060008A3
:10018000A9060008A9060008A9060008A906000893
:10019000A9060008A9060008A9060008A906000883
:1001A00000F002F800F03CF80AA090E8000C82444D
:1001B0008344AAF10107DA4501D100F031F8AFF22A
:1001C000090EBAE80F0013F0010F18BFFB1A43F035
:1001D000010318476C5700008C570000103A24BFE9
:1001E00078C878C1FAD8520724BF30C830C144BF9C
:1001F00004680C60704700000023002400250026DE
:10020000103A28BF78C1FBD8520728BF30C148BF79
:100210000B6070471FB504F02FFF1FBD10B510BD58
:10022000DFF80CD0FFF7F6FF03F0B2FE00F047F95D
:100230000000012003B4FFF7F1FF03BC03F026FC2C
:10024000032A40F2308010F0030C00F0158011F802
:10025000013BBCF1020F624498BF11F801CB00F8DA
:10026000013B38BF11F8013BA2F1040298BF00F82E
:1002700001CB38BF00F8013B11F0030300F0B08060
:10028000083AC0F0088051F8043B083A51F804CB12
:10029000A0E80810F5E7121D5CBF51F8043B40F8D8
:1002A000043BAFF30080D20724BF11F8013B11F8E3
:1002B00001CB48BF11F8012B24BF00F8013B00F827
:1002C00001CB48BF00F8012B7047431A28BF9A4260
:1002D0007FF6B6AF10441144032A40F2268010F096
:1002E000030F1EBF11F8013D521E00F8013D10F032
:1002F000030F7FF4F6AF11F0030300F0B680083A65
:10030000C0F00B8051F8043D083A51F804CD40F894
:10031000043D40F804CDFFF7F3BF121D5CBF51F858
:10032000043D40F8043DAFF30080D20724BF11F82C
:10033000013D11F801CD48BF11F8012C24BF00F890
:10034000013D00F801CD48BF00F8012C70474FF087
:1003500000020429C0F0128010F0030C00F01B8092
:10036000CCF1040CBCF1020F18BF00F8012BA8BFA0
:1003700020F8022BA1EB0C0100F00DB85FEAC17C64
:1003800024BF00F8012B00F8012B48BF00F8012B17
:1003900070474FF0000200B5134694469646203948
:1003A00022BFA0E80C50A0E80C50B1F12001BFF42E
:1003B000F7AF090728BFA0E80C5048BF0CC05DF894
:1003C00004EB890028BF40F8042B08BF704748BFE2
:1003D00020F8022B11F0804F18BF00F8012B704756
:1003E00010B5203AC0F00B80B1E81850A0E81850C2
:1003F000B1E81850A0E81850203ABFF4F5AF5FEA12
:10040000027C24BFB1E81850A0E8185044BF18C9B6
:1004100018C0BDE810405FEA827C24BF51F8043B5D
:1004200040F8043B08BF7047D20728BF31F8023BB1
:1004300048BF11F8012B28BF20F8023B48BF00F845
:10044000012B7047431A28BF9A427FF6C9AF104468
:10045000114410F0030F1EBF11F8013D521E00F8A9
:10046000013D10F0030F7FF4F6AF103AC0F00A80A0
:1004700010B531E9185020E91850103ABFF4F9AF1F
:10048000BDE81040530724BF31E9081020E90810E7
:1004900044BF51F8043D40F8043D12F0030F08BF7B
:1004A0007047D20728BF31F8023D48BF11F8012C30
:1004B00028BF20F8023D48BF00F8012C704710B556
:1004C0000446AFF300802046BDE81040FFF7B2BEFF
:1004D00048F20040C4F2030000F07DB9FEE7B0B579
:1004E000044644F20000C4F201000D46211A00F552
:1004F000805018BF0121201A18BF012001424FF07F
:10050000050057D1002D55D02068C0065CBF0120E2
:10051000B0BD606B297861F303006063606B40F0ED
:1005200020006063A06BA968400F60F35F71A16356
:10053000A06B297B20F0C04001F0030140EA41702C
:10054000A063606B20F020006063A06B6968400FBF
:1005500060F35F7141F24000A163C4F202000068E1
:1005600000F47F00B0F5003F1CD9022001F026FB0B
:10057000C0B1687BE16B002821F0F0000AD0A97BB4
:10058000EA7B01F00F0140EA0110E063E06B62F3E7
:10059000030006E040F01000E063E06B012161F32E
:1005A0000300E06328780121226B01FA00F0104378
:1005B00020630020B0BD10B544F20002C4F2010275
:1005C000831A02F5805218BF0123821A18BF012234
:1005D00013424FF0050239D1C1B30268D20601D4EB
:1005E000012233E041F24002C4F20202126802F436
:1005F0007F02B2F5403F01D2042227E0426A8B78A5
:1006000091F800E063F3410291F801C0CC784262B6
:10061000426ABEF1000F64F300024262826A4968D6
:100620004FEA527262F35F718162416A41F0800267
:1006300008BF21F080024262416A0022BCF1000F33
:100640000CBF21F0400141F040014162104610BD55
:1006500042F20000C4F20200002100F0B7BB42F2F7
:100660000000C4F20200012100F0B0BB42F2000021
:10067000C4F20200022100F0A9BB42F20000C4F261
:100680000200032100F0A2BB42F20000C4F202000B
:10069000042100F09BBB42F20000C4F202000521DD
:1006A00000F094BB70470000FEE744F20000C4F283
:1006B000020000F005BF45F20000C4F2020000F0A5
:1006C000FFBE46F20000C4F2020000F0F9BE47F29D
:1006D0000000C4F2020000F0F3BE48F20000C4F2D1
:1006E000020000F0EDBE49F20000C4F2020000F08A
:1006F000E7BE4BF20000C4F2030001F020B8000096
:10070000FEE74FF0804001F087B841F20000C4F2EC
:10071000000001F081B842F20000C4F2000001F0D4
:100720007BB810B5044600F029F800B110BD4CF2BA
:100730000000C4F2000043F6AC710160C16864F3CC
:100740000201C16000210160BDE8104000F016B850
:1007500010B5044600F026F800B110BD4CF20000C0
:10076000C4F2000043F6AC710160A1B281600021C7
:100770000160BDE8104000F015B80000B0B500F011
:10078000CFFF4CF210050446C4F200052868C007EC
:1007900006D000F0C5FF001B6528F7D30320B0BDCD
:1007A0000020B0BDB0B500F0BBFF4CF21005044610
:1007B000C4F200052868800706D500F0B1FF001BD1
:1007C0006528F7D30320B0BD0020B0BD7047704747
:1007D000704770477047B0B50446A0F18040A0F55F
:1007E00060304FEAB020032888BFB0BD606921693E
:1007F00001EA0005A80505D54FF4007020612046E8
:1008000000F047F8E80505D54FF4807020612046D8
:1008100000F03EF8280604D5802020612046FFF72E
:10082000D7FF680604D5402020612046FFF7CFFFA0
:10083000A80604D5202020612046FFF7C7FFE80660
:1008400004D510202061204600F01FF8280704D5A9
:10085000082020612046FFF7BDFF680704D504206B
:1008600020612046FFF7B5FFA80704D502202061CC
:10087000204600F00CF8E80700D1B0BD0121204669
:100880002161BDE8B04000F001B870477047704783
:100890007047704745F2000340F48052C4F20103F0
:1008A0009A4201D10F2901D90020704784B040F24B
:1008B0000012C0F20232009240F20452C0F20672FC
:1008C000019240F60842C1F21042029242F218022E
:1008D000C4F2300203926A46515C02680846082955
:1008E00028BF0820520348BF084604B070470000E4
:1008F0002DE9F0470C4644F20001C4F2010105461F
:10090000401A01F5805218BF0120AB1A18BF01230D
:1009100018424FF0050026D12CB3A068002800F043
:10092000F48040F20C004FF0000A9542C2F2000041
:1009300008BF00F1540A8D4208BF8246BAF1000F89
:1009400013D09AF800009AF8081008439AF8181083
:10095000C0B208439AF828109AF838200843104388
:100960004FF0020004D0BDE8F0870120BDE8F08719
:100970008AF800008AF808008AF818008AF8280027
:100980008AF83800A06B45F29469C0F6000941F27C
:100990004008002818BF81462846C4F2020800F02B
:1009A0003BF9286845F2000740F010002860286AEB
:1009B000C4F2010700F470302862D8F8000000F497
:1009C0007F00B0F5003F4DD9022001F0F7F8002874
:1009D00048D0686899F8032099F8011062F317501D
:1009E00099F802306860686803F00F0220F07060C8
:1009F00040EA02606860686820F0704040EA017078
:100A000045F48051B94268601DD12868C0061AD5E6
:100A1000D8F8000000F47F00B0F5403F13D3686AB7
:100A200020F002006862686A20F001006862A86A2B
:100A300060F06040A862686A20F080006862686ABE
:100A400020F04000686209F104012846FFF7B3FD79
:100A500099F80010286800290CBF20F4004040F4E9
:100A6000004028606969227B637BD4F804C0D018F9
:100A70000330A668BCFBF0F0090AB0FBF6F00138C1
:100A800061F31F206861286962F305002861286905
:100A900063F30C2028612869A17B61F3134028616E
:100AA00020782968A0B341F4802028606078296804
:100AB000002841F4003208BF21F400322A60216985
:100AC00019B36869227D637DD6180336BCFBF6F640
:100AD00094F816C0B6FBF1F14FF47F4606EB012106
:100AE000090A61F30F20686128690CF0030162F3C1
:100AF00017502861286963F34F302861286920F076
:100B0000C00040EA8110286105E00520BDE8F087BB
:100B100021F480202860002045F48051012200BF8C
:100B2000B9422FD12B68DB062CD56B6B23F00F035A
:100B300003436B636B6B43F020036B63AB6B03F09E
:100B40006043AB63AB6B23F0C043AB636B6B23F0D1
:100B500020036B63AB6B03F06043AB63D8F80030EA
:100B600003F47F03B3F5003F07D9EB6B62F3071380
:100B7000EB63EB6B62F30303EB632B6B02FA00F6A0
:100B8000B3432B6301301028CAD194F8200068B118
:100B900000270026E069C1192846FFF7A0FC94F859
:100BA00020000136864207F11007F3D3286820F0B1
:100BB000100028602868E17D20F0704040EA017054
:100BC000627E2860286802F00F0120F0706040EA21
:100BD00001602860D8F8000010F47E0F04D0286867
:100BE000217E61F34D3028604FF0FF30E860012036
:100BF0008AF800008AF808008AF818008AF82800A5
:100C00008AF8380004F124078FCF0AF1400C8CE8F1
:100C10008F000020BDE8F08780B584B045F2000267
:100C20000021C4F20102039101910A219042029134
:100C300011D044F20001C4F20101884219D11820F8
:100C4000019045F20000C4F2020001A900F05CFC32
:100C500001F091F80DE04FF44070019045F2000072
:100C60008DF80810C4F2020001A900F04DFC01F05B
:100C700099F804B080BDF0B581B0154645F2000288
:100C8000044640F48050C4F2010290421AD144F26A
:100C90000000C4F2010000F5805240F20C0300276E
:100CA0009442C2F2000308BF03F15407844208BF14
:100CB0001F462FB1387E012806D1E068000605D412
:100CC000012024E0052022E0042020E004203876E2
:100CD0000020F86180203D617961E06081B1206C85
:100CE0000860606C48605DB100F00F01204604F1BF
:100CF0004806FFF7CFFD024628463146FFF7A0FA27
:100D0000206840F48010206001203876002001B077
:100D1000F0BD0000F0B581B0154644F20002C4F207
:100D200001020446801A02F5805318BF0120E71A19
:100D300018BF012738424FF0050045D1002943D0A4
:100D400040F20C0000269C42C2F2000008BF00F1F5
:100D50005406944208BF06469EB33078012832D12B
:100D6000206880052DD4032000273070776020682C
:100D700020F4805020600868C4F888004868C4F8EF
:100D80008C00B5B1486800F00F012046FFF782FDE6
:100D90000330B7EB900F0CD08008002155F82120CC
:100DA00001F00F03013104EB83038842C3F8902064
:100DB000F4D1206840F400702060012030700020E1
:100DC00002E0012000E0042001B0F0BD2DE9F04177
:100DD00042F20002C4F2020290425AD10C460529A6
:100DE00057D802EB44152E4656F80C0F55F8141F31
:100DF00040F2B80800F008078807C2F200080ED5D4
:100E00001FB9306820F40070306002202860C4EB05
:100E1000C40008EB8000C16909B18069884728686F
:100E2000400718D55FB9306820F4806030603068C2
:100E300020F480703060306820F40070306004204E
:100E40002860C4EBC40008EB8000C1680122027175
:100E500009B1806888472868C00708BFBDE8F081ED
:100E60003068012220F480603060306820F48070A7
:100E70003060306820F400703060C4EBC4002A6039
:100E800008EB80004169027119B10069BDE8F041C9
:100E90000847BDE8F08100002DE9F04143F200046D
:100EA000C4F20204A04203D000273846BDE8F08116
:100EB00041F24007C4F202070E46F9691546080CD4
:100EC0004FF6FF728002B2EB114F08BF4FF4802043
:100ED000B0F5003F0BD0B0F5802FE5D1206C00F0CD
:100EE00070612020B1F1206F08BF402000E0202079
:100EF000B042D9D9711901398142D5D220464FF477
:100F0000967100F081F90028CED1386800F47F0096
:100F1000B0F5003F0FD8206C00F07060B0F1206F8A
:100F200009D1206C00F0704000F1C040B0FA80F0B0
:100F30004FEA501801E04FF00008206A20F44010FA
:100F400020622068B0F1FF3F0CDC606A43F6AC71B0
:100F500061F30F006062606A48F2E47161F30F00B0
:100F6000606220680027DDB1206AF119B8F1000F36
:100F700018BF81F020016FF3120001F03F01084417
:100F800020622068012140F00200206020464FF4DA
:100F9000967200F0A5F918B90137BD42E4D12F4689
:100FA000206800283FF581AF206840F000402060B5
:100FB00020687AE7B0B543F20004C4F20204A0420C
:100FC00001D00520B0BD41F25C00C4F202000D4624
:100FD00001684FF6FF72080C8002B2EB114F08BF98
:100FE0004FF48020B0F5003F0BD0B0F5802FE8D152
:100FF000206C00F070612020B1F1206F08BF40200C
:1010000000E02020A842DCD920464FF4967100F081
:10101000FBF808B10120B0BD204629460122FFF7A8
:101020003BFF013818BF0120B0BD00002DE9F0479B
:1010300043F20004C4F20204A04211D141F240057F
:10104000C4F202059246EA691F46100C4FF6FF7380
:101050008002B3EB124F08BF4FF480204A0703D041
:1010600000263046BDE8F08721F07F4808EB0701F5
:1010700081424FF00006F4D8BAF1000FF1D017F01A
:101080000701EED18045ECD220464FF4967100F076
:10109000BBF80028E4D1286800F47F00B0F5003FD9
:1010A0000FD8206C00F07060B0F1206F09D1206C77
:1010B00000F0704000F1C040B0FA80F04FEA5019E3
:1010C00001E04FF000092068B0F1FF3F0CDC606ADE
:1010D00043F6AC7161F30F006062606A48F2E4713C
:1010E00061F30F00606220680026B6EBD70F25D0B1
:1010F000FD0827F0070700265AF806000AEB06014C
:101100002061486808EB06016061206AB9F1000FB0
:1011100018BF81F4003161F31200206220680021C1
:1011200040F00100206020464FF4967200F0D8F89D
:1011300020B9013D06F10806DED13E4620680028B0
:101140008FD4206840F000402060206889E743F297
:101150000001C4F20201884221D141F25C00C4F2D4
:10116000020002684FF6FF73100C8002B3EB124FBF
:1011700008BF4FF48020B0F5003F04BF4FF480500B
:101180007047B0F5802F0AD1086C00F070614FF401
:101190000050B1F1206F08BF4FF48050704700201D
:1011A00070470000B0B543F2000EC4F2020E844650
:1011B000704521F07F4101D000240DE041F25C0038
:1011C000C4F2020000684FF6FF75040CA402B5EBF0
:1011D000104F08BF4FF48024C818A0424FF0000001
:1011E00010D8F4450ED16AB1A1420BD253B101F12E
:1011F000006100200D5C145CA54203D101308342E4
:10120000F8D11846B0BD0000F0B581B043F2000738
:101210000C460646C4F2020700F082FA054600209A
:10122000BE428DF8030001D005204FE041F240009E
:10123000C4F202000068661C00F47F00B0F5003FB5
:101240002CD900BF38683968C04320EA510079685A
:101250007A68884320EA5200B968BA6820EAD10067
:10126000D14300EAD1708DF8030026B100F058FA9E
:10127000401BA04229D89DF80300C007E2D0B868FF
:10128000400703D1B86810F4E06F26D00720B8609B
:101290004FF4E060B860012018E000BF3868C00774
:1012A0000CD13868800709D47868C00706D17868FF
:1012B00080075CBFB8685FEA007009D5002EEDD0EA
:1012C00000F02EFA401BA042E8D9032001B0F0BD87
:1012D000B868400701D00720DCE70020F6E70000EF
:1012E0002DE9F04381B043F2000714460D4606464F
:1012F000C4F2020700F014FABE4201D0052019E042
:1013000041F24008C4F202080646D8F80000B96865
:1013100000F47F00B0F5003F01F0070005D960B18F
:101320000720B8604FF4E06002E0002838D00720C2
:10133000B860012001B0BDE8F08304F1010900BFED
:10134000B86810F4E06FEBD1B9F1000F04D000F0F1
:10135000E7F9801BA04253D8D8F8000000F47F00C2
:10136000B0F5003F02D9B868002815D4052D45D83E
:10137000DFE805F007090B0F0303B86800070BD47B
:101380003CE0386802E0386804E07868C00703D1C0
:1013900034E07868800731D5B8684007D0D0BFE71F
:1013A00004F10109B9F1000F04D000F0B9F9801B74
:1013B000A04225D8D8F8000000F47F00B0F5003F27
:1013C00002D9B868002815D4052D17D8DFE805F034
:1013D00007090B0F0303B86800070BD40EE0386849
:1013E00002E0386804E07868C00703D106E0786856
:1013F000800703D5B8684007D4D098E7002099E764
:10140000032097E7A0F18042A2F510324FEA323272
:10141000052A44D80022B2EB114F4FF005023FD10C
:101420008BB2EBB32DE9F04300224FF001084FF0EF
:101430000F0C4FF0030E0024002500BF08FA05F63C
:101440000E4022D02427082D38BF202750F80790BF
:1014500004F01C030CFA03F343EA0903C351836C41
:101460000EFA02F7B3438364836BB3438363036B66
:10147000BB4303630369B34303614369BB434361F4
:101480008661036843EA0643036001350434102D86
:1014900002F10202D2D10022BDE8F04300E00522B1
:1014A0001046704747F20002C4F2020290420CBF9D
:1014B0008029704702F58050022100F0FCB800003E
:1014C0002DE9F0410446A0F18040A0F510304FEA2C
:1014D0003030052888BFBDE8F0812569A66900275E
:1014E0004FF0010808FA07F188B2284218BF10EA45
:1014F000060003D02046A161FFF7D4FF0137102F6B
:10150000F0D1BDE8F08100002DE9F04F81B0054633
:1015100000294FF0050000F0CB8041F2400CC4F2EE
:10152000020C0C46A5EB0C01A1F53F52A1F57F5131
:10153000B2FA82F2B1FA81F152094909114346F235
:101540000002C4F20202AB1A02F58052B3FA83F72A
:10155000AA1A7F09B2FA82F2394352091143A3F55C
:101560000052B2FA82F252091143A3F54052B2FA84
:1015700082F25209114300F09B8021680020B0EBF9
:10158000114F4FF0050040F093808AB2002A00F01E
:101590008F8005F1240A05F1200E4FF000094FF06D
:1015A000000B4FF0000800BF012000FA08F00840CF
:1015B0004ED021794A1E0F2A55D25246B8F1080F53
:1015C00038BF724613680BF01C070F26BE40B940A7
:1015D000B343314019431160217A0029A96B14BF2C
:1015E00001438143A963E1790029A96C14BF084331
:1015F00021EA0000A864286B6279032102F003024B
:1016000001FA09F102FA09F28843114008432863FC
:10161000DCF8000000F47F00B0F5003F18D980200E
:101620006646774600F0CAFABE46B44680B1607A94
:101630002168C2072A6C0CBF8A430A4380072A64C8
:101640004FEA0140296C54BF21EA00000843286496
:10165000B8F10F0F29D0216808F101080BF1040B34
:1016600009F10209A0E711BB5146B8F1080F38BFD4
:1016700071460A680BF01C030F2606FA03F39A431F
:101680000A60A1790029B6D06A69032301F0030139
:1016900003FA09F301FA09F19A4319401143696108
:1016A000A861296908432861A5E7002000E001201E
:1016B00001B0BDE8F08FA0F18042A2F510324FEAF0
:1016C0003232052A11D80022B2EB114F0DD18AB265
:1016D000002A08BF704783680B4203D0026842EAC1
:1016E000014101E00168114301607047A0F18043AE
:1016F000A3F510334FEA3333052B10D80023B3EB97
:10170000114F0CD18BB2002B08BF7047012A02D1B8
:101710000168194302E0026842EA01410160704732
:1017200040F60000C2F20000006870477047704742
:101730007047704770477047704770477047B0B543
:101740004BF20004C4F20304A04218BFB0BD4BF634
:101750001470C4F203000068D4F8101F01EA0005F9
:10176000A80705D50220C4F8100F2046FFF7DFFFB9
:10177000680705D50420C4F8100F2046FFF7D8FFEE
:10178000280705D50820C4F8100F2046FFF7D1FF21
:10179000E80605D51020C4F8100F2046FFF7CAFF51
:1017A000A80605D52020C4F8100F2046FFF7C3FF78
:1017B000680605D54020C4F8100F2046FFF7BCFF8F
:1017C000280605D58020C4F8100F2046FFF7B5FF86
:1017D000E80506D54FF48070C4F8100F2046FFF7D7
:1017E000ADFFE80705D00120C4F8100F204600F037
:1017F0000CF8280400D4B0BD4FF400412046C4F8D2
:10180000101FBDE8B040FFF791BF704770477047A9
:10181000704770477047704770B540F284160446B1
:10182000B0F1804FC2F200060FD042F20000C4F2C5
:101830000000844208D041F20000C4F2000084425B
:1018400040F0DB80383600E07036206B616B01EAD7
:101850000005E80707D0F06910B1F1692046884714
:10186000204600F0D0F8A80707D5F06810B1F1685D
:1018700020468847204600F0D0F8680704D50420A9
:101880006063204600F0C1F8280704D50820606393
:10189000204600F0BCF8E80604D51020606320461E
:1018A00000F0BCF8680604D5402060632046FFF7CE
:1018B000ADFF280604D5802060632046FFF7A7FF10
:1018C000E80505D54FF480706063204600F09AF873
:1018D000A80505D54FF400706063204600F099F824
:1018E000680505D54FF480606063204600F090F8ED
:1018F000280505D54FF4006060632046FFF78AFF96
:10190000E80417D54FF480506063708931898842AC
:1019100004D3F06810B1F16820468847708B318B92
:10192000884204D3F06910B1F16920468847204607
:10193000FFF771FFA80405D54FF4005060632046FF
:10194000FFF767FF680405D54FF4804060632046C9
:1019500000F05AF8280405D54FF400406063204693
:1019600000F04CF8E80305D54FF480306063204662
:1019700000F046F8A80305D54FF400306063204618
:1019800000F049F8680305D54FF4802060632046D5
:1019900000F03CF8280305D54FF400206063204692
:1019A00000F038F8E80205D54FF480106063204657
:1019B00000F027F8A80205D54FF400106063204618
:1019C00000F02AF8680202D5204600F018F841F22B
:1019D0004000C4F20200006800F47F00B0F5403F10
:1019E00038BF70BD15F4000007D04FF40001204649
:1019F0006163BDE87040FFF70BBF70BD7047704773
:101A0000704770477047704770477047704770471E
:101A10007047704770477047704770477047B0B560
:101A20004CF20004C4F20004A0421CBF0520B0BD6B
:101A30004DF6DD5020604FF6FF70FEF789FE00B1D5
:101A4000B0BD00200025FEF76CFE0028F8D143F65B
:101A5000AC702060606820F002006060606820F078
:101A600001006060042025602061204600F033F80A
:101A70000020B0BDB0B54CF20004C4F20004A04296
:101A80004FF0050008D10D4631B1204600F024F892
:101A90002868FEF75DFE00B1B0BD6879FEF741FE33
:101AA0000028F9D143F6AC7020602979606841B113
:101AB00040F00100606004202061606840F0020096
:101AC00005E020F001006060606820F002006060C6
:101AD00000202060B0BD7047704710B54CF2000484
:101AE000C4F20004A0421CBF052010BDFEF75AFE40
:101AF00000B110BDFEF742FE0028FAD14AF6AA2036
:101B00002060002010BD01464CF20000C4F200002D
:101B100081421CBF052070474CF6CC410160FFF7A5
:101B2000DCBF40F2040040F60001C2F20000C2F245
:101B3000000100780A6810440860704710B543F24D
:101B40000000C4F20200016841F010010160016868
:101B500041F020010160032000F0BAF80F2000F0EE
:101B600005F8044600F035F8204610BDB0B540F247
:101B70000405C2F20005297861B1044600F058FC62
:101B800029784FF47A72B2FBF1F1B0FBF1F000F07A
:101B9000F5FE10B104252846B0BD0F2C0CD84FF02F
:101BA000FF3021460022002500F060F840F20800D6
:101BB000C2F200000460EEE70125ECE740F2641198
:101BC000C2F2000109680140081AB0FA80F0400929
:101BD000704780B500F048F900F059F900F06AF953
:101BE00000F07BF900F08CF900F09DF92A2000F05C
:101BF0002BF82B2000F028F82C2000F025F82D20C1
:101C000000F022F82E2000F01FF82F2000F01CF822
:101C100000F004F9BDE8804000F013B9002812D4A8
:101C2000C1B200F01F00012202FA00F04EF2801251
:101C3000CEF2000242EAD10121F003010860BFF3B5
:101C40004F8FBFF36F8F704700280ED4C1B200F0E2
:101C50001F00012202FA00F04EF20012CEF2000242
:101C600042EAD10121F003010860704742EA010312
:101C70000F2B88BF704710B54EF60C5CCEF2000CEF
:101C8000DCF80030C3F3022E8EF00704042C28BFCA
:101C90000424BEF103034FF0FF3E0EFA04F438BFF4
:101CA0000023A14399400EFA03F39A43114300F035
:101CB0000F02043A624409010C3200F16043B0F1B2
:101CC000FF3FC8BF03F564421170BDE81040704784
:101CD000C11E042988BF70474EF60C51CEF2000198
:101CE0000A684FF6FF031A4060F30A2242F0806050
:101CF00040F0FD70086070474A1E0F2A84BF05201F
:101D00007047382248F2E473C4F20202C3F6AC739F
:101D10009364136800F0030023F00C0343EA80008F
:101D20001060F023106903EB0111090961F307103A
:101D30001061012090640020704740F200003021C3
:101D4000C2F20000C4F2020100680968C1F3032175
:101D50000131B0FBF1F0704740F200003021C2F2D7
:101D60000000C4F2020100680968C1F303310131C7
:101D7000B0FBF1F070474C2048F2E471C4F202006D
:101D8000C3F6AC714163816841F010018160016864
:101D900041F400510160816941F01001816101212C
:101DA000416370474C2048F2E471C4F20200C3F66C
:101DB000AC714163816841F020018160016841F4A8
:101DC00080410160816941F020018161012141630D
:101DD00070474A1E92B20F2A84BF052070473822EE
:101DE00048F2E473C4F20202C3F6AC73936413685E
:101DF00000F0030023F0C00343EA80104FF2000319
:101E00001060CFF6FF73106903EB0131090B61F32A
:101E10000F3010610120906400207047582048F274
:101E2000E471C4F20200C3F6AC718162016841F052
:101E300001010160016941F001010161012181623B
:101E40007047582048F2E471C4F20200C3F6AC7146
:101E50008162016841F002010160016941F0020103
:101E60000161012181627047582048F2E471C4F297
:101E70000200C3F6AC718162016841F004010160A7
:101E8000016941F00401016101218162704758201C
:101E900048F2E471C4F20200C3F6AC7181620168D9
:101EA00041F008010160016941F00801016101216F
:101EB00081627047582048F2E471C4F20200C3F610
:101EC000AC718162016841F010010160016941F06B
:101ED00010010161012181627047582048F2E471CC
:101EE000C4F20200C3F6AC718162016841F02001C6
:101EF0000160016941F020010161012181627047A7
:101F0000582048F2E471C4F20200C3F6AC71816259
:101F1000016841F040010160016941F04001016147
:101F2000012181627047582048F2E471C4F2020036
:101F3000C3F6AC718162016841F080010160016902
:101F400041F0800101610121816270472DE9F04F6C
:101F500085B041F22001C4F202010A6C0020C4F2F3
:101F600002000092D1F800E0026848F2E472C3F681
:101F7000AC72C0F8802048F2E4724A6248F63D2212
:101F80004A6241F6EC124A620A6C032342F40052A0
:101F90000A640A6C4EF6FC5942F480520A640A68DC
:101FA000CEF2000942F480720A600A6841F2002C05
:101FB00063F38E220A60D9F80020D9F8007041F24C
:101FC000000347F08077CEF20003C9F800700027C5
:101FD0005F601C689FED690A9FED691AC0F27A0C78
:101FE00044F001041C6000BF5C68CD6C664615F5CA
:101FF000807F3CBFCD6C2E0A02EE106AB8EE422AFA
:1020000082EE002A22EE012ABCEEC22A12EE105AFB
:10201000AC42E9D348F2000448F22135C4F203048B
:10202000C0F2800565602B25A5600025A5612025EF
:10203000A56211252564256802F0807845F001022B
:10204000226000BF2269D205FCD5226842F004025A
:102050002260D4F8002142F40032C4F8002100BF0D
:10206000D4F800219203FBD5626DD4F800511226FA
:1020700045F40035C4F800510D6802EBD27266F3E6
:102080008E250D6005689FED3F1A45F4003505600B
:1020900005684FEA620B25F00045056006684FF0C1
:1020A000000A01AF002200BF26F4407545EA022570
:1020B0000560056845F000450560C3F804A01D688B
:1020C00045F001051D6000BF5E68CD6C15F5807F91
:1020D00065463CBFCD6C2D0A02EE105AB8EE422A7E
:1020E00082EE002A22EE012ABCEEC22A12EE105A1B
:1020F000AE42E9D3656DB5EB0B0648BF764247F8B3
:102100002260D4F80051013245F40035C4F8005182
:102110000568042A25F0004505600668C4D126F448
:10212000003202601A6822F001021A60D9F8002019
:10213000002342EA0802C9F800200022D5B257F86D
:10214000236057F82550AE4238BF1A460133042B9E
:10215000F4D1236843F001032360C1F800E0009B41
:102160000B640123C0F880304FF480304FF400330B
:102170004862D0B24B6205B0BDE8F08F00247449CC
:10218000000096440080BB443820C4F20200416A3B
:1021900021F008014162416921F0010141610168BA
:1021A00021F00C010160016921F0F0010161416A37
:1021B00041F008014162416941F001014161416B17
:1021C00021F008014163416B41F008014163704710
:1021D0002DE9F04F81B00025C4F202050C46002124
:1021E000A8424FF005008DF8031040F01081002C3C
:1021F00000F00D81666845F2A0610020C0F6000184
:102200000A58B24205D10A185368A768B7EB530FB2
:1022100013D01830B0F5287FF2D1207801281BD1D7
:1022200041F26C00C4F20200016811F5807F10D306
:1022300041F20026C0F27A060DE0506992F808B02B
:10224000B2F80AA0B2F80C8080034FEA530987B2B3
:102250002EE00068060A6660002E5BD0D4F8089075
:10226000484602F00EFD804630460F4602F009FD5A
:1022700002460B464046394602F07CFB074688463C
:1022800002F0D0FC824602F0FCFC02460B463846C7
:10229000414602F007FE9FED640B53EC102B02F059
:1022A00003FD02F0BFFC80464FF0010B4FF40047E6
:1022B00048F2E4704CF20021C3F6AC70C0F6EB318A
:1022C00089458146C5F880000CD12078012806D0C8
:1022D00040B941F20020C0F27A00864202D10E4697
:1022E000002003E00E46FFF74FFF01208DF80300AA
:1022F000286820F000402860207803280CD00128AE
:102300000ED038B9296F41F001012967296821F001
:1023100003010DE001207AE0296841F0030107E0A4
:10232000296F012241F010012967296862F3010138
:10233000B646BBF1020F296007D02968BC4621F4DC
:1023400000610122BBF1010F04E02968BC4641F4A1
:10235000006102222960D4E901132E68B1FBF2F278
:1023600041F6003726F48064C0F2B707BA4288BF4E
:1023700046F480642C606A686FF39F3A6FF31D42E5
:1023800042EA0A426A606A684FF6FF77BA434244FB
:102390006A602A68734522F4404242EA0C022A60CD
:1023A0000FD1012836D060B941F20020C0F27A0086
:1023B000814206D141F26C00C4F202004068800FF5
:1023C00003E0FFF7C3FDC5F880909DF8031079B1D5
:1023D000E96E21F00801E966E96E41F00801E9665D
:1023E000E96D21F00801E965E96C21F00101E9647A
:1023F000296860F309212960286840F000402860BE
:1024000028684000FCD50120C5F88000002001B0FC
:10241000BDE8F08F41F26C00C4F20200006800F0E9
:102420000300D2E700BF00BF000000000000F04042
:1024300040F20000C2F20000006870472DE9F0434E
:1024400083B03025C4F202050C460146A5F13000E8
:1024500081424FF0050140F0C680002C00F0C3809F
:10246000D4F804C0BCF1000F13D02278032A2ED870
:10247000DFE802F002111C0A41F26C01C4F2020111
:102480000B6813F5807F19D341F2002CC0F27A0C4F
:102490001BE00521A7E041F26C01C4F20201CB6808
:1024A00013F1011F0ED94FF4FA4C0EE06378012BA3
:1024B00000F09D80002B00F0A28008E009684FEA40
:1024C000112C02E0C9684FEA114CC4F804C0A3897A
:1024D00048F2E4799F1EBFB20F2F24BF0223A381CD
:1024E000E689C3F6AC79B71EBFB20F2F24BF022610
:1024F000E681278A4FF00108791E89B2402924BF5E
:1025000001272782032AC5F850900BD8DFE802F094
:10251000020C1134286C40F010002864286820F068
:10252000030030E001215CE02868012161F3010033
:1025300029E0296801F00301022907D1296C41F043
:1025400010012964296821F0030129606178A268DB
:102550008DF800106946CDE9012CFFF739FE0146E0
:10256000C5F85090E8BB2868022161F3010028609B
:10257000A389E689278A07E0286C40F001002864D7
:10258000286840F0030028604FF47061286801EB70
:102590000321090A61F30B204FF200012860CFF6F6
:1025A000FF71286801EB0631090B61F30F302860D9
:1025B000FC21286801EB8701890861F38700286006
:1025C0002868002140F480302860286840F40030FA
:1025D0002860286840F480202860286840F40020A3
:1025E0002860C5F85080084603B0BDE8F08341F28A
:1025F0006C03C4F202031F6817F5807F04D341F215
:102600000023C0F27A0301E01B681B0AA3605EE7A7
:10261000542048F2E471C4F20200C3F6AC71C16206
:10262000016821F400610160016921F40061016128
:102630000121C1627047542048F2E471C4F20200E3
:10264000C3F6AC71C162016841F4006101600169C7
:1026500041F4006101610121C16270475C2048F2D0
:10266000E471C4F20200C3F6AC714162016821F06A
:1026700002010160016921F0020101610121416251
:1026800070475C2048F2E471C4F20200C3F6AC71FA
:102690004162016841F002010160016941F00201FB
:1026A0000161012141627047542048F2E471C4F293
:1026B0000200C3F6AC71C162016821F4805101606F
:1026C000016921F4805101610121C16270475420E8
:1026D00048F2E471C4F20200C3F6AC71C162016851
:1026E00041F480510160016941F48051016101218F
:1026F000C1627047542048F2E471C4F20200C3F68C
:10270000AC71C162016821F400510160016921F4DA
:10271000005101610121C1627047542048F2E47107
:10272000C4F20200C3F6AC71C162016841F4005109
:102730000160016941F4005101610121C1627047EA
:10274000582048F2E471C4F20200C3F6AC71816211
:10275000016821F480710160016921F480710161D7
:10276000012181627047582048F2E471C4F20200EE
:10277000C3F6AC718162016841F480710160016946
:1027800041F480710161012181627047582048F253
:10279000E471C4F20200C3F6AC718162016821F4F5
:1027A00000710160016921F4007101610121816200
:1027B0007047582048F2E471C4F20200C3F6AC71CD
:1027C0008162016841F400710160016941F40071A6
:1027D0000161012181627047502048F2E471C4F226
:1027E0000200C3F6AC710163016821F04001016091
:1027F000016921F04001016101210163704750200E
:1028000048F2E471C4F20200C3F6AC7101630168DE
:1028100041F040010160016941F040010161012185
:1028200001637047502048F2E471C4F20200C3F61D
:10283000AC710163016821F080010160016921F040
:1028400080010161012101637047502048F2E47169
:10285000C4F20200C3F6AC710163016841F080016B
:102860000160016941F0800101610121016370474C
:102870005C2048F2E471C4F20200C3F6AC7141621C
:10288000016821F001010160016921F0010101618C
:102890000121416270475C2048F2E471C4F20200F9
:1028A000C3F6AC714162016841F001010160016948
:1028B00041F001010161012141627047502048F25D
:1028C000E471C4F20200C3F6AC710163016841F027
:1028D00008010160016941F0080101610121016302
:1028E0007047502048F2E471C4F20200C3F6AC71A4
:1028F0000163016841F010010160016941F01001BC
:102900000161012101637047502048F2E471C4F273
:102910000200C3F6AC710163016841F0200101605F
:10292000016941F0200101610121016370475420D8
:1029300048F2E471C4F20200C3F6AC71C1620168EE
:1029400041F001010160016941F0010101610121D2
:10295000C1627047542048F2E471C4F20200C3F629
:10296000AC71C162016841F002010160016941F08E
:10297000020101610121C16270477047411E0020C0
:10298000B0EB116F1CBF012070474EF21002CEF267
:10299000000251604EF62351CEF20001F0230B707D
:1029A0000721906011607047FFF7E7BFF0B581B075
:1029B000044600294FF0050000F0B2800D4648F2B1
:1029C0000001C4F2000101F58053621AE31AB2FA61
:1029D00082F2B3FA83F352095B091A4348F2000307
:1029E000C4F20103E71AB7FA87F77F093A4303F500
:1029F0008057E71B03F50053B7FA87F7E31A7F09FF
:102A0000B3FA83F33A435B091A434AF20003C4F270
:102A10000203E71A03F58053B7FA87F6E31A76093B
:102A2000B3FA83F332435B091A43A7F5C043B3FA01
:102A300083F35B091A43A7F5E043B3FA83F35B0919
:102A400001F5C0411A43631AB3FA83F35B091A43D1
:102A5000D20765D041F24000C4F2020000688C4207
:102A60001CD100F47F00B0F5003F17D94EF21007DB
:102A7000C4F20007386A4FF6FF71AA8888431044F1
:102A80003862FEF74DFE06463868C0030BD5FEF7E8
:102A900047FE801B0A28F7D9032041E068682063BD
:102AA0002889A06304E0B86A298961F30700B86245
:102AB00020686A78297862F3C300AB78AF7A206027
:102AC000606863F30200606020682A7B62F3820022
:102AD0002060E87A2268002822F0020308BF42F052
:102AE000020323602068002940F0800208BF20F024
:102AF00080022260E06A67F30300E062687B206482
:102B00002068A97B61F3461020602068E97B61F3AF
:102B1000041020602068297C61F3092020600020D7
:102B200001B0F0BD7047704770B541F20001044636
:102B300040F48050C4F20301884223D1E068256943
:102B400000F400662E4205D04FF40060206120465C
:102B5000FFF7E8FF46B115F4005005D04FF40050E0
:102B600020612046FFF7DFFF002E08BF70BD15F47F
:102B7000805007D04FF4805120462161BDE870405D
:102B800000F058BB70BDB0B541F20001044640F4FE
:102B90008050C4F20301884218BFB0BDE0682169CB
:102BA00001EA0005280604D580202061204600F0B7
:102BB0003BF8680604D540202061204600F033F839
:102BC000A80604D520202061204600F02BF8E80656
:102BD00004D510202061204600F023F8280704D5F2
:102BE00008202061204600F01BF8680704D5042067
:102BF0002061204600F013F8A80704D502202061C8
:102C0000204600F00BF8E80700D1B0BD01212046B6
:102C10002161BDE8B040AFF3008070477047704756
:102C20007047704770477047704749F6FF72C4F2AB
:102C3000010290424EF200024FF00501C4F2000280
:102C400012DC4DF6FF73C4F20003984222DD90427D
:102C500037D048F20003C4F20103984231D049F260
:102C60000003C4F201032AE04AF6FF73C4F2020330
:102C700098421ADD4BF20003C4F20203984220D0BE
:102C800041F20003C4F2030398421AD00023C4F2B5
:102C9000030314E048F20003C4F20003984210D08A
:102CA00049F20003C4F2000309E04AF20003C4F24F
:102CB0000103984205D04AF20003C4F2020398428D
:102CC00038D180B5416A904221F001014162416AE8
:102CD00021F010014162416A21F480714162416A30
:102CE00021F480514162416A21F002014162416A4E
:102CF00021F020014162416A21F400714162416A80
:102D000021F40051416241F24001C4F202010B681A
:102D1000016807D103F47F02B2F5003F02D9C90769
:102D200003D0016821F00101016000F01DF90021CC
:102D3000BDE8804008467047F0B581B0044649F6CA
:102D4000FF70C4F20100844216DC4DF6FF70C4F23D
:102D50000000844226DD4EF20000C4F200008442EE
:102D600037D048F20000C4F20100844231D049F269
:102D70000000C4F201002AE04AF6FF70C4F202002B
:102D800084421ADD4BF20000C4F20200844220D0DB
:102D900041F20000C4F2030084421AD00020C4F2C1
:102DA000030014E048F20000C4F20000844210D096
:102DB00049F20000C4F2000009E04AF20000C4F247
:102DC0000100844205D04AF20000C4F202008442AD
:102DD0006CD1E768266906EA0705A80505D54FF412
:102DE00000702061204600F0C5F9E80505D54FF4D4
:102DF00080702061204600F055FA680505D54FF433
:102E000080602061204600F02AFA280507F4006758
:102E100005D54FF4006020612046FFF783FE47B1DF
:102E200016F4005005D04FF4005020612046FFF703
:102E30007AFE47B116F4805005D04FF480502061DF
:102E4000204600F0F7F9280604D5802020612046AE
:102E5000FFF7EAFE680604D5402020612046FFF710
:102E6000E2FEA80604D5202020612046FFF7DAFE06
:102E7000E80604D5102020612046FFF7D2FE28077F
:102E800004D5082020612046FFF7CAFE680704D554
:102E9000042020612046FFF7C2FEA80704D50220C7
:102EA00020612046FFF7BAFEE80701D101B0F0BD6E
:102EB00001212046216101B0BDE8F040FFF7ADBE21
:102EC00049F6FF71C4F2010188424FF0050116DC9A
:102ED0004DF6FF72C4F20002904226DD4EF200026F
:102EE000C4F20002904237D048F20002C4F201025C
:102EF000904231D049F20002C4F201022AE04AF6BF
:102F0000FF72C4F2020290421ADD4BF20002C4F2D8
:102F10000202904220D041F20002C4F20302904229
:102F20001AD00022C4F2030214E048F20002C4F2F4
:102F30000002904210D049F20002C4F2000209E0FF
:102F40004AF20002C4F20102904205D04AF20002A5
:102F5000C4F20202904205D180B500F088F8002149
:102F6000BDE880400846704780B549F6FF71C4F25D
:102F70000101884224DD4AF6FF71C4F20201884251
:102F800034DD4BF20001C4F2020188424ED0002130
:102F9000C4F2030188424DD041F20001C4F20301A2
:102FA000884218BF80BDFFF759FB2420FEF736FE8C
:102FB0002520FEF733FE2620FEF730FE272051E0C5
:102FC00047F6FF71C4F2010188421FDC48F200019C
:102FD000C4F2000188423AD049F20001C4F2000173
:102FE000884243D1FFF71EFC1A203BE04AF2000161
:102FF000C4F2010188422ED04AF20001C4F202015B
:10300000884233D1FFF79CFB1E202BE048F20001E1
:10301000C4F20101884222D049F20001C4F2010148
:10302000884223D1FFF740FB1C201BE0FFF7AEFBDB
:103030001F2017E0FFF71CFC2020FEF7EFFD2120EA
:10304000FEF7ECFD2220FEF7E9FD23200AE0FFF762
:10305000C3FB192006E0FFF74DFB1D2002E0FFF740
:10306000D7FA1B20BDE88040FEF7D8BD80BD80B5F3
:1030700049F6FF71C4F20101884224DD4AF6FF716E
:10308000C4F20201884234DD4BF20001C4F20201B5
:1030900088424ED00021C4F2030188424DD041F253
:1030A0000001C4F20301884218BF80BDFFF7E9FAAE
:1030B0002420FEF7C9FD2520FEF7C6FD2620FEF7D9
:1030C000C3FD272051E047F6FF71C4F20101884299
:1030D0001FDC48F20001C4F2000188423AD049F2F4
:1030E0000001C4F20001884243D1FFF7AEFB1A2071
:1030F0003BE04AF20001C4F2010188422ED04AF2BC
:103100000001C4F20201884233D1FFF72CFB1E20DC
:103110002BE048F20001C4F20101884222D049F2BA
:103120000001C4F20101884223D1FFF7D0FA1C202C
:103130001BE0FFF73EFB1F2017E0FFF7ACFB202052
:10314000FEF782FD2120FEF77FFD2220FEF77CFDA9
:1031500023200AE0FFF753FB192006E0FFF7DDFA12
:103160001D2002E0FFF767FA1B20BDE88040FEF754
:103170006BBD80BD01F0B7BA49F6FF71C4F2010121
:1031800088424FF0050116DC4DF6FF72C4F20002D2
:10319000904226DD4EF20002C4F20002904237D087
:1031A00048F20002C4F20102904231D049F200021A
:1031B000C4F201022AE04AF6FF72C4F2020290420F
:1031C0001ADD4BF20002C4F20202904220D041F21A
:1031D0000002C4F2030290421AD00022C4F2030299
:1031E00014E048F20002C4F20002904210D049F20A
:1031F0000002C4F2000209E04AF20002C4F2010235
:10320000904205D04AF20002C4F2020290420FD16D
:10321000C16841F40071C1600168890703D4C168C5
:1032200041F48071C160016841F001010160002139
:1032300008467047704741F2000240F48051C4F2E2
:103240000302914218BF7047C168026911404905E5
:1032500004D54FF48061016100F001B870477047F8
:10326000B0B541F20001044640F48050C4F20301BD
:10327000884218BFB0BDE068216901EA0005A805D1
:1032800005D54FF4007020612046FFF773FFE80575
:1032900000D4B0BD4FF4807120462161BDE8B0403C
:1032A000AFF30080704770477047F0B581B044F6C7
:1032B000FF77C4F2000740F2FC650446B842C2F250
:1032C000000513DD45F20000C4F20000844219D06D
:1032D0000020C4F20100844216D041F20000C4F282
:1032E0000100844240F0EA80D0350EE043F2000055
:1032F000C4F20000844208D0B4F1402F40F0DE80D8
:10330000343502E0683500E09C35606BA16B01EA62
:103310000006300405D54FF40040A063204600F0BD
:1033200001FB700405D54FF48040A063204600F0F7
:1033300004FBB00405D54FF40050A063204600F014
:10334000F8FAF0040ED54FF48050A063E888A988FD
:10335000884204D3A86810B1A9682046884720464F
:1033600000F0E8FA30054ED54FF40060A063206904
:10337000000745D040F2FC60BC42C2F2000012DD02
:1033800045F20001C4F200018C4217D00021C4F2C2
:1033900001018C4214D041F20001C4F201018C42BF
:1033A0002ED1D0300DE043F20001C4F200018C4276
:1033B00007D0B4F1402F23D1343002E0683000E070
:1033C0009C30017F042917D18169C9B1016999B184
:1033D000C18A828A91420FD2A16B11F4E06F78D03A
:1033E000616B21F00101616300218161012101779D
:1033F000006B28B1804703E0206840F0080020609F
:10340000204600F095FA700505D54FF48060A06362
:10341000204600F088FAB00505D54FF40070A0638F
:103420002046FFF741FFF00505D54FF48070A063FB
:10343000204600F076FAF00604D51020A06320465E
:1034400000F07AFA300704D50820A063204600F087
:103450006DFA700704D50420A063204600F065FAD9
:10346000B00707D5A86810B1A9682046884720464C
:1034700000F061FAF00707D0A86910B1A9692046E9
:103480008847204600F050FA41F24000C4F20200A2
:10349000006800F47F00B0F5403F0FD3700604D5FC
:1034A0004020A063204600F042FA300604D5802078
:1034B000A063204600F034FAF00301D401B0F0BD5F
:1034C0004FF480312046A16301B0BDE8F040FFF722
:1034D000EABEE16BC1F3C4216268D2031CD5626805
:1034E000920319D4626802F00302032A14D131B3A3
:1034F000C28A838A9A4222D2626A03696FF35F2288
:103500001A800269013902320261C28A0B0602F195
:103510000102C282ECD112E089B1C28A838A9A4246
:103520000DD2626A036901391A7002690B0602F151
:1035300001020261C28A02F10102C282EDD1616B15
:1035400021F0010161630021816101210177C18ABC
:10355000828A914234BF006B406A00B18047606B41
:1035600020F4006060634BE72DE9F04381B004462E
:1035700000294FF0050000F04B8143F20009C4F22E
:1035800000090D46A4EB0901A4F14023B1FA81F230
:10359000B3FA83F352095B091A43A1F50053B3FA56
:1035A00083F35B091A43A1F55043B3FA83F3A1F502
:1035B00060415B09B1FA81F11A434909114300F0F6
:1035C00027812868F8B144F6FF7840F2FC66C4F21F
:1035D0000008C2F2000644454FF0010015DD45F237
:1035E0000001C4F200018C4217D00021C4F2010195
:1035F0008C4214D041F20001C4F201018C4240F02F
:103600000781D0360CE0052002E14C4508D0B4F12A
:10361000402F40F0FD80343602E0683600E09C36F2
:10362000307B08B10220F3E0307F00284FF0020029
:1036300040F0EE80216878A721F00101216030730D
:103640003077A868002818BF0746204600F0EAF83F
:10365000206840F010002060206840F008002060E2
:103660002068F9783A7961F38A207B7997F806C067
:103670002060206803F0010162F349202060606847
:1036800020F0800040EAC11060602069F9790139BA
:1036900061F30300206120690CF00F0120F0F000BD
:1036A00040EA01102061206B4FF6FF713A89884390
:1036B0001044206338782168002841F4807208BFE4
:1036C00021F480722260B8782168002841F08002DD
:1036D00008BF21F08002226078782168002841F438
:1036E000006241F2400008BF21F400622260C4F28F
:1036F0000200006800F47F00B0F5003F09D94FF4E4
:103700008020FEF75BFA20B12068B97A61F38E3031
:103710002060E8796168FF280AD041F00801616003
:10372000616800F0010021F0100141EA001001E0A1
:1037300021F0080060606068AA79697962F382000C
:103740002B7B6060606861F301006060606873B14A
:1037500040F4803060606068A97B6A7B61F351400F
:103760006060E06A20F0FF001044E06202E020F4B4
:103770008030606044454FF0010011DD41F20001EE
:10378000C4F201018C4213D00021C4F201018C4229
:103790000ED045F20001C4F200018C4205D00FE0CA
:1037A0004C4502D0B4F1402F0AD1FEF7C6FA01E031
:1037B000FEF7D2FA296800EB5100B0FBF1F080B2BD
:1037C000A1684FF6FF7291430844A06020682979F0
:1037D00005F1100761F30C30206001203073307761
:1037E0008FCF06F1200C8CE88F00FF20707370776C
:1037F0004FF0FF30A063206840F004002060206894
:1038000040F002002060206840F0010020600020AD
:1038100001B0BDE8F08300BF00000000000000011F
:103820000000000080B584B044F6FF72C4F20002CC
:1038300000219042CDF8091022DD45F20001C4F2CA
:103840000001884234D00021C4F20101884241D0F5
:1038500041F20001C4F2010188425FD10C200190C5
:1038600006208DF8080044F20000C4F2020000F5C2
:10387000405001A9FDF748FEFFF76CF807203BE038
:1038800043F20001C4F20001884238D0B0F1402F69
:1038900044D10C20019008208DF8080044F200006B
:1038A000C4F2020001A9FDF72FFEFFF71AF835E078
:1038B0000320019008208DF8080044F20000C4F2B3
:1038C000020000F5405001A9FDF71EFEFFF71CF8AD
:1038D000052011E04FF44060019008208DF80800A9
:1038E00044F20000C4F2020000F5005001A9FDF707
:1038F0000BFEFFF71CF80620FEF7A6F90EE04FF4CA
:10390000C060019008208DF8080044F20000C4F265
:10391000020001A9FDF7F8FDFEF7D0FF04B080BD5D
:1039200070477047704770477047704770477047DF
:10393000704770477047704770477047FEE77047A1
:10394000704700F011F8FCF72BFC704780B5FEF7CC
:10395000E8F8BDE88040FFF727B820B140F2000149
:10396000C2F200010860704740F200004EF60851B4
:10397000C0F60000CEF20001086041F23000C4F24F
:10398000020048F2E4724261026822F00202026020
:103990004FF480324261D1F8800040F47000C1F8E9
:1039A0008000704748F20000C4F20100FFF7C4B97C
:1039B00041F20000C4F20300FFF7B6B841F2000084
:1039C000C4F20300FFF7DFB841F20000C4F20300C5
:1039D000FFF731BC41F20000C4F20300FFF740BC26
:1039E00049F20000C4F20100FFF7A6B94AF2000054
:1039F000C4F20100FFF7A0B94AF20000C4F20200CD
:103A0000FFF79AB94BF20000C4F20200FFF794B935
:103A100048F20000C4F20000FFF78EB949F200003E
:103A2000C4F20000FFF788B90020C4F20300FFF7DA
:103A30007BB80020C4F20300FFF7A5B80020C4F251
:103A40000300FFF7F8BB0020C4F20300FFF708BC37
:103A500043F20000C4F20000FFF727BC4FF0402003
:103A6000FFF723BC45F20000C4F20000FFF71DBCC5
:103A70000020C4F20100FFF718BC41F20000C4F2BC
:103A80000100FFF712BC0000FEE70000FEE770B582
:103A900094B005AE0D46044630463C21FCF779FC57
:103AA0000020CDE90300CDE90104ADF8140040F693
:103AB0000060C0F22770CDE906054FF48370ADF8C1
:103AC000200001200C218DF822008DF82B008DF8AC
:103AD0002D1001A98DF8340045F200000C91C4F2BC
:103AE00001003146FCF704FF40F2B400C2F20000CE
:103AF000046014B070BD80B582B00020CDE9000034
:103B000040F2794245F20000C2F20002C4F2010024
:103B10006946FDF7B0F880B940F24020C2F20000DB
:103B2000036853B1DDE9000101F00F0240F2794171
:103B300020F06040C2F20001984702B080BD80B51D
:103B400082B0024640F2B400C2F20000006820F0E9
:103B50006040009041F0800000F08F00019045F23D
:103B60000000C4F201006946FDF7D4F802B080BD40
:103B700040F24021C2F200010860704745F20000A7
:103B8000C4F201000068C0F34020704780B5FFF721
:103B90007EFF44F2D540C0F60000BDE88040FFF74C
:103BA000E7BF0000F0B581B0C9B10C46054600265C
:103BB000002000BF06F10801271AA14238BF0827DC
:103BC000A819F9B2FFF7BBFFFFF7D8FF10B100F05B
:103BD00071F9F9E716FA87F086B2A642EAD301B086
:103BE000F0BD000010B58AB1038845F2920CC0F612
:103BF000000C00BF11F801EB9CB28EEA14243CF8D3
:103C00001440013A84EA03230380F3D110BD00007D
:103C100080B58AB1D0F800E045F2942CC0F6000CD3
:103C200011F8013B013A83EA1E635CF8233083EA12
:103C30000E2EC0F800E0F3D180BD0000F0B583B0D7
:103C4000002502950299814216D2044644F61F6669
:103C500044F6206701950198B04205D801980130DB
:103C600001900198B842F9D300F024F9029801308C
:103C700002900298A042EDD303B0F0BD2DE9F04FC1
:103C800081B043F20009C4F20209064600F178450A
:103C9000484693468846FDF75AFAB5FBF0F482464B
:103CA00004FB105090B106EB0B006FF0006108446C
:103CB000B0FBFAF0C5B200BF0134E1B28D420DD3C2
:103CC0004846FDF777F90028F6D005E0E1B248460E
:103CD000FDF770F90028E6D0002027E0BBF1000FC7
:103CE00023D0002406F17840B0FBFAF108EB04057C
:103CF00001FB0AF1081A0AEB0007BB4538BF5F4613
:103D0000484631462A463B46FDF790F9B842E3D192
:103D1000484631462A463B46FDF744FAB842DBD1D5
:103D20003E44BBEB070B3C44DCD1012001B0BDE8B5
:103D3000F08F70B584B00446012000FA01F500262A
:103D4000204629460396CDE90166FDF75BFB01207D
:103D5000C0F20010029001A9204601958DF80C6078
:103D6000FDF7D2FB04B070BD10B582B047F2000180
:103D70000020C0F6000101900A68B2F5603F0AD841
:103D80004C6801F5805101A8FFF742FF0198001B24
:103D9000B0FA80F0400902B010BD40F22C20C2F20F
:103DA00000000021017040F2CC50C2F2000001601E
:103DB000704740F25120C2F20000007870470000C6
:103DC000B0B504460088042831D8DFE800F003319C
:103DD000121C2200FFF7C8FFA0B340F2CC50C2F281
:103DE00000000021016040F22C20C2F200000170AE
:103DF000B0BDE588D4F8021004F10A002A46FCF7A9
:103E000064FA2581B0BDD4F80200E28804F10A0109
:103E100006E0E28847F2000004F10A01C0F6000063
:103E2000FFF72CFF08B90020E08000202081B0BD02
:103E3000A17A40F22C20C2F2000001220029027077
:103E400018BFB0BD4FF0FF302080B0BD10B540F2BC
:103E50002C20C2F20000007858BB40F2CC50C2F2D5
:103E60000000016844F6206201319142016020D3D4
:103E700000210160FFF79DFFD8B9FFF775FFC0B1C2
:103E800049F20004C4F2000404F54050FDF7C7FDF8
:103E90002046FEF7CAFEEFF3108072B648F200002B
:103EA000C0F60000D0E9000180F30888BDE81040AA
:103EB000084710BD4CF20000C4F20000FDF70DBE33
:103EC00010B582B00021CDE9001141F24001C4F2E9
:103ED00002010A687C2102F47F02C4F20201B2F5F9
:103EE000003F48F2E47294BF0B688B68C3F6AC7273
:103EF000DB060BD54A608B68102464F305038B60E6
:103F00000B6864F305030B6001234B604A600A6889
:103F10004CF2000442F4006222F03F020A600122E7
:103F20004A604FF44071C4F20004ADF804100090F0
:103F300069462046FDF79EFD2046FDF7E4FD02B0F0
:103F400010BD10B546F20004C4F2020420460D2153
:103F5000FFF7EFFE20464FF400510022BDE810406D
:103F6000FDF7C4BB40F23022C2F20002106841F2F9
:103F7000883101308842106038BF704746F2000037
:103F80000023C4F202004FF400511360FDF793BB0D
:103F900086B04FF48171ADF8041049F2005141F23E
:103FA0006C00C0F6BA21C4F202000291016811F55A
:103FB000807F04D341F20020C0F27A0001E0006863
:103FC000000A03904FF0021004900120ADF8140095
:103FD0000020C4F2020001A9FEF730FA50B902989D
:103FE000FFF7BBFC01200621FDF786FE012003211F
:103FF000FDF7EFFEFDF7A2FD1420FFF71FFE00F016
:1040000061FB00BF00F048F8FFF720FF00F069FBFC
:10401000FFF771FDF6E780B540F25120C2F20000D3
:104020000021017040F26030C2F20000018040F2D5
:104030006230C2F20000017040F26430C2F200004F
:10404000018040F24C20C2F20000016040F250209A
:10405000C2F200000170022000F0F5F84FF47A700F
:1040600000F0D4F944F2F740C0F6000000F0C2F9C5
:1040700043F6A530C0F6000000F0C2F94EF6480144
:10408000C0F201014AF65520FFF780FD4FF4E13000
:10409000BDE8804000F065BB2DE9F04F81B000F035
:1040A000BBF90DF1010000F092FB40F25125002810
:1040B000C2F200054FD040F2643840F2623640F25E
:1040C000522940F26037C2F200084FF0000BC2F2F2
:1040D0000006C2F200094FF0010AC2F200070DF11A
:1040E000010400BF2878012830D130789DF80120E4
:1040F000A8F800B090B13B88022803F10101398093
:1041000009F8032013D0012820D188B202281DD33A
:1041100099F80100412815D1022011E0012A15D19A
:1041200089F800A0A7F800A086F800A00EE088B2E9
:104130000D280BD3B9F80A100E31814206D803209E
:10414000307003E0A7F800B086F800B0204600F019
:104150003EFB0028C6D100F04EFB287801286FD125
:1041600040F26236C2F20006317840F26038002038
:104170000329C2F20008ADF8020028D1B8F8000007
:1041800040F25224C2F200040238275A82B20DF1E2
:1041900002002146FFF726FDBDF80200874212D13A
:1041A000A078012807D1E07828B940F25020C2F267
:1041B000000001210170B8F8001040F25220C2F254
:1041C0000000FFF7EFFC0020A8F80000307040F27C
:1041D0006430C2F20000018841F2883301318AB2B2
:1041E0009A42018004D300210180A8F800103170A8
:1041F0002878012824D140F25024C2F2000420780B
:10420000F0B940F24C25C2F20005286840F6C4110E
:1042100001308842286004D30020286000F024FA8E
:10422000286868B940F23420C2F2000001780131F8
:10423000CAB2032A017003D3012121700021017049
:1042400001B0BDE8F08F40F2D051C2F200014FF44E
:104250007A720A6040F27641C2F2000100220A80BE
:1042600040F27841C2F200010A7040F26631C2F2B7
:1042700000010A7040F24421C2F200010A6040F2DB
:104280003C21C2F200010A6040F24821C2F2000162
:104290000A6040F23821C2F200010A6040F22E2189
:1042A000C2F200010A8040F23521C2F2000108701A
:1042B000704710B540F26632C2F200021178002950
:1042C00053D140F22E2140F2764CC2F2000100237D
:1042D000C2F2000C0B80BCF8003040F2673140F2B3
:1042E000784EC2F20001C2F2000EC8549EF80000DF
:1042F00001330228ACF8003022D0012805D058BB89
:1043000098B2022828D101202DE0487841280DD00C
:10431000102805D0032823D198B207280DD824E00F
:1043200098B2092821D3CC880A3404E098B20D2829
:104330001BD34C890E3484420ED802208EF8000024
:104340000878012806D040F23521C2F20001097830
:10435000884205D10120107098B2B0F5877F04D350
:104360000020ACF800008EF8000010BD70B582B0DF
:1043700040F2764314460022C2F200031A8040F253
:104380007843C2F20003ADF806201A7040F23522DD
:10439000C2F20002127840F2BC45C2F200052A7057
:1043A00041226A704268006805F10C06C5F80620D3
:1043B000C5F80200304622466C81FBF786FF04F107
:1043C0000C0082B20DF106002946FFF70BFC40F20B
:1043D0004420C2F200000268BDF8060030533AB132
:1043E00004F10E0081B240F2BC40C2F200009047DE
:1043F00002B070BD40F23821C2F20001086070477F
:1044000040F24421C2F200010860704740F2D051EE
:10441000C2F20001086070472DE9F04182B040F21D
:104420002E20C2F20000018840F2D052C2F20002F7
:1044300001311268018089B240F2764540F2784835
:104440008A42C2F20005C2F2000804D800210180AD
:10445000298088F8001040F26637C2F200073878E9
:1044600000210128ADF8061031D1288840F26734C8
:10447000C2F200040238265A82B20DF1060021462B
:10448000FFF7B0FBBDF8060086421BD160784128DB
:1044900008D010280BD0032814D140F23C20C2F2DF
:1044A000000008E040F23820C2F2000003E040F2D1
:1044B0004820C2F20000016821B140F26730C2F228
:1044C000000088470020288088F80000387002B07B
:1044D000BDE8F081B0B514464AF65522904209D1A4
:1044E000002C08BFB0BD0D4615F8010BFFF7E1FE2B
:1044F000013CF9D1B0BDF0B5C5B004460078012843
:1045000049D140F25121C2F20001012040F264324F
:104510000870C2F20002002140F25023118040F2E4
:104520006032C2F20003C2F200021B78118040F236
:104530006232002BC2F2000211703FD0ADF80210BF
:1045400061788DF804008DF80510D4F80600D4F8D1
:104550000210658901AECDF80A00CDF8061006F10B
:104560000C0004F10C012A46ADF80E50FBF768FE72
:1045700005F10C0087B20DF1020031463A46FFF713
:1045800031FBBDF80200F05305F10E0081B2304658
:1045900000F029F914E0A51C2846FFF711FCA078CB
:1045A000FF2802D1E078FF280DD0628904F10C01C8
:1045B000284645B0BDE8F040FFF7D8BE00F054F8FB
:1045C0004FF6FF70608045B0F0BD10B54FF49471A8
:1045D0000446FBF7BCFE4FF49070A4F8240110BD14
:1045E00010B5B0F824C1944538BF10BDB0F82231E1
:1045F0008AB194461FFA83FE01339CB26409082CE9
:1046000011F8014B88BF0023BCF1010C00F80E40EB
:10461000F0D1B0F824C1A0F82231B0F82631ACEBCB
:104620000201A0F824119918A0F8261110BDB0F8C5
:104630002621BAB1B0F82021835C0B70511C8AB2DC
:104640005209082A88BF0021B0F82421A0F82011BF
:10465000511CB0F82621A0F82411511EA0F82611F3
:10466000012070470020704710B582B04FF6AA7045
:1046700000234FF0010EFF220721EC46ADF80000A9
:10468000CDF8023082EA0300082200BFC4B281EAFA
:104690004403000658BF6300013A1846F6D10EF1F4
:1046A000010EBEF1060F02D01CF80E20EAE75520DD
:1046B0008DF80700684608218DF8063000F093F861
:1046C00002B010BD80B54FF47A70FFF7F9FBFFF729
:1046D00038FCFFF762FBFFF79EFCBDE8804000F06E
:1046E00013B8FFF7E7BB10B540F2CA54C2F200049A
:1046F00020780130C1B20529207018BF10BDFFF726
:1047000031FC0020207010BD70B586B001AC204691
:104710001421FBF73EFEFDF710FB49F20006C4F240
:10472000000605463046FEF7CBFB45F6C5212809B5
:10473000C0F67C21A0FB01010120ADF80400C809EE
:1047400002900020ADF80C0040F20110ADF80F000F
:1047500030462146FEF72AF93046FEF70DFD06B039
:1047600070BDB0B58AB001AD0446281D2021FBF70D
:1047700010FE0194032043F20004ADF80900FF206D
:10478000C4F200048DF80B0020462946FEF7ECFE2B
:10479000206840F0100020604FF48050A063206833
:1047A00040F004002060206840F004002060206891
:1047B00040F008002060206840F00200206040F2D5
:1047C000D450C2F20000FFF700FF0AB0B0BD43F2C0
:1047D0002401C4F200018A6992054FBF00200968D4
:1047E0000170012070470A46014640F2D450C2F2DF
:1047F0000000FFF7F5BE10B582B043F22004C4F20A
:104800000004E06940070BD440F2D450C2F200002B
:104810000DF10701FFF70BFF10B19DF807002060B5
:1048200002B010BD10B591EA030F48BF83F00043FA
:1048300000F14083841A71EB030C05D2121943EB8B
:104840000C03001B61EB0C014FEA1154A4EB135C49
:10485000DFF81CE11EEA430F18BF9EEA445F73D0E5
:1048600021EA045123EA0E0343F48013DCF1200E05
:1048700032D322FA0CFE10EB0E0023FA0CFE41EBB1
:104880000E01CCF1200E03FA0EFE10EB0E00CCF15F
:10489000200E51F10001B1F5801F32D201EB04511D
:1048A00012FA0EF2BDE8104058BF7047401C38BFE6
:1048B0005FEA420218BF7047002814BF20F00100D1
:1048C00041F100014FEA410313F5001F38BF704763
:1048D000A1F1C04100F0E0BA012A43EB0302ACF1C0
:1048E000200CDCF11F0E32BF4FF0000E23FA0CF348
:1048F00010EB030041EB0451B4EB115FD0D0A1EBFE
:10490000045101F58011490801EB04515FEA3000C0
:104910000ED350F1000038BF12FA0EFE08D1BDE8E8
:104920001040C9E7401C38BF5FEA4202CAD1C3E762
:10493000BDE810404FEA410313F5001F38BF704730
:10494000A1F1C04100F0A8BA9EEA445F08D011EA84
:104950005E0FBDE8104004BF01F000410020704729
:10496000BDE8104070B500F049FA00BF64FBBE3EE0
:104970000000E0FF2DE9C04130B4DFF8A0C23CEAFE
:10498000111418BF3CEA131400F0EC801CEA111457
:1049900081EA030544EAD57418BF1CEA131500F038
:1049A000C780A4EB050404F17F7404F500344FF0D4
:1049B000004545EAC12145EAC32341EA505143EA93
:1049C00052534FEAC0204FEAC222994208BF904298
:1049D00000F09C804FEA13650FF24016765D4FEAB7
:1049E000134506FB05F7C7F1807706FB07F74FEA8B
:1049F000D737A7FB03687642A7FB06CEC8F58038F9
:104A000038BFA8F1010807FB08E6A6FB028C4FF0AF
:104A1000000EE6FB03CEDCF1000CCEF1004E38BFF9
:104A2000AEF1010EA6FB0C584FF00007E6FB0E8717
:104A3000A1FB08C6A0FB07CE16EB0E064FF0000543
:104A400045F10005E1FB076515F1E04E7EBFA4F5D9
:104A500080345FEA46066D4116F1800745F1000596
:104A60004FEA172747EA05674FEA15254FEA06661A
:104A7000A6F1DE46B6F1805F1FD9384605EBC4715A
:104A800024F0010C01EB0C11BCF1FE6F02D8F0BC5C
:104A9000BDE8008124425CBF01F5801E9EEAC47F10
:104AA00002D4F0BCBDE80081244238D4A1F1C04159
:104AB000F0BCBDE8004100F0EFB94FEAD02040EA79
:104AC00041504FEAD1214FEAD22242EA43524FEA03
:104AD000D323A7FB028607FB036605FB02661EEADB
:104AE0000E0F58BFA6EB0056B6EB00564FEA520E1B
:104AF0004EEAC37E18EB0E0E56EB530EBDD518EBE7
:104B000002085E417F1C55F10005B6E74FF48015A1
:104B10004FF000074FF000064FF00008ADE701F13D
:104B2000C04101F000414FF00000F0BCBDE8008141
:104B30000CEA131511EA0C1F00D00CE013EA0C1F4D
:104B400000F025804FF0000081EA030101F00041F0
:104B5000F0BCBDE80081F0BCBDE8004181EA030182
:104B600000F09AB9F0BCBDE8004170B500F046F91C
:104B7000097EFC3E00F007B84FF0000081EA030117
:104B800001F00041704781EA030100F085B9F0BCF3
:104B9000BDE8004122494FF000007047FFFDFBF9DE
:104BA000F7F5F4F2F0EEEDEBE9E8E6E4E3E1E0DE60
:104BB000DDDBDAD8D7D5D4D3D1D0CFCDCCCBCAC8D2
:104BC000C7C6C5C4C2C1C0BFBEBDBCBBBAB9B8B7F9
:104BD000B6B5B4B3B2B1B0AFAEADACABAAA9A8A8EC
:104BE000A7A6A5A4A3A3A2A1A09F9F9E9D9C9C9BBA
:104BF0009A99999897979695959493939291919065
:104C00008F8F8E8E8D8C8C8B8B8A898988888787F5
:104C10008685858484838382828181800000FF076A
:104C20000000F87F4FEA41034FEA5353A3F5806336
:104C3000D3F11E03C8BFD3F1210C0CDD4FF00042AD
:104C400042EAC12242EA505232FA03FC8CEAE17C89
:104C5000ACEBE1707047102BC4BF0020704703F528
:104C6000787CBCF1FF3F04D06FF0004282EA210063
:104C7000704770B500F0C2F8499224800020704758
:104C8000F2E7B0FA80F310FA03F10AD0C3F11D0382
:104C900003F580634FEA03524FEA415002EBD12102
:104CA00070474FF00000704770B5DFF848C11CEA4C
:104CB000111E1EBF1CEA13159EEA0C0F95EA0C0F7D
:104CC00000F06F8081EA03044EEAD47EAE4421EA0C
:104CD0004C1123EA4C1341F4801143F48013AEF1DC
:104CE0007F7EA1FB024CA0FB0365361955EB0C053A
:104CF000A1FB034C4CF10003A0FB021C16EB0C06BD
:104D0000654153F10003094218BF46F0010613F450
:104D1000007F0BD14FEA03314FEA053041EA1551CC
:104D200040EA165034036FF003020AE04FEAC32151
:104D30004FEAC52041EA555140EA5650F4026FF05F
:104D4000020202EB2E4201EB025585EACE710AD037
:104D50005FEA440C18BF24F0004450F1000041F118
:104D6000000120EAD47040F2FE7C624500D270BDA2
:104D7000A84214BF4FF080444FF04044002E08BFBB
:104D80000024BEF1806FA8BFA1F1C041BDE8704012
:104D900080F2828001F1C04101F000414FF000003B
:104DA00070470CEA13159EEA0C0F18BF95EA0C0F1A
:104DB00006D081EA030E4FF000000EF0004170BDF6
:104DC00000F01CF88900013E00F007B800F009B8B7
:104DD0004FEA430C5FEA5C5C08D081EA030100F013
:104DE0005BB84FEA410C5FEA5C5CF6D102494FF0D8
:104DF000000070470000FF070000F87F0EF1020E70
:104E00002EF0030E5EF8046B364205D4012A43EB04
:104E1000030515F5001F12D8012841EB010C1CF504
:104E2000001F0CD80ED14FEAD17C0CEB4C0C0CF1CE
:104E3000020C15F5001F08BF4CEBD37C04E04FF0CB
:104E4000080C01E04FEAD37C0CEB4C0526FA05F682
:104E500006F00706B6F1040C06D20EEB860CBDE890
:104E600070404CF0010C6047DFE80CF0090B0202C7
:104E70004FF00041A1F500214FF0000070BD194630
:104E80001046012851EB010418BFD4F5001484BF6B
:104E9000002001F0004170BD0808A0F500114FEAA4
:104EA0003101704710B591EA030F48BF83F000430A
:104EB0003FF5C0AC841A71EB030C07D28CF0004CA8
:104EC000121943EB0C03001B61EB0C014FEA115468
:104ED000A4EB135CDFF89CE11EEA430F18BF9EEAC7
:104EE000445F00F0B08021EA045123EA6E0352428D
:104EF000C3EB6E0338BF5B1EDCF1200E25D322FA14
:104F00000CFE10EB0E0043FA0CFE41EB0E01CCF14F
:104F1000200E03FA0EFE10EB0E00CCF1200E51F124
:104F2000000129D401EB045112FA0EF2BDE8104041
:104F300058BF7047401C1CBFB2F1004F704700289B
:104F40000CBF491C20F00100704712EB020E43EB2E
:104F5000030218BF4FF0010E4EEA4202ACF1200CE2
:104F6000DCF11E0E54D943FA0CFE10EB0E00CCF10E
:104F70001E0E51F1FF31D5D50EF1010E12FA0EFEC3
:104F8000404141EB010101EB445C5FEA5C5C10D9FC
:104F900001EB045110EBDE7038BFBEF1004FBDE8ED
:104FA000104018BF704700280CBF491C20F00100BA
:104FB000704730D24FEAD42C24F4006411F500116C
:104FC0001BD0B1FA81F20B3AA41AA41ED2F120032D
:104FD000914030FA03F31943904001EBCC7101EB9F
:104FE0000451002CBDE81040A8BF704701F1C0413A
:104FF00001F000414FF000007047B0FA80F310FA62
:1050000003F100D110BDE41A173C4805C90AE4E7D2
:1050100001EB045110BD49104FEA300001EB04517F
:10502000BDE8104002E04FF0000170474A0008BFA1
:105030000042F8D0B2F5001F28BF704701F00041D0
:105040004FF0000070479EEA445F07D011EA5E0F00
:10505000BDE8104004BF002100207047BDE81040AB
:1050600070B5FFF7CBFE00BF40DFF63E104683F081
:10507000004170470000E0FFF1EE100A4FF6FF71AB
:10508000C0F2C03120EA010040F04070E1EE100AA9
:10509000704700002110422063308440A550C66054
:1050A000E770088129914AA16BB18CC1ADD1CEE1E5
:1050B000EFF13112100273325222B5529442F7725C
:1050C000D662399318837BB35AA3BDD39CC3FFF335
:1050D000DEE36224433420040114E664C774A4446C
:1050E00085546AA54BB528850995EEE5CFF5ACC585
:1050F0008DD55336722611163006D776F66695563C
:10510000B4465BB77AA719973887DFF7FEE79DD7D4
:10511000BCC7C448E5588668A778400861180228CB
:105120002338CCC9EDD98EE9AFF9488969990AA924
:105130002BB9F55AD44AB77A966A711A500A333A9B
:10514000122AFDDBDCCBBFFB9EEB799B588B3BBB74
:105150001AABA66C877CE44CC55C222C033C600C2B
:10516000411CAEED8FFDECCDCDDD2AAD0BBD688DC4
:10517000499D977EB66ED55EF44E133E322E511E7B
:10518000700E9FFFBEEFDDDFFCCF1BBF3AAF599F14
:10519000788F8891A981CAB1EBA10CD12DC14EF1B4
:1051A0006FE18010A100C230E3200450254046701A
:1051B0006760B9839893FBA3DAB33DC31CD37FE345
:1051C0005EF3B1029012F322D2323542145277626A
:1051D0005672EAB5CBA5A89589856EF54FE52CD515
:1051E0000DC5E234C324A0148104667447642454BA
:1051F0000544DBA7FAB79987B8975FE77EF71DC725
:105200003CD7D326F2369106B01657667676154609
:1052100034564CD96DC90EF92FE9C899E9898AB974
:10522000ABA94458654806782768C018E108823859
:10523000A3287DCB5CDB3FEB1EFBF98BD89BBBAB84
:105240009ABB754A545A376A167AF10AD01AB32AA9
:10525000923A2EFD0FED6CDD4DCDAABD8BADE89DD4
:10526000C98D267C076C645C454CA23C832CE01CF9
:10527000C10C1FEF3EFF5DCF7CDF9BAFBABFD98F64
:10528000F89F176E367E554E745E932EB23ED10E49
:10529000F01E000000000000B71DC1046E3B820933
:1052A000D926430DDC7604136B6BC517B24D861AF5
:1052B0000550471EB8ED08260FF0C922D6D68A2F12
:1052C00061CB4B2B649B0C35D386CD310AA08E3C31
:1052D000BDBD4F3870DB114CC7C6D0481EE09345AA
:1052E000A9FD5241ACAD155F1BB0D45BC296975679
:1052F000758B5652C836196A7F2BD86EA60D9B63E4
:1053000011105A6714401D79A35DDC7D7A7B9F7074
:10531000CD665E74E0B6239857ABE29C8E8DA1916A
:10532000399060953CC0278B8BDDE68F52FBA582C0
:10533000E5E66486585B2BBEEF46EABA3660A9B74D
:10534000817D68B3842D2FAD3330EEA9EA16ADA46C
:105350005D0B6CA0906D32D42770F3D0FE56B0DD9B
:10536000494B71D94C1B36C7FB06F7C32220B4CE7C
:10537000953D75CA28803AF29F9DFBF646BBB8FB67
:10538000F1A679FFF4F63EE143EBFFE59ACDBCE8E8
:105390002DD07DEC77708634C06D4730194B043DBD
:1053A000AE56C539AB0682271C1B4323C53D002ED4
:1053B0007220C12ACF9D8E1278804F16A1A60C1B99
:1053C00016BBCD1F13EB8A01A4F64B057DD0080850
:1053D000CACDC90C07AB9778B0B6567C69901571E9
:1053E000DE8DD475DBDD936B6CC0526FB5E6116258
:1053F00002FBD066BF469F5E085B5E5AD17D1D579B
:105400006660DC5363309B4DD42D5A490D0B194413
:10541000BA16D84097C6A5AC20DB64A8F9FD27A52D
:105420004EE0E6A14BB0A1BFFCAD60BB258B23B61F
:105430009296E2B22F2BAD8A98366C8E41102F8354
:10544000F60DEE87F35DA9994440689D9D662B900B
:105450002A7BEA94E71DB4E0500075E4892636E91A
:105460003E3BF7ED3B6BB0F38C7671F7555032FA5B
:10547000E24DF3FE5FF0BCC6E8ED7DC231CB3ECF1E
:1054800086D6FFCB8386B8D5349B79D1EDBD3ADC87
:105490005AA0FBD8EEE00C6959FDCD6D80DB8E6023
:1054A00037C64F643296087A858BC97E5CAD8A73A5
:1054B000EBB04B77560D044FE110C54B383686469E
:1054C0008F2B47428A7B005C3D66C158E440825581
:1054D000535D43519E3B1D252926DC21F0009F2C66
:1054E000471D5E28424D1936F550D8322C769B3F29
:1054F0009B6B5A3B26D6150391CBD40748ED970AF0
:10550000FFF0560EFAA011104DBDD014949B9319C4
:105510002386521D0E562FF1B94BEEF5606DADF896
:10552000D7706CFCD2202BE2653DEAE6BC1BA9EBF0
:105530000B0668EFB6BB27D701A6E6D3D880A5DE59
:105540006F9D64DA6ACD23C4DDD0E2C004F6A1CD3C
:10555000B3EB60C97E8D3EBDC990FFB910B6BCB437
:10556000A7AB7DB0A2FB3AAE15E6FBAACCC0B8A7AC
:105570007BDD79A3C660369B717DF79FA85BB492F3
:105580001F4675961A163288AD0BF38C742DB081B8
:10559000C330718599908A5D2E8D4B59F7AB0854B5
:1055A00040B6C95045E68E4EF2FB4F4A2BDD0C4704
:1055B0009CC0CD43217D827B9660437F4F46007225
:1055C000F85BC176FD0B86684A16476C9330046120
:1055D000242DC565E94B9B115E565A158770191825
:1055E000306DD81C353D9F0282205E065B061D0B88
:1055F000EC1BDC0F51A69337E6BB52333F9D113EA7
:105600008880D03A8DD097243ACD5620E3EB152DE3
:1056100054F6D4297926A9C5CE3B68C1171D2BCCD9
:10562000A000EAC8A550ADD6124D6CD2CB6B2FDFCF
:105630007C76EEDBC1CBA1E376D660E7AFF023EA60
:1056400018EDE2EE1DBDA5F0AAA064F4738627F95B
:10565000C49BE6FD09FDB889BEE0798D67C63A8036
:10566000D0DBFB84D58BBC9A62967D9EBBB03E930B
:105670000CADFF97B110B0AF060D71ABDF2B32A6AA
:105680006836F3A26D66B4BCDA7B75B8035D36B5D7
:10569000B440F7B10102020200000000FFFFFF1F4B
:1056A00000127A00002A7515010016000080000023
:1056B000030000000200000000127A000057A61646
:1056C0000100170000C000000300000002000000FD
:1056D00000127A000084D7170100190000000000B2
:1056E000030000000200000000127A0000B1081957
:1056F00001001A000040000003000000020000004A
:1057000000127A0000DE391A01001B000080000040
:10571000030000000200000000127A00000B6B1B67
:1057200001001C0000C00000030000000200000097
:1057300000127A0000389C1C01001E0000000000CE
:105740000300000002000000001BB700002A7515CE
:1057500001000F0000000000030000000200000034
:10576000001BB7000057A61601000F0055D500001A
:105770000300000002000000001BB7000084D717E0
:1057800001001000AAAA00000300000002000000AF
:10579000001BB70000B108190100110000800000D3
:1057A0000300000002000000001BB70000DE391AF1
:1057B0000100120055550000030000000200000027
:1057C000001BB700000B6B1B01001300AA2A00008E
:1057D0000300000002000000001BB70000389C1C02
:1057E000010014000000000003000000020000009F
:1057F00000127A0000E1F5050100060000400000FB
:10580000000000000200000000127A0080778E067F
:105810000100060000E0000000000000020000009F
:1058200000127A00000E2707010007000080000028
:10583000000000000200000000127A0080A4BF07F0
:10584000010008000020000000000000020000002D
:1058500000127A00003B58080100080000C0000058
:10586000000000000200000000127A0080D1F00861
:1058700001000900006000000000000002000000BC
:1058800000127A000068890901000A000000000087
:10589000000000000200000000127A0080FE210AD1
:1058A00001000A0000A0000000000000020000004B
:1058B00000127A000095BA0A01000B0000400000B7
:1058C000000000000200000000127A00802B530B41
:1058D00001000B0000E000000000000002000000DA
:1058E00000127A0000C2EB0B01000C0000800000E7
:1058F000000000000200000000127A008058840CB2
:1059000001000D0000200000010000000200000066
:1059100000127A0000EF1C0D01000D0000C0000015
:10592000010000000200000000127A008085B50D21
:1059300001000E00006000000100000002000000F5
:1059400060590008000000200C000000DC01000885
:105950006C5900080C000020F8070000F80100084E
:0C59600000127A00010000000F0000009F
:04000005080001A14D
:00000001FF
