:020000040800F2
:1080000000000120C5BC0008BDBC000801920008AA
:10801000B9BC0008998700087DC200080000000074
:10802000000000000000000000000000CDBC0008BF
:10803000F991000800000000C1BC0008D1BC000894
:10804000FD910008FD910008FD910008FD910008D8
:10805000FD910008FD910008FD910008FD910008C8
:10806000FD910008FD910008FD9100089D87000822
:10807000FD910008FD910008FD910008FD910008A8
:10808000FD910008FD910008FD910008FD91000898
:10809000FD910008FD910008FD910008FD91000888
:1080A000FD910008090D0010DD1F0010FD91000872
:1080B000FD910008FD910008FD910008FD91000868
:1080C000FD910008FD910008FD910008FD91000858
:1080D000FD910008FD910008FD910008FD91000848
:1080E000FD910008FD910008FD910008FD91000838
:1080F000FD910008FD910008FD910008FD91000828
:10810000FD910008FD910008FD910008FD91000817
:10811000FD910008FD910008FD910008FD91000807
:10812000FD910008FD910008FD910008FD910008F7
:10813000FD910008FD910008FD910008010000106C
:10814000FD910008FD910008FD910008FD910008D7
:10815000FD910008FD910008FD910008FD910008C7
:10816000FD910008FD910008FD910008FD910008B7
:10817000FD910008FD910008FD910008FD910008A7
:10818000FD910008FD910008FD910008FD91000897
:10819000FD910008FD910008FD910008FD91000887
:1081A000DFF80CD000F0CCF900480047A1CA000865
:1081B0000000012030B504460020034600E05B1CAF
:1081C000934203D2E05CCD5C401BF8D030BD2DE97A
:1081D000F05F0546002092469B468846064681464B
:1081E00040241BE0284641464746224600F0C9F994
:1081F00053465A46C01A914110D31146184622469A
:1082000000F0B0F92D1A67EB01084F462246012015
:10821000002100F0A7F917EB00094E41201EA4F140
:108220000104DFDC484631462A464346BDE8F09F5C
:108230002DE9FE4F804681EA0300C00F0C460090F6
:1082400021F0004123F00045B8EB0200A94105D21E
:108250004046214690461C460B46024623F000400D
:10826000104347D0270DC7F30A00C3F30A51029009
:10827000401A019040286BDAC3F3130040F4801BCE
:108280000098924620B10023D2EB030A63EB0B0B5C
:1082900001985946C0F14002504600F063F9064685
:1082A0000D4650465946019A00F07BF910EB080044
:1082B0006141002487EA115284EAE7731A4340D0EF
:1082C000009A62B3019A012A4FEA075215DC001B9B
:1082D00061EB02014FF0004202EA0752CDE9004291
:1082E000001C41F5801132462B4600F07BF903B0AB
:1082F000BDE8F08F40462146F9E7001B61EB020123
:10830000001C41F5801300185B412018A2F50017EE
:1083100047EB030140EAD570B6196D4111E06D08D5
:108320004FEA360645EAC0754FEA0752001B61EB7B
:108330000201001C41F5801149084FEA3000001984
:10834000514132462B4603B0BDE8F04F00F03BB937
:108350000098012240000023D0EB020263EBE0739F
:10836000009821464FEAE074B8EB000061EB04018D
:10837000E9E783F000435BE781F0004158E72DE92E
:10838000FE4F81EA030404F0004421F00041009410
:108390004FF0000B23F0004350EA01045ED052EA94
:1083A00003045BD0C3F30A54C1F30A552C44A4F26E
:1083B000F3340194A0FB0254C1F3130141F4801182
:1083C000C3F3130343F4801301FB024400FB034E89
:1083D000840A970A44EA815447EA8357A4FB076852
:1083E00002958D0A05FB07854FEA932C04FB0C547C
:1083F0002705029D4FEA065847EA1637B5EB0805F0
:108400006EEB070C870E920E47EA811742EA831241
:10841000A7FB0201B6EB0B0164EB00042B0D43EA52
:108420000C335E1844EB1C50DA465146E7FB020160
:10843000C5F313044FEA0B3343EA14534FEA0432F3
:10844000019C43EA0603A4F10C040294009CCDE9CC
:1084500000B400F0C7F803B0BDE8F08F002001467B
:10846000F9E72DE9F04D81EA030404F0004B21F017
:10847000004514464FF0000A23F0004150EA05027F
:1084800020D054EA01021DD0C5F30A570246C5F3B5
:108490001303C1F31300C1F30A5640F4801543F4EB
:1084A0008013A7EB0608101BD64608F2FD3873EBC5
:1084B000050002D308F1010801E092185B41B8F110
:1084C000000F03DA00200146BDE8F08D00204FF4D4
:1084D0008011064684460EE0171B73EB050705D393
:1084E000121B63EB050306434CEA010C49084FEAF3
:1084F000300092185B4150EA0107EDD152EA0300C7
:1085000012D082EA040083EA0501084305D0101B5B
:10851000AB4106D20122002306E000224FF00043C7
:1085200002E06FF0010253101AEB06004CEB085109
:1085300010EB0A0041EB0B01BDE8F04D00F043B831
:10854000064C074D06E0E06840F0010394E80700A0
:1085500098471034AC42F6D3FFF726FEACF700087C
:10856000ECF70008202A04DB203A00FA02F1002090
:1085700070479140C2F1200320FA03F31943904061
:108580007047202A04DB203A21FA02F000217047CC
:1085900021FA02F3D040C2F120029140084319466B
:1085A0007047202A06DBCB17203A41FA02F043EA53
:1085B000E07306E041FA02F3D040C2F1200291409C
:1085C00008431946704710B5141E73F1000408DA09
:1085D000401C41F1000192185B411A4301D120F087
:1085E000010010BD2DE9F04D92469B4611B1B1FA44
:1085F00081F202E0B0FA80F220329046FFF7B2FF3B
:1086000004460F4640EA0A0041EA0B0153465A4627
:10861000084313D0114653EA010019D0C8F14002B3
:108620005046FFF7AEFF05460E46504659464246B5
:10863000FFF798FF084305D0012004E020463946A3
:10864000BDE8F08D0020054346EAE0762C43374331
:108650000A986305E40AA0EB08000022FD0A44EA38
:1086600047540A3002D500200146E9E701051019F8
:108670006941DDE9084500196941BDE8F04DA2E70F
:1086800010B5431A934209D28318881803E010F8F2
:10869000011D03F8011D521EF9D210BD40EA01036D
:1086A0009B0703D009E008C9121F08C0042AFAD2A8
:1086B00003E011F8013B00F8013B521EF9D210BD56
:1086C000D2B201E000F8012B491EFBD27047002214
:1086D000F6E710B513460A4604461946FFF7F0FFC1
:1086E000204610BD30B5041E71F1000404DB4FF0CC
:1086F0000044404264EB0101141E73F1000405DBE9
:108700001C464FF00043524263EB0403801A994128
:1087100001D2012030BD002030BD0EB540F2334102
:1087200002910021CDE900110A460B46FFF75AFFDE
:1087300003B000BD70B5C1F30A5201F0004500243A
:10874000C1F3130140F2FF3341F480119A4201DA80
:10875000002070BD40F233439A42A2F2334203DC60
:108760005242FFF70EFF00E090402C43F1D0404210
:1087700070BD00F0004230F000400AD0C10D01F59C
:108780006071C0F3160042EA0151C208400711436C
:108790007047002001467047FEE700002DE9F04FCA
:1087A0008FB045F20C06C4F2010656F804ACD6F8B8
:1087B000008041F2400908EA0A0745F20004C4F2C9
:1087C00002093806C4F2010440F1B581802030600E
:1087D00044F21010C2F20000016F11B1016F204687
:1087E000884744F6042BC2F2000BDBF8080000288F
:1087F00040F0A181DBF808000BEBC0004069DBF81A
:10880000082020F060410BEB8210407FB1F5302F43
:1088100000F030814AF65522914204D0202940F0E0
:108820002E81202128E1DBF808000BEB8010407F2F
:10883000412840F02E81DBF808000BEB8010007F10
:10884000022800F06784DBF808000BEB8010007F43
:10885000012840F01E81DBF80820DBF808000BEB54
:10886000C000806910F00F0500F0138144F6540336
:10887000C2F20003187844F6580145F200040028BB
:10888000C2F20001C4F2010440F0AE801878002862
:1088900040F0AA8044F2D5600392C2F20000007852
:1088A00088B102F0FFFD4EF23401CFF6FE71605840
:1088B00020F00100605002F05DFE44F2D56100201E
:1088C000C2F20001087044F6C420C2F20000007831
:1088D00001280AD10020C9F8D00F02F04BFE44F65F
:1088E000C4210020C2F20001087044F20400C2F268
:1088F0000000022101700020CDE905000790CDE9BC
:108900000A000C904FF4E13004900320ADF81500FC
:10891000FF208DF817004CF23140C0F6000008909F
:108920004CF28120C0F60000099002F023FE04A85A
:1089300002F0CAFE4EF23401CFF6FE7160580022FA
:1089400020F0010060504EF20000CFF6FE7021587A
:1089500041F00801215044F654010120C2F2000107
:10896000087044F66B0144F65804C2F20001C2F2EA
:1089700000040A70207044F65600C2F20000028023
:1089800044F66600C2F20000028044F64E0044F64F
:108990006801C2F20000C2F20001028044F65200F7
:1089A0000A8044F66A01C2F20000C2F200010280AD
:1089B00044F650000A7044F66C01C2F20000C2F2A4
:1089C000000102704FF6AA700A800021ADF8340051
:1089D00045F23950CDF83610ADF83A000DA808210F
:1089E00003F04AF8039A2146087801280BEB82101D
:1089F00040F06981039044F65600C2F20000B0F8DE
:108A000000E0681E05F003010328019180F06081F9
:108A10000024019BEBB31FFA8EF50C2D80F0A4828D
:108A2000039844F659012044007FC2F200014855E2
:108A30000EF10105A8B20C2844F65600C2F200005F
:108A4000058040F0988248894A7800F10E0544F686
:108A50006600412AC2F20000058040F09882087842
:108A6000012840F09482A8B2B0F5967F00F28F8280
:108A70000C2580E24FF4302106F040F809E044F282
:108A80009432C2F20002D2F8F822914208BF06F0F6
:108A900035F8DBF8080045F200040130CBF8080097
:108AA000DBF80800C4F2010400281CBF0020CBF84A
:108AB0000800DBF8005044F20000C4F20100DBF8CB
:108AC0000820DBF80810854244F21010C2F20000C2
:108AD00003D0A54240F016835430037E012B13D1FE
:108AE00004230BEBC2020BEB8111037649F219133D
:108AF00014321C31C0F60003C36101614261A868F1
:108B000040F08000A86016E04FF2FE30C0F6000092
:108B100005F0FAFF4FF2F520C0F60000294605F0F7
:108B2000F3FF4FF2A7704FF2A971C0F60000C0F634
:108B3000000105F0E9FF780644BF40203060B80628
:108B400044BF20203060F80644BF10203060380752
:108B50000AD50820306044F21010C2F20000816D86
:108B600011B1816D2046884778070AD5042030600E
:108B700044F21010C2F20000016E11B1016E2046E5
:108B80008847B80744BF02203060D9F8000000F4DD
:108B90007F00B0F5003F17D95FEA8A3019D518F089
:108BA000010016D00120306044F21010C2F2000023
:108BB000052180F8541080F85C1080F86C1080F863
:108BC0007C1080F88C1004E05FEAC8701CBF0120A4
:108BD0003060780544BF4FF480603060B80544BF12
:108BE0004FF400703060F80544BF4FF4807030607F
:108BF000D9F8000000F47F00B0F5403F60D338059D
:108C000044BF4FF400603060F8040DD54FF480503D
:108C1000306044F21010C2F20000D0F8901019B188
:108C2000D0F8901020468847B8040DD54FF4005076
:108C3000306044F21010C2F20000D0F8801019B178
:108C4000D0F8801020468847780344BF4FF4802036
:108C50003060380344BF4FF400203060F80244BF56
:108C60004FF480103060B80244BF4FF40010306001
:108C7000780244BF4FF480003060380244BF4FF4A4
:108C800000003060F80144BF4FF080703060B801E0
:108C900044BF4FF000703060780144BF4FF08060F7
:108CA0003060380144BF4FF000603060F80044BFCE
:108CB0004FF080503060B80044BF4FF0005030603B
:108CC0000FB0BDE8F08F1C30294602F0D5FEE0E67B
:108CD000681A0024029019E044F658004FF0000E84
:108CE000C2F2000080F800E044F65600C2F2000034
:108CF000A0F800E044F66600C2F20000A0F800E030
:108D00002C4602982C1DA0423FF483AE1FFA8EF130
:108D10000C292DD2039844F659022044007FC2F258
:108D2000000250540EF1010188B244F6560344F695
:108D300066050C28C2F20003C2F20005198022D198
:108D400044F65901C2F2000148894A7800F10E0147
:108D5000412A29801FD144F65900C2F20000007850
:108D6000012818D188B2B0F5967F14D80C210AE0FA
:108D700044F656030EF10101C2F2000344F6660503
:108D80001980C2F20005B5F800C0ACF1010082B252
:108D900088B282420ED244F658014FF0000CC2F263
:108DA000000181F800C000212846A3F800C0A5F802
:108DB00000C001E00C282CD2039844F6590E204440
:108DC000407F8AB2C2F2000E01310EF8020088B272
:108DD00041F240090C28C4F2020919801BD144F663
:108DE0005901C2F200014889497800F10E0C41296D
:108DF000A5F800C015D144F65900C2F20000007871
:108E000001280ED11FFA8CF0B0F5967F09D80C21FD
:108E100001E001311980ACF1010082B288B28242D6
:108E20000ED244F658004FF0000CC2F2000080F859
:108E300000C0A3F800C0AE46A5F800C0002102E0C3
:108E40000C282BD2AE46039825462044807F44F65A
:108E500059048AB2C2F200040131A05488B22C46EF
:108E60000C28754619801BD144F65901C2F2000145
:108E70004889497800F10E0C4129A5F800C015D1A8
:108E800044F65900C2F20000007801280ED11FFA02
:108E90008CF0B0F5967F09D80C2101E001311980E2
:108EA000ACF1010082B288B2824211D244F658007D
:108EB00044F656034FF0000CC2F20000C2F2000369
:108EC00080F800C0A3F800C0A5F800C0002105E0AC
:108ED0000C2837D244F65603C2F200030398254605
:108EE0002044C07F44F659048AB2C2F2000401F162
:108EF000010EA0541FFA8EF00C28A3F800E02AD12E
:108F000044F65901C2F200014889497800F10E0C7B
:108F100044F666004129C2F20000A0F800C07FF4C8
:108F2000DBAE44F65900C2F20000007801287FF45D
:108F3000D3AE1FFA8CF0B0F5967F3FF6CDAE4FF072
:108F40000C0E08E044F6560001F1010EC2F20000DA
:108F50002546A0F800E0ACF1010080B21FFA8EF1C6
:108F60008842FFF4B9AECBE644F656000EF1010597
:108F7000C2F20000058044F66600C2F20000B0F8BC
:108F800000E0A9B2AEF1010080B2884214D244F6EA
:108F900058004FF0000EC2F2000080F800E044F6E6
:108FA0005600C2F20000A0F800E044F66600C2F2EB
:108FB00000000025A0F800E0012B3FF46AADA9B243
:108FC0000C292BD2039A601C1044007F44F65902EE
:108FD000C2F2000205F1010C50541FFA8CF00C286B
:108FE00044F65600C2F20000A0F800C01ED150891D
:108FF000517800F10E0E44F666004129C2F20000DD
:10900000A0F800E019D11078012816D11FFA8EF0CF
:10901000B0F5967F11D84FF00C0C07E044F65600DF
:1090200005F1010CC2F20000A0F800C0AEF1010091
:1090300080B21FFA8CF1884215D244F658004FF0E6
:10904000000EC2F2000080F800E044F65600C2F2C2
:109050000000A0F800E044F66600C2F200004FF005
:10906000000CA0F800E0022B3FF413AD1FFA8CF1C6
:109070000C2928D2039AA01C1044007F44F6590200
:10908000C2F2000250540CF1010188B20C2844F6DF
:109090005600C2F2000001801CD15089517800F1C5
:1090A0000E0E44F666004129C2F20000A0F800E06E
:1090B00017D11078012814D11FFA8EF0B0F5967FE1
:1090C0000FD80C2106E044F656000CF10101C2F263
:1090D00000000180AEF1010080B289B28842BFF485
:1090E000D8AC44F658010020C2F20001087044F6E2
:1090F0005601C2F20001088044F66601C2F2000186
:109100000880C6E44FF27E60C0F6000040F2F651DF
:1091100003F0F6FB03F0E2FBB0B584B0044644F282
:109120000000C4F2010044F210158442C2F20005AE
:1091300006D045F20000C4F20100844253D15435F8
:10914000A06820F08000A0606869E0B3206C6969C5
:109150000860606C696948602869A0B345F2000343
:1091600028696A6944F48051C4F20103994204F108
:10917000480125D140F20013C0F20233009340F2BF
:109180000453C0F20673019340F60843C1F2104342
:109190005268029342F21803C4F2300302F00F0245
:1091A00003936B4613F802E0D4F800C07246BEF198
:1091B000080F28BF08225FEA4C3348BF724600E020
:1091C0000022FFF75DFA206840F480102060002044
:1091D000E86101202876A86C18B104B0BDE8B04061
:1091E000004704B0B0BD4FF27E60C0F600004FF4FF
:1091F000186103F085FB000070470000FEE70000E7
:10920000FEE70000B0B5A0F18042A2F560324FEA5F
:10921000B222042A78D200297ED00C78142C80F057
:10922000838091F801C0BCF1040F80F08580032A8F
:1092300088BFB0BD132C98BFBCF1030F00D9B0BDDF
:10924000026852075CBF02685FEA027214D54FF2EF
:10925000E330C0F6000005F057FC3BA005F0A6FE89
:109260004FF2A7704FF2A971C0F60000C0F60001DE
:10927000BDE8B04005F048BC4AF6AB224FEAD40E38
:10928000CAF6AA22AEFB02235A0802EB4202C2EB44
:10929000D40200EB82021C23D2F830E003EA8403FC
:1092A00003249C400CFA03F52EEA040E2C404EEAEF
:1092B00004051563D2F830E08D78033301249C4017
:1092C00005FA03F32EEA040E234043EA0E03136368
:1092D0000C238A8803EA8C031844C0F8A02041F2CA
:1092E0004002C4F202021268C98802F47F02B2F599
:1092F000003F04D96FF3DF31C0F8C010B0BD6FF389
:109300009F31C0F8C010B0BD4FF2C850C0F6000089
:1093100040F2B72103F0F4FA4FF2C850C0F6000053
:109320004FF42E7103F0ECFA4FF2C850C0F6000073
:1093300040F2B92103F0E4FA4FF2C850C0F6000041
:1093400040F2BA2103F0DCFA4144432043616C69E6
:1093500062726174696F6E2063616E277420436F5F
:109360006E666967207768696C6520697427732069
:1093700052756E6E696E67210000000070B5A0F135
:109380008042A2F560324FEAB222042A7ED200293E
:1093900000F084800B78142B80F08880032A88BF2B
:1093A00070BD026852075CBF02685FEA027214D5A2
:1093B0004FF2E330C0F6000005F0A6FB3FA005F039
:1093C000F5FD4FF2A7704FF2A971C0F60000C0F68C
:1093D0000001BDE8704005F097BB4CF6CD42CCF6DD
:1093E000CC42A3FB022C4FEA1C1202EB8202D1F802
:1093F00008E000F5C874A3EB820C04EB0C1541F2F5
:109400004002C5F804E0C4F20202D2F800E08A8902
:109410000EF47F0E16466FF35F364FEA0C13BEF55F
:10942000003F88BF1646AE60E2584E7822F0040234
:1094300006F03F0642EA86028D7891F803E0E2509A
:10944000E25805F01F0522F0080242EAC502E25088
:10945000012202FA0CFCD0F88421BEF1000F0CBFEF
:1094600022EA0C0242EA0C02C0F8842109790029A0
:10947000D0F88C110CBF21EA0C0141EA0C01C0F8B4
:109480008C11E05840F00100E05070BD4FF2C85020
:10949000C0F6000040F2922103F032FA4FF2C850B9
:1094A000C0F6000040F2932103F02AFA4FF2C850B0
:1094B000C0F600004FF4257103F022FA4144432026
:1094C000444D412063616E277420436F6E66696767
:1094D000207768696C6520697427732052756E6EF9
:1094E000696E6721000000002DE9F04784B0044652
:1094F000A0F18040A0F560304FEAB020042880F051
:109500003E810D46002900F04281206840075CBF83
:1095100020685FEA007015D54FF2E330C0F6000016
:1095200005F0F2FA9EA005F041FD4FF2A7704FF250
:10953000A971C0F60000C0F6000104B0BDE8F04714
:1095400005F0E2BAE8684EF6D07AC0F6000A0028C4
:1095500018BF824600200390019048F6000044F2B4
:109560000008C4F20300C4F2020884424FF00F0066
:1095700002901ED048F20040C4F20300844226D07C
:1095800048F20000C4F2030084424ED101AF4FF014
:10959000010940463946CDF8049001F053F8042003
:1095A000019008F58050394601F04CF808260196E4
:1095B00021E0012008F58057019001A9384601F00B
:1095C00041F802204FF004092026019014E001AF79
:1095D0004FF0020940463946CDF8049001F032F8C8
:1095E00046F200001026C4F202003946019601F04E
:1095F00029F880200190474601A9384601F022F859
:109600004C2048F2E471C4F20200C3F6AC7141632D
:10961000016931430161016841EA09010160016AA0
:1096200041F00801016201214163A06840F0080097
:10963000A060A06840F00200A060A06840F00100B7
:10964000A060D4F80003298861F31120C4F8000356
:10965000D4F80003A978EA7861F30300C4F80003A2
:10966000606862F3CF306060A0689AF8001061F320
:109670000510A0604DF24000CFF6FF7058F80000D2
:1096800000F47F00B0F5003F10D944F26430C2F21C
:1096900000000068C00709D09AF80110606800292E
:1096A0000CBF20F4804040F4804060602068400798
:1096B0005CBF20685FEA007007D54FF2E330C0F668
:1096C000000005F021FA3FA02DE761686A7928794A
:1096D00062F30B21AB79EF796160616807F00102F9
:1096E00063F306116160616821F0800141EAC211F3
:1096F0006160297A6268002942F0010308BF22F004
:1097000001036360697A6268002942F0020308BFBE
:1097100022F0020363606168002841F4805208BFB0
:1097200021F480526260206840F00100206044F61D
:10973000C020C2F2000001682269D20519D4026873
:10974000521A642A18D82269D20512D40268521A11
:10975000642A11D82269D2050BD40268521A642AED
:109760000AD82269D20504D40268521A642AE3D9BD
:1097700002E04FF48070206104B0BDE8F0874FF242
:10978000C850C0F6000040F2291103F0B9F84FF2BA
:10979000C850C0F600004FF4957103F0B1F800BF57
:1097A0004144432063616E277420496E69742077B9
:1097B00068696C6520697427732052756E6E696ED6
:1097C00067210000414443204F76657273616D70DC
:1097D0006C652063616E277420436F6E6669672035
:1097E0007768696C6520697427732052756E6E699D
:1097F0006E6721002DE9F041A0F18042A2F56032B0
:109800004FEAB224042C80F08E80002900F093806F
:109810004A78142A80F097800B78102B80F09B8078
:10982000032C88BFBDE8F081132A98BF0F2B01D904
:10983000BDE8F0810468640758D44CF6CD4ECCF6F0
:10984000CC4EA3FB0E4C4AF6AB254FEA9C06D4083F
:10985000CAF6AA2506EB8606A4FB0558A2FB0E5EF7
:109860009B1BCCF3810503EB430300EB85055B00F9
:109870002F6CDBB21F269E4002FA03F3B74333403E
:109880003B432B648369CF784FF0010C07F001074D
:109890000CFA02F69740B34337403B438D78097981
:1098A00083614FEA580303EB4303C3EBD20300EB9E
:1098B00083031C261F6A06EA8206072401F00701BB
:1098C000B440B140A7432140394319624FEA1E1109
:1098D00001EB8101A2EB81010CFA01F1DDB1D0F8BD
:1098E00004211143C0F80411BDE8F0814FF2E330C8
:1098F000C0F6000005F008F91BA005F057FB4FF279
:10990000A7704FF2A971C0F60000C0F60001BDE8D3
:10991000F04105F0F9B8D0F8042122EA0101C0F8BD
:109920000411BDE8F0814FF2C850C0F6000040F2CB
:10993000EF1102F0E5FF4FF2C850C0F600004FF4FF
:10994000F87102F0DDFF4FF2C850C0F6000040F29F
:10995000F11102F0D5FF4FF2C850C0F600004FF4ED
:10996000F97102F0CDFF00BF414443205265677595
:109970006C6172204368616E6E656C2063616E2756
:109980007420436F6E666967207768696C6520692B
:109990007427732052756E6E696E67210000000097
:1099A00010B5A0F18042A2F560324FEAB222042A3B
:1099B00043D2002949D00268520729D442684B7823
:1099C00091F800C063F3D75291F802E0CC7842607E
:1099D0004268BCF1000F6EF353424260426842F4A9
:1099E000803308BF22F480334360026D64F30B229E
:1099F0000265026D0B7922F0C00203F0030342EA14
:109A000083120265026D497961F30402026510BD9B
:109A10004FF2E330C0F6000005F076F80FA005F035
:109A2000C5FA4FF2A7704FF2A971C0F60000C0F658
:109A30000001BDE8104005F067B84FF2C850C0F60D
:109A4000000040F2CD1102F05BFF4FF2C850C0F6AB
:109A500000004FF4E77102F053FF00BF4144432080
:109A6000526567756C617220436F6D6D6F6E206318
:109A7000616E277420436F6E666967207768696C32
:109A80006520697427732052756E6E696E672100B8
:109A90002DE9F04184B0002800F0B48044F2101E9B
:109AA000C2F2000E9EF8542045F20008012AC4F2CA
:109AB000010847D1D8F80020920500F1A0800322C8
:109AC00000238EF85420CEF85830D8F80020002912
:109AD00022F48052C8F800200268C8F88820426842
:109AE000C8F88C2000F0828040F20012C0F20232EE
:109AF000009240F20452C0F20672019240F608420F
:109B0000C1F210424068029242F21802C4F23002DE
:109B100000F00F0003926A46165CD8F80020304629
:109B2000082E28BF0820520348BF30460330B3EB4D
:109B3000900F5BD08008421E032A00F0030C18D25D
:109B4000002333E04FF2FE30C0F6000004F0DCFFEB
:109B500030A0414604F0D8FF4FF2A7704FF2A97130
:109B6000C0F60000C0F6000104B0BDE8F04104F00A
:109B7000CBBFA0EB0C000023302208F1900500BF02
:109B80000E6802EA8307EE514E683C1D2E518C6828
:109B900007F10806AC5101F11006C96807F10C0481
:109BA0000433295198423146EAD13146BCF1000FC5
:109BB0001CD0086803F00F0208EB8202BCF1010F11
:109BC000C2F8900012D0581C4A6800F00F0008EB51
:109BD0008000BCF1020FC0F8902007D0981C896863
:109BE00000F00F0008EB8000C0F89010D8F80000DB
:109BF00040F40070C8F8000001208EF8540004B052
:109C0000BDE8F0814FF27E60C0F6000040F2D7312F
:109C100002F076FE546869732043414E5B3078252C
:109C20003038785D205054422054782069736E2774
:109C30007420696E205245414459207374617465E3
:109C40002C2063616E2774207374617274205478C1
:109C5000210A000010B5A0F18042A2F568324FEA57
:109C60003222092A7ED2002900F083805C2248F249
:109C7000E473C4F20202C3F6AC735362136843F494
:109C800080731360136943F020031361012353624F
:109C9000036841F2400223F00103C4F202020360B0
:109CA000136803F47F03B3F5003F14D944F264331F
:109CB000C2F200031B685B0712D54B7A1268002BB7
:109CC00002F47F0246D0B2F5003F09D9026842F49F
:109CD0000062026004E002688B7963F3CB220260C9
:109CE0000268CB7922F0C00203F0030342EA831238
:109CF000026002680B7A63F3C302026002680B79A8
:109D000091F800E063F3051291F801C0CC7802608D
:109D100002684B79BEF1000F63F30A2202604460CF
:109D2000826842F0010308BF22F001038360826869
:109D3000BCF1000F42F0020308BF22F0020383606F
:109D400089780268002942F4805308BF22F48053C6
:109D5000036010BDB2F5003FC2D9026822F4006270
:109D60000260BDE74FF2F560C0F60000432102F04B
:109D7000C7FD4FF2F560C0F60000442102F0C0FDBF
:109D800080B506283AD244F2B822C0EBC001C2F234
:109D9000000202EB810111F8042FD2B142F200025D
:109DA000C4F2020242EA4010026922F0010202619A
:109DB00001220A70C16821F48061C160C16821F488
:109DC0008071C160C16821F40071C16007214161E7
:109DD00080BD4FF2D730C0F6000004F095FE0BA016
:109DE00005F0E4F84FF2A7704FF2A971C0F6000039
:109DF000C0F60001BDE8804004F086BE4FF28D50F1
:109E0000C0F6000040F23A2102F07AFD4368616E2C
:109E10006E656C20737461746520697320696E20AF
:109E20005265736574210000B0B541F25C04C4F260
:109E3000020421684FF6FF72080C8002B2EB114F4A
:109E400008BF4FF48020B0F5003F08D0B0F5802F58
:109E500040F0B68043F20000C4F20200006C00F053
:109E600017FAB8B14FF2EF30C0F6000004F04CFE24
:109E70004FF2C340C0F6000005F098F84FF2A7700B
:109E80004FF2A971C0F60000C0F6000104F03CFEDC
:109E90000120B0BD21684FF6FF72080C8002B2EBC2
:109EA000114F08BF4FF48020B0F5003F08D0B0F547
:109EB000802F40F08D8043F20000C4F20200006C5D
:109EC00000F0E6F9C8B14FF2EF30C0F6000004F040
:109ED0001BFE4FF2C340C0F6000005F067F84FF2DA
:109EE000A7704FF2A971C0F60000C0F6000104F09F
:109EF0000BFE002585F00100B0BD54F81C0C43F2A8
:109F0000000400F47F00B0F5003FC4F202040ED854
:109F1000206C00F07060B0F1206F08D1206C00F070
:109F2000704000F1C040B0FA80F0400900E000202D
:109F3000216A21F4401121622168B1F1FF3F0CDC5C
:109F4000616A43F6AC7262F30F016162616A48F2C2
:109F5000E47262F30F0161622168216A00286FF3E5
:109F600012010CBF41F01F0041F03F002062206849
:109F7000012540F002002060012000F0FBF9A0B1B3
:109F80004FF2EF30C0F6000004F0BEFD14A01F2118
:109F900004F0BAFD4FF2A7704FF2A971C0F60000AD
:109FA000C0F6000104F0B0FD00252068002804D4AC
:109FB000206840F000402060206885F00100B0BDBE
:109FC0004FF20360C0F600004FF47C7102F098FC81
:109FD0004FF20360C0F6000040F2B33102F090FC93
:109FE000536563746F722045726173652065727288
:109FF0006F7220617420536563746F72206E756D8B
:10A000006265722025752121210A00002DE9F041A9
:10A0100041F24004C4F20204E1694FF6FF72080CF9
:10A020008002B2EB114F08BF4FF48020B0F5F83F2B
:10A0300040F2B0804FF2FF01C0F20101884240F2CD
:10A04000B18000F025F9C0B14FF2EF30C0F600004A
:10A0500004F05AFD4FF2C340C0F6000004F0A6FF22
:10A060004FF2A7704FF2A971C0F60000C0F60001D0
:10A0700004F04AFD0020BDE8F081206843F20006AC
:10A0800000F47F00B0F5003FC4F202060ED8306C39
:10A0900000F07060B0F1206F08D1306C00F07040BB
:10A0A00000F1C040B0FA80F0400900E000203168C3
:10A0B000B1F1FF3F0CDC716A43F6AC7262F30F0141
:10A0C0007162716A48F2E47262F30F017162316881
:10A0D00040F2000844F2B817CFF6F8784FF00004C9
:10A0E000C2F20007E0B100BF385939193061486841
:10A0F00004F5F8357061306A00EA0800284380F4FE
:10A1000000303062306840F001003060002000F024
:10A1100031F900BB0834B4F5807FE5D118E000BF09
:10A12000385939193061486804F5F8357061306A7A
:10A1300000EA080028433062306840F001003060D7
:10A14000002000F017F930B90834B4F5807FE7D16A
:10A150004FF4807413E04FF2EF30C0F6000004F0CB
:10A16000D3FC14A0294604F0CFFC4FF2A7704FF2A5
:10A17000A971C0F60000C0F6000104F0C5FC30680B
:10A18000002804D4306840F0004030603068204639
:10A19000BDE8F0814FF20360C0F600004FF45B7140
:10A1A00002F0AEFB4FF20360C0F6000040F26D31EA
:10A1B00002F0A6FB50726F6772616D206572726F5C
:10A1C0007220617420616464726573732030782535
:10A1D0003038782121210A00B0B541F25C00C4F288
:10A1E000020001684FF6FF72080C8002B2EB114FBB
:10A1F00008BF4FF48020B0F5F83F38D94FF2001176
:10A20000C0F2010188423AD34FF2000E44F2B81274
:10A210004FF2FF0C0020C0F6010EC2F20002C0F6A1
:10A22000010C00BF10F80E10135C994218BFB0BDAE
:10A2300000EB0E03111813F8014F4D78AC4210D10A
:10A2400013F8014F8D78AC420DD113F8014FC97846
:10A250008C420AD1634500F10400E3D14FF48070D1
:10A26000B0BD0130B0BD0230B0BD0330B0BD4FF263
:10A270000360C0F6000040F25A4102F041FB4FF289
:10A280000360C0F6000040F25B4102F039FB0000C1
:10A2900080B581B044F6C02CC2F2000C0020DCF87E
:10A2A00000E08DF8030041F24000C4F202000068B3
:10A2B00000F47F00B0F5003F43F20800C4F2020052
:10A2C00039D900BF50F8083C50F8081CDB4323EA9A
:10A2D000510150F8043C50F8042C994321EA5201F2
:10A2E0000268036821EAD201DA4301EAD2718DF8EB
:10A2F0000310DCF80010A1EB0E01B1F5967F33D806
:10A300009DF80310C907DDD00168490703D1016832
:10A3100011F4E06F2BD0072101604FF4E061016080
:10A32000012001B080BD00BFDCF80010A1EB0E01E0
:10A33000B1F5967F18D850F8081CC907F4D150F829
:10A34000081C8907F0D450F8041CC907ECD150F858
:10A35000041C89075CBF01685FEA0171E4D40168ED
:10A36000490704D00721DAE7032001B080BD0020AF
:10A3700001B080BD10B541F2400C44F6C02EC4F2CD
:10A38000020CC2F2000E43F20801DEF80020DCF8F5
:10A390000030C4F202010C6803F47F03B3F5003F00
:10A3A00004F0070305D94BB1072008604FF4E060C3
:10A3B00001E02BB307200860012010BD50B1013827
:10A3C00072E000BF51F8080CC00700F097800868E1
:10A3D0004007E9D1086810F4E06FE5D1DEF800002D
:10A3E000801AB0F5967F00F28B80DCF8000000F454
:10A3F0007F00B0F5003FE5D908680028E2D5E6E720
:10A4000050B1013821E000BF51F8080CC00700F03E
:10A41000758008684007CDD1DEF80000801AB0F5DD
:10A42000967F00F26D80DCF8000000F47F00B0F54C
:10A43000003FE9D908680028E6D5EAE751F8043C6E
:10A440009B075BD50B685B07B4D1DEF800309B1A25
:10A45000B3F5967F54D8DCF8003003F47F03B3F5EE
:10A46000003F02D90B68002BECD4042846D8DFE863
:10A4700000F0080D03040400E0E70B681B07E1D4BB
:10A480003CE051F8083C9B07DCD437E051F8043C31
:10A49000DB07D7D132E051F8043C9B072ED500BF33
:10A4A0000B685B077FF480AF0B6813F4E06F7FF4F9
:10A4B0007BAFDEF800309B1AB3F5967F20D8DCF82E
:10A4C000003003F47F03B3F5003F02D90B68002B83
:10A4D000E6D4042812D8DFE800F0080D03040400D5
:10A4E000D9E70B681B07DBD408E051F8083C9B0751
:10A4F000D6D403E051F8043CDB07D1D1002010BDD5
:10A50000032010BD5FEA004C00F09480C10745F2C3
:10A510002001C4F202012AD182072FD4420734D489
:10A52000020739D4C2063ED4820643D4420648D438
:10A5300002064DD4C20552D4820557D442055CD4DC
:10A54000020561D4C20466D482046BD4400404D5ED
:10A5500048680E2262F31B604860BCF1000F58BFD0
:10A56000704748680E2262F31F70486070470B689E
:10A570000E2262F303030B608207CFD50A680E2315
:10A5800063F307120A604207CAD50A680E2363F311
:10A590000B220A600207C5D50A680E2363F30F3247
:10A5A0000A60C206C0D50A680E2363F313420A602C
:10A5B0008206BBD50A680E2363F317520A6042066F
:10A5C000B6D50A680E2363F31B620A600206B1D592
:10A5D0000A680E2363F31F720A60C205ACD54A688D
:10A5E0000E2363F303024A608205A7D54A680E234F
:10A5F00063F307124A604205A2D54A680E2363F34B
:10A600000B224A6002059DD54A680E2363F30F3280
:10A610004A60C20498D54A680E2363F313424A6025
:10A62000820493D54A680E2363F317524A604004AC
:10A6300093D58DE74FF2B960C0F60000E12102F03A
:10A640005FF900002DE9F04F81B00446A0F1804091
:10A65000A0F510304FEA3030062880F0D3808A46CB
:10A66000002900F0D680DAF800300021B1EB134F5A
:10A6700040F0C18099B2002900F0BD80052800F2A9
:10A68000A08004F1240C04F1200B4FF000094FF0DE
:10A6900001084FF0000E002608FA06F10B405BD0CF
:10A6A0009AF80410481E0F2860D26046082E38BF62
:10A6B0005846026809F01C070F25BD40B940AA435F
:10A6C0002940114301609AF808000028A06B14BFCC
:10A6D00040EA030120EA0301A1639AF80700002879
:10A6E000A06C14BF18439843A064206B9AF805200F
:10A6F000032102F0030201FA0EF102FA0EF288437E
:10A7000011400843206341F24000C4F20200006897
:10A7100000F47F00B0F5003F1ED944F26430C2F26D
:10A7200000000068000617D59AF80930DAF8001022
:10A73000D807206C0CBF20EA010840EA0108C4F8E1
:10A7400040809807206C4FF001084FEA014154BF48
:10A7500088430843206400BF0F2E32D0DAF800305F
:10A7600001360EF1020E09F1040995E761BB60465E
:10A77000082E38BF5846D0F8008009F01C010F227F
:10A7800002FA01F128EA010101609AF806104FF07F
:10A7900001080029A9D0D4F81480032001F0030196
:10A7A00000FA0EF001FA0EF128EA0008084040EA2B
:10A7B00008006061A36120694FF00108184320611F
:10A7C00093E701B0BDE8F08F15A004F09DF99AF869
:10A7D000043017A02146324604F096F94FF2A770D4
:10A7E0004FF2A971C0F60000C0F6000101B0BDE84B
:10A7F000F04F04F089B94FF2B960C0F6000048216B
:10A8000002F07EF84FF2B960C0F60000462102F077
:10A8100077F84FF2B960C0F60000472102F070F8F7
:10A820005B45404750494F204C4C5D2000000000E4
:10A830004750494F2D5B3078253038785D2050697E
:10A840006E2D5B25645D20616C7465726E6174654C
:10A850002066756E6374696F6E205B25645D20638E
:10A860006F6E666967204572726F722121210A003E
:10A8700070B5002900F0D5804BF2001CC4F2030C27
:10A880000A690CEB00239A634A69DA63D3F870E033
:10A890000A7E62F3000EC3F870E0D3F870E04A7EDF
:10A8A00062F3C30EC3F870E0D3F870E08A7E62F3FF
:10A8B000420EC3F870E0D3F870E00C7B4EF040021B
:10A8C0004D7B002C08BF2EF040021A671A6F002D36
:10A8D00042F0200408BF22F020041C670A6A4BF6ED
:10A8E000047E1A644A6AC4F2030E5A641A6F91F81D
:10A8F000285065F310421A671A6F91F8295065F3D2
:10A90000D3421A671A6F91F82A5065F352421A67B8
:10A91000CA7E1D6F002A45F4800408BF25F4800418
:10A920001C670A7F1C6F002A44F4001508BF24F43A
:10A9300000151D671A6FCC7A22F0605204F00704EC
:10A9400042EAC4621A674C7A1D6F002C45F08046BB
:10A9500008BF25F080461E6703F170020B7A0124C0
:10A96000002B04FA00F3DEF800400CBF24EA0303D6
:10A970002343CEF800308B7A1668002B46F0007522
:10A9800008BF26F0007515600CEB0020426F0E78B2
:10A9900042F001034D788C7891F803C0002E08BF77
:10A9A00022F001034367426F002D42F0020308BF0B
:10A9B00022F002034367426F002C42F0040308BFF9
:10A9C00022F004034367426FBCF1000F42F008031A
:10A9D00008BF22F0080343670A79436F002A43F057
:10A9E000100608BF23F0100646674A79436F002A15
:10A9F00043F0200608BF23F0200646678A79436F9C
:10AA0000002A43F0400608BF23F040064667C97994
:10AA1000426F002942F0800308BF22F080034367A1
:10AA200070BD4FF24160C0F600004FF4CB7101F0F1
:10AA300067FF0000B0B5002900F0338109286FD10D
:10AA40004BF20000C4F20300C2688B68520A62F342
:10AA50005F23C3604FF6FF73C268C8F2000303F1BF
:10AA6000FC4302EA030CCB680022C0F2FF121A403A
:10AA70006244C26002680B7C63F3020202600268F7
:10AA80004B7C63F3C30202604A790B788261CA8807
:10AA90004261026822F0404242EA8372026091F809
:10AAA00003C00368BCF1000F43F0100208BF23F09D
:10AAB0001002026091F802C00368BCF1000F43F479
:10AAC000806208BF23F48062026091F801C00368CD
:10AAD000BCF1000F43F4006208BF23F4006202607F
:10AAE00091F804C0D0F8903FBCF1000F43F48032DD
:10AAF00008BF23F48032C0F8902F0268CB7C22F08C
:10AB0000C00203F0030342EA831202608A7C0168F8
:10AB1000002A14BF41F0200121F020010160B0BDE6
:10AB2000082880F0C5804BF2000CC4F2030C0CEB3B
:10AB30000023D3F80CE18C684FEADE3262F3DF3495
:10AB4000C3F80C41D3F80C21CC8964F31E42C3F83E
:10AB50000C21D3F800210C7C64F30202C3F800211D
:10AB6000D3F800214C7C64F3C302C3F800214A7976
:10AB700091F803E0C3F81821CA88BEF1000FC3F8AA
:10AB80001421D3F8002142F0100408BF22F0100471
:10AB9000C3F8004191F802E0D3F80041BEF1000F84
:10ABA00044F4806208BF24F48062C3F8002191F865
:10ABB00001E0D3F80041BEF1000F44F4006508BF86
:10ABC00024F40065C3F8005103F580720B794FF44B
:10ABD0000035002B05FA00F3DCF8905F0CBF25EA86
:10ABE00003032B43CCF8903FD1E906530CEB002034
:10ABF000C0F85451C0F85831106891F8203063F310
:10AC0000492010601068CB7C20F0C00003F00303E3
:10AC100040EA83108D7C10601068002D40F0200306
:10AC200008BF20F020031360106891F8253020F051
:10AC3000704040EA03701060106891F8263063F3AA
:10AC400011401060106891F8273063F39340106052
:10AC500091F821001368002843F4807508BF23F49D
:10AC60008075156091F822001368002843F4801560
:10AC700008BF23F48015156091F82300136800289D
:10AC800043F4001508BF23F40015156091F8241053
:10AC90001068002914BF40F4800020F48000106088
:10ACA000B0BD4FF24160C0F60000F42101F028FE73
:10ACB0004FF24160C0F6000040F6B80101F020FEFE
:10ACC000B0B5002900F0CD8009282BD14A884BF27D
:10ACD0000000C4F20300C2618A880262CA8842622C
:10ACE0000A898262026891F800C042F0007391F80C
:10ACF0000AE0CC7ABCF1000F08BF22F000730360B9
:10AD00000168BEF1000F41F0006208BF21F000624F
:10AD100002600168002C14BF41F0806121F0806165
:10AD20000160B0BD082880F0A4804BF200034A887F
:10AD3000C4F2030303EB0020C0F81C218A88C0F88A
:10AD40002021CA88C0F824210A89C0F82821D0F817
:10AD500000210C7842F0007391F80AC091F80BE0E2
:10AD60000D7B002C08BF22F00073C0F80031D0F832
:10AD70000021BCF1000F42F0006308BF22F0006325
:10AD8000C0F80031D0F80021BEF1000F42F080631E
:10AD900008BF22F08063C0F80031D0F80421002DF4
:10ADA00042F4803308BF22F48033C0F804314A7B78
:10ADB000D0F80431002A43F4003508BF23F40035ED
:10ADC000C0F804518A7BD0F80431002A43F480256E
:10ADD00008BF23F48025C0F80451CA7BD0F80431A1
:10ADE000002A43F4002508BF23F40025C0F80451CD
:10ADF0000A7CD0F80431002A43F4801508BF23F4FC
:10AE00008015C0F804514A7CD0F80431002A43F47C
:10AE1000001508BF23F40015C0F804518A7CD0F84F
:10AE20000431002A43F4800508BF23F48005C0F8EC
:10AE30000451CA7CD0F80431002A43F4000508BF4D
:10AE400023F40005C0F804510A7DD0F8041100F580
:10AE50008270002A14BF41F0807121F0807101607E
:10AE6000B0BD4FF24160C0F600004FF4847101F0B4
:10AE700047FD4FF24160C0F6000040F6221101F09C
:10AE80003FFD00002DE9F04F85B041F26C01C4F2A6
:10AE9000020151F80C0C0022C4F20202009051F899
:10AEA0004CEC106848F2E470C3F6AC70C2F8800055
:10AEB00048F2E47041F8280C48F63D2041F8280C8F
:10AEC00041F6EC1041F8280C51F80C0C032340F427
:10AED000005041F80C0C51F80C0C4EF6FC5940F4A3
:10AEE000805041F80C0C51F84C0CCEF2000940F4A3
:10AEF000807041F84C0C51F84C0C41F2002C63F37B
:10AF00008E2041F84C0CD9F80000D9F8007041F2BD
:10AF1000000347F08077CEF20003C9F800700027E5
:10AF20005F601C689FEDBF0AC0F27A0C44F0010418
:10AF30001C6000BF5C680D68664615F5807F3CBFED
:10AF40000D682E0A01EE106AB8EE411A21EE001AC1
:10AF5000BCEEC11A11EE105AAC42EBD348F2001409
:10AF600048F22135C4F20304C0F2800544F8FC5CC9
:10AF70002B2544F8F85C002544F8E85C202544F8CB
:10AF8000D85C112544F8C05C6FF0FF05665900F0ED
:10AF9000807846F00100605154F8F00CC0055CBFA9
:10AFA00054F8F00C5FEAC05007D454F8F00CC00518
:10AFB00003D454F8F00CC005EED56FF0FF0025580F
:10AFC00045F004052550206840F40030206000BFA3
:10AFD000206880035CBF20685FEA803005D4206869
:10AFE000800302D420688003F2D554F8AC0C2568A5
:10AFF000122645F40035256051F84C5C9FED8A0A15
:10B0000066F38E2541F84C5C156845F400351560F3
:10B01000156825F000451560156825F44075156024
:10B02000156845F00045156000255D601D6845F018
:10B0300001051D605E680D68674615F5807F3CBFA1
:10B040000D682F0A01EE107AB8EE411A21EE001AAF
:10B05000BCEEC11A11EE105AAE42EBD354F8AC5C00
:10B0600000EBD070A5EB600ABAF1000F48BFCAF13F
:10B07000000ACDF804A02568012645F400352560B6
:10B080001568401025F000451560156866F3092520
:10B090001560156845F00045156000255D601D6868
:10B0A00045F001051D6000BF5E680D68674615F537
:10B0B000807F3CBF0D682F0A01EE107AB8EE411A6E
:10B0C00021EE001ABCEEC11A11EE105AAE42EBD3BB
:10B0D00054F8AC5C0226B5EB000B48BFCBF1000B7B
:10B0E000CDF808B0256845F400352560156825F0D1
:10B0F00000451560156866F309251560156845F06B
:10B100000045156000255D601D6845F001051D6066
:10B110005F680D68664615F5807F3CBF0D682E0A96
:10B1200001EE106AB8EE411A21EE001ABCEEC11A07
:10B1300011EE105AAF42EBD354F8AC5C2F1A48BF53
:10B140007F420397256845F400352560156825F092
:10B1500000451560156845F440751560156845F0A3
:10B160000045156000255D601D6845F001051D6006
:10B170005E680D6815F5807F65463CBF0D682D0A39
:10B1800001EE105AB8EE411A21EE001ABCEEC11AB7
:10B1900011EE105AAE42EBD354F8AC6C351A48BFDE
:10B1A0006D4204952068D34540F40030206010685B
:10B1B00020F000401060106820F400301060186823
:10B1C00020F001001860D9F8000001AB40EA080047
:10B1D000C9F800004FF0000038BF012053F820608C
:10B1E000B74238BF022053F820309D426FF0FF0372
:10B1F000E75838BF032047F00107E75041F84CEC0F
:10B20000009B41F80C3C0123C2F880304FF480329F
:10B2100041F8282C4FF4003241F8282C05B0BDE845
:10B22000F08F00BF51499D3AA69BC43AB0B549F68C
:10B23000FF72C4F20102904216DC4DF6FF73C4F2B5
:10B240000003984226DD4EF20003C4F20003984248
:10B2500038D048F20003C4F20103984232D049F2D8
:10B260000003C4F201032AE04AF6FF73C4F20203AA
:10B2700098421ADD4BF20003C4F20203984221D037
:10B280000023C4F2030398421CD041F20003C4F22D
:10B29000030314E048F20003C4F20003984211D003
:10B2A00049F20003C4F2000309E04AF20003C4F2C9
:10B2B0000103984206D04AF20003C4F20203984206
:10B2C00040F0E780002900F0DC80904218DC4DF669
:10B2D000FF72C4F2000290422ADD4EF20002C4F274
:10B2E000000290423DD048F20002C4F201029042B6
:10B2F00037D049F20002C4F20102904231D023E07B
:10B300004AF6FF72C4F2020290421EDD4BF20002C6
:10B31000C4F20202904224D041F20002C4F20302BD
:10B3200090421ED00022C4F20302904219D00BE0DA
:10B3300048F20002C4F20002904212D049F2000228
:10B34000C4F2000290420CD0B0BD4AF20002C4F236
:10B350000102904205D04AF20002C4F20202904279
:10B36000F2D14EF2100C41F24002C4F2000CC4F2D1
:10B370000202ACF11003126898423BD102F47F0242
:10B38000B2F5003F36D9DCF820204FF6FF7E8B88DF
:10B3900022EA0E021A4444F6C02ECCF82020C2F253
:10B3A000000EDEF8002000BFDCF80030DB0326D5FD
:10B3B000DEF800309B1A0A2BC6D8DCF80030DB031D
:10B3C0001DD5DEF800309B1A0A2BBDD8DCF8003002
:10B3D000DB0314D5DEF800309B1A0A2BB4D8DCF856
:10B3E0000030DB030BD5DEF800309B1A0A2B88BF38
:10B3F000B0BDD9E74A6802630A89826306E0DCF8D7
:10B4000028200B8963F30702CCF8282002684B78C8
:10B4100091F800C063F3C30291F802E08D7A0260F4
:10B4200042686EF30202426002680B7B63F38202A1
:10B430000260CA7A0368002A23F0020408BF43F0BE
:10B44000020404600268BCF1000F42F0800308BFF0
:10B4500022F080030360C26A65F30302C2624A7B82
:10B46000026402688B7B63F3461202600268CB7B46
:10B4700063F3041202600268097C61F3092202602E
:10B48000B0BD4FF23070C0F600004FF4817101F092
:10B4900037FA4FF23070C0F6000040F2011101F0AF
:10B4A0002FFA000010B544F60010C2F20000017F30
:10B4B00043F200040429C4F200041ED1816921B3BF
:10B4C000616B21F00101616300218161216909073C
:10B4D00003D0616B21F400616163216841F00801D0
:10B4E0002160A16B11F4E06F1CBF4FF4E061A16318
:10B4F000818AC1820121017710BD4FF21640C0F64A
:10B50000000003F001FB0DA009E04FF21640C0F669
:10B51000000003F0F9FA4FF29A20C0F6000021462D
:10B5200003F0F2FA4FF2A7704FF2A971C0F60000D3
:10B53000C0F60001BDE8104003F0E6BA5468697334
:10B5400020554152545B3078253038785D2069733E
:10B550006E277420696E2052782073746174652C94
:10B560002063616E27742061626F727420527821AB
:10B570000A000000B0B544F60014C2F20004207BBB
:10B5800043F200050328C4F2000502D0207F0428FE
:10B5900015D14FF21640C0F6000003F0B5FA40A0F6
:10B5A000294603F0B1FA4FF2A7704FF2A971C0F625
:10B5B0000000C0F60001BDE8B04003F0A5BA0220CB
:10B5C000207320772868082120F0010028604EF2BF
:10B5D0008010CEF200000160502048F2E471BFF309
:10B5E0004F8FC4F20200C3F6AC71BFF36F8F0163DB
:10B5F000016821F008010160016921F00801016181
:10B600000121016344F20000C4F20200416A41F0EA
:10B61000F0014162816C21F400718164816B21F43D
:10B6200000718163016B21F440210163016921F400
:10B6300000710161416921F4402141614FF40071C1
:10B640008161016841F000710160416A41F47061FB
:10B650004162816C21F480618164816B21F480619D
:10B660008163016B21F440110163016921F4806160
:10B670000161416921F4401141614FF480618161B0
:10B68000016841F08061016020463421FDF71FF818
:10B69000002020732077FF2060736077B0BD00BF6B
:10B6A0005468697320554152545B3078253038789E
:10B6B0005D2069736E2774206265696E67207573FB
:10B6C0006564210A000000002DE9F04784B00028DD
:10B6D00000F0338104460068002800F0358144F60C
:10B6E0000015C2F20005287B08B9287FC8B14FF2C7
:10B6F0001640C0F6000003F007FA43F2000196A0DE
:10B70000C4F2000103F000FA4FF2A7704FF2A971E2
:10B71000C0F60000C0F6000104B0BDE8F04703F039
:10B72000F3B943F20006C4F20006306893A720F094
:10B7300001003060022028732877A06841F2400998
:10B74000002818BF07460020CDF809004FF4C0605C
:10B75000C4F2020940F2500801904FF0080A09F5BE
:10B760003F5001A9C4F202088DF808A0FEF76AFF55
:10B7700048F2E470C3F6AC70C8F83000D8F80000A6
:10B7800040F00800C8F80000D8F8100040F00800A9
:10B79000C8F810000120C8F830004EF20010CEF2B8
:10B7A0000000C0F800A0306840F010003060306841
:10B7B00040F0080030603068F9783A7961F38A2007
:10B7C0007B7997F806C03060306803F0010162F3BE
:10B7D00049203060706820F0800040EAC11070603D
:10B7E0003069F979013961F30300306130690CF097
:10B7F0000F0120F0F00040EA01103061306B4FF68D
:10B80000FF713A89884310443063387831680028E2
:10B8100041F4807208BF21F480723260B8783168D8
:10B82000002841F0800208BF21F080023260787861
:10B830003168002841F4006208BF21F400623260E0
:10B84000D9F8000000F47F00B0F5003F0BD944F2B6
:10B850006430C2F200000068400304D53068B97A51
:10B8600061F38E303060E0797168FF280AD041F0D2
:10B8700008017160716800F0010021F0100141EAD7
:10B88000001001E021F0080070607068A279617911
:10B8900062F38200237B7060706861F30100706066
:10B8A000706873B140F4803070607068A17B627B17
:10B8B00061F351407060F06A20F0FF001044F062C4
:10B8C00002E020F48030706044F20000C2F2000018
:10B8D000006858F8201C04F11007C1F3032101315E
:10B8E000B0FBF1F0216805F1200C00EB5100B0FB3A
:10B8F000F1F0B168C0EA0100B0603068217961F30D
:10B900000C3030600120287328778FCF8CE88F00AF
:10B91000FF20687368774FF0FF30B063306840F005
:10B9200004003060306840F002003060306840F061
:10B930000100306004B0BDE8F0874FF26B70C0F6D4
:10B940000000842100F0DCFF4FF26B70C0F60000B5
:10B95000852100F0D5FF00BF54686973205541521E
:10B96000545B3078253038785D2069736E277420F9
:10B970006265696E6720757365640A0000000000E7
:10B98000000000010000000080B544F60011C2F282
:10B990000001087F01281ED104220A7744F2D662F2
:10B9A000C2F200020A613F2243F200008A820022B2
:10B9B000C4F20000CA824268D20325D542689203CD
:10B9C00022D4426802F00302032A1DD14BF6BD7255
:10B9D000C0F600021CE04FF21640C0F6000003F073
:10B9E00093F843F2000115A0C4F2000103F08CF8B3
:10B9F0004FF2A7704FF2A971C0F60000C0F6000127
:10BA0000BDE8804003F080B84CF2DD02C0F60002D1
:10BA10008A61016841F008010160016841F002019A
:10BA200001600169090703D0416B41F40061416382
:10BA3000416B41F00101416380BD00BF54686973EF
:10BA400020554152545B3078253038785D20697339
:10BA50006E277420696E2052782052454144592047
:10BA600073746174652C2063616E27742073746134
:10BA70007274205278210A00B0B5002800F00B81C2
:10BA8000002900F0108144F6001EC2F2000E9EF85C
:10BA90000C3043F23804012BC4F200041CD1032300
:10BAA0008EF80C300023AEF80630CEF80830CEF811
:10BAB0000000AEF8041054F8340CC00327D554F835
:10BAC000340C400322D454F8340C00F00300033843
:10BAD000B0FA80F043091AE04FF21640C0F60000B9
:10BAE00003F012F84FF23030A4F13801C0F6000034
:10BAF00003F00AF84FF2A7704FF2A971C0F60000E8
:10BB0000C0F60001BDE8B04002F0FEBF002354F8CB
:10BB1000380C44F6C02540F0100044F8380C4FF4BF
:10BB20008050206054F8380CC2F2000540F0040048
:10BB300044F8380C2968BEF80620BEF8040082429A
:10BB400080F07F80002B40D048F2A063C0F2010358
:10BB50004FF4805C17E000BFDEF8000000886FF350
:10BB60005F2044F8180CDEF800000230CEF8000028
:10BB7000BEF806000130AEF80600BEF80600BEF8BA
:10BB8000042090425DD22068C00448BFC4F800C0C1
:10BB900060684007E0D52868401A984277D8606806
:10BBA0004007D9D52868401A984270D86068400785
:10BBB000D2D52868401A984269D860684007CBD52A
:10BBC0002868401A9842E3D961E048F2A063C0F2C5
:10BBD00001034FF4805C12E0DEF80000421CCEF856
:10BBE0000020007844F8180CBEF806000130AEF8CA
:10BBF0000600BEF80600BEF80420904221D220685C
:10BC0000C00448BFC4F800C060684007E4D5286895
:10BC1000401A98423BD860684007DDD52868401A32
:10BC2000984234D860684007D6D52868401A9842B0
:10BC30002DD860684007CFD52868401A9842E3D9CC
:10BC400025E02068C0041FD448F2A063C0F20103BD
:10BC50002868401A98421AD82068C00414D428686A
:10BC6000401A984213D82068C0040DD42868401A9E
:10BC700098420CD82068C00406D42868401A98421C
:10BC800005D82068C004E3D54FF48050206001201F
:10BC90008EF80C00B0BD4FF26B70C0F6000040F2A1
:10BCA0003F2100F02DFE4FF26B70C0F600004FF404
:10BCB000107100F025FE0000FEE700007047000054
:10BCC0007047000000F00CF8FCF76AFA70470000BB
:10BCD00044F6C020C2F200000168013101607047E3
:10BCE00048F200004EF68851C0F60000CEF2000186
:10BCF00041F8800C41F23000C4F2020048F2E472D4
:10BD00004261026822F0020202604FF48032426116
:10BD1000086840F4700008607047000044F6FF7146
:10BD2000C4F20001884244F60011C2F200010CDDA9
:10BD300045F20002C4F20002904211D00022C4F287
:10BD4000010290420ED19C3113E043F20002C4F292
:10BD5000000290420DD0B0F1402F0FD1343108E0F5
:10BD6000683106E041F20002C4F20102904205D1BE
:10BD7000D031886A002808BF704700474FF26B70C7
:10BD8000C0F6000040F6360100F0BAFD70B504467A
:10BD900044F6FF70C4F2000044F600168442C2F27A
:10BDA00000060CDD45F20000C4F20000844211D010
:10BDB0000020C4F2010084420ED19C3613E043F20D
:10BDC0000000C4F2000084420DD0B4F1402F63D1D2
:10BDD000343608E0683606E041F20000C4F20100A3
:10BDE000844259D1D036206820F040002060757B15
:10BDF000FF2D3BD02846FDF7C3FF062D44D244F269
:10BE0000B820C5EBC502C2F2000041F2400100EBD0
:10BE100082020023C4F202011371C2E90233C2E9B3
:10BE20000433C2E906330A6802F47F02B2F5003F28
:10BE300016D901EB4512D2F8D03F02F57D6123F00F
:10BE40000103C2F8D03F0A68D20709D00A68D207B6
:10BE50001CBF0A685FEAC27202D00A68D207F2D138
:10BE600001210278A94022EA01010170FF207073CC
:10BE7000B088F0804CF2F510C0F60000B060606B46
:10BE800040F48050606370BD4FF28D50C0F60000EA
:10BE900040F2291100F034FD4FF26B70C0F6000043
:10BEA00040F6360100F02CFDB0B544F6FF71C4F247
:10BEB000000144F600158842C2F200050CDD45F28F
:10BEC0000001C4F20001884211D00021C4F2010136
:10BED00088420ED19C3513E043F20001C4F2000108
:10BEE00088420DD0B0F1402F60D1343508E068357C
:10BEF00006E041F20001C4F20101884256D1D0357A
:10BF0000016821F0400101606C7BFF2C3BD0204692
:10BF1000FDF736FF062C41D244F2B820C4EBC40230
:10BF2000C2F2000041F2400100EB82020023C4F2A1
:10BF300002011371C2E90233C2E90433C2E90633D4
:10BF40000A6802F47F02B2F5003F16D901EB4412F1
:10BF5000D2F8D03F02F57D6123F00103C2F8D03F53
:10BF60000A68D20709D00A68D2071CBF0A685FEACC
:10BF7000C27202D00A68D207F2D101210278A14030
:10BF800022EA01010170FF20687301202873286BE9
:10BF9000002808BFB0BDBDE8B04000474FF28D504B
:10BFA000C0F6000040F2291100F0AAFC4FF26B70BD
:10BFB000C0F6000040F6360100F0A2FCB0B5044621
:10BFC00044F6FF70C4F2000044F600158442C2F249
:10BFD00000050CDD45F20000C4F20000844211D0DF
:10BFE0000020C4F2010084420ED19C3513E043F2DC
:10BFF0000000C4F2000084420DD0B4F1402F5BD1A8
:10C00000343508E0683506E041F20000C4F2010072
:10C01000844251D1D035206900F00F00E98AAA8A04
:10C02000914212D2A16B11F4E06F20D1616A2A69AA
:10C030006FF35F211180296902312961E98A013199
:10C04000E9820106A0F10100E8D1E88AA98A8842C4
:10C0500038BFB0BD606B20F0010060630020A861B4
:10C0600001202877686A30B3BDE8B04000474FF23E
:10C070001640C0F6000002F047FD4FF2E820C0F67F
:10C08000000011A102F040FD4FF2A7704FF2A9711C
:10C09000C0F60000C0F6000102F036FD606B20F033
:10C0A000010060630020A86101202877286B10B18F
:10C0B000BDE8B0400047B0BD4FF26B70C0F6000065
:10C0C00040F6360100F01CFC554152545F5278494D
:10C0D00053525F313642495400000000B0B5044667
:10C0E00044F6FF70C4F2000044F600158442C2F228
:10C0F00000050CDD45F20000C4F20000844211D0BE
:10C100000020C4F2010084420ED19C3513E043F2BA
:10C110000000C4F2000084420DD0B4F1402F59D188
:10C12000343508E0683506E041F20000C4F2010051
:10C1300084424FD1D035206900F00F00E98AAA8AE5
:10C14000914210D2A16B11F4E06F1ED1616A2A698D
:10C150001170296901312961E98A0131E9820106F9
:10C16000A0F10100EAD1E88AA98A884238BFB0BDAF
:10C17000606B20F0010060630020A8610120287737
:10C18000686A30B3BDE8B04000474FF21640C0F6D1
:10C19000000002F0B9FC4FF2E820C0F6000011A147
:10C1A00002F0B2FC4FF2A7704FF2A971C0F6000086
:10C1B000C0F6000102F0A8FC606B20F00100606393
:10C1C0000020A86101202877286B10B1BDE8B0409D
:10C1D0000047B0BD4FF26B70C0F6000040F636016C
:10C1E00000F08EFB554152545F52784953525F38EC
:10C1F0004249540044F6FF71C4F20001884244F6FB
:10C200000011C2F200010CDD45F20002C4F200028E
:10C21000904211D00022C4F2010290420ED19C3112
:10C2200013E043F20002C4F2000290420DD0B0F1DC
:10C23000402F1BD1343108E0683106E041F20002A2
:10C24000C4F20102904211D1D031CA888B889A423F
:10C2500038BF7047426B22F48052426300208860EE
:10C2600001200873086A00B1004770474FF26B70F5
:10C27000C0F6000040F6360100F042FBFEE7000089
:10C2800080B544F20400C2F200000078012818BF13
:10C2900080BD44F2D660C2F200000178552944F214
:10C2A0001871C2F2000140F0BC804278022A40F0CE
:10C2B000B88082783A2A40F0B48090F83E20AA2ACA
:10C2C00040F0AF8090F803C002794379817982EA27
:10C2D0000C025A405140C279037A5140427A594087
:10C2E000837A5140C27A5940037B5140427B594086
:10C2F000837B5140C27B5940037C5140427C594072
:10C30000837C5140C27C5940037D5140427D59405D
:10C31000837D5140C27D5940037E5140427E594049
:10C32000837E5140C27E5940037F5140427F594035
:10C33000837F5140C27F594090F82030514090F89F
:10C340002120594090F82230514090F82320594044
:10C3500090F82430514090F82520594090F826302C
:10C36000514090F82720594090F82830514090F8DB
:10C370002920594090F82A30514090F82B205940FC
:10C3800090F82C30514090F82D20594090F82E30E4
:10C39000514090F82F20594090F83030514090F89B
:10C3A0003120594090F83230514090F833205940B4
:10C3B00090F83430514090F83520594090F836309C
:10C3C000514090F83720594090F83830514090F85B
:10C3D0003920594090F83A30514090F83B2059406C
:10C3E00090F83C305140594090F83D2081F03801A0
:10C3F000914212D1C11C44F67000C2F200003A22F0
:10C40000FCF73EF944F22070C2F2000001210170F5
:10C4100044F21C71C2F2000103E044F21871C2F24E
:10C420000001086801300860BDE88040FFF7ACBA41
:10C43000704700002DE9F04F89B044F6C42AC2F2DB
:10C44000000A9AF80000002840F077810020CDE92A
:10C450000700CDE90500CDE90300CDE901004CF26C
:10C46000C060C0F22D000090032044F6D404ADF863
:10C470000500FF20C2F200048DF8070020462C21A1
:10C48000FCF725F94FF4FF4060856846FFF71CF97B
:10C4900044F60017C2F20007387B012815D143F299
:10C4A0000006C4F200067068C0031DD57068400322
:10C4B0001AD4706800F00300032815D14FF0580E0D
:10C4C0004FF480514FF4804C13E04FF21640C0F609
:10C4D000000002F019FB4FF2303043F20001C0F6C9
:10C4E0000000C4F2000119E14FF02C0E4FF0000CD7
:10C4F000002144F2B828C2F2000898F8003042F255
:10C50000000041F20C09C4F20200DA07C4F2020989
:10C5100005D198F8042012B90125002229E09A07D4
:10C5200005D498F8202012B90225012221E05A07EB
:10C5300005D498F83C2012B90425022219E01A0704
:10C5400005D498F8582012B90825032211E0DA061C
:10C5500005D498F8742012B91025042209E09A062F
:10C5600000F1408198F89020002A40F03B8120257E
:10C5700005222B4388F80030D9F8343000EB421301
:10C5800053F80C5F834625F040651D601D6801204F
:10C5900025F040551D601D6825F080451D601D6813
:10C5A00045F000451D601D6860F305151D601868A5
:10C5B00020F008001860186820F040001860186823
:10C5C00040F080001860186820F44050084318605C
:10C5D000186820F4404040EA0C001860D9F8340094
:10C5E00000F47F00B0F5003F16D944F26430C2F287
:10C5F0000000006848F2E470C9F83800D9F800007B
:10C600000621C9F80000186861F3595018604FF40A
:10C610008030C9F8380004E01868062161F35950E9
:10C620001860C2EBC2004BF68D5108EB8000C0F6DB
:10C6300000014BF6A9634BF61D55C0F60003C0F68A
:10C640000005C0E902610121C0E90463C0E9066593
:10C6500001717A73787BFF284BD003203873002058
:10C660003C60A7F804E0F880B860306840F0100043
:10C6700030604FF48050B063306840F004003060A8
:10C68000306840F040003060797BD7F800E0BB882C
:10C69000062980F0DF80002B00F0E4800BEB4117CF
:10C6A00007227A613A4652F80C5F45F480651560BE
:10C6B000156845F480751560156845F400751560BA
:10C6C000C1EBC10508EB850515F8044F012C1DD100
:10C6D0001268C2F30132032A32D14FF2D730C0F6CA
:10C6E000000002F011FA4FF27420C0F6000003219E
:10C6F00014E04FF21640C0F6000002F005FA4FF2C7
:10C700002040C0F6000002F051FC09E04FF2D730A3
:10C71000C0F6000002F0F8F929785DA002F0F4F903
:10C720004FF2A7704FF2A971C0F60000C0F60001E9
:10C7300002F0EAF901208AF8000009B0BDE8F08FA4
:10C7400023FA02F4B4F5805F0CD34FF2D730C0F671
:10C75000000002F0D9F957A040F6FF71224602F01E
:10C76000D3F9DDE7BA6840F6FF7022EA0000204303
:10C77000BEF1006FB86060D3D9F850004FF6FF7477
:10C78000020C920202F10062B4EB104F04BF0022CF
:10C79000C0F60402724550D943F24002C4F20202CC
:10C7A000106800F07060B0F1206F46D1106800F0A2
:10C7B0007040B0F1204F40D1D9F850007344020CC2
:10C7C00094024FF6FF72B2EB104F08BF4FF4802473
:10C7D0004FEA540C0CF1006272451BD993421DD8EC
:10C7E000E6442AE083464FF21640C0F60000754644
:10C7F00002F08AF91FA002F0D9FB4FF2A7704FF2A6
:10C80000A971C0F60000C0F6000102F07DF9AE4645
:10C81000FF221EE704F1006083420CD94FF2D730AB
:10C82000C0F6000002F070F94FF27540C0F600004B
:10C8300002F06AF974E7AEEB0C0E48014BF800E029
:10C8400006F12000786002202870386940F001006D
:10C8500038616FE74FF28D50C0F6000040F2FD11D5
:10C8600000F04EF84FF28D50C0F600004FF4FF710B
:10C8700000F046F85265717573657420444D41208F
:10C880006368616E6E656C204661696C2100000012
:10C890004368616E6E656C2073746174652D5B25F1
:10C8A000645D2069736E277420696E20526561642F
:10C8B00079210A00426C6F636B2073697A65206D81
:10C8C00061782069732025752C207768696C652054
:10C8D0006E6F77206973202575210A004EF60C5083
:10C8E000BFF34F8FCEF200000168042201F4E06133
:10C8F000C0F2FA5211430160BFF34F8F00BFFDE752
:10C90000A0B104460AA00D4602F0FEF80BA0214695
:10C910002A4602F0F9F84FF2A7704FF2A971C0F65B
:10C920000000C0F6000102F0EFF800BF00BFFDE715
:10C930005B45404150505D2000000000417373652D
:10C940007274206661696C656420696E20257320AD
:10C950006C696E6520256400B0B519B1012904D158
:10C9600000226AE00022D0B2B0BD01F0010CA1EBC0
:10C970000C010022072300BF0478D2B2624083EA90
:10C98000420490F801E0150658BF540083EA4402BF
:10C99000250658BF620083EA4204150658BF5400BA
:10C9A00083EA4402250658BF620083EA4204150662
:10C9B00058BF540083EA4402250658BF620083EA48
:10C9C0004204150658BF540083EA4402250658BFA6
:10C9D0006200D2B282EA0E0283EA4205140658BF10
:10C9E000550083EA45022C0658BF6A0083EA4205D7
:10C9F000140658BF550083EA45022C0658BF6A004A
:10CA000083EA4205140658BF550083EA45022C0606
:10CA100058BF6A0083EA4205140658BF550083EAEE
:10CA200045022C06A1F1020158BF6A000D0600F173
:10CA30000200A1D1BCF1000F2BD00078D1B241404F
:10CA4000072080EA41020B0658BF4A0080EA4201F3
:10CA5000130658BF510080EA41020B0658BF4A0036
:10CA600080EA4201130658BF510080EA41020B06DA
:10CA700058BF4A0080EA4201130658BF510080EABD
:10CA800041030A0658BF4B0080EA4302180658BF0C
:10CA90005A00D0B2B0BD0000704700000000000096
:10CAA000A6B041F24001C4F20201C86A41F2002A74
:10CAB00010F5807F38BFC86AC86AC0F27A0A554646
:10CAC00010F5807F3CBFC86A050A802748F2E470F1
:10CAD000C4F20207C3F6AC70386057F8500C00F08F
:10CAE000030002280BD157F8100C40F0100047F853
:10CAF000100C57F8500C20F0030047F8500C4EF67D
:10CB0000D47149F20059C0F60001C0F6BA290020DC
:10CB100001F190028DF8580052F8903CAB4203D1DD
:10CB2000002818BF07286CD052F8783CAB4208BFE9
:10CB300006285BD052F8603CAB4208BF052857D0AE
:10CB400052F8483CAB4208BF042853D052F8303C5E
:10CB5000AB4208BF03284FD052F8183CAB4208BF85
:10CB600002284BD01368AB4208BF012848D00730D9
:10CB70001C2802F1A802CFD141F24000C4F2020009
:10CB8000C06A10F5807F0BD241F24000C4F202006F
:10CB9000C06A0021B1EB102F4FEA102A01F07B8709
:10CBA0005046FBF7BAFD9FED520B02460B4651EC87
:10CBB000100BFBF756FC04460D46FBF7BBFD064683
:10CBC000FBF7ABFD02460B4620462946FBF7D1FB9F
:10CBD0009FED490B53EC102BFBF7D1FBFBF7AAFDA4
:10CBE000804601244FF4004B554616E0013008E022
:10CBF000023006E0033004E0043002E0053000E0DB
:10CC0000063000EB400001EBC0004169047A468920
:10CC1000B0F80C8088031FFA80FB48F2E470C3F67A
:10CC2000AC70386057F8240C022C20F0080047F84C
:10CC3000240C57F8340C20F0010047F8340C57F856
:10CC4000480C20F00C0047F8480C57F8380C20F03E
:10CC5000F00047F8380C57F8240C40F0080047F86B
:10CC6000240C57F8340C40F0010047F8340C57F806
:10CC7000140C20F0080047F8140C57F8140C40F07E
:10CC8000080047F8140C4FF001008DF8580057F8D1
:10CC9000801C21F0004147F8801C57F8101C41F01F
:10CCA000100147F8101C57F8801C60F3010147F889
:10CCB000801C47D0012C13D04FF20A40C0F6000070
:10CCC00001F022FF0EA0214601F01EFF4FF2A770D7
:10CCD0004FF2A971C0F60000C0F6000101F014FF88
:10CCE00057F8800C012120F4006030E000BF00BF45
:10CCF000000000002A75A541000000000000F0407F
:10CD0000504C4C30205072652D44697620436F6E34
:10CD10006669672D5B25645D204572726F722C20F9
:10CD200073657420746F2064656661756C7420315E
:10CD3000206469766973696F6E210A00AA55AA5545
:10CD4000AA55AA5557F8800C022140F4006047F814
:10CD5000800C57F8800CB5FBF1F141F6003320F45C
:10CD60008062C0F2B703994288BF40F4806247F8FE
:10CD7000802C57F87C0C6FF39F366FF31D4040EA10
:10CD8000064047F87C0C57F87C0C4FF6FF7188433F
:10CD9000404447F87C0C57F8800C20F4404040EAAF
:10CDA0000B0047F8800CFEF76DF848F2E471C3F60B
:10CDB000AC7139609DF85810B9B157F8141C21F0C6
:10CDC000080147F8141C57F8141C41F0080147F8F3
:10CDD000141C57F8241C21F0080147F8241C57F8AC
:10CDE000341C21F0010147F8341C57F8801C60F313
:10CDF000092147F8801C57F8800C40F0004047F8A4
:10CE0000800C57F8800C40000CD457F8800C400080
:10CE10005CBF57F8800C5FEA400003D457F8800CE1
:10CE20004000EED548F2E4760120C3F6AC763860D7
:10CE30003E6057F8502C022161F3010247F8502C54
:10CE400057F8502C052360F30B2247F8502C57F865
:10CE5000502C60F30F3247F8502C57F8502C22F02A
:10CE6000FC0247F8502C57F8502C42F4803247F817
:10CE7000502C57F8502C42F4003247F8502C57F8F9
:10CE8000502C42F4802247F8502C57F8502C42F492
:10CE9000002247F8502C44F20002C2F2000238602F
:10CEA000C2F800903E6057F8482C60F3830247F8C0
:10CEB000482C57F8382C63F3071247F8382C3860A1
:10CEC0003E6057F8482C60F3871247F8482C57F813
:10CED000380C61F30F3047F8380C012043F20001A1
:10CEE0003860C4F202010A684EF60C5342F0100298
:10CEF0000A600A68CEF2000342F020020A60196854
:10CF00004FF6FF02114040F20032C0F2FA521143D4
:10CF1000196044F20001C2F20001096844F6D352DC
:10CF2000C1F26202A1FB02124FF0FF3101EB92133A
:10CF30000022B2EB136F22D14EF20014CEF20004A5
:10CF40004EF60C5544F8EC3CF023CEF20005EB75A0
:10CF5000072344F8E82C44F8F03C2B68C3F3022381
:10CF600083F00706042E28BF0426033B38BF134670
:10CF7000B1400F2222EA010199400901E97548F206
:10CF8000E472C3F6AC723A6057F8281C44F2080405
:10CF900041F0040147F8281C57F8181CC2F200049D
:10CFA00041F0040147F8181C38603A6057F8281C13
:10CFB00041F0080147F8281C57F8181C41F00801F7
:10CFC00047F8181C38603A6057F8281C41F01001E7
:10CFD00047F8281C57F8181C41F0100147F8181C96
:10CFE00038603A6057F8281C41F0200147F8281CA7
:10CFF00057F8181C41F0200147F8181C38603A60B7
:10D0000057F8281C41F0400147F8281C57F8181C15
:10D0100041F0400147F8181C38603A6057F8281C66
:10D0200041F0800147F8281C57F8181C41F0800196
:10D0300047F8181C38603A6057F8281C41F0010185
:10D0400047F8281C57F8181C41F0010147F8181C34
:10D0500038603A6057F8281C602241F0020147F816
:10D06000281C57F8181C41F0020147F8181C4FF211
:10D0700000013860C0F601012046FBF701FBAFF26A
:10D08000443120460822FBF795F8002844F6602436
:10D0900040F20000C2F20004C4F2C82043D00026CF
:10D0A0000025C4F2DC26C4F27025C4E90865012617
:10D0B00084F828600026C4F24026C4E90B660026E6
:10D0C0000021C4F2483640F2000C46F266620023AA
:10D0D000C4E91111C4E9156045F2AA56C4F22C2C1A
:10D0E000C4F26622C4F290134FF07C55C5F2AA56E2
:10D0F00044F2B810E565C4E90066C4E90221C4E958
:10D1000004C1C4E90631C2F2000021466022FBF7E7
:10D11000B7FAFCF789FE30B9FCF778FFB0F5807FED
:10D1200008BFFDF759F84FF2000148F20008C0F6B9
:10D13000010120466022C4F20308FBF7A1FA44F281
:10D14000943504F1100C606CC2F20005D4E902E1E0
:10D150009CE84C14C5F8D40205F58C70C5E944E18F
:10D1600080E84C1494F82800A16C85F84801206BE5
:10D1700004F15406D4F824904CCEC5F8D800C5F874
:10D18000A800C5F8E41005F547704EF60C51C5F837
:10D190002C914CC0CEF20001D1F8F0004FF0000A03
:10D1A00040F08070C1F8F00041F20000CEF20000C3
:10D1B000C0F804A0016840F2011441F001010160CF
:10D1C0004FF0807016900120189016A94046012655
:10D1D000CDF864A08DF812A0CDE90CAACDE90EAA75
:10D1E000CDE906AA17944546FCF77EF915208DF87F
:10D1F000150004A94046ADF810A0ADF81340FCF7A7
:10D20000CFFB4FF480700DF1080902902846494683
:10D210004FF480788DF80C60FCF7ECFA40F20110C6
:10D22000C0F200100C9040F21800C2F201000E9003
:10D2300002200DF1300BADF83C00284659468DF820
:10D240003460FCF79BF8F620C1F2546006AC0790FE
:10D2500028462146ADF818608DF81AA0FBF7D2FFDA
:10D2600040F201400290284649468DF80C60FCF7D8
:10D27000C1FA40F20410C0F200100C9040F2080015
:10D28000C2F201000E900220ADF83C00284659463B
:10D290008DF83460FCF772F84FF40170ADF81800A7
:10D2A0004FF000500790284621468DF81AA0A3465B
:10D2B000FBF7A8FF40F20010C0F2011005F58066F0
:10D2C000CDF85A00304616A98DF85EA0ADF85F8003
:10D2D0008DF861A0FCF708F940F20110ADF81300D9
:10D2E00015208DF81500304604A9ADF810A0FCF704
:10D2F00057FB4FF4406002900125304649468DF8B7
:10D300000C50FCF777FA40F20C10C0F200100C90B1
:10D3100040F21000C2F201008DF834500E9002204D
:10D320000CADADF83C00304629460124FCF726F848
:10D330004FF48670ADF818004FF00058304659464B
:10D340008DF81AA0CDF81C80FBF75CFF40F201209D
:10D350000290304649468DF80C40FCF74BFA40F2FB
:10D360000210C0F200100C9040F20000C2F2010066
:10D370008DF834400E900224304629464FF00109C2
:10D38000ADF83C40FBF7FAFFCDF81C804BF608786F
:10D3900030465946ADF8184002248DF81AA0C4F260
:10D3A0000308FBF72FFF40F20010C0F20110CDF888
:10D3B0005A0048F20000C4F2030000F500664FF482
:10D3C0008075304616A98DF85EA0ADF85F508DF8D7
:10D3D00061A0FCF789F815208DF81500304604A9E6
:10D3E000ADF810A0ADF813504FF48075FCF7D8FAE3
:10D3F000304602A902958DF80C90FCF7FBF940F23B
:10D400000110C0F200100C9040F22000C2F20100A6
:10D410000E9030460CA98DF83490ADF83C40FBF7E7
:10D42000ADFF4FF00050079030465946ADF81890C8
:10D430008DF81AA0FBF7E6FEC8F82840C8F82CA023
:10D4400058F8040C69F3134048F8040C58F8080C19
:10D4500020F4702048F8080CD8F8580020F01F007D
:10D46000C8F8580048F2E470C3F6AC70386057F85A
:10D47000240C40F4007047F8240C57F8240C40F4B6
:10D48000806047F8240C57F8240C40F4006047F8FB
:10D49000240C57F8240C40F4805047F8240C57F81B
:10D4A000240C40F4005047F8240C57F8240C40F4A6
:10D4B000804047F8240C57F8240C40F4004047F80B
:10D4C000240C57F8240C40F4803047F8240C57F80B
:10D4D000340C40F0100047F8340C57F8340C40F08E
:10D4E000200047F8340C57F8340C40F0400047F85F
:10D4F000340C57F8340C40F0800047F8340C57F8DF
:10D50000340C40F4807047F8340C57F8340C40F475
:10D51000007047F8340C57F8340C40F4806047F83A
:10D52000340C57F8340C40F4006047F8340C57F8CA
:10D53000140C40F0400047F8140C4FF48050C7F82A
:10D540000090FCF7DFFF4FF40050FCF7DBFF4FF4D7
:10D550008040FCF7D7FF4FF40040FCF7D3FF4EF2BA
:10D5600000114FF00040CEF2000148604EF60C5022
:10D57000CEF2000000684EF21940CEF2000080F8B2
:10D5800026A044F2C860C2F200000121017044F2FA
:10D59000D46044F2CC6644F2D069C2F20000C2F218
:10D5A0000006C2F20009017044F6AC00317089F83F
:10D5B0000010C2F2000042F2240544F6B4010560F6
:10D5C000C2F2000140F6224044F6B8020860C2F2FE
:10D5D000000241F24401116044F6BC02C2F20002B2
:10D5E00041F63441116044F6C002C2F2000244F632
:10D5F000C4031560C2F200034FF416721A6044F6B9
:10D60000C802C2F20002106044F6CC02C2F200026C
:10D6100041F26A20106044F6D000C2F200000160BE
:10D6200044F6B0000124C2F200000DF1580B047062
:10D6300058462C21CDE90CAACDE90EAACDE910AAB5
:10D64000CDE906AACDE908AACDF828A0ADF82CA00E
:10D65000FBF73DF840F20110ADF836501090202055
:10D660000CAD1290092029468DF835A0CDF838A0D0
:10D67000ADF831A08DF833A0CDF84CA0CDE914AAB7
:10D68000FDF7D8F902202946FDF7D4F903202946F1
:10D69000FDF7D0F931784FF47A708DF81840ADF875
:10D6A0001A00002918BF40F2044199F8002044F202
:10D6B000D463C2F200034BF20406ADF81C10002A3A
:10D6C00018BF40F609021B78C4F203064BF20005AE
:10D6D000ADF81E20002B18BF41F21203ADF8203028
:10D6E000B061F16132627362C4F20305286840F0F0
:10D6F0000070286028689DF8222040F000619DF8A5
:10D700002330002A08BF20F0006129602868002B20
:10D7100040F0806108BF20F0806144F6B0002960CD
:10D72000C2F20000007844F6B401C2F20001002801
:10D7300018BF32200968ADF81A00ADF81C1044F685
:10D74000B80044F6BC01C2F20000C2F20001006859
:10D75000096806ADADF81E00ADF82010022029467C
:10D760008DF818408DF82440FDF7AAFA44F6C4005D
:10D7700044F6C801C2F20000C2F200010068096864
:10D78000ADF81A00ADF81C1044F6CC0044F6D001F8
:10D79000C2F20000C2F2000100680968ADF81E0084
:10D7A000ADF8201003202946FDF78AFA40F6040060
:10D7B0001B90082002211E9040F610001A918DF84F
:10D7C00072100221C0F240001F908DF882100320D9
:10D7D0005946ADF870A0ADF880A0CDF860A0FDF777
:10D7E00047F802205946FDF743F841F24001C4F2E0
:10D7F00002010868D8F82000012220F04040C8F853
:10D8000020000868D8F8181000F47F0062F30101C6
:10D81000B0F5003FC8F8181005D9D8F8640020F01A
:10D820000300C8F86400D8F81800052120F00400AF
:10D83000C8F81800D8F8200020F00F00C8F8200021
:10D84000D8F8180020F01800C8F81800D8F8180008
:10D8500040F02000C8F81800D8F8700020F04040D0
:10D86000C8F87000D8F80C0040F00100C8F80C00AF
:10D87000D8F80C0020F40040C8F80C00D8F8680074
:10D8800062F39340C8F86800D8F8680020F40030CC
:10D89000C8F86800D8F8700061F31340C8F8700049
:10D8A000D8F8800020F47020C8F88000D8F87800FC
:10D8B00020F40020C8F87800D8F80C0040F02000D0
:10D8C000C8F80C00D8F8680040F48030C8F8680048
:10D8D000D8F8780020F40030C8F87800D8F878003C
:10D8E00020F48030C8F87800D6F8700340F01000BB
:10D8F000C6F87003D6F8700440F01000C6F8700443
:10D9000044F6C020C2F200000168D8F8002042F0BE
:10D910000102C8F80020D8F80020D2071BD0026806
:10D92000521A652A17D2D8F80020D20713D00268FD
:10D93000521A642A0FD8D8F80020D2070BD00268F8
:10D94000521A642A07D8D8F80020D20703D00268F8
:10D95000521A642ADFD90168D8F8002042F0080280
:10D96000C8F80020D8F8002012071BD50268521A08
:10D97000652A17D2D8F80020120713D50268521A68
:10D98000642A0FD8D8F8002012070BD50268521A63
:10D99000642A07D8D8F80020120703D50268521A63
:10D9A000642ADFD90168D8F8002042F01002C8F8D4
:10D9B0000020D8F80020D2061BD50268521A652A2A
:10D9C00017D2D8F80020D20613D50268521A642A5A
:10D9D0000FD8D8F80020D2060BD50268521A642A54
:10D9E00007D8D8F80020D20603D50268521A642A54
:10D9F000DFD94FF001090020C8F82890C8F82C00A2
:10DA000058F8040C4BF2000169F3134048F8040C79
:10DA100058F8080CC4F2030120F4702048F8080CF0
:10DA2000D8F8580044F2000620F01F00C8F858004B
:10DA3000D8F80000C4F2020640F00100C8F8000067
:10DA4000086806F5005440F080600860D8F860006F
:10DA500016AD40F00100C8F86000D8F86000002260
:10DA600040F00800C8F860000120C0F200101790D4
:10DA70004FF480401690204629468DF86020FCF730
:10DA8000E1FD4FF40040169030462946FCF7DAFDE0
:10DA90004FF4006006F5805A169050462946FCF770
:10DAA000D1FD4FF4806B30462946CDF858B0FCF7D5
:10DAB000C9FD4FF40070ADF85C0020462946CDF852
:10DAC0005890FCF7BFFD50462946CDF85890FCF71A
:10DAD000B9FD8020169030462946FCF7B3FD50462C
