:020000040800F2
:1000000000000120933400088F340008C505000863
:100010008D3400088D040008D93500080000000068
:100020000000000000000000000000009B340008F9
:100030006B05000800000000913400089D340008A2
:10004000C7050008CF050008DB050008A13500083A
:10005000AD350008B5350008C1350008CB350008BE
:100060006D0500086D0500086D0500086D050008A8
:100070006D0500086D0500086D0500086D05000898
:100080006D0500086D0500086D05000817050008DE
:100090002505000833050008410500084F05000844
:1000A0005D050008613500086D350008F53400086D
:1000B000313500083D350008493500085535000840
:1000C00079350008973500088D350008833500081C
:1000D0000135000825350008193500080D350008E0
:1000E0006D0500086D0500086F0500087B05000818
:1000F00087050008930500089F050008AB05000868
:100100006D0500086D0500086D0500086D05000807
:100110006D0500086D0500086D0500086D050008F7
:100120006D0500086D0500086D0500086D050008E7
:100130006D0500086D0500086D050008B70500088D
:100140006D0500086D0500086D0500086D050008C7
:10015000810400086D0500086D0500086D050008A4
:100160006D0500086D0500086D0500086D050008A7
:100170006D0500086D0500086D0500086D05000897
:100180006D0500086D0500086D0500086D05000887
:100190006D05000800F002F800F03CF80AA090E8B5
:1001A000000C82448344AAF10107DA4501D100F032
:1001B00031F8AFF2090EBAE80F0013F0010F18BFC3
:1001C000FB1A43F001031847084E0000284E0000B8
:1001D000103A24BF78C878C1FAD8520724BF30C873
:1001E00030C144BF04680C60704700000023002445
:1001F00000250026103A28BF78C1FBD8520728BF37
:1002000030C148BF0B6070471FB504F083FA1FBDB3
:1002100010B510BDDFF80CD0FFF7F6FF03F01AFCA5
:1002200000F025F90000012003B4FFF7F1FF03BC43
:1002300003F0D4F9032A40F2308010F0030C00F0F0
:10024000158011F8013BBCF1020F624498BF11F810
:1002500001CB00F8013B38BF11F8013BA2F10402C9
:1002600098BF00F801CB38BF00F8013B11F0030341
:1002700000F08E80083AC0F0088051F8043B083A3C
:1002800051F804CBA0E80810F5E7121D5CBF51F847
:10029000043B40F8043BAFF30080D20724BF11F8C1
:1002A000013B11F801CB48BF11F8012B24BF00F826
:1002B000013B00F801CB48BF00F8012B7047431AFF
:1002C00028BF9A427FF6B6AF10441144032A40F289
:1002D000268010F0030F1EBF11F8013D521E00F8DA
:1002E000013D10F0030F7FF4F6AF11F0030300F0AF
:1002F0009480083AC0F00B8051F8043D083A51F858
:1003000004CD40F8043D40F804CDFFF7F3BF121DC3
:100310005CBF51F8043D40F8043DAFF30080D207C4
:1003200024BF11F8013D11F801CD48BF11F8012C8F
:1003300024BF00F8013D00F801CD48BF00F8012CB2
:1003400070474FF0000200B5134694469646203998
:1003500022BFA0E80C50A0E80C50B1F12001BFF47E
:10036000F7AF090728BFA0E80C5048BF0CC05DF8E4
:1003700004EB890028BF40F8042B08BF704748BF32
:1003800020F8022B11F0804F18BF00F8012B7047A6
:1003900010B5203AC0F00B80B1E81850A0E8185012
:1003A000B1E81850A0E81850203ABFF4F5AF5FEA62
:1003B000027C24BFB1E81850A0E8185044BF18C907
:1003C00018C0BDE810405FEA827C24BF51F8043BAE
:1003D00040F8043B08BF7047D20728BF31F8023B02
:1003E00048BF11F8012B28BF20F8023B48BF00F896
:1003F000012B7047431A28BF9A427FF6C9AF1044B9
:10040000114410F0030F1EBF11F8013D521E00F8F9
:10041000013D10F0030F7FF4F6AF103AC0F00A80F0
:1004200010B531E9185020E91850103ABFF4F9AF6F
:10043000BDE81040530724BF31E9081020E9081037
:1004400044BF51F8043D40F8043D12F0030F08BFCB
:100450007047D20728BF31F8023D48BF11F8012C80
:1004600028BF20F8023D48BF00F8012C704710B5A6
:100470000446AFF300802046BDE81040FFF7D4BE2D
:1004800048F20040C4F2030000F007B9FEE710B5DF
:1004900044F20002C4F20102831A02F5805218BF2E
:1004A0000123821A18BF012213424FF0050230D1F6
:1004B00079B30268D2064FF001022AD5436B91F856
:1004C00000C06CF303034363436B02FA0CF243F086
:1004D00020034363D0F838E08C684FEA5E7363F31F
:1004E0005F748463836B0C7B23F0C04304F00304CC
:1004F00043EA44738363436B23F020034363836BBA
:1005000049685B0F63F35F718163016B11430022E4
:100510000163104610BD42F20000C4F20200002147
:1005200000F02ABB42F20000C4F20200012100F0F8
:1005300023BB42F20000C4F20200022100F01CBB07
:1005400042F20000C4F20200032100F015BB42F2A7
:100550000000C4F20200042100F00EBB42F20000D1
:10056000C4F20200052100F007BB7047FEE744F229
:100570000000C4F2020000F0E5BD45F20000C4F244
:10058000020000F0DFBD46F20000C4F2020000F0FD
:10059000D9BD47F20000C4F2020000F0D3BD48F21A
:1005A0000000C4F2020000F0CDBD49F20000C4F228
:1005B000020000F0C7BD4BF20000C4F2030000F0DF
:1005C000E2BE0000FEE74FF0804000F048BF41F27D
:1005D0000000C4F2000000F042BF42F20000C4F28A
:1005E000000000F03CBF10B5044600F029F800B14F
:1005F00010BD4CF20000C4F2000043F6AC71016083
:10060000C16864F30201C16000210160BDE81040CF
:1006100000F016B810B5044600F026F800B110BD81
:100620004CF20000C4F2000043F6AC710160A1B2CC
:10063000816000210160BDE8104000F015B80000A5
:10064000B0B500F091FE4CF210050446C4F200056E
:100650002868C00706D000F087FE001B6528F7D386
:100660000320B0BD0020B0BDB0B500F07DFE4CF25F
:1006700010050446C4F200052868800706D500F07E
:1006800073FE001B6528F7D30320B0BD0020B0BD6A
:1006900070477047704770477047B0B50446A0F187
:1006A0008040A0F560304FEAB020032888BFB0BD7D
:1006B0006069216901EA0005A80505D54FF40070BD
:1006C0002061204600F047F8E80505D54FF480701A
:1006D0002061204600F03EF8280604D580202061E5
:1006E0002046FFF7D7FF680604D54020206120464A
:1006F000FFF7CFFFA80604D5202020612046FFF792
:10070000C7FFE80604D510202061204600F01FF83E
:10071000280704D5082020612046FFF7BDFF6807A1
:1007200004D5042020612046FFF7B5FFA80704D5B3
:1007300002202061204600F00CF8E80700D1B0BD8F
:10074000012120462161BDE8B04000F001B87047AA
:10075000704770477047704745F2000340F480527D
:10076000C4F201039A4201D10F2901D90020704738
:1007700084B040F20012C0F20232009240F2045201
:10078000C0F20672019240F60842C1F21042029293
:1007900042F21802C4F2300203926A46515C0268C7
:1007A0000846082928BF0820520348BF084604B05D
:1007B000704700002DE9F0410C4644F20001C4F2FC
:1007C00001010546401A01F5805218BF0120AB1AFD
:1007D00018BF012318424FF0050040F0F380002CB1
:1007E00000F0F080A068002800F0818040F20C004A
:1007F0004FF000089542C2F2000008BF00F12C083B
:100800008D4208BF8046B8F1000F08D098F800006C
:1008100010B998F8080028B10220BDE8F081012045
:10082000BDE8F08198F8180000284FF0020040F071
:10083000C98088F8000088F8080088F81800284661
:1008400000F0C2F8286840F0100028606969227B37
:10085000637B6068D6180336A768B0FBF6F6090A12
:10086000B6FBF7F7013F61F31F276F61296962F358
:1008700005012961296963F30C2129612969A27B9A
:1008800062F313412961227829689AB341F48021E7
:10089000296061782A68002942F4003308BF22F4F5
:1008A00000332B60216911B36A69237D677DDE19EE
:1008B0000336B0FBF6F0A67DB0FBF1F04FF47F41BC
:1008C00001EB0020000A60F30F226A61286906F03C
:1008D000030163F317502861286967F34F302861DB
:1008E000286920F0C00040EA8110286105E0052059
:1008F000BDE8F08121F48020286045F2000200204C
:1009000045F48051C4F20102012300BF914220D17D
:100910002F68FF061DD56F6B03FA00F627F00F074F
:1009200007436F636F6B47F020076F63AF6B07F090
:100930006047AF63AF6B27F0C047AF636F6B27F0C3
:1009400020076F63AF6B07F06047AF632F6BB74350
:100950002F6301301028D9D194F8200068B1002706
:100960000026E069C1192846FFF791FD94F82000A0
:100970000136864207F11007F3D3286808F12003F7
:1009800020F0100028602868E17D20F0704040EAE7
:100990000170227E2860286802F00F0120F070604C
:1009A00040EA016028604FF0FF30E860012088F8DD
:1009B000000088F8080088F8180004F1240207CA2B
:1009C00007C30020BDE8F08180B584B00021039109
:1009D000019145F20001C4F2010188424FF00A0181
:1009E000029111D044F20001C4F20101884216D1F3
:1009F0001820019045F20000C4F2020001A900F0A5
:100A0000C5FB00F0ADFF0AE06020019045F2000058
:100A1000C4F2020001A900F0B9FB00F0B8FF04B075
:100A200080BDF0B581B0154645F20002044640F4A1
:100A30008050C4F2010290421AD144F20000C4F284
:100A4000010000F5805240F20C0300279442C2F2EC
:100A5000000308BF03F12C07844208BF1F462FB1D3
:100A6000387E012806D1E068000605D4012024E084
:100A7000052022E0042020E0042038760020F861E0
:100A800080203D617961E06081B1206C0860606C1C
:100A900048605DB100F00F01204604F14806FFF701
:100AA0005BFE024628463146FFF7C4FB206840F44F
:100AB0008010206001203876002001B0F0BD0000D9
:100AC000F0B581B0154644F20002C4F201020446BA
:100AD000801A02F5805318BF0120E71A18BF0127BA
:100AE00038424FF0050045D1002943D040F20C00B8
:100AF00000269C42C2F2000008BF00F12C0694427E
:100B000008BF06469EB33078012832D120688005A0
:100B10002DD40320002730707760206820F48050A7
:100B200020600868C4F888004868C4F88C00B5B133
:100B3000486800F00F012046FFF70EFE0330B7EBC8
:100B4000900F0CD08008002155F8212001F00F03F0
:100B5000013104EB83038842C3F89020F4D120686C
:100B600040F40070206001203070002002E001207D
:100B700000E0042001B0F0BD2DE9F04142F2000296
:100B8000C4F2020290425AD10C46052957D802EB12
:100B900044152E4656F80C0F55F8141F40F26808FD
:100BA00000F008078807C2F200080ED51FB93068A8
:100BB00020F40070306002202860C4EBC40008EB11
:100BC0008000C16909B1806988472868400718D545
:100BD0005FB9306820F480603060306820F4807045
:100BE0003060306820F40070306004202860C4EB6E
:100BF000C40008EB8000C1680122027109B180685D
:100C000088472868C00708BFBDE8F0813068012226
:100C100020F480603060306820F48070306030688C
:100C200020F400703060C4EBC4002A6008EB800040
:100C30004169027119B10069BDE8F0410847BDE89A
:100C4000F08100002DE9F04143F20004C4F20204F7
:100C5000A04203D000273846BDE8F08141F25C0095
:100C6000C4F202000E4601681546080C4FF6FF72EA
:100C70008002B2EB114F08BF4FF48020B0F5003F67
:100C80000BD0B0F5802FE5D1206C00F070612020F2
:100C9000B1F1206F08BF402000E02020B042D9D938
:100CA000711901398142D5D220464FF4967100F076
:100CB00075F90028CED1206C00F07060B0F1206F83
:100CC00009D1206C00F0704000F1C040B0FA80F013
:100CD0004FEA501801E04FF00008206A20F440105D
:100CE00020622068B0F1FF3F0CDC606A43F6AC7113
:100CF00061F30F006062606A48F2E47161F30F0013
:100D0000606220680027DDB1206AF119B8F1000F98
:100D100018BF81F020016FF3120001F03F01084479
:100D200020622068012140F00200206020464FF43C
:100D3000967200F065F918B90137BD42E4D12F462B
:100D4000206800283FF587AF206840F00040206011
:100D5000206880E7B0B543F20004C4F20204A04268
:100D600001D00520B0BD41F25C00C4F202000D4686
:100D700001684FF6FF72080C8002B2EB114F08BFFA
:100D80004FF48020B0F5003F0BD0B0F5802FE8D1B4
:100D9000206C00F070612020B1F1206F08BF40206E
:100DA00000E02020A842DCD920464FF4967100F0E4
:100DB000F5F808B10120B0BD204629460122FFF711
:100DC00041FF013818BF0120B0BD00002DE9F047F8
:100DD00043F20004C4F20204A04211D141F25C00CB
:100DE000C4F20200924602681F46100C4FF6FF73D1
:100DF0008002B3EB124F08BF4FF480204A0703D0A4
:100E000000263046BDE8F08721F07F4808EB070157
:100E100081424FF00006F4D8BAF1000FF1D017F07C
:100E20000701EED18045ECD220464FF4967100F0D8
:100E3000B5F80028E4D1206C00F07060B0F1206FAC
:100E400009D1206C00F0704000F1C040B0FA80F091
:100E50004FEA501901E04FF000092068B0F1FF3F60
:100E60000CDC606A43F6AC7161F30F006062606A8B
:100E700048F2E47161F30F00606220680026B6EB6F
:100E8000D70F25D0FD0827F0070700265AF80600DF
:100E90000AEB06012061486808EB06016061206AE0
:100EA000B9F1000F18BF81F4003161F31200206224
:100EB0002068002140F00100206020464FF4967227
:100EC00000F09EF820B9013D06F10806DED13E464D
:100ED0002068002895D4206840F0004020602068F9
:100EE0008FE743F20001C4F20201884221D141F2AE
:100EF0005C00C4F2020002684FF6FF73100C80021F
:100F0000B3EB124F08BF4FF48020B0F5003F04BF91
:100F10004FF480507047B0F5802F0AD1086C00F074
:100F200070614FF40050B1F1206F08BF4FF4805052
:100F30007047002070470000B0B543F2000EC4F2C5
:100F4000020E8446704521F07F4101D000240DE05F
:100F500041F25C00C4F2020000684FF6FF75040C19
:100F6000A402B5EB104F08BF4FF48024C818A0426C
:100F70004FF0000010D8F4450ED16AB1A1420BD257
:100F800053B101F1006100200D5C145CA54203D156
:100F900001308342F8D11846B0BD0000F0B581B0F1
:100FA00043F200060C460546C4F2020600F0DCF9E6
:100FB000B54201D0052019E00546671C3068C0071E
:100FC0000CD13068800709D47068C00706D17068FA
:100FD00080075CBFB0685FEA007009D5002FEDD0D4
:100FE00000F0C2F9401BA042E8D9032001B0F0BDD7
:100FF000B06840070FBF00200720B0600120F5E770
:101000002DE9F04143F2000714460D460646C4F2AE
:10101000020700F0A9F9BE421CBF0520BDE8F0811F
:101020000646B868400704D00720B8600120BDE834
:10103000F08104F1010800BFB8F1000F04D000F006
:1010400093F9801BA0421CD8052D17D8DFE805F0C6
:1010500007090B0F0303B86800070BD40EE03868CC
:1010600002E0386804E07868C00703D106E07868D9
:10107000800703D5B8684007DED0D5E70020BDE87B
:10108000F0810320BDE8F081A0F18042A2F510328A
:101090004FEA3232052A44D80022B2EB114F4FF00A
:1010A00005023FD18BB2EBB32DE9F04300224FF0A4
:1010B00001084FF00F0C4FF0030E0024002500BF75
:1010C00008FA05F60E4022D02427082D38BF202725
:1010D00050F8079004F01C030CFA03F343EA0903E9
:1010E000C351836C0EFA02F7B3438364836BB3433B
:1010F0008363036BBB4303630369B34303614369C6
:10110000BB4343618661036843EA064303600135DC
:101110000434102D02F10202D2D10022BDE8F043C6
:1011200000E005221046704747F20002C4F20202B6
:1011300090420CBF8029704702F58050022100F0D8
:10114000DEB800002DE9F0410446A0F18040A0F592
:1011500010304FEA3030052888BFBDE8F08125699E
:10116000A66900274FF0010808FA07F188B2284263
:1011700018BF10EA060003D02046A161FFF7D4FF94
:101180000137102FF0D1BDE8F08100002DE9F04FBC
:1011900081B000294FF0050200F0AD8044F2000359
:1011A000C4F2020303F58055C71A451BB7FA87F648
:1011B000B5FA85F576096D092E4303F50055451BF3
:1011C00003F54053B5FA85F5C31A6D09B3FA83F3F5
:1011D0002E435B093343A7F58046B6FA86F6A7F59A
:1011E000A0477609B7FA87F733437F093B4300F0FE
:1011F0008280D1F800B00022B2EB1B4F4FF0050205
:1012000079D11FFA8BF7002F75D000F1200200F181
:10121000240E009200224FF0000C00250F2700BF83
:10122000012303FA05F414EA0B0933D00C79631E89
:101230000F2B37D27346009E082D38BF3346D3F8A4
:1012400000800CF01C0607FA06FAB44028EA0A08E7
:1012500004EA0A0444EA08041C600B7A002B836B3E
:1012600014BF43EA090423EA09048463CB79002B01
:10127000836C14BF43EA090323EA09038364036B05
:101280004E79032406F0030694409640A34334406D
:101290002343036301350CF1040C102D02F102020B
:1012A000BED125E034BB7346009C082D38BF2346D1
:1012B0001E680CF01C080F2404FA08F426EA040443
:1012C0001C608C79002CDAD0D0F81480032304F051
:1012D00003049340944028EA0308234043EA0803A8
:1012E0004361C0F81890036943EA09030361C6E744
:1012F000002200E00122104601B0BDE8F08FA0F10D
:101300008042A2F510324FEA3232052A11D800226B
:10131000B2EB114F0DD18AB2002A08BF7047836823
:101320000B4203D0026842EA014101E00168114327
:1013300001607047A0F18043A3F510334FEA3333C7
:10134000052B10D80023B3EB114F0CD18BB2002B1F
:1013500008BF7047012A02D10168194302E0026800
:1013600042EA01410160704740F24C50C2F2000075
:101370000068704770477047704770477047704704
:10138000704770477047B0B54BF20004C4F20304D5
:10139000A04218BFB0BD4BF61470C4F20300006841
:1013A000D4F8101F01EA0005A80705D50220C4F8EB
:1013B000100F2046FFF7DFFF680705D50420C4F8AB
:1013C000100F2046FFF7D8FF280705D50820C4F8DE
:1013D000100F2046FFF7D1FFE80605D51020C4F80E
:1013E000100F2046FFF7CAFFA80605D52020C4F835
:1013F000100F2046FFF7C3FF680605D54020C4F84C
:10140000100F2046FFF7BCFF280605D58020C4F842
:10141000100F2046FFF7B5FFE80506D54FF48070A2
:10142000C4F8100F2046FFF7ADFFE80705D00120F4
:10143000C4F8100F204600F00CF8280400D4B0BD0A
:101440004FF400412046C4F8101FBDE8B040FFF73C
:1014500091BF70477047704770477047704770B5CD
:1014600040F214160446B0F1804FC2F200060FD0CD
:1014700042F20000C4F20000844208D041F20000B1
:10148000C4F20000844218BF70BD383600E07036E8
:10149000206B616B01EA0005E80707D0F06910B125
:1014A000F16920468847204600F0BCF8A80707D518
:1014B000F06810B1F16820468847204600F0BCF87B
:1014C000680704D504206063204600F0ADF82807C3
:1014D00004D508206063204600F0A8F8E80604D58B
:1014E00010206063204600F0A8F8680604D540206C
:1014F00060632046FFF7AEFF280604D580206063B6
:101500002046FFF7A8FFE80505D54FF4807060631B
:10151000204600F086F8A80505D54FF400706063FA
:10152000204600F085F8680505D54FF480606063BB
:10153000204600F07CF8280505D54FF40060606374
:101540002046FFF78AFFE80417D54FF48050606308
:1015500070893189884204D3F06810B1F16820465F
:101560008847708B318B884204D3F06910B1F169E0
:10157000204688472046FFF771FFA80405D54FF4A1
:10158000005060632046FFF767FF680405D54FF4FD
:1015900080406063204600F046F8280405D54FF4EB
:1015A00000406063204600F038F8E80305D54FF4AA
:1015B00080306063204600F032F8A80305D54FF470
:1015C00000306063204600F035F8680305D54FF41D
:1015D00080206063204600F028F8280305D54FF4EA
:1015E00000206063204600F024F8E80205D54FF49F
:1015F00080106063204600F013F8A80205D54FF470
:1016000000106063204600F016F8680200D470BD38
:101610002046BDE8704000F001B870477047704741
:101620007047704770477047704770477047704702
:10163000704770477047704770477047B0B54CF2BD
:101640000004C4F20004A0421CBF0520B0BD4DF64A
:10165000DD5020604FF6FF70FEF7DCFF00B1B0BD3B
:1016600000200025FEF7BFFF0028F8D143F6AC703C
:101670002060606820F002006060606820F0010077
:101680006060042025602061204600F033F80020CF
:10169000B0BDB0B54CF20004C4F20004A0424FF05B
:1016A000050008D10D4631B1204600F024F8286825
:1016B000FEF7B0FF00B1B0BD6879FEF794FF0028D7
:1016C000F9D143F6AC7020602979606841B140F0EF
:1016D0000100606004202061606840F0020005E0C5
:1016E00020F001006060606820F00200606000206F
:1016F0002060B0BD7047704710B54CF20004C4F2D2
:101700000004A0421CBF052010BDFEF7ADFF00B1D4
:1017100010BDFEF795FF0028FAD14AF6AA202060F6
:10172000002010BD01464CF20000C4F200008142CE
:101730001CBF052070474CF6CC410160FFF7DCBFB1
:1017400040F2040040F24C51C2F20000C2F200012B
:1017500000780A6810440860704710B543F2000032
:10176000C4F20200016841F010010160016841F01B
:1017700020010160032000F0AFF80F2000F005F811
:10178000044600F02AF8204610BDB0B540F204052A
:10179000C2F20005297861B1044600F0A9FE29785B
:1017A0004FF47A72B2FBF1F1B0FBF1F001F0E7F81F
:1017B00010B104252846B0BD0F2C0CD84FF0FF30D7
:1017C00021460022002500F055F840F20800C2F240
:1017D00000000460EEE70125ECE780B500F039F980
:1017E00000F04AF900F05BF900F06CF900F07DF9C7
:1017F00000F08EF92A2000F02BF82B2000F028F8BA
:101800002C2000F025F82D2000F022F82E2000F0EA
:101810001FF82F2000F01CF800F0F5F8BDE880401C
:1018200000F004B9002812D4C1B200F01F00012258
:1018300002FA00F04EF28012CEF2000242EAD1012A
:1018400021F003010860BFF34F8FBFF36F8F704724
:1018500000280ED4C1B200F01F00012202FA00F0ED
:101860004EF20012CEF2000242EAD10121F0030151
:101870000860704742EA01030F2B88BF704710B51C
:101880004EF60C5CCEF2000CDCF80030C3F3022EF6
:101890008EF00704042C28BF0424BEF103034FF08C
:1018A000FF3E0EFA04F438BF0023A14399400EFA1C
:1018B00003F39A43114300F00F02043A6244090112
:1018C0000C3200F16043B0F1FF3FC8BF03F5644242
:1018D0001170BDE810407047C11E042988BF7047D1
:1018E0004EF60C51CEF200010A684FF6FF031A4083
:1018F00060F30A2242F0806040F0FD70086070479B
:101900004A1E0F2A84BF05207047382248F2E4732C
:10191000C4F20202C3F6AC739364136800F00300D0
:1019200023F00C0343EA80001060F023106903EBFE
:101930000111090961F30710106101209064002072
:10194000704740F200003021C2F20000C4F20201F0
:1019500000680968C1F303210131B0FBF1F0704761
:101960004C2048F2E471C4F20200C3F6AC7141634A
:10197000816841F010018160016841F4005101600B
:10198000816941F0100181610121416370474C2060
:1019900048F2E471C4F20200C3F6AC71416381689D
:1019A00041F020018160016841F48041016081695A
:1019B00041F0200181610121416370474A1E92B2CA
:1019C0000F2A84BF05207047382248F2E473C4F21E
:1019D0000202C3F6AC739364136800F0030023F0B3
:1019E000C00343EA80104FF200031060CFF6FF738C
:1019F000106903EB0131090B61F30F301061012015
:101A0000906400207047582048F2E471C4F202004C
:101A1000C3F6AC718162016841F0010101600169A6
:101A200041F001010161012181627047582048F2B3
:101A3000E471C4F20200C3F6AC718162016841F046
:101A400002010160016941F002010161012181622D
:101A50007047582048F2E471C4F20200C3F6AC713A
:101A60008162016841F004010160016941F00401F3
:101A70000161012181627047582048F2E471C4F28B
:101A80000200C3F6AC718162016841F00801016097
:101A9000016941F00801016101218162704758200C
:101AA00048F2E471C4F20200C3F6AC7181620168CD
:101AB00041F010010160016941F010010161012153
:101AC00081627047582048F2E471C4F20200C3F604
:101AD000AC718162016841F020010160016941F04F
:101AE00020010161012181627047582048F2E471B0
:101AF000C4F20200C3F6AC718162016841F040019A
:101B00000160016941F0400101610121816270477A
:101B1000582048F2E471C4F20200C3F6AC7181624D
:101B2000016841F080010160016941F080010161BB
:101B300001218162704701390F2984BF0520704758
:101B4000382248F2E473C4F20202C3F6AC73936421
:101B5000136860F301031360106961F303001061FF
:101B600001209064002070472DE9F04784B041F2D5
:101B7000200040F2000A48F2E47EC4F20200C4F2FF
:101B8000020AC3F6AC7ED0F840C0DAF80010CAF8FA
:101B900080E0DAF83810032321F00C01CAF838107D
:101BA000DAF8481041F2002521F0F001CAF8481097
:101BB0000121CAF88010CAF880E0DAF85C209FEDB5
:101BC000950A42F00802CAF85C20DAF84C209FED32
:101BD000921A42F00102CAF84C20DAF86C20C0F2E6
:101BE0007A0542F00802CAF86C20CAF8801048F260
:101BF000E471CAF880E0416248F63D21416241F655
:101C0000EC114162016C41F2000241F400510164A7
:101C1000016CCEF2000241F480510164016841F48C
:101C200080710160016863F38E21016000215160C1
:101C3000116841F0010111605368C16C2C4611F527
:101C4000807F3CBFC16C0C0A02EE104AB8EE422AFB
:101C500082EE002A22EE012ABCEEC22A12EE101AEF
:101C60008B42E9D348F2000348F22131C4F2030366
:101C7000C0F2800159602B219960002199612021D7
:101C8000996211211964196841F00101196000BFBE
:101C90001969C905FCD5196841F004011960D3F828
:101CA000001141F40031C3F8001100BFD3F8001156
:101CB0008903FBD5596DD3F80041122644F4003452
:101CC000C3F80041046801EBD17166F38E2404600F
:101CD0004EF6FC54CEF2000426689FED501A46F0F2
:101CE00080762660DAF800404FEA610944F4003457
:101CF000CAF80040DAF800404FF0000824F0004431
:101D0000CAF80040DAF800606946002726F44074FB
:101D100044EA0724CAF80040DAF8004044F00044DE
:101D2000CAF80040C2F80480146844F0010414604A
:101D30005668C46C14F5807F2C463CBFC46C240AE2
:101D400002EE104AB8EE422A82EE002A22EE012A62
:101D5000BCEEC22A12EE104AA642E9D35C6DB4EB87
:101D6000090648BF764241F82760D3F800410137A1
:101D700044F40034C3F80041DAF80040042F24F0A2
:101D80000044CAF80040DAF80060BFD126F40034FD
:101D9000CAF80040146824F00104146000240022F2
:101DA000D6B251F8245051F82660B54238BF2246C9
:101DB0000134042CF4D100211960CAF880E0DAF86B
:101DC0005C1021F00801CAF85C10DAF84C1021F020
:101DD0000101CAF84C10DAF85C1011F0780F05D147
:101DE000DAF86C1021F00801CAF86C100121CAF869
:101DF0008010C0F840C0CAF880104FF480304FF413
:101E00000031CAF88000D0B2CAF8801004B0BDE832
:101E1000F08700BF00247449000096440080BB4452
:101E20002DE9F04784B041F2200040F2100A48F258
:101E3000E47EC4F20200C4F2020AC3F6AC7ED0F81B
:101E400040C0DAF80010CAF870E0DAF8281003236E
:101E500021F00C01CAF82810DAF8381041F20025F8
:101E600021F0F001CAF838100121CAF87010CAF840
:101E700070E0DAF84C209FED950A42F00802CAF8AB
:101E80004C20DAF83C209FED921A42F00102CAF889
:101E90003C20DAF85C20C0F27A0542F00802CAF869
:101EA0005C20CAF8701048F2E471CAF870E0416230
:101EB00048F63D21416241F6EC114162016C41F26C
:101EC000000241F400510164016CCEF2000241F4C1
:101ED00080510164016841F480710160016863F31D
:101EE0008E21016000215160116841F001011160F3
:101EF0005368C16C2C4611F5807F3CBFC16C0C0A45
:101F000002EE104AB8EE422A82EE002A22EE012AA0
:101F1000BCEEC22A12EE101A8B42E9D348F200033B
:101F200048F22131C4F20303C0F2800159602B2131
:101F30009960002199612021996211211964196821
:101F400041F00101196000BF1969C905FCD5196884
:101F500041F004011960D3F8001141F40031C3F8D5
:101F6000001100BFD3F800118903FBD5596DD3F8D8
:101F70000041132644F40034C3F80041046801EB27
:101F8000D17166F38E2404604EF6FC54CEF2000448
:101F900026689FED501A46F080762660DAF80040F9
:101FA0004FEA610944F40034CAF80040DAF800400E
:101FB0004FF0000824F00044CAF80040DAF800604E
:101FC0006946002726F4407444EA0724CAF8004012
:101FD000DAF8004044F00044CAF80040C2F8048037
:101FE000146844F0010414605668C46C14F5807FD2
:101FF0002C463CBFC46C240A02EE104AB8EE422ABA
:1020000082EE002A22EE012ABCEEC22A12EE104A0B
:10201000A642E9D35C6DB4EB090648BF764241F8AD
:102020002760D3F80041013744F40034C3F800417D
:10203000DAF80040042F24F00044CAF80040DAF82F
:102040000060BFD126F40034CAF80040146824F0C0
:102050000104146000240022D6B251F8245051F833
:102060002660B54238BF22460134042CF4D1002149
:102070001960CAF870E0DAF84C1021F00801CAF8CB
:102080004C10DAF83C1021F00101CAF83C10DAF8E3
:102090004C1011F0780F05D1DAF85C1021F008012E
:1020A000CAF85C100121CAF87010C0F840C0CAF824
:1020B00070104FF480304FF40031CAF87000D0B285
:1020C000CAF8701004B0BDE8F08700BF002474495E
:1020D000000096440080BB442DE9F04381B0002607
:1020E000C4F20206B0424FF0050040F0E6800C4614
:1020F000002900F0E280656844F630510020C0F607
:10210000000100BF0A58AA4205D10A185368A768FF
:10211000B7EB530F13D01830B0F5287FF2D12078E9
:10212000012818D141F26C00C4F20200016811F5D7
:10213000807F0DD341F20025C0F27A050AE0516993
:10214000137AB2F80A80908989031FFA81FC2AE089
:102150000068050A6560002D42D0A06802F0DFF833
:10216000804628460F4602F0DAF802460B46404603
:10217000394601F04DFF0746894602F0A1F8804636
:1021800002F0CDF802460B463846494602F0D8F92F
:102190009FED4F0B53EC102B02F0D4F802F090F8A7
:1021A00001234FF4004C48F2E479C3F6AC79C6F849
:1021B0008090326822F00042326094F800E0BEF174
:1021C000030F0FD0BEF1010F10D0BEF1000F07D1E9
:1021D000376F47F001073767376827F003070DE0CF
:1021E00001206AE0316841F0030707E0376F012101
:1021F00047F010073767376861F30107022B376034
:1022000006D03168012B21F400634FF0010703E091
:102210003168022741F4006333603168B5FBF7F39E
:1022200041F6003221F48067C0F2B702934288BFC2
:1022300041F48067376071686FF39F386FF31D4119
:1022400041EA0841716071684FF6FF72914308449A
:10225000706030684CF2002120F4404040EA0C00ED
:102260003060A068C0F6EB31884212D1BEF1010F98
:1022700026D0BEF1000F0CD141F20020C0F27A004E
:10228000854206D141F26C00C4F202004068800F22
:1022900003E0FFF769FCC6F88090316860F309211C
:1022A0003160306840F00040306000BF306840006E
:1022B000FCD50120C6F88000002001B0BDE8F08305
:1022C00041F26C00C4F20200006800F00300E4E791
:1022D000000000000000F0402DE9F04381B010261E
:1022E000C4F202060C46A6F1100188424FF0050028
:1022F00040F0E880002C00F0E580656844F630513D
:102300000020C0F6000100BF0A58AA4204D10A18F2
:102310005368A768BB4213D01830B0F5287FF3D1BB
:102320002078012818D141F26C00C4F20200016843
:1023300011F5807F0DD341F20025C0F27A050AE045
:102340005169137AB2F80A80908989031FFA81FCD7
:1023500030E00068050A6560002D48D0A06801F0F3
:10236000DEFF9FED5F0B53EC102B01F0EBFF80467F
:1023700028460F4601F0D3FF02460B464046394639
:1023800001F046FE0746894601F09AFF804601F0BB
:10239000C6FF02460B463846494602F0D1F89FED8B
:1023A000520B53EC102B01F0CDFF01F089FF0123FC
:1023B0004FF4004C48F2E479C3F6AC79C6F870905B
:1023C000326822F00042326094F800E0BEF1030F60
:1023D0000FD0BEF1010F10D0BEF1000F07D1376E44
:1023E00047F001073766376827F003070DE0012043
:1023F00068E0316841F0030707E0376E012147F0DC
:1024000010073766376861F30107022B376006D083
:102410003168012B21F400634FF0010703E03168BC
:10242000022741F4006333603168B5FBF7F341F6EE
:10243000003221F48067C0F2B702934288BF41F4B2
:102440008067376071686FF39F386FF31D4141EA11
:102450000841716071684FF6FF72914308447060E3
:10246000306842F6002120F4404040EA0C00306021
:10247000A068C1F27551884212D1BEF1010F24D07B
:10248000BEF1000F0CD141F20020C0F27A0085426B
:1024900006D141F26C00C4F202008068800F03E0B4
:1024A000FFF7BEFCC6F87090316860F30921316017
:1024B000306840F00040306030684000FCD50120BA
:1024C0003067002001B0BDE8F08341F26C00C4F237
:1024D00002000068C0F38100E6E700BF00BF00BF54
:1024E000000000000000E03F000000000000F0409D
:1024F00040F20000C2F20000006870472DE9F0438E
:1025000083B03025C4F202050C460146A5F1300027
:1025100081424FF0050140F0C680002C00F0C380DE
:10252000D4F804C0BCF1000F13D02278032A2ED8AF
:10253000DFE802F002111C0A41F26C01C4F2020150
:102540000B6813F5807F19D341F2002CC0F27A0C8E
:102550001BE00521A7E041F26C01C4F20201CB6847
:1025600013F1011F0ED94FF4FA4C0EE06378012BE2
:1025700000F09D80002B00F0A28008E009684FEA7F
:10258000112C02E0C9684FEA114CC4F804C0A389B9
:1025900048F2E4799F1EBFB20F2F24BF0223A3810C
:1025A000E689C3F6AC79B71EBFB20F2F24BF02264F
:1025B000E681278A4FF00108791E89B2402924BF9D
:1025C00001272782032AC5F850900BD8DFE802F0D4
:1025D000020C1134286C40F010002864286820F0A8
:1025E000030030E001215CE02868012161F3010073
:1025F00029E0296801F00301022907D1296C41F083
:1026000010012964296821F0030129606178A2681A
:102610008DF800106946CDE9012CFFF75DFD0146FC
:10262000C5F85090E8BB2868022161F301002860DA
:10263000A389E689278A07E0286C40F00100286416
:10264000286840F0030028604FF47061286801EBAF
:102650000321090A61F30B204FF200012860CFF635
:10266000FF71286801EB0631090B61F30F30286018
:10267000FC21286801EB8701890861F38700286045
:102680002868002140F480302860286840F4003039
:102690002860286840F480202860286840F40020E2
:1026A0002860C5F85080084603B0BDE8F08341F2C9
:1026B0006C03C4F202031F6817F5807F04D341F254
:1026C0000023C0F27A0301E01B681B0AA3605EE7E7
:1026D000542048F2E471C4F20200C3F6AC71C16246
:1026E000016821F400610160016921F40061016168
:1026F0000121C1627047542048F2E471C4F2020023
:10270000C3F6AC71C162016841F400610160016906
:1027100041F4006101610121C16270475C2048F20F
:10272000E471C4F20200C3F6AC714162016821F0A9
:1027300002010160016921F0020101610121416290
:1027400070475C2048F2E471C4F20200C3F6AC7139
:102750004162016841F002010160016941F002013A
:102760000161012141627047542048F2E471C4F2D2
:102770000200C3F6AC71C162016821F480510160AE
:10278000016921F4805101610121C1627047542027
:1027900048F2E471C4F20200C3F6AC71C162016890
:1027A00041F480510160016941F4805101610121CE
:1027B000C1627047542048F2E471C4F20200C3F6CB
:1027C000AC71C162016821F400510160016921F41A
:1027D000005101610121C1627047542048F2E47147
:1027E000C4F20200C3F6AC71C162016841F4005149
:1027F0000160016941F4005101610121C16270472A
:10280000582048F2E471C4F20200C3F6AC71816250
:10281000016821F480710160016921F48071016116
:10282000012181627047582048F2E471C4F202002D
:10283000C3F6AC718162016841F480710160016985
:1028400041F480710161012181627047582048F292
:10285000E471C4F20200C3F6AC718162016821F434
:1028600000710160016921F400710161012181623F
:102870007047582048F2E471C4F20200C3F6AC710C
:102880008162016841F400710160016941F40071E5
:102890000161012181627047502048F2E471C4F265
:1028A0000200C3F6AC710163016821F040010160D0
:1028B000016921F04001016101210163704750204D
:1028C00048F2E471C4F20200C3F6AC71016301681E
:1028D00041F040010160016941F0400101610121C5
:1028E00001637047502048F2E471C4F20200C3F65D
:1028F000AC710163016821F080010160016921F080
:1029000080010161012101637047502048F2E471A8
:10291000C4F20200C3F6AC710163016841F08001AA
:102920000160016941F0800101610121016370478B
:102930005C2048F2E471C4F20200C3F6AC7141625B
:10294000016821F001010160016921F001010161CB
:102950000121416270475C2048F2E471C4F2020038
:10296000C3F6AC714162016841F001010160016987
:1029700041F0010101610121416270477047411E30
:102980000020B0EB116F1CBF012070474EF2100207
:10299000CEF2000251604EF62351CEF20001F02338
:1029A0000B700721906011607047FFF7E7BF10B50B
:1029B00000294FF0050C00F0808048F20002C4F2BC
:1029C000000202F58054A0EB020E041BBEFA8EF347
:1029D000B4FA84F45B096409234302F58034041BD0
:1029E000B4FA84F46409234302F58834041BB4FA6E
:1029F00084F46409234302F59034041BB4FA84F48C
:102A00006409234302F50834041B02F50C32B4FABE
:102A100084F4821A6409B2FA82F2234352091A43F7
:102A2000AEF52033B3FA83F35B091A43AEF52433D2
:102A3000B3FA83F35B091A43D2073ED04A680263B4
:102A40000A89826302684C7891F800C064F3C3027B
:102A50008B780260426863F30202426002680B7B7B
:102A600063F382020260CA7A0368002A23F0020438
:102A700008BF43F0020404600268BCF1000F42F09A
:102A8000800308BF22F080030360C26A8B7A4FF094
:102A9000000C63F30302C2624A7B026402688B7B10
:102AA00063F3461202600268CB7B63F30412026098
:102AB0000268097C61F309220260604610BD70471C
:102AC000704770B541F20001044640F48050C4F2F2
:102AD0000301884223D1E068256900F400662E4294
:102AE00005D04FF4006020612046FFF7E8FF46B1B3
:102AF00015F4005005D04FF4005020612046FFF738
:102B0000DFFF002E08BF70BD15F4805007D04FF4D2
:102B1000805120462161BDE8704000F031BB70BD9E
:102B2000B0B541F20001044640F48050C4F2030104
:102B3000884218BFB0BDE068216901EA0005280697
:102B400004D580202061204600F03BF8680604D5BB
:102B500040202061204600F033F8A80604D520204C
:102B60002061204600F02BF8E80604D510202061F3
:102B7000204600F023F8280704D5082020612046CD
:102B800000F01BF8680704D504202061204600F0FF
:102B900013F8A80704D502202061204600F00BF8A6
:102BA000E80700D1B0BD012120462161BDE8B04059
:102BB000AFF30080704770477047704770477047A9
:102BC0007047704749F6FF71C4F2010188424FF027
:102BD000050115DD4AF6FF72C4F20202904220DDC3
:102BE0004BF20002C4F20202904231D041F20002E4
:102BF000C4F2030290422BD00022C4F2030225E06B
:102C000047F6FF72C4F20102904215DC48F200025E
:102C1000C4F2000290421BD049F20002C4F200024A
:102C200014E04AF20002C4F20102904210D04AF2CB
:102C30000002C4F2020209E048F20002C4F20102FA
:102C4000904205D049F20002C4F20102904229D11B
:102C500080B5416A21F001014162416A21F0100111
:102C60004162416A21F480714162416A21F48051DC
:102C70004162416A21F002014162416A21F0200172
:102C80004162416A21F400714162416A21F40051BC
:102C90004162016821F00101016000F011F9002199
:102CA000BDE8804008467047F0B581B0044649F65B
:102CB000FF70C4F20100844215DD4AF6FF70C4F2D1
:102CC0000200844220DD4BF20000C4F20200844284
:102CD00031D041F20000C4F2030084422BD0002026
:102CE000C4F2030025E047F6FF70C4F201008442FD
:102CF00015DC48F20000C4F2000084421BD049F207
:102D00000000C4F2000014E04AF20000C4F2010026
:102D1000844210D04AF20000C4F2020009E048F2F6
:102D20000000C4F20100844205D049F20000C4F260
:102D3000010084426CD1E768266906EA0705A80508
:102D400005D54FF400702061204600F0BFF9E8057A
:102D500005D54FF480702061204600F049FA6805DF
:102D600005D54FF480602061204600F01EFA28054A
:102D700007F4006705D54FF4006020612046FFF797
:102D80009EFE47B116F4005005D04FF4005020616C
:102D90002046FFF795FE47B116F4805005D04FF45A
:102DA00080502061204600F0EBF9280604D58020F1
:102DB00020612046FFF705FF680604D5402020610A
:102DC0002046FFF7FDFEA80604D5202020612046FE
:102DD000FFF7F5FEE80604D5102020612046FFF736
:102DE000EDFE280704D5082020612046FFF7E5FE08
:102DF000680704D5042020612046FFF7DDFEA80700
:102E000004D5022020612046FFF7D5FEE80701D156
:102E100001B0F0BD01212046216101B0BDE8F040C4
:102E2000FFF7C8BE49F6FF71C4F2010188424FF0B6
:102E3000050115DD4AF6FF72C4F20202904220DD60
:102E40004BF20002C4F20202904231D041F2000281
:102E5000C4F2030290422BD00022C4F2030225E008
:102E600047F6FF72C4F20102904215DC48F20002FC
:102E7000C4F2000290421BD049F20002C4F20002E8
:102E800014E04AF20002C4F20102904210D04AF269
:102E90000002C4F2020209E048F20002C4F2010298
:102EA000904205D049F20002C4F20102904205D1DD
:102EB00080B500F088F80021BDE8804008467047E2
:102EC00080B549F6FF71C4F20101884224DD4AF65B
:102ED000FF71C4F20201884234DD4BF20001C4F2FA
:102EE000020188424ED00021C4F2030188424DD035
:102EF00041F20001C4F20301884218BF80BDFFF710
:102F00000DFC2420FEF78EFC2520FEF78BFC2620EE
:102F1000FEF788FC272051E047F6FF71C4F201015B
:102F200088421FDC48F20001C4F2000188423AD016
:102F300049F20001C4F20001884243D1FFF7D2FCFC
:102F40001A203BE04AF20001C4F2010188422ED06F
:102F50004AF20001C4F20201884233D1FFF750FC6B
:102F60001E202BE048F20001C4F20101884222D069
:102F700049F20001C4F20101884223D1FFF7F4FBBA
:102F80001C201BE0FFF762FC1F2017E0FFF7D0FCBE
:102F90002020FEF747FC2120FEF744FC2220FEF70C
:102FA00041FC23200AE0FFF777FC192006E0FFF739
:102FB00001FC1D2002E0FFF78BFB1B20BDE88040D9
:102FC000FEF730BC80BD80B549F6FF71C4F2010147
:102FD000884224DD4AF6FF71C4F20201884234DDE2
:102FE0004BF20001C4F2020188424ED00021C4F22B
:102FF000030188424DD041F20001C4F2030188422E
:1030000018BF80BDFFF79DFB2420FEF721FC252083
:10301000FEF71EFC2620FEF71BFC272051E047F69A
:10302000FF71C4F2010188421FDC48F20001C4F2C2
:10303000000188423AD049F20001C4F200018842FE
:1030400043D1FFF762FC1A203BE04AF20001C4F2D0
:10305000010188422ED04AF20001C4F202018842E6
:1030600033D1FFF7E0FB1E202BE048F20001C4F251
:103070000101884222D049F20001C4F201018842D4
:1030800023D1FFF784FB1C201BE0FFF7F2FB1F207E
:1030900017E0FFF760FC2020FEF7DAFB2120FEF7A7
:1030A000D7FB2220FEF7D4FB23200AE0FFF707FC22
:1030B000192006E0FFF791FB1D2002E0FFF71BFB44
:1030C0001B20BDE88040FEF7C3BB80BD00F0B9BE49
:1030D00049F6FF71C4F2010188424FF0050115DD88
:1030E0004AF6FF72C4F20202904220DD4BF2000267
:1030F000C4F20202904231D041F20002C4F2030253
:1031000090422BD00022C4F2030225E047F6FF7262
:10311000C4F20102904215DC48F20002C4F200023F
:1031200090421BD049F20002C4F2000214E04AF2BD
:103130000002C4F20102904210D04AF20002C4F22E
:10314000020209E048F20002C4F20102904205D0F6
:1031500049F20002C4F2010290420FD1C16841F469
:103160000071C1600168890703D4C16841F48071AE
:10317000C160016841F0010101600021084670470B
:10318000704741F2000240F48051C4F203029142C0
:1031900018BF7047C16802691140490504D54FF452
:1031A0008061016100F001B870477047B0B541F22D
:1031B0000001044640F48050C4F20301884218BF65
:1031C000B0BDE068216901EA0005A80505D54FF406
:1031D000007020612046FFF779FFE80500D4B0BDFC
:1031E0004FF4807120462161BDE8B040AFF300800C
:1031F00070477047F0B581B044F6FF77C4F200071E
:1032000040F248450446B842C2F2000513DD45F2DB
:103210000000C4F20000844219D00020C4F2010072
:10322000844216D041F20000C4F20100844240F012
:10323000C880D0350EE043F20000C4F200008442A2
:1032400008D0B4F1402F40F0BC80343502E068353E
:1032500000E09C35606BA16B01EA0006300405D5E7
:103260004FF40040A063204600F004F9700405D537
:103270004FF48040A063204600F006F9B00405D565
:103280004FF40050A063204600F0FAF8F0040ED589
:103290004FF48050A063E888A988884204D3A868C6
:1032A00010B1A96820468847204600F0EAF83005AA
:1032B0004ED54FF40060A0632069000745D040F26E
:1032C0004840BC42C2F2000012DD45F20001C4F2E7
:1032D00000018C4217D00021C4F201018C4214D0AD
:1032E00041F20001C4F201018C422ED1D0300DE038
:1032F00043F20001C4F200018C4207D0B4F1402F28
:1033000023D1343002E0683000E09C30017F042992
:1033100017D18169C9B1016999B1C18A828A914283
:103320000FD2A16B11F4E06F58D0616B21F0010155
:1033300061630021816101210177006B28B1804721
:1033400003E0206840F008002060204600F097F875
:10335000700505D54FF48060A063204600F08BF81F
:10336000B00505D54FF40070A0632046FFF741FF7C
:10337000F00505D54FF48070A063204600F079F881
:10338000F00604D51020A063204600F07CF830073A
:1033900004D50820A063204600F070F8700704D51B
:1033A0000420A063204600F068F8B00707D5A8689D
:1033B00010B1A96820468847204600F063F8F0075E
:1033C00001D101B0F0BDA86910B1A96920468847B4
:1033D000204601B0BDE8F04000F04EB8E16BC1F30B
:1033E000C4216268D2031CD56268920319D4626852
:1033F00002F00302032A14D131B3C28A838A9A42AB
:1034000022D2626A03696FF35F221A80026901396E
:1034100002320261C28A0B0602F10102C282ECD1C1
:1034200012E089B1C28A838A9A420DD2626A036924
:1034300001391A7002690B0602F101020261C28AA7
:1034400002F10102C282EDD1616B21F001016163E1
:103450000021816101210177C18A828A914234BFB2
:10346000006B406A00B18047606B20F400606063CD
:103470006BE77047704770477047704770477047F9
:10348000704770477047704770470000FEE770470D
:10349000704700F011F8FCF77DFE704780B5FEF72D
:1034A0004FF9BDE88040FFF780BA20B140F200013B
:1034B000C2F200010860704740F200004EF6085169
:1034C000C0F60000CEF20001086041F23000C4F204
:1034D000020048F2E4724261026822F002020260D5
:1034E0004FF480324261D1F8800040F47000C1F89E
:1034F0008000704748F20000C4F20100FFF7D4BB1F
:1035000041F20000C4F20300FFF7DBBA41F2000011
:10351000C4F20300FFF704BB41F20000C4F2030051
:10352000FFF72FBE41F20000C4F20300FFF73EBEDA
:1035300049F20000C4F20100FFF7B6BB4AF20000F6
:10354000C4F20100FFF7B0BB4AF20000C4F202006F
:10355000FFF7AABB4BF20000C4F20200FFF7A4BBC6
:1035600048F20000C4F20000FFF79EBB49F20000E1
:10357000C4F20000FFF798BB0020C4F20300FFF77D
:10358000A0BA0020C4F20300FFF7CABA0020C4F2B8
:103590000300FFF7F6BD0020C4F20300FFF706BEEC
:1035A00043F20000C4F20000FFF724BE4FF04020B9
:1035B000FFF720BE45F20000C4F20000FFF71ABE7C
:1035C0000020C4F20100FFF715BE41F20000C4F272
:1035D0000100FFF70FBE0000FEE70000FEE770B538
:1035E00090B004AE0D46044630463021FCF7A9FEEB
:1035F0000020CDE90200CDE90004ADF8100040F64E
:103600000060C0F22770CDE905054FF48370ADF876
:103610001C00012040F601418DF81E00ADF8271076
:1036200069468DF8300045F200000B91C4F20100AC
:103630003146FDF7BFF840F26400C2F200000460BA
:1036400010B070BD80B582B00020CDE9000040F21E
:10365000EF2245F20000C2F20002C4F20100694606
:10366000FDF7DFF980B940F2D010C2F20000036824
:1036700053B1DDE9000101F00F0240F2EF2120F02B
:103680006040C2F20001984702B080BD80B582B0B0
:10369000024640F26400C2F20000006820F0604080
:1036A000009041F0800000F08F00019045F2000092
:1036B000C4F201006946FDF703FA02B080BD40F292
:1036C000D011C2F200010860704745F20000C4F258
:1036D00001000068C0F34020704780B5FFF77FFF0E
:1036E00043F6D550C0F60000BDE88040FFF7E7BFC5
:1036F000F0B581B0C9B10C4605460026002000BFD8
:1037000006F10801271AA14238BF0827A819F9B203
:10371000FFF7BCFFFFF7D9FF10B100F03CF9F9E764
:1037200016FA87F086B2A642EAD301B0F0BD0000D7
:1037300010B58AB1038844F22E7CC0F6000C00BF9D
:1037400011F801EB9CB28EEA14243CF81440013AC3
:1037500084EA03230380F3D110BD000080B58AB151
:10376000D0F800E044F6301CC0F6000C11F8013B24
:10377000013A83EA1E635CF8233083EA0E2EC0F818
:1037800000E0F3D180BD0000F0B583B000250295C4
:103790000299814216D2044644F61F6644F6206719
:1037A00001950198B04205D8019801300190019827
:1037B000B842F9D300F0EFF8029801300290029875
:1037C000A042EDD303B0F0BD2DE9F04143F2000873
:1037D000C4F20208064600F17847404614460D46FA
:1037E000FDF77FFBB7FBF0F101FB107020B9C9B208
:1037F0004046FDF7AFFA98B9404631462A4623467F
:10380000FDF7E4FAA0420BD1404631462A46234652
:10381000FDF792FB001BB0FA80F04009BDE8F08193
:103820000020BDE8F08170B584B00446012000FAA4
:1038300001F50026204629460396CDE90166FDF7ED
:1038400023FC0120C0F20010029001A9204601953E
:103850008DF80C60FDF79AFC04B070BD10B582B015
:1038600047F200010020C0F6000101900A68B2F59D
:10387000603F0AD84C6801F5805101A8FFF76EFF40
:103880000198001BB0FA80F0400902B010BD40F270
:10389000BC10C2F200000021017040F24040C2F2B0
:1038A0000000016070470000B0B50446008804289D
:1038B00031D8DFE800F00331121C2200FFF7CEFF01
:1038C000A0B340F24040C2F200000021016040F28B
:1038D000BC10C2F200000170B0BDE588D4F802103F
:1038E00004F10A002A46FCF7EAFC2581B0BDD4F8B1
:1038F0000200E28804F10A0106E0E28847F20000D3
:1039000004F10A01C0F60000FFF75EFF08B90020CD
:10391000E08000202081B0BDA17A40F2BC10C2F24C
:10392000000001220029027018BFB0BD4FF0FF3027
:103930002080B0BD10B540F2BC10C2F2000000788B
:1039400040BB40F24040C2F20000016844F62062F1
:103950000131914201601DD300210160FFF77EFF1C
:10396000C0B149F20004C4F2000404F54050FDF770
:1039700065FE2046FFF726F9EFF3108072B648F295
:103980000000C0F60000D0E9000180F30888BDE81F
:103990001040084710BD4CF20000C4F20000FDF7D3
:1039A000ABBE10B582B07C210022C4F20201CDE989
:1039B00000220A68D20648F2E472C3F6AC7207D558
:1039C0004A600B68102464F305030B6001234B600D
:1039D0004A600A684CF2000442F4006222F03F029E
:1039E0000A6001224A604FF44071C4F20004ADF84D
:1039F0000410009069462046FDF74BFE2046FDF777
:103A000091FE02B010BD10B546F20004C4F20204EB
:103A100020460D21FFF707FF20464FF400510022FA
:103A2000BDE81040FDF786BC40F2C012C2F20002B1
:103A3000106841F2883101308842106038BF704709
:103A400046F200000023C4F202004FF4005113605C
:103A5000FDF755BC88B04FF48170ADF8000049F215
:103A6000005041F26C05C0F6BA20C4F20205019084
:103A7000286841F20026C0F27A0610F5807F3046B1
:103A80003CBF2868000A0024C4F2020402904FF0F0
:103A900002100390012769462046ADF81070FEF72A
:103AA0002DFD10B90198FFF700FD8DF814702868FE
:103AB00005A910F5807F3CBF2868060A42F6002061
:103AC000C1F27550079020460696FEF705FC58B9DE
:103AD00002200221FEF72FF802200621FDF710FF39
:103AE00002200321FDF76AFFFDF737FE1420FFF7E0
:103AF0004BFE00F095F900BF00F025F8FFF71AFF24
:103B000000F09DF9FFF79EFDF6E780B5022000F07A
:103B10001CF84FF47A7000F0F9F843F6F750C0F64D
:103B2000000000F0E7F843F2F160C0F6000000F09A
:103B3000E7F84EF64801C0F201014AF65520BDE80B
:103B40008040FFF7CABD00F0E7B840F24441C2F23E
:103B500000014FF47A720A6040F2EC21C2F20001D7
:103B600000220A8040F2EE21C2F200010A7040F207
:103B7000DC11C2F200010A7040F2D411C2F200015D
:103B80000A6040F2CC11C2F200010A6040F2D81182
:103B9000C2F200010A6040F2C811C2F200010A60DC
:103BA00040F2BE11C2F200010A8040F2C411C2F21A
:103BB00000010870704710B540F2DC12C2F200023A
:103BC0001178002951D140F2BE1140F2EC2CC2F222
:103BD00000010023C2F2000C0B80BCF8003040F260
:103BE000DD1140F2EE2EC2F20001C2F2000EC85406
:103BF0009EF8000001330228ACF8003022D00128E2
:103C000005D048BB98B2022826D101202BE0487885
:103C100041280DD0102805D0032821D198B20728BB
:103C20000DD822E098B209281FD3CC880A3404E0CA
:103C300098B20D2819D34C890E3484420CD8022036
:103C40008EF80000087840F2C411C2F20001097831
:103C5000884205D10120107098B2B0F5877F04D357
:103C60000020ACF800008EF8000010BD70B582B0E6
:103C700040F2EC2314460022C2F200031A8040F204
:103C8000EE23C2F20003ADF806201A7040F2C4120F
:103C9000C2F20002127840F23035C2F200052A70FA
:103CA00041226A704268006805F10C06C5F80620DA
:103CB000C5F80200304622466C81FCF700FB04F197
:103CC0000C0082B20DF106002946FFF731FD40F2EB
:103CD000D410C2F200000268BDF8060030533AB1B9
:103CE00004F10E0081B240F23030C2F20000904781
:103CF00002B070BD40F2C811C2F200010860704706
:103D000040F2D411C2F200010860704740F2444111
:103D1000C2F20001086070472DE9F04182B040F224
:103D2000BE10C2F20000018840F24442C2F200021A
:103D300001311268018089B240F2EC2540F2EE2890
:103D40008A42C2F20005C2F2000804D800210180B4
:103D5000298088F8001040F2DC17C2F2000738789A
:103D600000210128ADF8061031D1288840F2DD1479
:103D7000C2F200040238265A82B20DF10600214632
:103D8000FFF7D6FCBDF8060086421BD160784128BB
:103D900008D010280BD0032814D140F2CC10C2F266
:103DA000000008E040F2C810C2F2000003E040F258
:103DB000D810C2F20000016821B140F2DD10C2F259
:103DC000000088470020288088F80000387002B082
:103DD000BDE8F081B0B514464AF65522904209D1AB
:103DE000002C08BFB0BD0D4615F8010BFFF7E3FE30
:103DF000013CF9D1B0BDB0B5841C05462046FFF7A3
:103E000053FDA878FF2803D1E878FF2808BFB0BD8C
:103E10006A8905F10C012046BDE8B040FFF726BFD6
:103E200080B54FF47A70FFF7BCFDFFF7ECFDFFF7AC
:103E30002EFDFFF76AFEBDE8804000F013B8FFF7E3
:103E4000AABD10B540F23E44C2F200042078013011
:103E5000C1B20529207018BF10BDFFF7E5FD002095
:103E6000207010BD70B586B001AC20461421FCF75F
:103E700068FAFDF766FD49F20006C4F20006054641
:103E80003046FEF7CFFF45F6C5212809C0F67C2154
:103E9000A0FB01010120ADF80400C8090290002038
:103EA000ADF80C0040F20110ADF80F00304621468D
:103EB000FEF77DFD3046FFF70BF906B070BD000040
:103EC00010B591EA030F48BF83F0004300F140832F
:103ED000841A71EB030C05D2121943EB0C03001B7F
:103EE00061EB0C014FEA1154A4EB135CDFF81CE109
:103EF0001EEA430F18BF9EEA445F73D021EA0451C3
:103F000023EA0E0343F48013DCF1200E32D322FAAD
:103F10000CFE10EB0E0023FA0CFE41EB0E01CCF16F
:103F2000200E03FA0EFE10EB0E00CCF1200E51F124
:103F30000001B1F5801F32D201EB045112FA0EF2EA
:103F4000BDE8104058BF7047401C38BF5FEA4202CE
:103F500018BF7047002814BF20F0010041F1000194
:103F60004FEA410313F5001F38BF7047A1F1C0416C
:103F700000F0E0BA012A43EB0302ACF1200CDCF1C3
:103F80001F0E32BF4FF0000E23FA0CF310EB0300AC
:103F900041EB0451B4EB115FD0D0A1EB045101F51A
:103FA0008011490801EB04515FEA30000ED350F153
:103FB000000038BF12FA0EFE08D1BDE81040C9E774
:103FC000401C38BF5FEA4202CAD1C3E7BDE81040D7
:103FD0004FEA410313F5001F38BF7047A1F1C041FC
:103FE00000F0A8BA9EEA445F08D011EA5E0FBDE86F
:103FF000104004BF01F0004100207047BDE81040B0
:1040000070B500F049FA00BF64FBBE3E0000E0FF5F
:104010002DE9C04130B4DFF8A0C23CEA111418BF4A
:104020003CEA131400F0EC801CEA111481EA030549
:1040300044EAD57418BF1CEA131500F0C780A4EB3E
:10404000050404F17F7404F500344FF0004545EA9F
:10405000C12145EAC32341EA505143EA52534FEA92
:10406000C0204FEAC222994208BF904200F09C80D3
:104070004FEA13650FF24016765D4FEA134506FBD3
:1040800005F7C7F1807706FB07F74FEAD737A7FB9D
:1040900003687642A7FB06CEC8F5803838BFA8F182
:1040A000010807FB08E6A6FB028C4FF0000EE6FBBA
:1040B00003CEDCF1000CCEF1004E38BFAEF1010EA4
:1040C000A6FB0C584FF00007E6FB0E87A1FB08C6C5
:1040D000A0FB07CE16EB0E064FF0000545F10005DC
:1040E000E1FB076515F1E04E7EBFA4F580345FEA81
:1040F00046066D4116F1800745F100054FEA172786
:1041000047EA05674FEA15254FEA0666A6F1DE463F
:10411000B6F1805F1FD9384605EBC47124F0010C5D
:1041200001EB0C11BCF1FE6F02D8F0BCBDE80081C0
:1041300024425CBF01F5801E9EEAC47F02D4F0BC1D
:10414000BDE80081244238D4A1F1C041F0BCBDE8F3
:10415000004100F0EFB94FEAD02040EA41504FEA69
:10416000D1214FEAD22242EA43524FEAD323A7FB9E
:10417000028607FB036605FB02661EEA0E0F58BFA8
:10418000A6EB0056B6EB00564FEA520E4EEAC37E3F
:1041900018EB0E0E56EB530EBDD518EB02085E4120
:1041A0007F1C55F10005B6E74FF480154FF000076E
:1041B0004FF000064FF00008ADE701F1C04101F0FB
:1041C00000414FF00000F0BCBDE800810CEA13157F
:1041D00011EA0C1F00D00CE013EA0C1F00F0258040
:1041E0004FF0000081EA030101F00041F0BCBDE89E
:1041F0000081F0BCBDE8004181EA030100F09AB9FA
:10420000F0BCBDE8004170B500F046F9097EFC3E07
:1042100000F007B84FF0000081EA030101F000410F
:10422000704781EA030100F085B9F0BCBDE80041A8
:1042300022494FF000007047FFFDFBF9F7F5F4F25B
:10424000F0EEEDEBE9E8E6E4E3E1E0DEDDDBDAD831
:10425000D7D5D4D3D1D0CFCDCCCBCAC8C7C6C5C48F
:10426000C2C1C0BFBEBDBCBBBAB9B8B7B6B5B4B3A6
:10427000B2B1B0AFAEADACABAAA9A8A8A7A6A5A491
:10428000A3A3A2A1A09F9F9E9D9C9C9B9A99999855
:104290009797969595949393929191908F8F8E8EF8
:1042A0008D8C8C8B8B8A8989888887878685858485
:1042B00084838382828181800000FF070000F87F71
:1042C0004FEA41034FEA5353A3F58063D3F11E0332
:1042D000C8BFD3F1210C0CDD4FF0004242EAC122ED
:1042E00042EA505232FA03FC8CEAE17CACEBE1701A
:1042F0007047102BC4BF0020704703F5787CBCF1D9
:10430000FF3F04D06FF0004282EA2100704770B591
:1043100000F0C2F84992248000207047F2E7B0FA1A
:1043200080F310FA03F10AD0C3F11D0303F5806393
:104330004FEA03524FEA415002EBD12170474FF050
:104340000000704770B5DFF848C11CEA111E1EBF9F
:104350001CEA13159EEA0C0F95EA0C0F00F06F8013
:1043600081EA03044EEAD47EAE4421EA4C1123EAEA
:104370004C1341F4801143F48013AEF17F7EA1FB16
:10438000024CA0FB0365361955EB0C05A1FB034C51
:104390004CF10003A0FB021C16EB0C06654153F127
:1043A0000003094218BF46F0010613F4007F0BD149
:1043B0004FEA03314FEA053041EA155140EA165001
:1043C00034036FF003020AE04FEAC3214FEAC5202D
:1043D00041EA555140EA5650F4026FF0020202EBF6
:1043E0002E4201EB025585EACE710AD05FEA440CF9
:1043F00018BF24F0004450F1000041F1000120EA10
:10440000D47040F2FE7C624500D270BDA84214BF59
:104410004FF080444FF04044002E08BF0024BEF10E
:10442000806FA8BFA1F1C041BDE8704080F28280DA
:1044300001F1C04101F000414FF0000070470CEA6B
:1044400013159EEA0C0F18BF95EA0C0F06D081EAEF
:10445000030E4FF000000EF0004170BD00F01CF89C
:104460008900013E00F007B800F009B84FEA430C9C
:104470005FEA5C5C08D081EA030100F05BB84FEAB8
:10448000410C5FEA5C5CF6D102494FF000007047D6
:104490000000FF070000F87F0EF1020E2EF0030E61
:1044A0005EF8046B364205D4012A43EB030515F58B
:1044B000001F12D8012841EB010C1CF5001F0CD87D
:1044C0000ED14FEAD17C0CEB4C0C0CF1020C15F523
:1044D000001F08BF4CEBD37C04E04FF0080C01E058
:1044E0004FEAD37C0CEB4C0526FA05F606F00706DE
:1044F000B6F1040C06D20EEB860CBDE870404CF011
:10450000010C6047DFE80CF0090B02024FF000419C
:10451000A1F500214FF0000070BD1946104601289A
:1045200051EB010418BFD4F5001484BF002001F042
:10453000004170BD0808A0F500114FEA3101704735
:1045400010B591EA030F48BF83F000433FF5C0ACBC
:10455000841A71EB030C07D28CF0004C121943EB58
:104560000C03001B61EB0C014FEA1154A4EB135C2C
:10457000DFF89CE11EEA430F18BF9EEA445F00F09B
:10458000B08021EA045123EA6E035242C3EB6E036A
:1045900038BF5B1EDCF1200E25D322FA0CFE10EB97
:1045A0000E0043FA0CFE41EB0E01CCF1200E03FA93
:1045B0000EFE10EB0E00CCF1200E51F1000129D4BB
:1045C00001EB045112FA0EF2BDE8104058BF7047DB
:1045D000401C1CBFB2F1004F704700280CBF491CA3
:1045E00020F00100704712EB020E43EB030218BFEC
:1045F0004FF0010E4EEA4202ACF1200CDCF11E0E2F
:1046000054D943FA0CFE10EB0E00CCF11E0E51F102
:10461000FF31D5D50EF1010E12FA0EFE404141EBED
:10462000010101EB445C5FEA5C5C10D901EB0451D1
:1046300010EBDE7038BFBEF1004FBDE8104018BF70
:10464000704700280CBF491C20F00100704730D291
:104650004FEAD42C24F4006411F500111BD0B1FAF8
:1046600081F20B3AA41AA41ED2F12003914030FA31
:1046700003F31943904001EBCC7101EB0451002C82
:10468000BDE81040A8BF704701F1C04101F00041F2
:104690004FF000007047B0FA80F310FA03F100D138
:1046A00010BDE41A173C4805C90AE4E701EB0451C0
:1046B00010BD49104FEA300001EB0451BDE8104035
:1046C00002E04FF0000170474A0008BF0042F8D0F6
:1046D000B2F5001F28BF704701F000414FF0000005
:1046E00070479EEA445F07D011EA5E0FBDE81040B4
:1046F00004BF002100207047BDE8104070B5FFF7EF
:10470000CBFE00BF40DFF63E104683F0004170470D
:104710000000E0FFF1EE100A4FF6FF71C0F2C03169
:1047200020EA010040F04070E1EE100A70470000FE
:104730002110422063308440A550C660E770088194
:1047400029914AA16BB18CC1ADD1CEE1EFF131120B
:10475000100273325222B5529442F772D6623993E4
:1047600018837BB35AA3BDD39CC3FFF3DEE362245B
:10477000433420040114E664C774A44485546AA534
:104780004BB528850995EEE5CFF5ACC58DD55336EB
:10479000722611163006D776F6669556B4465BB784
:1047A0007AA719973887DFF7FEE79DD7BCC7C448BB
:1047B000E5588668A7784008611802282338CCC9D4
:1047C000EDD98EE9AFF9488969990AA92BB9F55A4B
:1047D000D44AB77A966A711A500A333A122AFDDB24
:1047E000DCCBBFFB9EEB799B588B3BBB1AABA66C1B
:1047F000877CE44CC55C222C033C600C411CAEED74
:104800008FFDECCDCDDD2AAD0BBD688D499D977E2A
:10481000B66ED55EF44E133E322E511E700E9FFFC3
:10482000BEEFDDDFFCCF1BBF3AAF599F788F889179
:10483000A981CAB1EBA10CD12DC14EF16FE180105D
:10484000A100C230E3200450254046706760B98360
:104850009893FBA3DAB33DC31CD37FE35EF3B102AD
:104860009012F322D2323542145277625672EAB570
:10487000CBA5A89589856EF54FE52CD50DC5E234FD
:10488000C324A01481046674476424540544DBA740
:10489000FAB79987B8975FE77EF71DC73CD7D3264D
:1048A000F2369106B01657667676154634564CD9D0
:1048B0006DC90EF92FE9C899E9898AB9ABA944589D
:1048C000654806782768C018E1088238A3287DCBA0
:1048D0005CDB3FEB1EFBF98BD89BBBAB9ABB754AED
:1048E000545A376A167AF10AD01AB32A923A2EFD30
:1048F0000FED6CDD4DCDAABD8BADE89DC98D267C3D
:10490000076C645C454CA23C832CE01CC10C1FEF7F
:104910003EFF5DCF7CDF9BAFBABFD98FF89F176E8C
:10492000367E554E745E932EB23ED10EF01E0000C0
:1049300000000000B71DC1046E3B8209D926430D5B
:10494000DC7604136B6BC517B24D861A0550471EF3
:10495000B8ED08260FF0C922D6D68A2F61CB4B2B93
:10496000649B0C35D386CD310AA08E3CBDBD4F383B
:1049700070DB114CC7C6D0481EE09345A9FD5241DB
:10498000ACAD155F1BB0D45BC2969756758B565273
:10499000C836196A7F2BD86EA60D9B6311105A6713
:1049A00014401D79A35DDC7D7A7B9F70CD665E74BB
:1049B000E0B6239857ABE29C8E8DA191399060951B
:1049C0003CC0278B8BDDE68F52FBA582E5E6648633
:1049D000585B2BBEEF46EABA3660A9B7817D68B353
:1049E000842D2FAD3330EEA9EA16ADA45D0B6CA07B
:1049F000906D32D42770F3D0FE56B0DD494B71D99B
:104A00004C1B36C7FB06F7C32220B4CE953D75CAB2
:104A100028803AF29F9DFBF646BBB8FBF1A679FFD2
:104A2000F4F63EE143EBFFE59ACDBCE82DD07DECFA
:104A300077708634C06D4730194B043DAE56C5398A
:104A4000AB0682271C1B4323C53D002E7220C12AC2
:104A5000CF9D8E1278804F16A1A60C1B16BBCD1FC2
:104A600013EB8A01A4F64B057DD00808CACDC90C0A
:104A700007AB9778B0B6567C69901571DE8DD4750A
:104A8000DBDD936B6CC0526FB5E6116202FBD06642
:104A9000BF469F5E085B5E5AD17D1D576660DC5342
:104AA00063309B4DD42D5A490D0B1944BA16D8408A
:104AB00097C6A5AC20DB64A8F9FD27A54EE0E6A1CA
:104AC0004BB0A1BFFCAD60BB258B23B69296E2B282
:104AD0002F2BAD8A98366C8E41102F83F60DEE8702
:104AE000F35DA9994440689D9D662B902A7BEA94CA
:104AF000E71DB4E0500075E4892636E93E3BF7ED4A
:104B00003B6BB0F38C7671F7555032FAE24DF3FE01
:104B10005FF0BCC6E8ED7DC231CB3ECF86D6FFCB81
:104B20008386B8D5349B79D1EDBD3ADC5AA0FBD849
:104B3000EEE00C6959FDCD6D80DB8E6037C64F64A9
:104B40003296087A858BC97E5CAD8A73EBB04B7761
:104B5000560D044FE110C54B383686468F2B474221
:104B60008A7B005C3D66C158E4408255535D4351E9
:104B70009E3B1D252926DC21F0009F2C471D5E2829
:104B8000424D1936F550D8322C769B3F9B6B5A3BE1
:104B900026D6150391CBD40748ED970AFFF0560EA1
:104BA000FAA011104DBDD014949B93192386521D69
:104BB0000E562FF1B94BEEF5606DADF8D7706CFC69
:104BC000D2202BE2653DEAE6BC1BA9EB0B0668EFA1
:104BD000B6BB27D701A6E6D3D880A5DE6F9D64DAE1
:104BE0006ACD23C4DDD0E2C004F6A1CDB3EB60C929
:104BF0007E8D3EBDC990FFB910B6BCB4A7AB7DB0E9
:104C0000A2FB3AAE15E6FBAACCC0B8A77BDD79A320
:104C1000C660369B717DF79FA85BB4921F46759660
:104C20001A163288AD0BF38C742DB081C3307185A8
:104C300099908A5D2E8D4B59F7AB085440B6C950F8
:104C400045E68E4EF2FB4F4A2BDD0C479CC0CD4310
:104C5000217D827B9660437F4F460072F85BC17670
:104C6000FD0B86684A16476C93300461242DC56598
:104C7000E94B9B115E565A1587701918306DD81C78
:104C8000353D9F0282205E065B061D0BEC1BDC0F90
:104C900051A69337E6BB52333F9D113E8880D03AF0
:104CA0008DD097243ACD5620E3EB152D54F6D42918
:104CB0007926A9C5CE3B68C1171D2BCCA000EAC838
:104CC000A550ADD6124D6CD2CB6B2FDF7C76EEDBD0
:104CD000C1CBA1E376D660E7AFF023EA18EDE2EEB0
:104CE0001DBDA5F0AAA064F4738627F9C49BE6FD58
:104CF00009FDB889BEE0798D67C63A80D0DBFB84B8
:104D0000D58BBC9A62967D9EBBB03E930CADFF974F
:104D1000B110B0AF060D71ABDF2B32A66836F3A22F
:104D20006D66B4BCDA7B75B8035D36B5B440F7B1D7
:104D300000127A00002A751501001600008000009C
:104D4000030000000200000000127A000057A616BF
:104D50000100170000C00000030000000200000076
:104D600000127A000084D71701001900000000002B
:104D7000030000000200000000127A0000B10819D0
:104D800001001A00004000000300000002000000C3
:104D900000127A0000DE391A01001B0000800000BA
:104DA000030000000200000000127A00000B6B1BE1
:104DB00001001C0000C00000030000000200000011
:104DC00000127A0000389C1C01001E000000000048
:104DD0000300000002000000001BB700002A751548
:104DE00001000F00000000000300000002000000AE
:104DF000001BB7000057A61601000F0055D5000094
:104E00000300000002000000001BB7000084D71759
:104E100001001000AAAA0000030000000200000028
:104E2000001BB70000B1081901001100008000004C
:104E30000300000002000000001BB70000DE391A6A
:104E400001001200555500000300000002000000A0
:104E5000001BB700000B6B1B01001300AA2A000007
:104E60000300000002000000001BB70000389C1C7B
:104E70000100140000000000030000000200000018
:104E800000127A0000E1F505010006000040000074
:104E9000000000000200000000127A0080778E06F9
:104EA0000100060000E00000000000000200000019
:104EB00000127A00000E27070100070000800000A2
:104EC000000000000200000000127A0080A4BF076A
:104ED00001000800002000000000000002000000A7
:104EE00000127A00003B58080100080000C00000D2
:104EF000000000000200000000127A0080D1F008DB
:104F00000100090000600000000000000200000035
:104F100000127A000068890901000A000000000000
:104F2000000000000200000000127A0080FE210A4A
:104F300001000A0000A000000000000002000000C4
:104F400000127A000095BA0A01000B000040000030
:104F5000000000000200000000127A00802B530BBA
:104F600001000B0000E00000000000000200000053
:104F700000127A0000C2EB0B01000C000080000060
:104F8000000000000200000000127A008058840C2B
:104F900001000D00002000000100000002000000E0
:104FA00000127A0000EF1C0D01000D0000C000008F
:104FB000010000000200000000127A008085B50D9B
:104FC00001000E000060000001000000020000006F
:104FD000F04F0008000000200C000000D001000885
:104FE000FC4F00080C00002044050000EC01000804
:0C4FF00000127A00010000000F00000019
:040000050800019559
:00000001FF
