:020000040800F2
:108000000000012039B3000831B30008018C0008DA
:108010002DB3000899870008D5B5000800000000BE
:1080200000000000000000000000000041B3000854
:10803000F98B00080000000035B3000845B30008C4
:10804000FD8B0008FD8B0008FD8B000891B3000834
:10805000FD8B0008FD8B0008FD8B0008FD8B0008E0
:10806000FD8B0008FD8B0008FD8B00089D87000834
:10807000FD8B0008FD8B0008FD8B0008FD8B0008C0
:10808000FD8B0008FD8B0008FD8B0008FD8B0008B0
:10809000FD8B0008FD8B0008FD8B0008FD8B0008A0
:1080A000FD8B0008010F0010CD210010FD8B000892
:1080B000FD8B0008FD8B0008FD8B0008FD8B000880
:1080C000FD8B0008FD8B0008FD8B0008FD8B000870
:1080D000FD8B0008FD8B0008FD8B0008FD8B000860
:1080E000FD8B0008FD8B0008FD8B0008FD8B000850
:1080F000FD8B0008FD8B0008FD8B0008FD8B000840
:10810000FD8B0008FD8B0008FD8B0008FD8B00082F
:10811000FD8B0008FD8B0008FD8B0008FD8B00081F
:10812000FD8B0008FD8B0008FD8B0008FD8B00080F
:10813000FD8B0008FD8B0008FD8B0008010000107E
:10814000FD8B0008FD8B0008FD8B0008FD8B0008EF
:10815000FD8B0008FD8B0008FD8B0008FD8B0008DF
:10816000FD8B0008FD8B0008FD8B0008FD8B0008CF
:10817000FD8B0008FD8B0008FD8B0008FD8B0008BF
:10818000FD8B0008FD8B0008FD8B0008FD8B0008AF
:10819000FD8B0008FD8B0008FD8B0008FD8B00089F
:1081A000DFF80CD000F0CCF90048004759BB0008BC
:1081B0000000012030B504460020034600E05B1CAF
:1081C000934203D2E05CCD5C401BF8D030BD2DE97A
:1081D000F05F0546002092469B468846064681464B
:1081E00040241BE0284641464746224600F0C9F994
:1081F00053465A46C01A914110D31146184622469A
:1082000000F0B0F92D1A67EB01084F462246012015
:10821000002100F0A7F917EB00094E41201EA4F140
:108220000104DFDC484631462A464346BDE8F09F5C
:108230002DE9FE4F804681EA0300C00F0C460090F6
:1082400021F0004123F00045B8EB0200A94105D21E
:108250004046214690461C460B46024623F000400D
:10826000104347D0270DC7F30A00C3F30A51029009
:10827000401A019040286BDAC3F3130040F4801BCE
:108280000098924620B10023D2EB030A63EB0B0B5C
:1082900001985946C0F14002504600F063F9064685
:1082A0000D4650465946019A00F07BF910EB080044
:1082B0006141002487EA115284EAE7731A4340D0EF
:1082C000009A62B3019A012A4FEA075215DC001B9B
:1082D00061EB02014FF0004202EA0752CDE9004291
:1082E000001C41F5801132462B4600F07BF903B0AB
:1082F000BDE8F08F40462146F9E7001B61EB020123
:10830000001C41F5801300185B412018A2F50017EE
:1083100047EB030140EAD570B6196D4111E06D08D5
:108320004FEA360645EAC0754FEA0752001B61EB7B
:108330000201001C41F5801149084FEA3000001984
:10834000514132462B4603B0BDE8F04F00F03BB937
:108350000098012240000023D0EB020263EBE0739F
:10836000009821464FEAE074B8EB000061EB04018D
:10837000E9E783F000435BE781F0004158E72DE92E
:10838000FE4F81EA030404F0004421F00041009410
:108390004FF0000B23F0004350EA01045ED052EA94
:1083A00003045BD0C3F30A54C1F30A552C44A4F26E
:1083B000F3340194A0FB0254C1F3130141F4801182
:1083C000C3F3130343F4801301FB024400FB034E89
:1083D000840A970A44EA815447EA8357A4FB076852
:1083E00002958D0A05FB07854FEA932C04FB0C547C
:1083F0002705029D4FEA065847EA1637B5EB0805F0
:108400006EEB070C870E920E47EA811742EA831241
:10841000A7FB0201B6EB0B0164EB00042B0D43EA52
:108420000C335E1844EB1C50DA465146E7FB020160
:10843000C5F313044FEA0B3343EA14534FEA0432F3
:10844000019C43EA0603A4F10C040294009CCDE9CC
:1084500000B400F0C7F803B0BDE8F08F002001467B
:10846000F9E72DE9F04D81EA030404F0004B21F017
:10847000004514464FF0000A23F0004150EA05027F
:1084800020D054EA01021DD0C5F30A570246C5F3B5
:108490001303C1F31300C1F30A5640F4801543F4EB
:1084A0008013A7EB0608101BD64608F2FD3873EBC5
:1084B000050002D308F1010801E092185B41B8F110
:1084C000000F03DA00200146BDE8F08D00204FF4D4
:1084D0008011064684460EE0171B73EB050705D393
:1084E000121B63EB050306434CEA010C49084FEAF3
:1084F000300092185B4150EA0107EDD152EA0300C7
:1085000012D082EA040083EA0501084305D0101B5B
:10851000AB4106D20122002306E000224FF00043C7
:1085200002E06FF0010253101AEB06004CEB085109
:1085300010EB0A0041EB0B01BDE8F04D00F043B831
:10854000064C074D06E0E06840F0010394E80700A0
:1085500098471034AC42F6D3FFF726FE78F30008B4
:10856000B8F30008202A04DB203A00FA02F10020C8
:1085700070479140C2F1200320FA03F31943904061
:108580007047202A04DB203A21FA02F000217047CC
:1085900021FA02F3D040C2F120029140084319466B
:1085A0007047202A06DBCB17203A41FA02F043EA53
:1085B000E07306E041FA02F3D040C2F1200291409C
:1085C00008431946704710B5141E73F1000408DA09
:1085D000401C41F1000192185B411A4301D120F087
:1085E000010010BD2DE9F04D92469B4611B1B1FA44
:1085F00081F202E0B0FA80F220329046FFF7B2FF3B
:1086000004460F4640EA0A0041EA0B0153465A4627
:10861000084313D0114653EA010019D0C8F14002B3
:108620005046FFF7AEFF05460E46504659464246B5
:10863000FFF798FF084305D0012004E020463946A3
:10864000BDE8F08D0020054346EAE0762C43374331
:108650000A986305E40AA0EB08000022FD0A44EA38
:1086600047540A3002D500200146E9E701051019F8
:108670006941DDE9084500196941BDE8F04DA2E70F
:1086800010B5431A934209D28318881803E010F8F2
:10869000011D03F8011D521EF9D210BD40EA01036D
:1086A0009B0703D009E008C9121F08C0042AFAD2A8
:1086B00003E011F8013B00F8013B521EF9D210BD56
:1086C000D2B201E000F8012B491EFBD27047002214
:1086D000F6E710B513460A4604461946FFF7F0FFC1
:1086E000204610BD30B5041E71F1000404DB4FF0CC
:1086F0000044404264EB0101141E73F1000405DBE9
:108700001C464FF00043524263EB0403801A994128
:1087100001D2012030BD002030BD0EB540F2334102
:1087200002910021CDE900110A460B46FFF75AFFDE
:1087300003B000BD70B5C1F30A5201F0004500243A
:10874000C1F3130140F2FF3341F480119A4201DA80
:10875000002070BD40F233439A42A2F2334203DC60
:108760005242FFF70EFF00E090402C43F1D0404210
:1087700070BD00F0004230F000400AD0C10D01F59C
:108780006071C0F3160042EA0151C208400711436C
:108790007047002001467047FEE700002DE9F04FCA
:1087A00081B045F20C07C4F2010757F804ACD7F8C2
:1087B00000B00BEA0A06300640F1CD808020386018
:1087C00044F21010C2F20000016F19B1016FA7F15D
:1087D0000C00884744F69015C2F20005A8680028EE
:1087E00040F0B980A86805EBC0004069A96820F096
:1087F000604405EB811090F81D904AF655208442A4
:1088000011D045F2E500C1F6FF0084420BD044F2DE
:108810008838C2F20008404603F0D8F8B8B1D8F85A
:108820000C00A04213D1A86805EB8010007F02283D
:1088300003D1B9F1410F0AD163E1A868B9F1410F41
:1088400005D105EB8010007F012800F05A81B4F5B6
:10885000302F25D04AF65520844204D0202C23D135
:10886000484620212AE0A86805EB8010007F0228F6
:1088700005D0A86805EB8010007F012820D1A868EA
:1088800005EB8010407F41281AD1A86805EB8010C5
:10889000007F012840F03E814AF6552002F07EFF1D
:1088A00048464FF4302109E044F2FC30C2F20000A7
:1088B000D0F86003844203D14846214605F0E1FF29
:1088C000A8680130A860A86800281CBF0020A86024
:1088D0002C6844F20000C4F20100AA68A96884422E
:1088E00044F21010C2F2000007D045F20003C4F2B7
:1088F00001039C4240F0FD805430037E012B13D1D4
:10890000042305EBC20205EB8111037648F6193307
:1089100014321C31C0F60003C36101614261A068DA
:1089200040F08000A06016E04FF2B900C0F60000F1
:1089300005F0ACFF4EF6F870C0F60000214605F0D9
:10894000A5FF4FF273304FF27531C0F60000C0F64C
:10895000000105F09BFF700644BF40203860B00660
:1089600044BF20203860F00644BF10203860300734
:108970000BD50820386044F21010C2F20000816D5F
:1089800019B1816DA7F10C00884770070BD5042041
:10899000386044F21010C2F20000016E19B1016E8D
:1089A000A7F10C008847B00744BF0220386041F2AD
:1089B0004000C4F20200016801F47F01B1F5003FFC
:1089C00017D95FEA8A3119D51BF0010116D00121B0
:1089D000396044F21011C2F20001052281F85420DE
:1089E00081F85C2081F86C2081F87C2081F88C2053
:1089F00004E05FEACB711CBF01213960710544BFFF
:108A00004FF480613960B10544BF4FF400713960A3
:108A1000F10544BF4FF480713960006800F47F00B5
:108A2000B0F5403F62D3300544BF4FF4006038607A
:108A3000F0040ED54FF48050386044F21010C2F2AA
:108A40000000D0F8901021B1D0F89010A7F10C00E0
:108A50008847B0040ED54FF40050386044F210102F
:108A6000C2F20000D0F8801021B1D0F88010A7F138
:108A70000C008847700344BF4FF4802038603003F7
:108A800044BF4FF400203860F00244BF4FF4801020
:108A90003860B00244BF4FF400103860700244BF29
:108AA0004FF480003860300244BF4FF4000038605B
:108AB000F00144BF4FF080703860B00144BF4FF008
:108AC00000703860700144BF4FF080603860300142
:108AD00044BF4FF000603860F00044BF4FF080505A
:108AE0003860B00044BF4FF00050386001B0BDE8BE
:108AF000F08F4FF28620C0F6000040F2F65102F0EF
:108B000081FDA86805EB8010007F012802D1204676
:108B100002F044FE02F064FDB0B584B0044644F2B5
:108B20000000C4F2010044F210158442C2F20005B4
:108B300006D045F20000C4F20100844253D15435FE
:108B4000A06820F08000A0606869E0B3206C6969CB
:108B50000860606C696948602869A0B345F2000349
:108B600028696A6944F48051C4F20103994204F10E
:108B7000480125D140F20013C0F20233009340F2C5
:108B80000453C0F20673019340F60843C1F2104348
:108B90005268029342F21803C4F2300302F00F024B
:108BA00003936B4613F802E0D4F800C07246BEF19E
:108BB000080F28BF08225FEA4C3348BF724600E026
:108BC0000022FFF75DFD206840F480102060002047
:108BD000E86101202876A86C18B104B0BDE8B04067
:108BE000004704B0B0BD4FF28620C0F600004FF43D
:108BF000186102F007FD000070470000FEE700006A
:108C0000FEE70000B0B5A0F18042A2F560324FEA65
:108C1000B222042A78D200297ED00C78142C80F05D
:108C2000838091F801C0BCF1040F80F08580032A95
:108C300088BFB0BD132C98BFBCF1030F00D9B0BDE5
:108C4000026852075CBF02685FEA027214D54FF2F5
:108C50009E00C0F6000005F019FE3BA006F068F883
:108C60004FF273304FF27531C0F60000C0F60001CC
:108C7000BDE8B04005F00ABE4AF6AB224FEAD40E7A
:108C8000CAF6AA22AEFB02235A0802EB4202C2EB4A
:108C9000D40200EB82021C23D2F830E003EA840302
:108CA00003249C400CFA03F52EEA040E2C404EEAF5
:108CB00004051563D2F830E08D78033301249C401D
:108CC00005FA03F32EEA040E234043EA0E0313636E
:108CD0000C238A8803EA8C031844C0F8A02041F2D0
:108CE0004002C4F202021268C98802F47F02B2F59F
:108CF000003F04D96FF3DF31C0F8C010B0BD6FF38F
:108D00009F31C0F8C010B0BD4FF2D010C0F60000C7
:108D100040F2B72102F076FC4FF2D010C0F600000E
:108D20004FF42E7102F06EFC4FF2D010C0F600002E
:108D300040F2B92102F066FC4FF2D010C0F60000FC
:108D400040F2BA2102F05EFC4144432043616C6969
:108D500062726174696F6E2063616E277420436F65
:108D60006E666967207768696C652069742773206F
:108D700052756E6E696E67210000000070B5A0F13B
:108D80008042A2F560324FEAB222042A7ED2002944
:108D900000F084800B78142B80F08880032A88BF31
:108DA00070BD026852075CBF02685FEA027214D5A8
:108DB0004FF29E00C0F6000005F068FD3FA005F0F0
:108DC000B7FF4FF273304FF27531C0F60000C0F6B6
:108DD0000001BDE8704005F059BD4CF6CD42CCF61F
:108DE000CC42A3FB022C4FEA1C1202EB8202D1F808
:108DF00008E000F5C874A3EB820C04EB0C1541F2FB
:108E00004002C5F804E0C4F20202D2F800E08A8908
:108E10000EF47F0E16466FF35F364FEA0C13BEF565
:108E2000003F88BF1646AE60E2584E7822F004023A
:108E300006F03F0642EA86028D7891F803E0E250A0
:108E4000E25805F01F0522F0080242EAC502E2508E
:108E5000012202FA0CFCD0F88421BEF1000F0CBFF5
:108E600022EA0C0242EA0C02C0F8842109790029A6
:108E7000D0F88C110CBF21EA0C0141EA0C01C0F8BA
:108E80008C11E05840F00100E05070BD4FF2D0105E
:108E9000C0F6000040F2922102F0B4FB4FF2D01075
:108EA000C0F6000040F2932102F0ACFB4FF2D0106C
:108EB000C0F600004FF4257102F0A4FB41444320AA
:108EC000444D412063616E277420436F6E6669676D
:108ED000207768696C6520697427732052756E6EFF
:108EE000696E6721000000002DE9F04784B0044658
:108EF000A0F18040A0F560304FEAB020042880F057
:108F00003E810D46002900F04281206840075CBF89
:108F100020685FEA007015D54FF29E00C0F6000091
:108F200005F0B4FC9EA005F003FF4FF273304FF242
:108F30007531C0F60000C0F6000104B0BDE8F0478E
:108F400005F0A4BCE8684EF6545AC0F6000A0028A2
:108F500018BF824600200390019048F6000044F2BA
:108F60000008C4F20300C4F2020884424FF00F006C
:108F700002901ED048F20040C4F20300844226D082
:108F800048F20000C4F2030084424ED101AF4FF01A
:108F9000010940463946CDF8049001F097FA0420C3
:108FA000019008F58050394601F090FA08260196A4
:108FB00021E0012008F58057019001A9384601F011
:108FC00085FA02204FF004092026019014E001AF39
:108FD0004FF0020940463946CDF8049001F076FA88
:108FE00046F200001026C4F202003946019601F054
:108FF0006DFA80200190474601A9384601F066FAD3
:109000004C2048F2E471C4F20200C3F6AC71416333
:10901000016931430161016841EA09010160016AA6
:1090200041F00801016201214163A06840F008009D
:10903000A060A06840F00200A060A06840F00100BD
:10904000A060D4F80003298861F31120C4F800035C
:10905000D4F80003A978EA7861F30300C4F80003A8
:10906000606862F3CF306060A0689AF8001061F326
:109070000510A0604DF24000CFF6FF7058F80000D8
:1090800000F47F00B0F5003F10D944F26430C2F222
:1090900000000068C00709D09AF801106068002934
:1090A0000CBF20F4804040F480406060206840079E
:1090B0005CBF20685FEA007007D54FF29E00C0F6E3
:1090C000000005F0E3FB3FA02DE761686A7928798D
:1090D00062F30B21AB79EF796160616807F00102FF
:1090E00063F306116160616821F0800141EAC211F9
:1090F0006160297A6268002942F0010308BF22F00A
:1091000001036360697A6268002942F0020308BFC4
:1091100022F0020363606168002841F4805208BFB6
:1091200021F480526260206840F00100206044F623
:109130005020C2F2000001682269D20519D40268E9
:10914000521A642A18D82269D20512D40268521A17
:10915000642A11D82269D2050BD40268521A642AF3
:109160000AD82269D20504D40268521A642AE3D9C3
:1091700002E04FF48070206104B0BDE8F0874FF248
:10918000D010C0F6000040F2291102F03BFA4FF275
:10919000D010C0F600004FF4957102F033FA00BF12
:1091A0004144432063616E277420496E69742077BF
:1091B00068696C6520697427732052756E6E696EDC
:1091C00067210000414443204F76657273616D70E2
:1091D0006C652063616E277420436F6E666967203B
:1091E0007768696C6520697427732052756E6E69A3
:1091F0006E6721002DE9F041A0F18042A2F56032B6
:109200004FEAB224042C80F08E80002900F0938075
:109210004A78142A80F097800B78102B80F09B807E
:10922000032C88BFBDE8F081132A98BF0F2B01D90A
:10923000BDE8F0810468640758D44CF6CD4ECCF6F6
:10924000CC4EA3FB0E4C4AF6AB254FEA9C06D40845
:10925000CAF6AA2506EB8606A4FB0558A2FB0E5EFD
:109260009B1BCCF3810503EB430300EB85055B00FF
:109270002F6CDBB21F269E4002FA03F3B743334044
:109280003B432B648369CF784FF0010C07F0010753
:109290000CFA02F69740B34337403B438D78097987
:1092A00083614FEA580303EB4303C3EBD20300EBA4
:1092B00083031C261F6A06EA8206072401F00701C1
:1092C000B440B140A7432140394319624FEA1E110F
:1092D00001EB8101A2EB81010CFA01F1DDB1D0F8C3
:1092E00004211143C0F80411BDE8F0814FF29E0043
:1092F000C0F6000005F0CAFA1BA005F019FD4FF2F8
:1093000073304FF27531C0F60000C0F60001BDE8C1
:10931000F04105F0BBBAD0F8042122EA0101C0F8FF
:109320000411BDE8F0814FF2D010C0F6000040F209
:10933000EF1102F067F94FF2D010C0F600004FF4C1
:10934000F87102F05FF94FF2D010C0F6000040F261
:10935000F11102F057F94FF2D010C0F600004FF4AF
:10936000F97102F04FF900BF41444320526567751F
:109370006C6172204368616E6E656C2063616E275C
:109380007420436F6E666967207768696C65206931
:109390007427732052756E6E696E6721000000009D
:1093A00010B5A0F18042A2F560324FEAB222042A41
:1093B00043D2002949D00268520729D442684B7829
:1093C00091F800C063F3D75291F802E0CC78426084
:1093D0004268BCF1000F6EF353424260426842F4AF
:1093E000803308BF22F480334360026D64F30B22A4
:1093F0000265026D0B7922F0C00203F0030342EA1A
:1094000083120265026D497961F30402026510BDA1
:109410004FF29E00C0F6000005F038FA0FA005F0EC
:1094200087FC4FF273304FF27531C0F60000C0F682
:109430000001BDE8104005F029BA4FF2D010C0F687
:10944000000040F2CD1102F0DDF84FF2D010C0F66E
:1094500000004FF4E77102F0D5F800BF414443200B
:10946000526567756C617220436F6D6D6F6E20631E
:10947000616E277420436F6E666967207768696C38
:109480006520697427732052756E6E696E672100BE
:109490002DE9F04184B0002800F0B48044F2101EA1
:1094A000C2F2000E9EF8542045F20008012AC4F2D0
:1094B000010847D1D8F80020920500F1A0800322CE
:1094C00000238EF85420CEF85830D8F80020002918
:1094D00022F48052C8F800200268C8F88820426848
:1094E000C8F88C2000F0828040F20012C0F20232F4
:1094F000009240F20452C0F20672019240F6084215
:10950000C1F210424068029242F21802C4F23002E4
:1095100000F00F0003926A46165CD8F8002030462F
:10952000082E28BF0820520348BF30460330B3EB53
:10953000900F5BD08008421E032A00F0030C18D263
:10954000002333E04FF2B900C0F6000005F09EF9A9
:1095500030A0414605F09AF94FF273304FF2753161
:10956000C0F60000C0F6000104B0BDE8F04105F00F
:109570008DB9A0EB0C000023302208F1900500BF4C
:109580000E6802EA8307EE514E683C1D2E518C682E
:1095900007F10806AC5101F11006C96807F10C0487
:1095A0000433295198423146EAD13146BCF1000FCB
:1095B0001CD0086803F00F0208EB8202BCF1010F17
:1095C000C2F8900012D0581C4A6800F00F0008EB57
:1095D0008000BCF1020FC0F8902007D0981C896869
:1095E00000F00F0008EB8000C0F89010D8F80000E1
:1095F00040F40070C8F8000001208EF8540004B058
:10960000BDE8F0814FF28620C0F6000040F2D7316D
:1096100001F0F8FF546869732043414E5B307825B0
:109620003038785D205054422054782069736E277A
:109630007420696E205245414459207374617465E9
:109640002C2063616E2774207374617274205478C7
:10965000210A000010B5A0F18042A2F568324FEA5D
:109660003222092A7ED2002900F083805C2248F24F
:10967000E473C4F20202C3F6AC735362136843F49A
:1096800080731360136943F0200313610123536255
:10969000036841F2400223F00103C4F202020360B6
:1096A000136803F47F03B3F5003F14D944F2643325
:1096B000C2F200031B685B0712D54B7A1268002BBD
:1096C00002F47F0246D0B2F5003F09D9026842F4A5
:1096D0000062026004E002688B7963F3CB220260CF
:1096E0000268CB7922F0C00203F0030342EA83123E
:1096F000026002680B7A63F3C302026002680B79AE
:1097000091F800E063F3051291F801C0CC78026093
:1097100002684B79BEF1000F63F30A2202604460D5
:10972000826842F0010308BF22F00103836082686F
:10973000BCF1000F42F0020308BF22F00203836075
:1097400089780268002942F4805308BF22F48053CC
:10975000036010BDB2F5003FC2D9026822F4006276
:109760000260BDE74FF2FD20C0F60000432101F08A
:1097700049FF4FF2FD20C0F60000442101F042FFF6
:109780002DE9F041002900F0DC8141F20C08C4F21F
:109790000208D8F83420C2F30742022A19D8B1F9D6
:1097A00006201D2A03DCB1F908201E2A11DBE8A0DF
:1097B00005F06CF8E9A005F0BBFA4FF273304FF2F8
:1097C0007531C0F60000C0F60001BDE8F04105F0BB
:1097D0005DB84D6A42F20C02DCA4C4F202024301FD
:1097E000002DD65818BF2C46257826F0406605F087
:1097F000030546EA8566677894F802C0E478D65097
:10980000D65807F0030726F0405646EA0777D750A8
:10981000D7580CF0010627F0804747EA8677D750E3
:10982000D75827F0004747EAC477D750D7580E7863
:109830004D7866F30517D750D75865F3C307D7504F
:10984000D7588E7866F38617D750D758CE7827F03A
:10985000800706F0010647EAC617D750D7580E7999
:1098600066F30D37D750D7584E7966F38F37D750F8
:10987000D8F8343003F47F03B3F5003F42EA4013D5
:109880000DD944F26432C2F20002126840F2000CB8
:109890009206CFF6F87C1CD44FF0000E37E0CD884E
:1098A0004FF6FF72954207D01F6805F01F0627F498
:1098B000F81747EA06471F600D89954200F0B3800C
:1098C0001A6805F01F0722F0787242EA47521A60C0
:1098D000A9E091F8282091F829E0C2B191F82A2056
:1098E000FF2A45D048F2E474C8F8384002F01F045B
:1098F000012505FA04F4D8F8005004EA0C042C43BE
:10990000C8F800401C6862F314441C602CE0CA884C
:10991000162A0CD848F2E474C8F838400124944060
:10992000D8F8005004EA0C0425EA040414E01D2AC7
:1099300000F29280012505FA02F414F02A5F00F08B
:109940008B8048F2E474C8F8384005FA02F4D8F87D
:10995000005004EA0C042C43C8F800401C6824F4AE
:10996000F81444EA02421A604FF48032C8F83820F2
:10997000BEF1000F1CD091F82B20FF2A53D048F2E3
:10998000E477C8F8387002F01F07012606FA07F7D7
:10999000D8F8006007EA0C073743C8F800701F6862
:1099A00062F359574FF480321F60C8F838203AE00C
:1099B0000A89162A18D848F2E477C8F838700127BF
:1099C0009740D8F8006007EA0C0726EA0707C8F8AE
:1099D00000701F6827F0787747EA42521A604FF408
:1099E0008032C8F838201EE01D2A41D8012505FA2A
:1099F00002F717F02A5F3BD048F2E477C8F83870D6
:109A000005FA02F7D8F8006007EA0C073743C8F8F0
:109A100000701F6827F0787747EA42521A604FF4C7
:109A20008032C8F8382044F2B822C0EBC000C2F23D
:109A3000000201F10C0702EB80008CCF8E6900F16F
:109A4000080C46618CE88C00D1E90712C0E90612C7
:109A500001210171BDE8F08141F21704141B082CAB
:109A600026D848F2E474C8F8384002F01F0255E7DF
:109A700041F21707D71B082F28D848F2E477C8F817
:109A8000387002F01F0201279740D8F8006007EAFB
:109A90000C0726EA0707C8F800701F6827F07877D8
:109AA00047EA42521A604FF48032C8F83820BAE7C9
:109AB00044F21304141B0A2C27D848F2E474C8F8A3
:109AC000384002F01F020124944040E744F213079B
:109AD000D71B0A2F27D848F2E477C8F8387002F06D
:109AE0001F0201279740D8F8006007EA0C073743A8
:109AF000C8F800701F6827F0787747EA42521A606A
:109B00004FF48032C8F838208DE74FF6FF74A24238
:109B10003FF42EAF1C6802F01F0224F4F81444EA4C
:109B200002421A6024E74FF6FF77BA423FF47BAF58
:109B30001F6802F01F0227F0787747EA42521A6046
:109B400071E711A0832101F05DFD00BF000000015D
:109B50005B4540444D41204C4C5D200054686520DD
:109B600068617264776172652076657273696F6E81
:109B7000206E6F20737570706F72742074686973D3
:109B800020656E756D2100002E2E2F2E2E2F2E2E6D
:109B90002F447269766572732F54414533324735CD
:109BA0003878785F4472697665722F5372632F74C8
:109BB0006165333267353878785F6C6C5F646D61EE
:109BC0002E63000070B541F25C05C4F202052A68FC
:109BD0004FF6FF73110C8902B3EB124F08BF4FF41D
:109BE0008021B1F5003F044610D0B1F5802F40F040
:109BF000D08043F20000C4F20200006C00F07061FB
:109C00002020B1F1206F08BF402000E02020A042BA
:109C100040F2BF8000F080FAB8B14FF2AA00C0F65F
:109C2000000004F033FE4FF20610C0F6000005F00D
:109C30007FF84FF273304FF27531C0F60000C0F676
:109C4000000104F023FE012070BD29684FF6FF7269
:109C5000080C8002B2EB114F08BF4FF48020B0F522
:109C6000003F10D0B0F5802F40F09B8043F2000001
:109C7000C4F20200006C00F070612020B1F1206F8E
:109C800008BF402000E02020A04240F28A8000F07F
:109C900043FAC8B14FF2AA00C0F6000004F0F6FD86
:109CA0004FF20610C0F6000005F042F84FF2733094
:109CB0004FF27531C0F60000C0F6000104F0E6FD79
:109CC000002686F0010070BD55F81C0C43F200051B
:109CD00000F47F00B0F5003FC4F202050ED8286CF6
:109CE00000F07060B0F1206F08D1286C00F0704077
:109CF00000F1C040B0FA80F0400900E00020296A7D
:109D000021F4401129622968B1F1FF3F0CDC696A36
:109D100043F6AC7262F30F016962696A48F2E47259
:109D200062F30F0169622968296A002804F03F0084
:109D30006FF312010EBF0843084380F02000286231
:109D40002868012640F002002860012000F056FA41
:109D5000A0B14FF2AA00C0F6000004F097FD15A0D4
:109D6000214604F093FD4FF273304FF27531C0F687
:109D70000000C0F6000104F089FD002628680028D4
:109D800004D4286840F000402860286886F001006C
:109D900070BD4FF20B20C0F600004FF47C7101F053
:109DA00031FC4FF20B20C0F6000040F2B33101F05D
:109DB00029FC00BF536563746F722045726173653F
:109DC000206572726F7220617420536563746F72C4
:109DD000206E756D6265722025752121210A0000B3
:109DE0002DE9F04F81B041F24005C4F20205EB6964
:109DF00016461A0C4FF6FF779202B7EB134F08BFC7
:109E00004FF48022430740F0E3800C46710740F096
:109E1000E780002C00F0EC8020F07F4A924580F033
:109E2000EF800AEB0601914200F2F28030434007D6
:109E300002D04FF00008C7E000F06EF9C0B14FF259
:109E4000AA00C0F6000004F021FD4FF20610C0F693
:109E5000000004F06DFF4FF273304FF27531C0F621
:109E60000000C0F6000104F011FD4FF00008ABE067
:109E7000286843F2000900F47F00B0F5003FC4F207
:109E8000020910D8D9F8400000F07060B0F1206FDE
:109E900009D1D9F8400000F0704000F1C040B0FA9C
:109EA00080F0400900E00020D9F80010B1F1FF3F38
:109EB00011DCD9F8241043F6AC7262F30F01C9F833
:109EC0002410D9F8241048F2E47262F30F01C9F8A3
:109ED0002410D9F800104FF00008B8EBD60F67D067
:109EE0004FF6FF7BF508C0F2070B26F007084FF08E
:109EF000000728B3E059E119C9F8100048680021AB
:109F0000C9F81400D9F820000AEB0706CFF6F8715B
:109F1000084006EA0B01084380F40030C9F820002D
:109F2000D9F8000040F00100C9F80000002000F05E
:109F300065F940BB013D07F10807DBD138E000BF00
:109F4000E059E119C9F8100048680021C9F8140067
:109F5000D9F820000AEB0706CFF6F871084006EAA8
:109F60000B010843C9F82000D9F8000040F00100B7
:109F7000C9F80000002000F041F920B9013D07F1C7
:109F80000807DDD114E04FF2AA00C0F6000004F08B
:109F90007DFC23A0314604F079FC4FF273304FF280
:109FA0007531C0F60000C0F6000104F06FFCB84641
:109FB000D9F80000002807D4D9F8000040F000408C
:109FC000C9F80000D9F80000404601B0BDE8F08FA4
:109FD0004FF20B20C0F6000040F2693101F012FB95
:109FE0004FF20B20C0F6000040F26A3101F00AFB8C
:109FF0004FF20B20C0F6000040F26B3101F002FB83
:10A000004FF20B20C0F600004FF45B7101F0FAFA3A
:10A010004FF20B20C0F6000040F26D3101F0F2FA71
:10A0200050726F6772616D206572726F7220617419
:10A03000206164647265737320307825303878212C
:10A0400021210A002DE9F04141F25C03C4F2020330
:10A050001E684FF6FF75330C9B02B5EB164F08BF19
:10A060004FF4802300293FD020F07F40984243D214
:10A0700086189E4248D85AB300F10068C2F1000C1D
:10A08000A2F1010E002000BF18F800400D5CAC42A8
:10A0900018BFBDE8F081864517D008EB00040D1805
:10A0A00066786F78BE4216D10CEB0006B71C0CD058
:10A0B000A778AB789F4211D1F31C06D0E378EC78F7
:10A0C000A3420ED104308242DED11046BDE8F081B9
:10A0D0000020BDE8F0810130BDE8F0810230BDE82C
:10A0E000F0810330BDE8F0814FF20B20C0F6000094
:10A0F00040F2594101F086FA4FF20B20C0F6000001
:10A1000040F25A4101F07EFA4FF20B20C0F60000F7
:10A1100040F25B4101F076FA80B581B044F6502CF4
:10A12000C2F2000C0020DCF800E08DF8030041F2E0
:10A130004000C4F20200006800F47F00B0F5003F68
:10A1400043F20800C4F2020039D900BF50F8083CBD
:10A1500050F8081CDB4323EA510150F8043C50F846
:10A16000042C994321EA52010268036821EAD201D2
:10A17000DA4301EAD2718DF80310DCF80010A1EB8C
:10A180000E01B1F5967F33D89DF80310C907DDD0D5
:10A190000168490703D1016811F4E06F2BD0072152
:10A1A00001604FF4E0610160012001B080BD00BF9B
:10A1B000DCF80010A1EB0E01B1F5967F18D850F82D
:10A1C000081CC907F4D150F8081C8907F0D450F8CE
:10A1D000041CC907ECD150F8041C89075CBF016856
:10A1E0005FEA0171E4D40168490704D00721DAE786
:10A1F000032001B080BD002001B080BD10B541F248
:10A20000400C44F6502EC4F2020CC2F2000E43F28F
:10A210000801DEF80020DCF80030C4F202010C680E
:10A2200003F47F03B3F5003F04F0070305D94BB1F6
:10A23000072008604FF4E06001E02BB307200860BE
:10A24000012010BD50B1013872E000BF51F8080C78
:10A25000C00700F0978008684007E9D1086810F44B
:10A26000E06FE5D1DEF80000801AB0F5967F00F2CD
:10A270008B80DCF8000000F47F00B0F5003FE5D9EA
:10A2800008680028E2D5E6E750B1013821E000BFB8
:10A2900051F8080CC00700F0758008684007CDD160
:10A2A000DEF80000801AB0F5967F00F26D80DCF8D1
:10A2B000000000F47F00B0F5003FE9D908680028ED
:10A2C000E6D5EAE751F8043C9B075BD50B685B07D2
:10A2D000B4D1DEF800309B1AB3F5967F54D8DCF881
:10A2E000003003F47F03B3F5003F02D90B68002B65
:10A2F000ECD4042846D8DFE800F0080D030404007D
:10A30000E0E70B681B07E1D43CE051F8083C9B07F1
:10A31000DCD437E051F8043CDB07D7D132E051F808
:10A32000043C9B072ED500BF0B685B077FF480AF12
:10A330000B6813F4E06F7FF47BAFDEF800309B1AFC
:10A34000B3F5967F20D8DCF8003003F47F03B3F533
:10A35000003F02D90B68002BE6D4042812D8DFE8AE
:10A3600000F0080D03040400D9E70B681B07DBD4D9
:10A3700008E051F8083C9B07D6D403E051F8043CB0
:10A38000DB07D1D1002010BD032010BD5FEA004CD7
:10A3900000F09480C10745F22001C4F202012AD1E5
:10A3A00082072FD4420734D4020739D4C2063ED4E0
:10A3B000820643D4420648D402064DD4C20552D484
:10A3C000820557D442055CD4020561D4C20466D428
:10A3D00082046BD4400404D548680E2262F31B60EB
:10A3E0004860BCF1000F58BF704748680E2262F306
:10A3F0001F70486070470B680E2262F303030B6006
:10A400008207CFD50A680E2363F307120A6042075A
:10A41000CAD50A680E2363F30B220A600207C5D56A
:10A420000A680E2363F30F320A60C206C0D50A68B9
:10A430000E2363F313420A608206BBD50A680E231B
:10A4400063F317520A604206B6D50A680E2363F317
:10A450001B620A600206B1D50A680E2363F31F72FD
:10A460000A60C205ACD54A680E2363F303024A6052
:10A470008205A7D54A680E2363F307124A60420596
:10A48000A2D54A680E2363F30B224A6002059DD5CC
:10A490004A680E2363F30F324A60C20498D54A68B3
:10A4A0000E2363F313424A60820493D54A680E2355
:10A4B00063F317524A60400493D58DE74FF2C120F1
:10A4C000C0F60000E12101F09DF800002DE9F04FF9
:10A4D00081B00446A0F18040A0F510304FEA303042
:10A4E000062880F0D3808A46002900F0D680DAF86A
:10A4F00000300021B1EB134F40F0C18099B2002928
:10A5000000F0BD80052800F2A08004F1240C04F1C5
:10A51000200B4FF000094FF001084FF0000E00260D
:10A5200008FA06F10B405BD09AF80410481E0F2879
:10A5300060D26046082E38BF5846026809F01C07F2
:10A540000F25BD40B940AA432940114301609AF844
:10A5500008000028A06B14BF40EA030120EA0301B1
:10A56000A1639AF807000028A06C14BF1843984311
:10A57000A064206B9AF80520032102F0030201FA7F
:10A580000EF102FA0EF2884311400843206341F2B3
:10A590004000C4F20200006800F47F00B0F5003F04
:10A5A0001ED944F26430C2F200000068000617D5DC
:10A5B0009AF80930DAF80010D807206C0CBF20EAAE
:10A5C000010840EA0108C4F840809807206C4FF069
:10A5D00001084FEA014154BF88430843206400BF8B
:10A5E0000F2E32D0DAF8003001360EF1020E09F1EA
:10A5F000040995E761BB6046082E38BF5846D0F87D
:10A60000008009F01C010F2202FA01F128EA010181
:10A6100001609AF806104FF001080029A9D0D4F87B
:10A620001480032001F0030100FA0EF001FA0EF18C
:10A6300028EA0008084040EA08006061A361206938
:10A640004FF001081843206193E701B0BDE8F08F97
:10A6500015A004F01BF99AF8043017A021463246E1
:10A6600004F014F94FF273304FF27531C0F6000068
:10A67000C0F6000101B0BDE8F04F04F007B94FF299
:10A68000C120C0F60000482100F0BCFF4FF2C120FD
:10A69000C0F60000462100F0B5FF4FF2C120C0F621
:10A6A0000000472100F0AEFF5B45404750494F2076
:10A6B0004C4C5D20000000004750494F2D5B307826
:10A6C000253038785D2050696E2D5B25645D2061F2
:10A6D0006C7465726E6174652066756E6374696F03
:10A6E0006E205B25645D20636F6E6669672045722E
:10A6F000726F722121210A0070B5002900F0D58007
:10A700004BF2001CC4F2030C0A690CEB00239A63A1
:10A710004A69DA63D3F870E00A7E62F3000EC3F888
:10A7200070E0D3F870E04A7E62F3C30EC3F870E0C5
:10A73000D3F870E08A7E62F3420EC3F870E0D3F87B
:10A7400070E00C7B4EF040024D7B002C08BF2EF0D9
:10A7500040021A671A6F002D42F0200408BF22F051
:10A7600020041C670A6A4BF6047E1A644A6AC4F223
:10A77000030E5A641A6F91F8285065F310421A6755
:10A780001A6F91F8295065F3D3421A671A6F91F83E
:10A790002A5065F352421A67CA7E1D6F002A45F49B
:10A7A000800408BF25F480041C670A7F1C6F002A00
:10A7B00044F4001508BF24F400151D671A6FCC7A05
:10A7C00022F0605204F0070442EAC4621A674C7A2D
:10A7D0001D6F002C45F0804608BF25F080461E679F
:10A7E00003F170020B7A0124002B04FA00F3DEF867
:10A7F00000400CBF24EA03032343CEF800308B7AD9
:10A800001668002B46F0007508BF26F0007515602D
:10A810000CEB0020426F0E7842F001034D788C78EB
:10A8200091F803C0002E08BF22F001034367426F76
:10A83000002D42F0020308BF22F002034367426F7B
:10A84000002C42F0040308BF22F004034367426F68
:10A85000BCF1000F42F0080308BF22F00803436771
:10A860000A79436F002A43F0100608BF23F0100650
:10A8700046674A79436F002A43F0200608BF23F059
:10A88000200646678A79436F002A43F0400608BFD6
:10A8900023F040064667C979426F002942F08003E1
:10A8A00008BF22F08003436770BD4FF24920C0F615
:10A8B00000004FF4CB7100F0A5FE0000B0B50029F8
:10A8C00000F0338109286FD14BF20000C4F203007D
:10A8D000C2688B68520A62F35F23C3604FF6FF734E
:10A8E000C268C8F2000303F1FC4302EA030CCB6820
:10A8F0000022C0F2FF121A406244C26002680B7C60
:10A9000063F30202026002684B7C63F3C3020260DD
:10A910004A790B788261CA884261026822F040421B
:10A9200042EA8372026091F803C00368BCF1000F31
:10A9300043F0100208BF23F01002026091F802C039
:10A940000368BCF1000F43F4806208BF23F4806207
:10A95000026091F801C00368BCF1000F43F400628B
:10A9600008BF23F40062026091F804C0D0F8903F61
:10A97000BCF1000F43F4803208BF23F48032C0F8EA
:10A98000902F0268CB7C22F0C00203F0030342EA5E
:10A99000831202608A7C0168002A14BF41F0200102
:10A9A00021F020010160B0BD082880F0C5804BF285
:10A9B000000CC4F2030C0CEB0023D3F80CE18C6800
:10A9C0004FEADE3262F3DF34C3F80C41D3F80C21D6
:10A9D000CC8964F31E42C3F80C21D3F800210C7C0F
:10A9E00064F30202C3F80021D3F800214C7C64F325
:10A9F000C302C3F800214A7991F803E0C3F8182193
:10AA0000CA88BEF1000FC3F81421D3F8002142F028
:10AA1000100408BF22F01004C3F8004191F802E0CE
:10AA2000D3F80041BEF1000F44F4806208BF24F463
:10AA30008062C3F8002191F801E0D3F80041BEF133
:10AA4000000F44F4006508BF24F40065C3F800510A
:10AA500003F580720B794FF40035002B05FA00F3F3
:10AA6000DCF8905F0CBF25EA03032B43CCF8903F42
:10AA7000D1E906530CEB0020C0F85451C0F858310E
:10AA8000106891F8203063F3492010601068CB7C87
:10AA900020F0C00003F0030340EA83108D7C1060B7
:10AAA0001068002D40F0200308BF20F02003136041
:10AAB000106891F8253020F0704040EA0370106073
:10AAC000106891F8263063F311401060106891F817
:10AAD000273063F39340106091F821001368002839
:10AAE00043F4807508BF23F48075156091F8220047
:10AAF0001368002843F4801508BF23F480151560FF
:10AB000091F823001368002843F4001508BF23F4CC
:10AB10000015156091F824101068002914BF40F446
:10AB2000800020F480001060B0BD4FF24920C0F6D4
:10AB30000000F42100F066FD4FF24920C0F600004D
:10AB400040F6B80100F05EFDB0B5002900F0CD8000
:10AB500009282BD14A884BF20000C4F20300C261DD
:10AB60008A880262CA8842620A898262026891F80F
:10AB700000C042F0007391F80AE0CC7ABCF1000FFB
:10AB800008BF22F0007303600168BEF1000F41F0BE
:10AB9000006208BF21F0006202600168002C14BF4F
:10ABA00041F0806121F080610160B0BD082880F033
:10ABB000A4804BF200034A88C4F2030303EB002095
:10ABC000C0F81C218A88C0F82021CA88C0F8242136
:10ABD0000A89C0F82821D0F800210C7842F00073CF
:10ABE00091F80AC091F80BE00D7B002C08BF22F011
:10ABF0000073C0F80031D0F80021BCF1000F42F022
:10AC0000006308BF22F00063C0F80031D0F80021D3
:10AC1000BEF1000F42F0806308BF22F08063C0F8ED
:10AC20000031D0F80421002D42F4803308BF22F413
:10AC30008033C0F804314A7BD0F80431002A43F451
:10AC4000003508BF23F40035C0F804518A7BD0F8E2
:10AC50000431002A43F4802508BF23F48025C0F87E
:10AC60000451CA7BD0F80431002A43F4002508BF00
:10AC700023F40025C0F804510A7CD0F80431002ADE
:10AC800043F4801508BF23F48015C0F804514A7CB2
:10AC9000D0F80431002A43F4001508BF23F400154E
:10ACA000C0F804518A7CD0F80431002A43F48005AE
:10ACB00008BF23F48005C0F80451CA7CD0F80431E1
:10ACC000002A43F4000508BF23F40005C0F804512E
:10ACD0000A7DD0F8041100F58270002A14BF41F0FB
:10ACE000807121F080710160B0BD4FF24920C0F643
:10ACF00000004FF4847100F085FC4FF24920C0F64B
:10AD0000000040F6221100F07DFC00002DE9F04F1C
:10AD100085B041F26C01C4F2020151F80C0C002222
:10AD2000C4F20202009051F84CEC106848F2E47052
:10AD3000C3F6AC70C2F8800048F2E47041F8280C09
:10AD400048F63D2041F8280C41F6EC1041F8280C5B
:10AD500051F80C0C032340F4005041F80C0C51F84E
:10AD60000C0C4EF6FC5940F4805041F80C0C51F894
:10AD70004C0CCEF2000940F4807041F84C0C51F8B4
:10AD80004C0C41F2002C63F38E2041F84C0CD9F8A6
:10AD90000000D9F8007041F2000347F08077CEF24E
:10ADA0000003C9F8007000275F601C689FEDBF0AB0
:10ADB000C0F27A0C44F001041C6000BF5C680D68AE
:10ADC000664615F5807F3CBF0D682E0A01EE106ABD
:10ADD000B8EE411A21EE001ABCEEC11A11EE105A5B
:10ADE000AC42EBD348F2001448F22135C4F203041C
:10ADF000C0F2800544F8FC5C2B2544F8F85C002583
:10AE000044F8E85C202544F8D85C112544F8C05C7F
:10AE10006FF0FF05665900F0807846F00100605140
:10AE200054F8F00CC0055CBF54F8F00C5FEAC05059
:10AE300007D454F8F00CC00503D454F8F00CC00546
:10AE4000EED56FF0FF00255845F004052550206829
:10AE500040F40030206000BF206880035CBF2068A1
:10AE60005FEA803005D42068800302D42068800324
:10AE7000F2D554F8AC0C2568122645F4003525604F
:10AE800051F84C5C9FED8A0A66F38E2541F84C5CC4
:10AE9000156845F400351560156825F00045156006
:10AEA000156825F440751560156845F00045156076
:10AEB00000255D601D6845F001051D605E680D6838
:10AEC000674615F5807F3CBF0D682F0A01EE107AAA
:10AED000B8EE411A21EE001ABCEEC11A11EE105A5A
:10AEE000AE42EBD354F8AC5C00EBD070A5EB600A3B
:10AEF000BAF1000F48BFCAF1000ACDF804A02568D6
:10AF0000012645F4003525601568401025F0004500
:10AF10001560156866F309251560156845F000454C
:10AF2000156000255D601D6845F001051D6000BFCE
:10AF30005E680D68674615F5807F3CBF0D682F0A77
:10AF400001EE107AB8EE411A21EE001ABCEEC11AD9
:10AF500011EE105AAE42EBD354F8AC5C0226B5EBBE
:10AF6000000B48BFCBF1000BCDF808B0256845F4C5
:10AF700000352560156825F000451560156866F3F5
:10AF800009251560156845F00045156000255D60D0
:10AF90001D6845F001051D605F680D68664615F582
:10AFA000807F3CBF0D682E0A01EE106AB8EE411A90
:10AFB00021EE001ABCEEC11A11EE105AAF42EBD3CB
:10AFC00054F8AC5C2F1A48BF7F420397256845F4BC
:10AFD00000352560156825F000451560156845F4B5
:10AFE00040751560156845F00045156000255D60E9
:10AFF0001D6845F001051D605E680D6815F5807FD0
:10B0000065463CBF0D682D0A01EE105AB8EE411A94
:10B0100021EE001ABCEEC11A11EE105AAE42EBD36B
:10B0200054F8AC6C351A48BF6D4204952068D3457E
:10B0300040F400302060106820F00040106010687C
:10B0400020F400301060186820F001001860D9F872
:10B05000000001AB40EA0800C9F800004FF0000012
:10B0600038BF012053F82060B74238BF022053F8A0
:10B0700020309D426FF0FF03E75838BF032047F0B0
:10B080000107E75041F84CEC009B41F80C3C0123D0
:10B09000C2F880304FF4803241F8282C4FF400324F
:10B0A00041F8282C05B0BDE8F08F00BF51499D3A0A
:10B0B000A69BC43AB0B549F6FF72C4F201029042B1
:10B0C00016DC4DF6FF73C4F20003984226DD4EF203
:10B0D0000003C4F20003984238D048F20003C4F2DF
:10B0E0000103984232D049F20003C4F201032AE07E
:10B0F0004AF6FF73C4F2020398421ADD4BF20003D2
:10B10000C4F20203984221D00023C4F20303984200
:10B110001CD041F20003C4F2030314E048F2000320
:10B12000C4F20003984211D049F20003C4F20003B4
:10B1300009E04AF20003C4F20103984206D04AF241
:10B140000003C4F20203984240F0E780002900F0B7
:10B15000DC80904218DC4DF6FF72C4F2000290428F
:10B160002ADD4EF20002C4F2000290423DD048F2C5
:10B170000002C4F20102904237D049F20002C4F248
:10B180000102904231D023E04AF6FF72C4F202027B
:10B1900090421EDD4BF20002C4F20202904224D023
:10B1A00041F20002C4F2030290421ED00022C4F217
:10B1B0000302904219D00BE048F20002C4F20002F0
:10B1C000904212D049F20002C4F2000290420CD028
:10B1D000B0BD4AF20002C4F20102904205D04AF228
:10B1E0000002C4F202029042F2D14EF2100C41F27F
:10B1F0004002C4F2000CC4F20202ACF11003126867
:10B2000098423BD102F47F02B2F5003F36D9DCF818
:10B2100020204FF6FF7E8B8822EA0E021A4444F665
:10B22000502ECCF82020C2F2000EDEF8002000BF25
:10B23000DCF80030DB0326D5DEF800309B1A0A2B41
:10B24000C6D8DCF80030DB031DD5DEF800309B1AD1
:10B250000A2BBDD8DCF80030DB0314D5DEF8003053
:10B260009B1A0A2BB4D8DCF80030DB030BD5DEF8D0
:10B2700000309B1A0A2B88BFB0BDD9E74A68026329
:10B280000A89826306E0DCF828200B8963F3070251
:10B29000CCF8282002684B7891F800C063F3C30211
:10B2A00091F802E08D7A026042686EF30202426019
:10B2B00002680B7B63F382020260CA7A0368002A89
:10B2C00023F0020408BF43F0020404600268BCF1EA
:10B2D000000F42F0800308BF22F080030360C26ABF
:10B2E00065F30302C2624A7B026402688B7B63F3EC
:10B2F000461202600268CB7B63F3041202600268AC
:10B30000097C61F309220260B0BD4FF23830C0F60B
:10B3100000004FF4817100F075F94FF23830C0F63B
:10B32000000040F2011100F06DF90000FEE700009E
:10B33000704700007047000000F00CF8FCF730FF89
:10B340007047000044F65020C2F20000016801314D
:10B350000160704748F200004EF68851C0F60000C8
:10B36000CEF2000141F8800C41F23000C4F202003C
:10B3700048F2E4724261026822F0020202604FF475
:10B3800080324261086840F4700008607047000035
:10B3900070B543F23804C4F2000454F8040C216878
:10B3A00001EA0005280444BF4FF40040206068040F
:10B3B00044BF4FF480402060A80444BF4FF40050C5
:10B3C0002060E80410D54FF48050206044F644001B
:10B3D000C2F20000C1888288914205D3816819B108
:10B3E0008168A4F138008847280541D54FF40060F2
:10B3F000206054F8280C00073AD044F64406C2F204
:10B400000006307F04282DD1B06988B3306948B375
:10B41000F08AB18A884225D2206810F4E06F73D098
:10B420004FF2D100C0F6000003F030FA60A064A132
:10B4300003F02CFA4FF273304FF27531C0F6000072
:10B44000C0F6000103F022FA54F8040C20F00100C9
:10B4500044F8040C0020B06101203077306B38B123
:10B46000804705E054F8380C40F0080044F8380CE8
:10B47000680544BF4FF480602060A80544BF4FF4C6
:10B4800000702060E80544BF4FF480702060E8063B
:10B4900044BF10202060280744BF082020606807B0
:10B4A00044BF04202060A80709D544F64400C2F236
:10B4B0000000816819B18168A4F138008847E80765
:10B4C00009D044F64400C2F20000816919B18169D3
:10B4D000A4F13800884741F24000C4F2020000683D
:10B4E00000F47F00B0F5403F38BF70BD680644BF30
:10B4F00040202060280644BF80202060E80344BF2D
:10B500004FF48030206070BD6068C0F3C42054F8F0
:10B51000341CC9031FD554F8341C89031BD454F8B8
:10B52000341C01F00301032915D140B3F18AB28A1A
:10B53000914224D254F8141C32696FF35F211180B8
:10B540003169013802313161F18A020601F10101EC
:10B55000F182EBD113E090B1F18AB28A91420ED21E
:10B5600054F8141C3269013811703169020601F176
:10B5700001013161F18A01F10101F182ECD154F84C
:10B58000040C20F0010044F8040C0020B0610120FC
:10B590003077F08AB18A884234BF306B706A00B16C
:10B5A000804754F8040C20F4006044F8040C5FE772
:10B5B0003C25733E206572726F72210A0000000004
:10B5C000554152545F527854696D656F75745F4987
:10B5D00053520000FEE70000704700007047000073
:10B5E0004EF60C50BFF34F8FCEF2000001680422DC
:10B5F00001F4E061C0F2FA5211430160BFF34F8FD2
:10B6000000BFFDE7A0B104460AA00D4603F03EF9D5
:10B610000BA021462A4603F039F94FF273304FF25E
:10B620007531C0F60000C0F6000103F02FF900BF2D
:10B6300000BFFDE75B45404150505D200000000029
:10B64000417373657274206661696C656420696E0C
:10B65000202573206C696E6520256400B0B519B192
:10B66000012904D100226AE00022D0B2B0BD01F06D
:10B67000010CA1EB0C010022072300BF0478D2B219
:10B68000624083EA420490F801E0150658BF540076
:10B6900083EA4402250658BF620083EA4204150685
:10B6A00058BF540083EA4402250658BF620083EA6B
:10B6B0004204150658BF540083EA4402250658BFC9
:10B6C000620083EA4204150658BF540083EA44022C
:10B6D000250658BF6200D2B282EA0E0283EA420512
:10B6E000140658BF550083EA45022C0658BF6A006D
:10B6F00083EA4205140658BF550083EA45022C062A
:10B7000058BF6A0083EA4205140658BF550083EA11
:10B7100045022C0658BF6A0083EA4205140658BF4A
:10B72000550083EA45022C06A1F1020158BF6A00C8
:10B730000D0600F10200A1D1BCF1000F2BD0007862
:10B74000D1B24140072080EA41020B0658BF4A00AF
:10B7500080EA4201130658BF510080EA41020B06FD
:10B7600058BF4A0080EA4201130658BF510080EAE0
:10B7700041020B0658BF4A0080EA4201130658BF37
:10B78000510080EA41030A0658BF4B0080EA430299
:10B79000180658BF5A00D0B2B0BD000044F2F031D4
:10B7A000C2F200010A7820F07F4401320A70D1B25F
:10B7B00041F20402CEF20002126880EA10204840F2
:10B7C0005040010608BF0120C5B2AB2021462A46E1
:10B7D00002F076FE44F65026C2F2000658B9AB20BD
:10B7E00021462A4602F06CFE28B9AB2021462A46A3
:10B7F00002F066FE20B35A2021462A4602F060FE7F
:10B8000058B95A2021462A4602F05AFE28B95A2031
:10B8100021462A4602F054FE90B130683168091A78
:10B820000B290BD23168091A0A2907D83168091A7D
:10B830000A2903D83168091A0B29EFD3FFF7D0FE84
:10B8400044F2F135C2F200054FF6AA7042F230041C
:10B850002880681C0021C4F20204C5F8021002F01E
:10B8600051FDA8715520E8712068C00711D03068DB
:10B870003168091A0229F7D23168091A0129F3D867
:10B880003168091A0129EFD83168091A0229EBD267
:10B89000EEE72068C0070ED10420606044F8105C19
:10B8A00054F8080C082161F30B0044F8080C2068D8
:10B8B00040F00100206030683168091A15291FD254
:10B8C0003168091A14291BD83168091A142917D8A4
:10B8D0003168091A1529EFD312E000BF30683168CA
:10B8E000091A02290CD23168091A012908D83168CD
:10B8F000091A012904D83168091A0229EFD300BFB7
:10B900002068C007EAD12068C0070ED1042060601B
:10B9100044F8105C54F8080C082161F30B0044F85B
:10B92000080C206840F00100206030683168091A76
:10B9300015291FD23168091A14291BD83168091A30
:10B94000142917D83168091A1529EFD312E000BF5E
:10B9500030683168091A02290CD23168091A0129A4
:10B9600008D83168091A012904D83168091A02294E
:10B97000EFD300BF2068C007EAD12068C0070ED10E
:10B980000420606044F8105C54F8080C082161F34E
:10B990000B0044F8080C206840F00100206030687B
:10B9A0003168091A1529BFF438AF3168091A14290A
:10B9B0003FF633AF3168091A14293FF62EAF3168CC
:10B9C000091A1529ECD328E77047000010B50028A4
:10B9D00000F0B780016845F24302C4F6411291427B
:10B9E00040F0AF808188012940F0AB80C1885029A8
:10B9F00040F0A780D0E9121244F64D53C4F24F3301
:10BA00005A4045F24543C4F654135940114340F09F
:10BA10009880C26845F2E501C1F6FF018A424FF005
:10BA2000000100F096804FF6FE73013AC1F6FF73F5
:10BA30009A4200F28E8048F2203E4FF0FF314FF0E4
:10BA4000000C4323CEF6B85EDBB2594001F001038F
:10BA50005B4203EA0E0383EA5103C1F3400149420A
:10BA600001EA0E0181EA5301C3F340035B4203EA9A
:10BA70000E0383EA5103C1F34001494201EA0E017A
:10BA800081EA5301C3F340035B4203EA0E0383EAF6
:10BA90005103C1F34001494201EA0E0181EA530119
:10BAA000C1F34002C3F340035B4203EA0E03524278
:10BAB00083EA510100EB0C0302EA0E025C7882EA91
:10BAC0005101614001F00102524202EA0E0282EA93
:10BAD0005102C1F34001494201EA0E0181EA5201DB
:10BAE000C2F34002524202EA0E0282EA5102C1F35C
:10BAF0004001494201EA0E0181EA5201C2F34002CB
:10BB0000524202EA0E0282EA5102C1F34001494266
:10BB100001EA0E0181EA5201C2F34002524202EAF6
:10BB20000E0282EA5102C1F34001494201EA0E01CC
:10BB3000BCF13E0F81EA520105D09B780CF1020C5A
:10BB400082E7002010BD006C08440130B0FA80F09C
:10BB50004109084610BD0000B4B041F24001C4F2F2
:10BB60000201C86A41F2002810F5807F38BFC86A18
:10BB7000C86AC0F27A08454610F5807F3CBFC86AA3
:10BB8000050A40F2800B48F2E470C4F2020BC3F6DF
:10BB9000AC70CBF800005BF8500C00F003000228FA
:10BBA0000BD15BF8100C40F010004BF8100C5BF858
:10BBB000500C20F003004BF8500C4EF6585149F24F
:10BBC0000059C0F60001C0F6BA29002001F1900228
:10BBD0008DF8800052F8903CAB4203D1002818BF8A
:10BBE00007286CD052F8783CAB4208BF06285BD0DF
:10BBF00052F8603CAB4208BF052857D052F8483C89
:10BC0000AB4208BF042853D052F8303CAB4208BFC7
:10BC100003284FD052F8183CAB4208BF02284BD043
:10BC20001368AB4208BF012848D007301C2802F136
:10BC3000A802CFD141F24000C4F20200C06A10F560
:10BC4000807F0BD241F24000C4F20200C06A0021A2
:10BC5000B1EB102F4FEA102802F00D834046FCF79D
:10BC60005CFD9FED510B02460B4651EC100BFCF7AF
:10BC7000F8FB04460F46FCF75DFD0646FCF74DFD5C
:10BC800002460B4620463946FCF773FB9FED480BF6
:10BC900053EC102BFCF773FBFCF74CFD074601241B
:10BCA0004FF4004A454615E0013008E0023006E056
:10BCB000033004E0043002E0053000E0063000EB21
:10BCC000400001EBC0004169047A468987898803F6
:10BCD0001FFA80FA48F2E470C3F6AC70CBF80000AB
:10BCE0005BF8240C022C20F008004BF8240C5BF8C5
:10BCF000340C20F001004BF8340C5BF8480C20F0B9
:10BD00000C004BF8480C5BF8380C20F0F0004BF8B6
:10BD1000380C5BF8240C40F008004BF8240C5BF85E
:10BD2000340C40F001004BF8340C5BF8140C20F09C
:10BD300008004BF8140C5BF8140C40F008004BF8AA
:10BD4000140C4FF001008DF880005BF8801C21F08E
:10BD500000414BF8801C5BF8101C41F010014BF8BF
:10BD6000101C5BF8801C60F301014BF8801C45D06F
:10BD7000012C13D04FF2C500C0F6000002F086FD82
:10BD80000DA0214602F082FD4FF273304FF2753163
:10BD9000C0F60000C0F6000102F078FD5BF8800CF0
:10BDA000012120F400602EE0000000002A75A5416A
:10BDB000000000000000F040504C4C3020507265F4
:10BDC0002D44697620436F6E6669672D5B25645D3F
:10BDD000204572726F722C2073657420746F20641A
:10BDE000656661756C742031206469766973696F6A
:10BDF0006E210A00AA55AA55AA55AA555BF8800CCF
:10BE0000022140F400604BF8800C5BF8800CB5FB1D
:10BE1000F1F141F6003320F48062C0F2B703994299
:10BE200088BF40F480624BF8802C5BF87C0C6FF389
:10BE30009F366FF31D4040EA06404BF87C0C5BF8E0
:10BE40007C0C4FF6FF71884338444BF87C0C5BF850
:10BE5000800C20F4404040EA0A004BF8800CFEF7CA
:10BE600055FF48F2E471C3F6AC71CBF800109DF8B1
:10BE70008010B9B15BF8141C21F008014BF8141CB8
:10BE80005BF8141C41F008014BF8141C5BF8241CEF
:10BE900021F008014BF8241C5BF8341C21F001014F
:10BEA0004BF8341C5BF8801C60F309214BF8801CB4
:10BEB0005BF8800C40F000404BF8800C5BF8800C85
:10BEC00040000CD45BF8800C40005CBF5BF8800C39
:10BED0005FEA400003D45BF8800C4000EED548F2E6
:10BEE000E4770120C3F6AC77CBF80000CBF8007004
:10BEF0005BF8502C022161F301024BF8502C5BF8E7
:10BF0000502C052360F30B224BF8502C5BF8502C7F
:10BF100060F30F324BF8502C5BF8502C22F0FC02EF
:10BF20004BF8502C5BF8502C42F480324BF8502CDC
:10BF30005BF8502C42F400324BF8502C5BF8502C3C
:10BF400042F480224BF8502C5BF8502C42F4002233
:10BF50004BF8502C44F20002C2F20002CBF8000071
:10BF6000C2F80090CBF800705BF8482C60F38302B5
:10BF70004BF8482C5BF8382C63F307124BF8382C3D
:10BF8000CBF80000CBF800705BF8482C60F3871208
:10BF90004BF8482C5BF8380C61F30F304BF8380C39
:10BFA00043F200080120C4F20208CBF80000D8F8E0
:10BFB00000104EF60C5A41F01001C8F80010D8F8E5
:10BFC0000010CEF2000A41F02001C8F80010DAF8A3
:10BFD00000104FF6FF02114040F20032C0F2FA5258
:10BFE0001143CAF8001044F20001C2F200010968CE
:10BFF00044F6D352C1F26202A1FB02124FF0FF31AC
:10C0000001EB92130022B2EB136F21D14EF2001715
:10C01000CEF2000747F8EC3CF0238AF817300723EC
:10C0200047F8E82C47F8F03CDAF80030C3F3022375
:10C0300083F00707042F28BF0427033B38BF1346AC
:10C04000B9400F2222EA0101994009018AF817102C
:10C0500048F2E472C3F6AC72CBF800205BF8281CFF
:10C0600044F2040441F004014BF8281C5BF8181C4E
:10C07000C2F2000441F004014BF8181CCBF8000098
:10C08000CBF800205BF8281C41F008014BF8281C75
:10C090005BF8181C41F008014BF8181CCBF80000A5
:10C0A000CBF800205BF8281C41F010014BF8281C4D
:10C0B0005BF8181C41F010014BF8181CCBF800007D
:10C0C000CBF800205BF8281C41F020014BF8281C1D
:10C0D0005BF8181C41F020014BF8181CCBF800004D
:10C0E000CBF800205BF8281C41F040014BF8281CDD
:10C0F0005BF8181C41F040014BF8181CCBF800000D
:10C10000CBF800205BF8281C41F080014BF8281C7C
:10C110005BF8181C41F080014BF8181CCBF80000AC
:10C12000CBF800205BF8281C41F001014BF8281CDB
:10C130005BF8181C41F001014BF8181CCBF800000B
:10C14000CBF800205BF8281C602241F002014BF87C
:10C15000281C5BF8181C41F002014BF8181C4FF228
:10C160000001CBF80000C0F601012046FCF788FA78
:10C17000AFF2803120460822FCF71CF844F6F01498
:10C1800000250028C2F20004C4F2C82557D00027B9
:10C190000026C4F2DC27C4F27026C4E90876012721
:10C1A00084F828700027C4F24027C4E90B770027E1
:10C1B0000021C4F2483746F26662C4E91111C4E9AD
:10C1C000157545F2AA570020C4F266224FF07C563E
:10C1D000C5F2AA57C4F22C200023E665C4E9007713
:10C1E000C4E9022104F11002C4F290130BC244F21C
:10C1F000B810E161C2F2000021466022FCF740FA6B
:10C200001F20FDF7DFFCD0B94EF20000C0F60100A0
:10C2100000F5805544F2B811C2F2000128464FF4EF
:10C220008072FDF7DDFDB0F5807F08D144F2B811D2
:10C23000C2F2000128464FF48072FDF703FF4FF26F
:10C240000001C0F6010120466022FCF719FA44F211
:10C25000FC3504F11007606CC2F20005D4E902C19C
:10C260008CCF04F11C0EC5F83C0305F58C709EE8DC
:10C270004042C5E944C18CC094F82800C5E9496929
:10C2800085F84801206BA16C04F154078CCFC5F8E8
:10C29000D800C5F8A800C5F8E41005F5617020AC19
:10C2A0004EF20001C5F82CE18CC0C0F60101204619
:10C2B0005022FCF7E5F92046FFF788FB02AD4EF26D
:10C2C00000010446C0F6030128465022FCF7D8F9C5
:10C2D0002846FFF77BFB44F28835002CC2F20005AC
:10C2E00008BF00280BD040B1002C00F0D580229868
:10C2F0000499401A002840F3CF8020A9CDE048F2ED
:10C30000203745F2430905F110004021CEF6B85719
:10C31000C4F64119FCF7DBF940F2010AC0F2500AF9
:10C3200001204AF65521C5E9009AC5E902016FF0DE
:10C33000604068610020FF21052205F1200307C34A
:10C340004FF0FF32432100BFC9B2514001F001025A
:10C3500052423A4082EA5102C1F340014942394017
:10C3600081EA5201C2F3400252423A4082EA51024B
:10C37000C1F340014942394081EA5201C2F340020F
:10C3800052423A4082EA5102C1F3400149423940E7
:10C3900081EA5201C1F34003C2F3400252423A40E3
:10C3A0005B4282EA510229183B404E7883EA5202EE
:10C3B000724002F001035B423B4083EA5203C2F346
:10C3C000400252423A4082EA5302C3F340035B42C6
:10C3D0003B4083EA5203C2F3400252423A4082EAAF
:10C3E0005302C3F340035B423B4083EA5203C2F370
:10C3F000400252423A4082EA5302C3F340035B4296
:10C400003B4083EA5203C2F3400252423A403E2884
:10C4100082EA530202D08978023095E7D04328643B
:10C4200044F64D5045F24541C4F24F30C4F6541124
:10C43000C5E912104EF2000520ACC0F60105CDE9A9
:10C440001A10204629465022FCF71AF92046FFF719
:10C45000BDFA02AE4EF200010446C0F603013046BA
:10C460005022FCF70DF93046FFF7B0FA002C08BF58
:10C47000002808D0C8B1D4B1229E0498311A0029EE
:10C48000D8BF064615E04EF2000444F28835C0F6E7
:10C490000104C2F2000524E002A944F28830C2F28D
:10C4A00000005022FCF7ECF8E9E0229E01E004983D
:10C4B000064620AC204629465022FCF7E1F82046EB
:10C4C000FFF784FA22992C46B14208BF04F50034E4
:10C4D000002808BF2C4644F28835701CC2F20005C3
:10C4E000A860C5E9009A4EF60C5A4FF0FF320020C2
:10C4F0004321CEF2000AC5E9122200BFC9B2514061
:10C5000001F0010252423A4082EA5102C1F3400175
:10C510004942394081EA5201C2F3400252423A4054
:10C5200082EA5102C1F340014942394081EA520195
:10C53000C2F3400252423A4082EA5102C1F3400142
:10C540004942394081EA5201C1F34003C2F340023B
:10C5500052423A405B4282EA510229183B404E78EF
:10C5600083EA5202724002F001035B423B4083EADD
:10C570005203C2F3400252423A4082EA5302C3F3EA
:10C5800040035B423B4083EA5203C2F34002524203
:10C590003A4082EA5302C3F340035B423B4083EAE2
:10C5A0005203C2F3400252423A4082EA5302C3F3BA
:10C5B00040035B423B4083EA5203C2F340025242D3
:10C5C0003A403E2882EA530202D08978023095E749
:10C5D000D043286441F24000C4F20200C1694FF622
:10C5E000FF72080C8002B2EB114F08BF4FF480209D
:10C5F000B0F5003F09D0B0F5802F40D1D8F8400009
:10C6000000F07060B0F1206F39D104F17840000B78
:10C61000FDF7D8FA98BB44F28831C2F200012046F7
:10C620004822FDF7DDFB482829D144F28831C2F2C7
:10C63000000120464822FDF705FD48281FD144F09F
:10C6400048051AA928460822FDF7CAFB082816D172
:10C650001AA928460822FDF7F5FC08280FD120ADBD
:10C66000284621465022FCF70BF82846FFF7AEF982
:10C6700028B144F28830C2F2000020A911E7DAF8AC
:10C68000F00048F2000440F08070CAF8F00041F277
:10C690000000CEF200004FF0000AC0F804A00168CC
:10C6A000C4F2030441F0010101604FF0807020905A
:10C6B0004FF0010840F2011520A92046CDE9228A59
:10C6C0008DF862A0CDE902AACDE904AACDE91AAAA3
:10C6D0002195FCF709FC15208DF8650018A9204666
:10C6E000ADF860A0ADF86350FCF75AFE4FF48070CF
:10C6F00016AD1690204629468DF85C80FCF77AFD31
:10C7000040F20110C0F20010029040F21800C2F294
:10C7100001000490022002AEADF81400204631461C
:10C720008DF80C804FF00209FCF728FBF620C1F2CF
:10C7300054601AAF1B9020463946ADF868808DF8DA
:10C740006AA0FCF75FFA40F20140169020462946A5
:10C750008DF85C80FCF74EFD40F20410C0F2001032
:10C76000029040F20800C2F20100049020463146D7
:10C770008DF80C80ADF814900225FCF7FFFA4FF409
:10C780000170ADF868004FF000501B90204639460C
:10C790008DF86AA04FF00059FCF734FA40F200100F
:10C7A000C0F20110CDF882004FF4807004F580666D
:10C7B000ADF88700304620A98DF886A08DF889A0B5
:10C7C000FCF792FB40F20110ADF8630015208DF8E4
:10C7D0006500304618A9ADF860A0FCF7E1FD4FF404
:10C7E000406016AF1690304639468DF85C80FCF7F5
:10C7F00001FD40F20C10C0F20010029040F2100057
:10C80000C2F20100ADF8145002AD04903046294642
:10C810008DF80C80FCF7B2FA4FF48670CDF86C906E
:10C820000DF16809ADF86800304649468DF86AA0F8
:10C83000FCF7E8F940F201201690304639468DF8B1
:10C840005C80FCF7D7FC40F20210C0F200100290AE
:10C8500040F20000C2F2010004900227304629464F
:10C860008DF80C80ADF81470FCF788FA4FF000508A
:10C870001B9030464946ADF8687002278DF86AA0D3
:10C88000FCF7C0F940F20010C0F2011004F5006698
:10C89000CDF882004FF48075304620A98DF886A02F
:10C8A000ADF887508DF889A0FCF71EFB15208DF898
:10C8B0006500304618A9ADF860A0ADF863504FF49C
:10C8C0008074FCF76DFD304616A916948DF85C80D7
:10C8D000FCF790FC40F20110C0F20010029040F210
:10C8E0002000C2F201000490304602A98DF80C80AD
:10C8F000ADF81470FCF742FA4FF000501B90304630
:10C900004946ADF868808DF86AA0FCF77BF94BF6D4
:10C910000871C4F203018F62C1F82CA051F8040C15
:10C9200068F3134041F8040C51F8080C20F470200F
:10C9300041F8080C886D20F01F00886548F2E4700B
:10C94000C3F6AC70CBF800005BF8240C40F4007028
:10C950004BF8240C5BF8240C40F480604BF8240C5A
:10C960005BF8240C40F400604BF8240C5BF8240CBA
:10C9700040F480504BF8240C5BF8240C40F4005039
:10C980004BF8240C5BF8240C40F480404BF8240C4A
:10C990005BF8240C40F400404BF8240C5BF8240CAA
:10C9A00040F480304BF8240C5BF8340C40F010005D
:10C9B0004BF8340C5BF8340C40F020004BF8340C8E
:10C9C0005BF8340C40F040004BF8340C5BF8340C4E
:10C9D00040F080004BF8340C5BF8340C40F480706D
:10C9E0004BF8340C5BF8340C40F400704BF8340C0A
:10C9F0005BF8340C40F480604BF8340C5BF8340C7A
:10CA000040F400604BF8340C5BF8140C40F040002C
:10CA10004BF8140C4FF48050CBF80080FDF7B6FCB7
:10CA20004FF40050FDF7B2FC4FF48040FDF7AEFC30
:10CA30004FF40040FDF7AAFC4EF200114FF0004009
:10CA4000CEF2000148604EF60C50CEF200000068B5
:10CA50004EF21940CEF2000080F826A044F2A070F9
:10CA6000C2F2000080F8008044F2AC70C2F2000014
:10CA700080F8008044F2F070C2F2000042F2240517
:10CA800044F2F8710560C2F2000140F6224044F21F
:10CA9000FC720860C2F2000241F24401116044F6E7
:10CAA0000002C2F2000241F63441116044F6040271
:10CAB000C2F2000244F608031560C2F200034FF40C
:10CAC00016721A6044F60C02C2F20002106044F6BC
:10CAD0001002C2F2000241F26A20106044F6140013
:10CAE00044F2A47744F2A876C2F2000044F2F4794A
:10CAF00020ACC2F20007C2F200060160C2F20009D7
:10CB000020462C2187F8008086F8008089F8008074
:10CB1000CDE902AACDE904AACDE906AACDE91AAA6F
:10CB2000CDE91CAACDF878A0ADF87CA0FBF7CFFD2D
:10CB300040F20110ADF80E500690202002AD089092
:10CB4000092029468DF80DA0CDF810A0ADF809A058
:10CB50008DF80BA0CDF824A0CDE90AAAFDF7AEFE12
:10CB600002202946FDF7AAFE03202946FDF7A6FE6E
:10CB700039784FF47A708DF86880ADF86A00002932
:10CB800018BF40F20441327844F2AC73C2F20003A1
:10CB9000ADF86C10002A18BF40F609021B784BF262
:10CBA0000407C4F20307ADF86E20002B18BF41F252
:10CBB0001203ADF87030B861F9613A627B624BF2F2
:10CBC0000007C4F2030738681AAD40F000703860FF
:10CBD00038689DF8722040F000619DF87330002A9B
:10CBE00008BF20F0006139603868002B40F0806198
:10CBF00008BF20F08061396099F8000044F2F871B4
:10CC0000C2F20001002818BF32200968ADF86A009E
:10CC1000ADF86C1044F2FC7044F60001C2F2000062
:10CC2000C2F2000100680968ADF86E00ADF870103E
:10CC30008DF868808DF874804BF6087802202946BC
:10CC4000C4F20308FDF780FF44F6080044F60C0127
:10CC5000C2F20000C2F2000100680968ADF86A0083
:10CC6000ADF86C1044F6100044F61401C2F2000056
:10CC7000C2F2000100680968ADF86E00ADF87010EE
:10CC800003202946FDF760FF40F6040025900820A8
:10CC90000221289040F6100024918DF89A1002216C
:10CCA000C0F2400029908DF8AA1003202146ADF86B
:10CCB00098A0ADF8A8A0CDF888A0FDF71DFD022032
:10CCC0002146FDF719FD41F24001C4F20201086856
:10CCD000D8F82000012220F04040C8F82000086861
:10CCE000D8F8181000F47F0062F30101B0F5003F9E
:10CCF000C8F8181005D9D8F8640020F00300C8F867
:10CD00006400D8F81800052120F00400C8F81800C5
:10CD1000D8F8200020F00F00C8F82000D8F818003C
:10CD200020F01800C8F81800D8F8180040F02000CB
:10CD3000C8F81800D8F8700020F04040C8F870001B
:10CD4000D8F80C0040F00100C8F80C00D8F80C002E
:10CD500020F40040C8F80C00D8F8680062F3934053
:10CD6000C8F86800D8F8680020F40030C8F86800F7
:10CD7000D8F8700061F31340C8F87000D8F880004C
:10CD80004BF2040120F47020C8F88000D8F8780035
:10CD9000C4F2030120F40020C8F87800D8F80C0091
:10CDA00040F02000C8F80C00D8F8680040F480304B
:10CDB000C8F86800D8F8780020F40030C8F8780087
:10CDC000D8F8780020F48030C8F87800D1F87003E3
:10CDD00040F01000C1F87003D1F8700440F010006A
:10CDE000C1F8700444F65020C2F200000168D8F87F
:10CDF000002042F00102C8F80020D8F80020D20735
:10CE00001BD00268521A652A17D2D8F80020D20720
:10CE100013D00268521A642A0FD8D8F80020D2071B
:10CE20000BD00268521A642A07D8D8F80020D2071B
:10CE300003D00268521A642ADFD90168D8F80020AA
:10CE400042F00802C8F80020D8F8002012071BD5CD
:10CE50000268521A652A17D2D8F80020120713D593
:10CE60000268521A642A0FD8D8F8002012070BD58E
:10CE70000268521A642A07D8D8F80020120703D58E
:10CE80000268521A642ADFD90168D8F8002042F0FB
:10CE90001002C8F80020D8F80020D2061BD502687E
:10CEA000521A652A17D2D8F80020D20613D5026884
:10CEB000521A642A0FD8D8F80020D2060BD502687F
:10CEC000521A642A07D8D8F80020D20603D502687F
:10CED000521A642ADFD94FF001090020C8F82890BF
:10CEE000C8F82C0058F8040C4BF2000A69F3134000
:10CEF00048F8040C58F8080CC4F2030A20F4702017
:10CF000048F8080CD8F8580044F2000520F01F003B
:10CF1000C8F85800D8F80000C4F2020540F001003B
:10CF2000C8F80000DAF80000002140F08060CAF87C
:10CF30000000D8F8600005F5005440F00100C8F882
:10CF40006000D8F8600020AF40F00800C8F860002A
:10CF50000120C0F2001021904FF480408DF888101D
:10CF6000209020463946FDF7B1FA4FF4004020905A
:10CF700028463946FDF7AAFA4FF4006005F5805AB5
:10CF8000209050463946FDF7A1FA4FF480662846B6
:10CF900039462096FDF79AFA4FF40070ADF88400F8
:10CFA00020463946CDF88090FDF790FA5046394634
:10CFB000CDF88090FDF78AFA8020209028463946E7
:10CFC000FDF784FA504639462096FDF77FFA102087
:10CFD0002090504639468DF88590CDF804A0FDF795
:10CFE00075FA00208DF885004FF4005020902046FF
:10CFF0003946FDF76BFA4FF4004020902046394641
:10D00000FDF764FA41F2400548F63D20C4F20205FE
:10D01000686041F6EC106860286A4BF2000640F444
:10D02000805028624FF40030686048F2E475C3F61F
:10D03000AC75CBF800505BF8240CC4F2030640F04A
:10D0400080004BF8240C5BF8140C20AC40F010006E
:10D050004BF8140C49F20000CBF80090C4F2030026
:10D06000D0F8001121F00101C0F80011D0F8001132
:10D0700021F00801C0F80011D0F8001121F00401DE
:10D08000C0F80011D0F8001121F00201C0F8001121
:10D09000CBF800505BF8241C41F080014BF8241CB5
:10D0A0005BF8141C41F010014BF8141CCBF80090F5
:10D0B000016821F001010160016821F008010160AF
:10D0C000016821F004010160016821F002010160A2
:10D0D00040F60E61C0F8041140F61B714160D0F8B3
:10D0E000001141F00101C0F80011016841F0010197
:10D0F000016040F201100021ADF8800040F2031001
:10D100008DF88910CDF882108DF88610ADF8870063
:10D11000A6F570602146FCF79DFAC8208DF88300C3
:10D120000320ADF88700A6F560602146FCF792FA6F
:10D130004FF20020CFF6FF7031584EF60C5A41F0F6
:10D1400001013150CBF800505BF8280CCEF2000AF8
:10D1500040F480704BF8280C5BF8180C042740F45E
:10D1600080704BF8180CCBF80090CBF800505BF8AF
:10D17000300C4FF0FF3340F040004BF8300C5BF8C0
:10D18000200C022440F040004BF8200CCBF800901B
:10D19000CBF800505BF8300C002640F080004BF8D4
:10D1A000300C5BF8200C524640F080004BF8200C0D
:10D1B000CBF80090CBF800505BF8240C4FF0000C3B
:10D1C00040F001004BF8240C5BF8140C964640F03C
:10D1D00001004BF8140CCBF80090CBF800505BF832
:10D1E000240C40F002004BF8240C5BF8140C40F0C7
:10D1F00002004BF8140CCBF80090DAF80000C0F3F2
:10D20000022080F00701042928BF3946033803FAB9
:10D2100001F138BF304624EA010101FA00F04EF274
:10D2200019410001CEF200014870DAF800000C4606
:10D23000C0F3022080F007014FF0FF33042928BF1C
:10D240003946033803FA01F138BF304629EA0101B3
:10D2500001FA00F000014EF2001A20704FF0007049
:10D26000CEF2000ACAF800004FF08060CAF8000051
:10D27000CBF800505BF8280C4FF0FF3340F480707F
:10D280004BF8280C5BF8180C022640F480704BF821
:10D29000180CCBF80090CBF800505BF8300C40F045
:10D2A00040004BF8300C5BF8200C40F040004BF88D
:10D2B000200CCBF80090CBF800505BF8300C40F01D
:10D2C00080004BF8300C5BF8200C40F080004BF8ED
:10D2D000200CCBF80090CBF800505BF8240C40F009
:10D2E00001004BF8240C5BF8140C40F001004BF8E3
:10D2F000140CCBF80090CBF800505BF8240C40F0F5
:10D3000002004BF8240C5BF8140C40F002004BF8C0
:10D31000140CCBF800901068C0F3022080F00701D5
:10D32000042928BF3946033803FA01F138BF6046A3
:10D3300026EA010101FA00F00001607010684FF068
:10D340000072C0F3022080F00701042928BF39468B
:10D35000033803FA01F138BF604629EA010101FAF6
:10D3600000F000012070CAF800204FF08063CAF876
:10D370000030CBF800505BF8280C4FF0FF3440F43D
:10D3800080704BF8280C5BF8180C40F480704BF858
:10D39000180CCBF80090CBF800505BF8300C40F044
:10D3A00040004BF8300C5BF8200C40F040004BF88C
:10D3B000200CCBF80090CBF800505BF8300C40F01C
:10D3C00080004BF8300C5BF8200C40F080004BF8EC
:10D3D000200CCBF80090CBF800505BF8240C40F008
:10D3E00001004BF8240C5BF8140C40F001004BF8E2
:10D3F000140CCBF80090CBF800505BF8240C40F0F4
:10D4000002004BF8240C5BF8140C40F002004BF8BF
:10D41000140CCBF80090DEF80000C0F3022080F07E
:10D420000701042928BF3946033804FA01F138BF3F
:10D43000604626EA010101FA00F04EF219460001A9
:10D44000CEF200067070DEF80000C0F3022080F01B
:10D450000701042928BF3946033804FA01F138BF0F
:10D46000604629EA010101FA00F000013070CAF8B3
:10D470000020CAF800300021632048F20006249101
:10D48000CDE922192190082020ACC4F20006ADF8A5
:10D4900088008DF88B1030462146CDF88090FDF73E
:10D4A00009FE40F2000AC4F2030A50462146FDF785
:10D4B00001FE40F2E730219049F20000C4F2000082
:10D4C0002146FDF7F7FD706802A940F00100706089
:10D4D000DAF8040040F00100CAF804000320C0F2AA
:10D4E0000010039000208DF8100044F20000C4F2F8
:10D4F00002000297FCF7EAFFCBF800505BF8280C1B
:10D500004EF60C5340F480704BF8280C5BF8180C66
:10D51000CEF2000340F480704BF8180CCBF800906A
:10D52000CBF800505BF8300C4FF0FF3640F0400075
:10D530004BF8300C5BF8200C022240F040004BF816
:10D54000200CCBF80090CBF800505BF8300C4AF27E
:10D55000240440F080004BF8300C5BF8200CC4F23F
:10D56000020440F080004BF8200CCBF80090CBF880
:10D5700000505BF8240C40F001004BF8240C5BF8E1
:10D58000140C40F001004BF8140CCBF80090CBF8D1
:10D5900000505BF8240C002540F002004BF8240CEE
:10D5A0005BF8140C40F002004BF8140CCBF8009020
:10D5B0001868C0F3022080F00701042928BF39460B
:10D5C000033806FA01F138BF284622EA010101FAC0
:10D5D00000F04EF219420001CEF2000250701868BD
:10D5E000C0F3022080F00701042938BF0F4603383A
:10D5F00006FA07F138BF284629EA010101FA00F0CE
:10D60000000110704EF20010CEF200004FF00071D9
:10D6100001604FF080610160002141F2931024917C
:10D62000CDE922112190ADF888108DF88B10A4F16E
:10D63000240020A9CDF880900025FDF73BFD41F2A4
:10D640004000C4F20200006854F8040C062169F39B
:10D65000934044F8040C6420606354F8040C2246A0
:10D6600061F3175044F8040C54F8040C20F44030D3
:10D6700044F8040CA06820F48060A060206840F4A6
:10D6800080702060206820F400702060206820F402
:10D6900080602060206820F40060206054F8200C36
:10D6A00020F4805044F8200C54F8200C20F4005052
:10D6B00044F8200CA06820F0F000A06044F6440478
:10D6C0000495CDE90255C2F20004207B18B9207FF1
:10D6D000002800F0C1814FF2D100C0F6000001F037
:10D6E000D5F843F20005C4F200050FF6CC30294608
:10D6F00001F0CCF84FF273304FF27531C0F60000F4
:10D70000C0F6000101F0C2F84EF60C5ACEF2000A43
:10D7100028690C2161F307102861286920AC20F0EA
:10D720000F002861286842F20C0640F04000286093
:10D7300028682C2140F0200028602046C4F2020610
:10D74000FAF7C5FF40F20210C0F201002090072056
:10D75000CFF6FF700027CDF8860000202146ADF8F7
:10D760008470FCF70DF841F2400105F12400C4F289
:10D770000201C1F8C00F3068432120F040603060E2
:10D7800044F64A10C2F2000046F8080C3068A94678
:10D7900020F04050306056F8040C44F2B82561F394
:10D7A0000B0046F8040CC2F200052878297900F035
:10D7B0000102114304BF40F001002870706820ACE2
:10D7C00040F00100706020462C21FAF780FF012014
:10D7D000C0F2001020904FF6FF70ADF886000620D2
:10D7E000ADF8880001202146ADF88470FBF7C8FF32
:10D7F000287895F8201000F00202114304BF40F091
:10D8000002002870306A042720F04060306209F17D
:10D810002000B061306A4FF0FF3220F0405030629B
:10D82000D9F83400022420F00100C9F83400DAF8F5
:10D830000000D146C0F3022080F00701042928BF70
:10D840003946033802FA01F14FF0000A38BF50465A
:10D8500024EA010101FA00F04EF219410001CEF272
:10D86000000145F2000501F8160C20A84021C4F281
:10D870000105CDE902AACDE904AACDF818A0CDF89A
:10D880001BA0FAF724FF2020CDE9210A01208DF802
:10D8900090004FF420202590FF204FF430218DF888
:10D8A0008CA026908DF89CA08DF8A040CDE9291081
:10D8B00003208DF8B0004AF655208DF8ACA0CDE9D4
:10D8C0002D0A8DF8BCA0CDE9310A2C982F99309003
:10D8D00044F28830C2F20000C0688DF8C07044F293
:10D8E000101733913190C2F2000797F8540097F85F
:10D8F0005C10084397F86C10C0B2084397F87C108E
:10D9000097F88C200843104315D04FF2B900C0F6A9
:10D91000000000F0BBFF0FF6C410294600F0B6FF70
:10D920004FF273304FF27531C0F60000C0F60001BF
:10D9300000F0ACFFFBE287F8544087F85C4087F8C2
:10D940006C4087F87C4087F88C40019E4FF48070D3
:10D950001AAC1A904F464FF00A0930462146CDF8CE
:10D960006DA08DF86C90FCF7B1FD4FF400701A902B
:10D97000304621468DF86C90FCF7A8FD48F2E47023
:10D98000C3F6AC70CBF800005BF82C0C4FF001092B
:10D9900040F020004BF82C0C5BF8340C042240F4CF
:10D9A00080404BF8340C5BF81C0C4FF0FF3340F018
:10D9B00020004BF81C0CCBF80090386841F2400472
:10D9C000C0F3022080F00701042928BF1146033864
:10D9D00003FA01F138BF504622EA010101FA00F0D2
:10D9E0004EF219410001CEF2000101F80E0C286838
:10D9F000C4F2020440F010002860286A00F470307D
:10DA00002862206800F47F00B0F5003F40F27C817E
:10DA100044F26430C2F200000068800740F1748173
:10DA20006868022161F317506860686861F31B60E1
:10DA30006860686861F31F7068602868C00600F15C
:10DA4000F1804FF2B900C0F6000000F01FFF4FF266
:10DA50009810C0F60000F4E043F20005C4F200059F
:10DA600028684FF0000920F0010028600220207390
:10DA700020774FF4C060209044F20000082620A9CF
:10DA8000C4F20200CDF885908DF88460FCF71EFD8D
:10DA900048F2E470C3F6AC70CBF800005BF8300CD1
:10DAA0004EF2001140F008004BF8300C5BF8200CEF
:10DAB000CEF2000140F008004BF8200C0120CBF81A
:10DAC00000000E604EF60C5ACEF2000ADAF8001092
:10DAD0000423C1F3022181F00702042A28BF1A4659
